{
  "contractName": "DRCWalletStorage",
  "abi": [
    {
      "constant": false,
      "inputs": [
        {
          "name": "_token",
          "type": "address"
        },
        {
          "name": "_to",
          "type": "address"
        },
        {
          "name": "_value",
          "type": "uint256"
        }
      ],
      "name": "withdrawToken",
      "outputs": [
        {
          "name": "",
          "type": "bool"
        }
      ],
      "payable": false,
      "stateMutability": "nonpayable",
      "type": "function"
    },
    {
      "constant": false,
      "inputs": [],
      "name": "claimOwnership",
      "outputs": [],
      "payable": false,
      "stateMutability": "nonpayable",
      "type": "function"
    },
    {
      "constant": false,
      "inputs": [],
      "name": "renounceOwnership",
      "outputs": [],
      "payable": false,
      "stateMutability": "nonpayable",
      "type": "function"
    },
    {
      "constant": true,
      "inputs": [
        {
          "name": "",
          "type": "address"
        }
      ],
      "name": "walletDeposits",
      "outputs": [
        {
          "name": "",
          "type": "address"
        }
      ],
      "payable": false,
      "stateMutability": "view",
      "type": "function"
    },
    {
      "constant": true,
      "inputs": [],
      "name": "owner",
      "outputs": [
        {
          "name": "",
          "type": "address"
        }
      ],
      "payable": false,
      "stateMutability": "view",
      "type": "function"
    },
    {
      "constant": true,
      "inputs": [],
      "name": "size",
      "outputs": [
        {
          "name": "",
          "type": "uint256"
        }
      ],
      "payable": false,
      "stateMutability": "view",
      "type": "function"
    },
    {
      "constant": true,
      "inputs": [
        {
          "name": "",
          "type": "address"
        }
      ],
      "name": "frozenDeposits",
      "outputs": [
        {
          "name": "",
          "type": "bool"
        }
      ],
      "payable": false,
      "stateMutability": "view",
      "type": "function"
    },
    {
      "constant": true,
      "inputs": [],
      "name": "pendingOwner",
      "outputs": [
        {
          "name": "",
          "type": "address"
        }
      ],
      "payable": false,
      "stateMutability": "view",
      "type": "function"
    },
    {
      "constant": false,
      "inputs": [
        {
          "name": "newOwner",
          "type": "address"
        }
      ],
      "name": "transferOwnership",
      "outputs": [],
      "payable": false,
      "stateMutability": "nonpayable",
      "type": "function"
    },
    {
      "constant": false,
      "inputs": [
        {
          "name": "_to",
          "type": "address"
        },
        {
          "name": "_amount",
          "type": "uint256"
        }
      ],
      "name": "withdraw",
      "outputs": [
        {
          "name": "",
          "type": "bool"
        }
      ],
      "payable": false,
      "stateMutability": "nonpayable",
      "type": "function"
    },
    {
      "payable": true,
      "stateMutability": "payable",
      "type": "fallback"
    },
    {
      "anonymous": false,
      "inputs": [
        {
          "indexed": false,
          "name": "_from",
          "type": "address"
        },
        {
          "indexed": false,
          "name": "_value",
          "type": "uint256"
        }
      ],
      "name": "ReceiveEther",
      "type": "event"
    },
    {
      "anonymous": false,
      "inputs": [
        {
          "indexed": false,
          "name": "_to",
          "type": "address"
        },
        {
          "indexed": false,
          "name": "_value",
          "type": "uint256"
        }
      ],
      "name": "WithdrawEther",
      "type": "event"
    },
    {
      "anonymous": false,
      "inputs": [
        {
          "indexed": false,
          "name": "_token",
          "type": "address"
        },
        {
          "indexed": false,
          "name": "_to",
          "type": "address"
        },
        {
          "indexed": false,
          "name": "_value",
          "type": "uint256"
        }
      ],
      "name": "WithdrawToken",
      "type": "event"
    },
    {
      "anonymous": false,
      "inputs": [
        {
          "indexed": true,
          "name": "previousOwner",
          "type": "address"
        }
      ],
      "name": "OwnershipRenounced",
      "type": "event"
    },
    {
      "anonymous": false,
      "inputs": [
        {
          "indexed": true,
          "name": "previousOwner",
          "type": "address"
        },
        {
          "indexed": true,
          "name": "newOwner",
          "type": "address"
        }
      ],
      "name": "OwnershipTransferred",
      "type": "event"
    },
    {
      "constant": false,
      "inputs": [
        {
          "name": "_wallet",
          "type": "address"
        },
        {
          "name": "_depositAddr",
          "type": "address"
        }
      ],
      "name": "addDeposit",
      "outputs": [
        {
          "name": "",
          "type": "bool"
        }
      ],
      "payable": false,
      "stateMutability": "nonpayable",
      "type": "function"
    },
    {
      "constant": false,
      "inputs": [
        {
          "name": "_depositAddr",
          "type": "address"
        }
      ],
      "name": "removeDeposit",
      "outputs": [
        {
          "name": "",
          "type": "bool"
        }
      ],
      "payable": false,
      "stateMutability": "nonpayable",
      "type": "function"
    },
    {
      "constant": false,
      "inputs": [
        {
          "name": "_deposit",
          "type": "address"
        },
        {
          "name": "_name",
          "type": "bytes32"
        },
        {
          "name": "_withdraw",
          "type": "address"
        }
      ],
      "name": "addWithdraw",
      "outputs": [
        {
          "name": "",
          "type": "bool"
        }
      ],
      "payable": false,
      "stateMutability": "nonpayable",
      "type": "function"
    },
    {
      "constant": false,
      "inputs": [
        {
          "name": "_deposit",
          "type": "address"
        },
        {
          "name": "_value",
          "type": "uint256"
        }
      ],
      "name": "increaseBalance",
      "outputs": [
        {
          "name": "",
          "type": "bool"
        }
      ],
      "payable": false,
      "stateMutability": "nonpayable",
      "type": "function"
    },
    {
      "constant": false,
      "inputs": [
        {
          "name": "_deposit",
          "type": "address"
        },
        {
          "name": "_value",
          "type": "uint256"
        }
      ],
      "name": "decreaseBalance",
      "outputs": [
        {
          "name": "",
          "type": "bool"
        }
      ],
      "payable": false,
      "stateMutability": "nonpayable",
      "type": "function"
    },
    {
      "constant": false,
      "inputs": [
        {
          "name": "_oldWallet",
          "type": "address"
        },
        {
          "name": "_newWallet",
          "type": "address"
        }
      ],
      "name": "changeDefaultWallet",
      "outputs": [
        {
          "name": "",
          "type": "bool"
        }
      ],
      "payable": false,
      "stateMutability": "nonpayable",
      "type": "function"
    },
    {
      "constant": false,
      "inputs": [
        {
          "name": "_deposit",
          "type": "address"
        },
        {
          "name": "_newName",
          "type": "bytes32"
        },
        {
          "name": "_wallet",
          "type": "address"
        }
      ],
      "name": "changeWalletName",
      "outputs": [
        {
          "name": "",
          "type": "bool"
        }
      ],
      "payable": false,
      "stateMutability": "nonpayable",
      "type": "function"
    },
    {
      "constant": false,
      "inputs": [
        {
          "name": "_deposit",
          "type": "address"
        },
        {
          "name": "_freeze",
          "type": "bool"
        },
        {
          "name": "_value",
          "type": "uint256"
        }
      ],
      "name": "freezeTokens",
      "outputs": [
        {
          "name": "",
          "type": "bool"
        }
      ],
      "payable": false,
      "stateMutability": "nonpayable",
      "type": "function"
    },
    {
      "constant": true,
      "inputs": [
        {
          "name": "_deposit",
          "type": "address"
        },
        {
          "name": "_ind",
          "type": "uint256"
        }
      ],
      "name": "wallet",
      "outputs": [
        {
          "name": "",
          "type": "address"
        }
      ],
      "payable": false,
      "stateMutability": "view",
      "type": "function"
    },
    {
      "constant": true,
      "inputs": [
        {
          "name": "_deposit",
          "type": "address"
        },
        {
          "name": "_ind",
          "type": "uint256"
        }
      ],
      "name": "walletName",
      "outputs": [
        {
          "name": "",
          "type": "bytes32"
        }
      ],
      "payable": false,
      "stateMutability": "view",
      "type": "function"
    },
    {
      "constant": true,
      "inputs": [
        {
          "name": "_deposit",
          "type": "address"
        }
      ],
      "name": "walletsNumber",
      "outputs": [
        {
          "name": "",
          "type": "uint256"
        }
      ],
      "payable": false,
      "stateMutability": "view",
      "type": "function"
    },
    {
      "constant": true,
      "inputs": [
        {
          "name": "_deposit",
          "type": "address"
        }
      ],
      "name": "isExisted",
      "outputs": [
        {
          "name": "",
          "type": "bool"
        }
      ],
      "payable": false,
      "stateMutability": "view",
      "type": "function"
    },
    {
      "constant": true,
      "inputs": [
        {
          "name": "_deposit",
          "type": "address"
        }
      ],
      "name": "balanceOf",
      "outputs": [
        {
          "name": "",
          "type": "int256"
        }
      ],
      "payable": false,
      "stateMutability": "view",
      "type": "function"
    },
    {
      "constant": true,
      "inputs": [
        {
          "name": "_deposit",
          "type": "address"
        }
      ],
      "name": "frozenAmount",
      "outputs": [
        {
          "name": "",
          "type": "uint256"
        }
      ],
      "payable": false,
      "stateMutability": "view",
      "type": "function"
    },
    {
      "constant": true,
      "inputs": [
        {
          "name": "_ind",
          "type": "uint256"
        }
      ],
      "name": "depositAddressByIndex",
      "outputs": [
        {
          "name": "",
          "type": "address"
        }
      ],
      "payable": false,
      "stateMutability": "view",
      "type": "function"
    }
  ],
  "bytecode": "0x608060405260008054600160a060020a031916331790556112e9806100256000396000f3006080604052600436106101485763ffffffff7c010000000000000000000000000000000000000000000000000000000060003504166301e3366781146101845780630a633e09146101c257806322e113a3146101e35780632f1c563e1461020c578063437ec21d146102335780634e71e0c8146102735780635b86f5991461028a57806370a08231146102ae578063715018a6146102e1578063789d68c0146102f657806379b6fead1461030e57806384062bdd1461032f57806386602c841461035a5780638da5cb5b1461037b578063949d225d14610390578063aaad0c84146103a5578063b714a90d146103c6578063bf403204146103e7578063dd513e3c1461040e578063e30c39781461042f578063e31dd89614610444578063f19ae02a1461046f578063f2fde38b14610493578063f3fef3a3146104b4578063ff056949146104d8575b6040805133815234602082015281517ff32a9f77675fd5917534c7746608fd3e309eac68fbdcbf5925e24ca97a704396929181900390910190a1005b34801561019057600080fd5b506101ae600160a060020a03600435811690602435166044356104fc565b604080519115158252519081900360200190f35b3480156101ce57600080fd5b506101ae600160a060020a036004351661062e565b3480156101ef57600080fd5b506101ae600160a060020a03600435166024351515604435610749565b34801561021857600080fd5b506101ae600160a060020a0360043581169060243516610856565b34801561023f57600080fd5b50610257600160a060020a03600435166024356109a3565b60408051600160a060020a039092168252519081900360200190f35b34801561027f57600080fd5b50610288610a0b565b005b34801561029657600080fd5b506101ae600160a060020a0360043516602435610a86565b3480156102ba57600080fd5b506102cf600160a060020a0360043516610add565b60408051918252519081900360200190f35b3480156102ed57600080fd5b50610288610b10565b34801561030257600080fd5b50610257600435610b6f565b34801561031a57600080fd5b50610257600160a060020a0360043516610b9b565b34801561033b57600080fd5b506101ae600160a060020a036004358116906024359060443516610bb6565b34801561036657600080fd5b506102cf600160a060020a0360043516610c50565b34801561038757600080fd5b50610257610c86565b34801561039c57600080fd5b506102cf610c95565b3480156103b157600080fd5b506101ae600160a060020a0360043516610c9b565b3480156103d257600080fd5b506102cf600160a060020a0360043516610cae565b3480156103f357600080fd5b506101ae600160a060020a0360043581169060243516610ce7565b34801561041a57600080fd5b506101ae600160a060020a0360043516610dd3565b34801561043b57600080fd5b50610257610de8565b34801561045057600080fd5b506101ae600160a060020a036004358116906024359060443516610df7565b34801561047b57600080fd5b506102cf600160a060020a0360043516602435610edc565b34801561049f57600080fd5b50610288600160a060020a0360043516610f3a565b3480156104c057600080fd5b506101ae600160a060020a0360043516602435610f73565b3480156104e457600080fd5b506101ae600160a060020a0360043516602435611024565b600080548190600160a060020a0316331461051657600080fd5b600160a060020a038416151561052b57600080fd5b600160a060020a038516151561054057600080fd5b50604080517fa9059cbb000000000000000000000000000000000000000000000000000000008152600160a060020a038581166004830152602482018590529151869283169163a9059cbb9160448083019260209291908290030181600087803b1580156105ad57600080fd5b505af11580156105c1573d6000803e3d6000fd5b505050506040513d60208110156105d757600080fd5b505060408051600160a060020a0380881682528616602082015280820185905290517f037238854fe57fbf51f09946f854fc3916fe83938d6521f09bd05463839f13049181900360600190a1506001949350505050565b600061063861120c565b600054600160a060020a0316331461064f57600080fd5b61065883610c9b565b151561066357600080fd5b600160a060020a03831660009081526002602081905260408220018054909190811061068b57fe5b60009182526020808320604080518082018252600294850290920180548352600190810154600160a060020a039081168486018190528752600385528287208054600160a060020a031916905589168652928490528420848155918201849055935091906106fb90830182611223565b5050600160a060020a0383166000908152600460205260409020805460ff191690556107268361107c565b5060065461073b90600163ffffffff6111e716565b600655600191505b50919050565b60008054819081908190600160a060020a0316331461076757600080fd5b600160a060020a038716151561077c57600080fd5b505050600160a060020a0384166000908152600460209081526040808320805460ff1916871515179055600290915281206001810154905490918282039081126107c657806107c9565b60005b9050851561080e57808511156107dd578094505b6107ed838663ffffffff6111f916565b600160a060020a038816600090815260026020526040902060010155610847565b8285111561081a578294505b61082a838663ffffffff6111e716565b600160a060020a0388166000908152600260205260409020600101555b600193505b5050509392505050565b600080548190600160a060020a0316331461087057600080fd5b600160a060020a038416151561088557600080fd5b600160a060020a038316151561089a57600080fd5b50600160a060020a0380841660008181526003602090815260408083208054868916600160a060020a03199182168117909255818552600280855283862084518086019095527f64656661756c742077616c6c65740000000000000000000000000000000000008552848601978852808201805460018181018355828a52888a2097519185029097019081559851988601805499909a169884169890981790985590935283865594810183905560058054808301825593527f036b6384b5eca791c62761152d0c79bb0604c104a5fb6f4eb0703f3154bb3db090920180549091169093179092556006549091610996919063ffffffff6111f916565b6006555060019392505050565b600080600160a060020a03841615156109bb57600080fd5b50600160a060020a03831660009081526002602081905260409091200180548190849081106109e657fe5b6000918252602090912060029091020160010154600160a060020a0316949350505050565b600154600160a060020a03163314610a2257600080fd5b60015460008054604051600160a060020a0393841693909116917f8be0079c531659141344cd1fd0a4f28419497f9722a3daafe3b4186f6b6457e091a36001805460008054600160a060020a0319908116600160a060020a03841617909155169055565b600080548190600160a060020a03163314610aa057600080fd5b6000610aab85610cae565b11610ab557600080fd5b5050600160a060020a0391909116600090815260026020526040902080549091019055600190565b6000600160a060020a0382161515610af457600080fd5b50600160a060020a031660009081526002602052604090205490565b600054600160a060020a03163314610b2757600080fd5b60008054604051600160a060020a03909116917ff8df31144d9c2f0f6b59d69b8b98abd5459d07f2742c4df920b25aae33c6482091a260008054600160a060020a0319169055565b6000600582815481101515610b8057fe5b600091825260209091200154600160a060020a031692915050565b600360205260009081526040902054600160a060020a031681565b600080548190600160a060020a03163314610bd057600080fd5b600160a060020a0385161515610be557600080fd5b5050600160a060020a0392831660009081526002602081815260408084208151808301909252958152938616848201908152948201805460018082018355918552919093209351910290920191825591519082018054600160a060020a031916919093161790915590565b6000600160a060020a0382161515610c6757600080fd5b50600160a060020a031660009081526002602052604090206001015490565b600054600160a060020a031681565b60065481565b600080610ca783610cae565b1192915050565b600080600160a060020a0383161515610cc657600080fd5b5050600160a060020a03166000908152600260208190526040909120015490565b6000805481908190600160a060020a03163314610d0357600080fd5b600160a060020a0385161515610d1857600080fd5b600160a060020a0384161515610d2d57600080fd5b5050600160a060020a03808416600090815260036020908152604080832054909316808352600291829052928220018054909185918391908110610d6d57fe5b60009182526020808320600160029093020182018054600160a060020a03958616600160a060020a031991821617909155888516845260039091526040808420805488871690841617905593891683529290912080549092169091559250505092915050565b60046020526000908152604090205460ff1681565b600154600160a060020a031681565b60008054819081908190600160a060020a03163314610e1557600080fd5b600160a060020a0387161515610e2a57600080fd5b600160a060020a0385161515610e3f57600080fd5b610e4887610cae565b9250600191505b82821015610ecf57600160a060020a038716600090815260026020819052604090912001805483908110610e7f57fe5b60009182526020909120600160029092020190810154909150600160a060020a0386811691161415610eb7578581556001935061084c565b610ec882600163ffffffff6111f916565b9150610e4f565b5060009695505050505050565b600080600160a060020a0384161515610ef457600080fd5b50600160a060020a0383166000908152600260208190526040909120018054819084908110610f1f57fe5b90600052602060002090600202016000015491505092915050565b600054600160a060020a03163314610f5157600080fd5b60018054600160a060020a031916600160a060020a0392909216919091179055565b60008054600160a060020a03163314610f8b57600080fd5b600160a060020a0383161515610fa057600080fd5b604051600160a060020a0384169083156108fc029084906000818181858888f19350505050158015610fd6573d6000803e3d6000fd5b5060408051600160a060020a03851681526020810184905281517fdb35132c111efe920cede025e819975671cfd1b8fcc1174762c8670c4e94c211929181900390910190a150600192915050565b600080548190600160a060020a0316331461103e57600080fd5b600061104985610cae565b1161105357600080fd5b5050600160a060020a039190911660009081526002602052604090208054919091039055600190565b6000805b6005548110156110db5782600160a060020a03166005828154811015156110a357fe5b600091825260209091200154600160a060020a031614156110c3576110db565b6110d481600163ffffffff6111f916565b9050611080565b60055481106110ed5760009150610743565b60055461110190600163ffffffff6111e716565b81101561118657600561111b82600163ffffffff6111f916565b8154811061112557fe5b60009182526020909120015460058054600160a060020a03909216918390811061114b57fe5b60009182526020909120018054600160a060020a031916600160a060020a039290921691909117905561117f8160016111f9565b90506110ed565b6005805461119b90600163ffffffff6111e716565b815481106111a557fe5b60009182526020909120018054600160a060020a03191690556005546111d290600163ffffffff6111e716565b6111dd600582611247565b5060019392505050565b6000828211156111f357fe5b50900390565b8181018281101561120657fe5b92915050565b604080518082019091526000808252602082015290565b50805460008255600202906000526020600020908101906112449190611270565b50565b81548183558181111561126b5760008381526020902061126b9181019083016112a3565b505050565b6112a091905b8082111561129c5760008155600181018054600160a060020a0319169055600201611276565b5090565b90565b6112a091905b8082111561129c57600081556001016112a95600a165627a7a72305820efd4c60d17ce4b3f5dc76829fa1de26d0f5577a7376bee3bee12c1ed2f3e4a150029",
  "source": "pragma solidity ^0.4.23;\r\n\r\n\r\nimport 'openzeppelin-solidity/contracts/math/SafeMath.sol';\r\nimport 'openzeppelin-solidity/contracts/ownership/Claimable.sol';\r\nimport './Withdrawable.sol';\r\n\r\n\r\n/**\r\n * contract that manage the wallet operations on DRC platform\r\n */\r\ncontract DRCWalletStorage is Withdrawable, Claimable {\r\n    using SafeMath for uint256;\r\n    \r\n    /**\r\n     * withdraw wallet description\r\n     */\r\n    struct WithdrawWallet {\r\n        bytes32 name;\r\n        address walletAddr;\r\n    }\r\n\r\n    /**\r\n     * Deposit data storage\r\n     */\r\n    struct DepositRepository {\r\n        int256 balance; // can be negative\r\n        uint256 frozen;\r\n        WithdrawWallet[] withdrawWallets;\r\n        // mapping (bytes32 => address) withdrawWallets;\r\n    }\r\n\r\n    mapping (address => DepositRepository) depositRepos;\r\n    mapping (address => address) public walletDeposits;\r\n    mapping (address => bool) public frozenDeposits;\r\n    address[] depositAddresses;\r\n    uint256 public size;\r\n\r\n    \r\n    /**\r\n\t * @dev add deposit contract address for the default withdraw wallet\r\n     *\r\n     * @param _wallet the default withdraw wallet address\r\n     * @param _depositAddr the corresponding deposit address to the default wallet\r\n\t */\r\n    function addDeposit(address _wallet, address _depositAddr) onlyOwner public returns (bool) {\r\n        require(_wallet != address(0));\r\n        require(_depositAddr != address(0));\r\n        \r\n        walletDeposits[_wallet] = _depositAddr;\r\n        WithdrawWallet[] storage withdrawWalletList = depositRepos[_depositAddr].withdrawWallets;\r\n        withdrawWalletList.push(WithdrawWallet(\"default wallet\", _wallet));\r\n        depositRepos[_depositAddr].balance = 0;\r\n        depositRepos[_depositAddr].frozen = 0;\r\n        depositAddresses.push(_depositAddr);\r\n\r\n        size = size.add(1);\r\n        return true;\r\n    }\r\n\r\n    /**\r\n     * @dev remove an address from the deposit address list\r\n     *\r\n     * @param _deposit the deposit address in the list\r\n     */\r\n    function removeDepositAddress(address _deposit) internal returns (bool) {\r\n        uint i = 0; \r\n        for (;i < depositAddresses.length; i = i.add(1)) {\r\n            if (depositAddresses[i] == _deposit) {\r\n                break;\r\n            }\r\n        }\r\n\r\n        if (i >= depositAddresses.length) {\r\n            return false;\r\n        }\r\n\r\n        while (i < depositAddresses.length.sub(1)) {\r\n            depositAddresses[i] = depositAddresses[i.add(1)];\r\n            i = i.add(1);\r\n        }\r\n        \r\n        delete depositAddresses[depositAddresses.length.sub(1)];\r\n        depositAddresses.length = depositAddresses.length.sub(1);\r\n        return true;\r\n    }\r\n    \r\n    /**\r\n\t * @dev remove deposit contract address from storage\r\n     *\r\n     * @param _depositAddr the corresponding deposit address \r\n\t */\r\n    function removeDeposit(address _depositAddr) onlyOwner public returns (bool) {\r\n        require(isExisted(_depositAddr));\r\n\r\n        WithdrawWallet memory withdraw = depositRepos[_depositAddr].withdrawWallets[0];\r\n        delete walletDeposits[withdraw.walletAddr];\r\n        delete depositRepos[_depositAddr];\r\n        delete frozenDeposits[_depositAddr];\r\n        removeDepositAddress(_depositAddr);\r\n        \r\n        size = size.sub(1);\r\n        return true;\r\n    }\r\n\r\n    /**\r\n\t * @dev add withdraw address for one deposit addresss\r\n     *\r\n     * @param _deposit the corresponding deposit address \r\n     * @param _name the new withdraw wallet name\r\n     * @param _withdraw the new withdraw wallet address\r\n\t */\r\n    function addWithdraw(address _deposit, bytes32 _name, address _withdraw) onlyOwner public returns (bool) {\r\n        require(_deposit != address(0));\r\n\r\n        WithdrawWallet[] storage withdrawWalletList = depositRepos[_deposit].withdrawWallets;\r\n        withdrawWalletList.push(WithdrawWallet(_name, _withdraw));\r\n        return true;\r\n    }\r\n\r\n    /**\r\n\t * @dev increase balance of this deposit address\r\n     *\r\n     * @param _deposit the corresponding deposit address \r\n     * @param _value the amount that the balance will be increased\r\n\t */\r\n    function increaseBalance(address _deposit, uint256 _value) onlyOwner public returns (bool) {\r\n        // require(_deposit != address(0));\r\n        require (walletsNumber(_deposit) > 0);\r\n        int256 _balance = depositRepos[_deposit].balance;\r\n        depositRepos[_deposit].balance = _balance + int256(_value);\r\n        return true;\r\n    }\r\n\r\n    /**\r\n\t * @dev decrease balance of this deposit address\r\n     *\r\n     * @param _deposit the corresponding deposit address \r\n     * @param _value the amount that the balance will be decreased\r\n\t */\r\n    function decreaseBalance(address _deposit, uint256 _value) onlyOwner public returns (bool) {\r\n        // require(_deposit != address(0));\r\n        require (walletsNumber(_deposit) > 0);\r\n        int256 _balance = depositRepos[_deposit].balance;\r\n        depositRepos[_deposit].balance = _balance - int256(_value);\r\n        return true;\r\n    }\r\n\r\n    /**\r\n\t * @dev change the default withdraw wallet address binding to the deposit contract address\r\n     *\r\n     * @param _oldWallet the old default withdraw wallet\r\n     * @param _newWallet the new default withdraw wallet\r\n\t */\r\n    function changeDefaultWallet(address _oldWallet, address _newWallet) onlyOwner public returns (bool) {\r\n        require(_oldWallet != address(0));\r\n        require(_newWallet != address(0));\r\n\r\n        address _deposit = walletDeposits[_oldWallet];      \r\n        WithdrawWallet[] storage withdrawWalletList = depositRepos[_deposit].withdrawWallets;\r\n        withdrawWalletList[0].walletAddr = _newWallet;\r\n        // emit ChangeDefaultWallet(_oldWallet, _newWallet);\r\n        walletDeposits[_newWallet] = _deposit;\r\n        delete walletDeposits[_oldWallet];\r\n\r\n        return true;\r\n    }\r\n\r\n    /**\r\n\t * @dev change the name of the withdraw wallet address of the deposit contract address\r\n     *\r\n     * @param _deposit the deposit address\r\n     * @param _newName the wallet name\r\n     * @param _wallet the withdraw wallet\r\n\t */\r\n    function changeWalletName(address _deposit, bytes32 _newName, address _wallet) onlyOwner public returns (bool) {\r\n        require(_deposit != address(0));\r\n        require(_wallet != address(0));\r\n      \r\n        uint len = walletsNumber(_deposit);\r\n        // default wallet name do not change\r\n        for (uint i = 1; i < len; i = i.add(1)) {\r\n            WithdrawWallet storage wallet = depositRepos[_deposit].withdrawWallets[i];            \r\n            if (_wallet == wallet.walletAddr) {\r\n                wallet.name = _newName;\r\n                return true;\r\n            }\r\n        }\r\n\r\n        return false;\r\n    }\r\n\r\n    /**\r\n\t * @dev freeze the tokens in the deposit address\r\n     *\r\n     * @param _deposit the deposit address\r\n     * @param _freeze to freeze or release\r\n     * @param _value the amount of tokens need to be frozen\r\n\t */\r\n    function freezeTokens(address _deposit, bool _freeze, uint256 _value) onlyOwner public returns (bool) {\r\n        require(_deposit != address(0));\r\n        // require(_value <= balanceOf(_deposit));\r\n        \r\n        frozenDeposits[_deposit] = _freeze;\r\n        uint256 _frozen = depositRepos[_deposit].frozen;\r\n        int256 _balance = depositRepos[_deposit].balance;\r\n        int256 freezeAble = _balance - int256(_frozen);\r\n        freezeAble = freezeAble < 0 ? 0 : freezeAble;\r\n        if (_freeze) {\r\n            if (_value > uint256(freezeAble)) {\r\n                _value = uint256(freezeAble);\r\n            }\r\n            depositRepos[_deposit].frozen = _frozen.add(_value);\r\n        } else {\r\n            if (_value > _frozen) {\r\n                _value = _frozen;\r\n            }\r\n            depositRepos[_deposit].frozen = _frozen.sub(_value);\r\n        }\r\n\r\n        return true;\r\n    }\r\n\r\n    /**\r\n\t * @dev get the wallet address for the deposit address\r\n     *\r\n     * @param _deposit the deposit address\r\n     * @param _ind the wallet index in the list\r\n\t */\r\n    function wallet(address _deposit, uint256 _ind) public view returns (address) {\r\n        require(_deposit != address(0));\r\n\r\n        WithdrawWallet[] storage withdrawWalletList = depositRepos[_deposit].withdrawWallets;\r\n        return withdrawWalletList[_ind].walletAddr;\r\n    }\r\n\r\n    /**\r\n\t * @dev get the wallet name for the deposit address\r\n     *\r\n     * @param _deposit the deposit address\r\n     * @param _ind the wallet index in the list\r\n\t */\r\n    function walletName(address _deposit, uint256 _ind) public view returns (bytes32) {\r\n        require(_deposit != address(0));\r\n\r\n        WithdrawWallet[] storage withdrawWalletList = depositRepos[_deposit].withdrawWallets;\r\n        return withdrawWalletList[_ind].name;\r\n    }\r\n\r\n    /**\r\n\t * @dev get the wallet name for the deposit address\r\n     *\r\n     * @param _deposit the deposit address\r\n\t */\r\n    function walletsNumber(address _deposit) public view returns (uint256) {\r\n        require(_deposit != address(0));\r\n\r\n        WithdrawWallet[] storage withdrawWalletList = depositRepos[_deposit].withdrawWallets;\r\n        return withdrawWalletList.length;\r\n    }\r\n\r\n    /**\r\n\t * @dev get the balance of the deposit account\r\n     *\r\n     * @param _deposit the wallet address\r\n\t */\r\n    function isExisted(address _deposit) public view returns (bool) {\r\n        return (walletsNumber(_deposit) > 0);\r\n    }\r\n\r\n    /**\r\n\t * @dev get the balance of the deposit account\r\n     *\r\n     * @param _deposit the deposit address\r\n\t */\r\n    function balanceOf(address _deposit) public view returns (int256) {\r\n        require(_deposit != address(0));\r\n        return depositRepos[_deposit].balance;\r\n    }\r\n\r\n    /**\r\n\t * @dev get the frozen amount of the deposit address\r\n     *\r\n     * @param _deposit the deposit address\r\n\t */\r\n    function frozenAmount(address _deposit) public view returns (uint256) {\r\n        require(_deposit != address(0));\r\n        return depositRepos[_deposit].frozen;\r\n    }\r\n\r\n    /**\r\n\t * @dev get the deposit address by index\r\n     *\r\n     * @param _ind the deposit address index\r\n\t */\r\n    function depositAddressByIndex(uint256 _ind) public view returns (address) {\r\n        return depositAddresses[_ind];\r\n    }\r\n}",
  "sourcePath": "E:\\workspace\\Dapp\\DRCWalletManager\\contracts\\DRCWalletStorage.sol",
  "compiler": {
    "name": "solc",
    "version": "0.4.24+commit.e67f0147.Emscripten.clang"
  },
  "schemaVersion": "2.0.1",
  "updatedAt": "2018-08-30T10:25:29.506Z"
}