{
  "contractName": "DRCWalletMgrParams",
  "abi": [
    {
      "constant": true,
      "inputs": [],
      "name": "singleWithdrawMin",
      "outputs": [
        {
          "name": "",
          "type": "uint256"
        }
      ],
      "payable": false,
      "stateMutability": "view",
      "type": "function"
    },
    {
      "constant": false,
      "inputs": [
        {
          "name": "_congress",
          "type": "address"
        }
      ],
      "name": "initialCongress",
      "outputs": [],
      "payable": false,
      "stateMutability": "nonpayable",
      "type": "function"
    },
    {
      "constant": false,
      "inputs": [],
      "name": "claimOwnership",
      "outputs": [],
      "payable": false,
      "stateMutability": "nonpayable",
      "type": "function"
    },
    {
      "constant": true,
      "inputs": [],
      "name": "dayWithdraw",
      "outputs": [
        {
          "name": "",
          "type": "uint256"
        }
      ],
      "payable": false,
      "stateMutability": "view",
      "type": "function"
    },
    {
      "constant": false,
      "inputs": [
        {
          "name": "_congress",
          "type": "address"
        }
      ],
      "name": "changeCongress",
      "outputs": [],
      "payable": false,
      "stateMutability": "nonpayable",
      "type": "function"
    },
    {
      "constant": false,
      "inputs": [],
      "name": "renounceOwnership",
      "outputs": [],
      "payable": false,
      "stateMutability": "nonpayable",
      "type": "function"
    },
    {
      "constant": true,
      "inputs": [],
      "name": "singleWithdrawMax",
      "outputs": [
        {
          "name": "",
          "type": "uint256"
        }
      ],
      "payable": false,
      "stateMutability": "view",
      "type": "function"
    },
    {
      "constant": true,
      "inputs": [],
      "name": "chargeFee",
      "outputs": [
        {
          "name": "",
          "type": "uint256"
        }
      ],
      "payable": false,
      "stateMutability": "view",
      "type": "function"
    },
    {
      "constant": false,
      "inputs": [],
      "name": "destroy",
      "outputs": [],
      "payable": false,
      "stateMutability": "nonpayable",
      "type": "function"
    },
    {
      "constant": true,
      "inputs": [],
      "name": "congress",
      "outputs": [
        {
          "name": "",
          "type": "address"
        }
      ],
      "payable": false,
      "stateMutability": "view",
      "type": "function"
    },
    {
      "constant": true,
      "inputs": [],
      "name": "owner",
      "outputs": [
        {
          "name": "",
          "type": "address"
        }
      ],
      "payable": false,
      "stateMutability": "view",
      "type": "function"
    },
    {
      "constant": true,
      "inputs": [],
      "name": "monthWithdraw",
      "outputs": [
        {
          "name": "",
          "type": "uint256"
        }
      ],
      "payable": false,
      "stateMutability": "view",
      "type": "function"
    },
    {
      "constant": true,
      "inputs": [],
      "name": "chargeFeePool",
      "outputs": [
        {
          "name": "",
          "type": "address"
        }
      ],
      "payable": false,
      "stateMutability": "view",
      "type": "function"
    },
    {
      "constant": true,
      "inputs": [],
      "name": "pendingOwner",
      "outputs": [
        {
          "name": "",
          "type": "address"
        }
      ],
      "payable": false,
      "stateMutability": "view",
      "type": "function"
    },
    {
      "constant": true,
      "inputs": [],
      "name": "dayWithdrawCount",
      "outputs": [
        {
          "name": "",
          "type": "uint256"
        }
      ],
      "payable": false,
      "stateMutability": "view",
      "type": "function"
    },
    {
      "constant": false,
      "inputs": [
        {
          "name": "newOwner",
          "type": "address"
        }
      ],
      "name": "transferOwnership",
      "outputs": [],
      "payable": false,
      "stateMutability": "nonpayable",
      "type": "function"
    },
    {
      "constant": false,
      "inputs": [
        {
          "name": "_recipient",
          "type": "address"
        }
      ],
      "name": "destroyAndSend",
      "outputs": [],
      "payable": false,
      "stateMutability": "nonpayable",
      "type": "function"
    },
    {
      "anonymous": false,
      "inputs": [
        {
          "indexed": true,
          "name": "previousOwner",
          "type": "address"
        }
      ],
      "name": "OwnershipRenounced",
      "type": "event"
    },
    {
      "anonymous": false,
      "inputs": [
        {
          "indexed": true,
          "name": "previousOwner",
          "type": "address"
        },
        {
          "indexed": true,
          "name": "newOwner",
          "type": "address"
        }
      ],
      "name": "OwnershipTransferred",
      "type": "event"
    },
    {
      "constant": false,
      "inputs": [
        {
          "name": "_value",
          "type": "uint256"
        }
      ],
      "name": "initialSingleWithdrawMax",
      "outputs": [],
      "payable": false,
      "stateMutability": "nonpayable",
      "type": "function"
    },
    {
      "constant": false,
      "inputs": [
        {
          "name": "_value",
          "type": "uint256"
        }
      ],
      "name": "initialSingleWithdrawMin",
      "outputs": [],
      "payable": false,
      "stateMutability": "nonpayable",
      "type": "function"
    },
    {
      "constant": false,
      "inputs": [
        {
          "name": "_value",
          "type": "uint256"
        }
      ],
      "name": "initialDayWithdraw",
      "outputs": [],
      "payable": false,
      "stateMutability": "nonpayable",
      "type": "function"
    },
    {
      "constant": false,
      "inputs": [
        {
          "name": "_count",
          "type": "uint256"
        }
      ],
      "name": "initialDayWithdrawCount",
      "outputs": [],
      "payable": false,
      "stateMutability": "nonpayable",
      "type": "function"
    },
    {
      "constant": false,
      "inputs": [
        {
          "name": "_value",
          "type": "uint256"
        }
      ],
      "name": "initialMonthWithdraw",
      "outputs": [],
      "payable": false,
      "stateMutability": "nonpayable",
      "type": "function"
    },
    {
      "constant": false,
      "inputs": [
        {
          "name": "_value",
          "type": "uint256"
        }
      ],
      "name": "initialChargeFee",
      "outputs": [],
      "payable": false,
      "stateMutability": "nonpayable",
      "type": "function"
    },
    {
      "constant": false,
      "inputs": [
        {
          "name": "_pool",
          "type": "address"
        }
      ],
      "name": "initialChargeFeePool",
      "outputs": [],
      "payable": false,
      "stateMutability": "nonpayable",
      "type": "function"
    },
    {
      "constant": false,
      "inputs": [
        {
          "name": "_value",
          "type": "uint256"
        }
      ],
      "name": "setSingleWithdrawMax",
      "outputs": [],
      "payable": false,
      "stateMutability": "nonpayable",
      "type": "function"
    },
    {
      "constant": false,
      "inputs": [
        {
          "name": "_value",
          "type": "uint256"
        }
      ],
      "name": "setSingleWithdrawMin",
      "outputs": [],
      "payable": false,
      "stateMutability": "nonpayable",
      "type": "function"
    },
    {
      "constant": false,
      "inputs": [
        {
          "name": "_value",
          "type": "uint256"
        }
      ],
      "name": "setDayWithdraw",
      "outputs": [],
      "payable": false,
      "stateMutability": "nonpayable",
      "type": "function"
    },
    {
      "constant": false,
      "inputs": [
        {
          "name": "_count",
          "type": "uint256"
        }
      ],
      "name": "setDayWithdrawCount",
      "outputs": [],
      "payable": false,
      "stateMutability": "nonpayable",
      "type": "function"
    },
    {
      "constant": false,
      "inputs": [
        {
          "name": "_value",
          "type": "uint256"
        }
      ],
      "name": "setMonthWithdraw",
      "outputs": [],
      "payable": false,
      "stateMutability": "nonpayable",
      "type": "function"
    },
    {
      "constant": false,
      "inputs": [
        {
          "name": "_value",
          "type": "uint256"
        }
      ],
      "name": "setChargeFee",
      "outputs": [],
      "payable": false,
      "stateMutability": "nonpayable",
      "type": "function"
    },
    {
      "constant": false,
      "inputs": [
        {
          "name": "_pool",
          "type": "address"
        }
      ],
      "name": "setChargeFeePool",
      "outputs": [],
      "payable": false,
      "stateMutability": "nonpayable",
      "type": "function"
    }
  ],
  "bytecode": "0x60806040526002805460a060020a60ff021916905560008054600160a060020a031916331790556109e0806100356000396000f30060806040526004361061018a5763ffffffff7c010000000000000000000000000000000000000000000000000000000060003504166305160860811461018f57806314361fd1146101a957806318c2d4c9146101d05780632253fff1146101e857806346b753a2146102095780634e71e0c81461022a578063516ae9931461023f5780635e3cbb7c14610257578063603449381461026c5780636b847dc01461028d5780636cc61d86146102a5578063715018a6146102bd5780637312aaae146102d2578063744c8c09146102e75780637b02b6de146102fc57806383197ef01461031457806386b0befc146103295780638da5cb5b1461035a578063b91bf3101461036f578063bd6206ec14610390578063be54f214146103a8578063d16edc15146103bd578063d21cf24f146103d2578063d31cfed6146103ea578063d8df9aad14610402578063e30c39781461041a578063eec809ff1461042f578063eee007e214610447578063f213aad21461045f578063f2fde38b14610474578063f5074f4114610495575b600080fd5b34801561019b57600080fd5b506101a76004356104b6565b005b3480156101b557600080fd5b506101be6104e9565b60408051918252519081900360200190f35b3480156101dc57600080fd5b506101a76004356104ef565b3480156101f457600080fd5b506101a7600160a060020a0360043516610522565b34801561021557600080fd5b506101a7600160a060020a03600435166105b3565b34801561023657600080fd5b506101a76105f9565b34801561024b57600080fd5b506101a7600435610681565b34801561026357600080fd5b506101be61069d565b34801561027857600080fd5b506101a7600160a060020a03600435166106a3565b34801561029957600080fd5b506101a76004356106fe565b3480156102b157600080fd5b506101a760043561071a565b3480156102c957600080fd5b506101a7610731565b3480156102de57600080fd5b506101be61079d565b3480156102f357600080fd5b506101be6107a3565b34801561030857600080fd5b506101a76004356107a9565b34801561032057600080fd5b506101a76107d7565b34801561033557600080fd5b5061033e6107fc565b60408051600160a060020a039092168252519081900360200190f35b34801561036657600080fd5b5061033e61080b565b34801561037b57600080fd5b506101a7600160a060020a036004351661081a565b34801561039c57600080fd5b506101a7600435610848565b3480156103b457600080fd5b506101be610876565b3480156103c957600080fd5b5061033e61087c565b3480156103de57600080fd5b506101a760043561088b565b3480156103f657600080fd5b506101a76004356108a7565b34801561040e57600080fd5b506101a76004356108da565b34801561042657600080fd5b5061033e6108f1565b34801561043b57600080fd5b506101a7600435610900565b34801561045357600080fd5b506101a7600435610917565b34801561046b57600080fd5b506101be610945565b34801561048057600080fd5b506101a7600160a060020a036004351661094b565b3480156104a157600080fd5b506101a7600160a060020a0360043516610991565b600054600160a060020a031633146104cd57600080fd5b60025460a060020a900460ff16156104e457600080fd5b600755565b60035481565b600054600160a060020a0316331461050657600080fd5b60025460a060020a900460ff161561051d57600080fd5b600355565b600054600160a060020a0316331461053957600080fd5b60025460a060020a900460ff161561055057600080fd5b600160a060020a038116151561056557600080fd5b6002805474ff000000000000000000000000000000000000000019600160a060020a0390931673ffffffffffffffffffffffffffffffffffffffff19909116179190911660a060020a179055565b600254600160a060020a031633146105ca57600080fd5b6009805473ffffffffffffffffffffffffffffffffffffffff1916600160a060020a0392909216919091179055565b600154600160a060020a0316331461061057600080fd5b60015460008054604051600160a060020a0393841693909116917f8be0079c531659141344cd1fd0a4f28419497f9722a3daafe3b4186f6b6457e091a3600180546000805473ffffffffffffffffffffffffffffffffffffffff19908116600160a060020a03841617909155169055565b600254600160a060020a0316331461069857600080fd5b600855565b60055481565b600254600160a060020a031633146106ba57600080fd5b600160a060020a03811615156106cf57600080fd5b6002805473ffffffffffffffffffffffffffffffffffffffff1916600160a060020a0392909216919091179055565b600254600160a060020a0316331461071557600080fd5b600555565b600254600160a060020a0316331461051d57600080fd5b600054600160a060020a0316331461074857600080fd5b60008054604051600160a060020a03909116917ff8df31144d9c2f0f6b59d69b8b98abd5459d07f2742c4df920b25aae33c6482091a26000805473ffffffffffffffffffffffffffffffffffffffff19169055565b60045481565b60085481565b600054600160a060020a031633146107c057600080fd5b60025460a060020a900460ff161561069857600080fd5b600054600160a060020a031633146107ee57600080fd5b600054600160a060020a0316ff5b600254600160a060020a031681565b600054600160a060020a031681565b600054600160a060020a0316331461083157600080fd5b60025460a060020a900460ff16156105ca57600080fd5b600054600160a060020a0316331461085f57600080fd5b60025460a060020a900460ff161561071557600080fd5b60065481565b600954600160a060020a031681565b600254600160a060020a031633146108a257600080fd5b600455565b600054600160a060020a031633146108be57600080fd5b60025460a060020a900460ff16156108d557600080fd5b600655565b600254600160a060020a031633146104e457600080fd5b600154600160a060020a031681565b600254600160a060020a031633146108d557600080fd5b600054600160a060020a0316331461092e57600080fd5b60025460a060020a900460ff16156108a257600080fd5b60075481565b600054600160a060020a0316331461096257600080fd5b6001805473ffffffffffffffffffffffffffffffffffffffff1916600160a060020a0392909216919091179055565b600054600160a060020a031633146109a857600080fd5b80600160a060020a0316ff00a165627a7a72305820e05dcd0c9f721380104c5defdfa2b4e653f5c55ac112b11bbd69036c15cd8c690029",
  "source": "pragma solidity ^0.4.23;\n\n\nimport 'openzeppelin-solidity/contracts/ownership/Claimable.sol';\nimport 'openzeppelin-solidity/contracts/lifecycle/Destructible.sol';\nimport './Autonomy.sol';\n\n\n/**\n * contract that define the wallet management parameters on DRC platform\n * only owner could initialize the parameters, but the congress contract \n * could set the parameters in the future\n */\ncontract DRCWalletMgrParams is Claimable, Autonomy, Destructible {\n    uint256 public singleWithdrawMin; // min value of single withdraw\n    uint256 public singleWithdrawMax; // Max value of single withdraw\n    uint256 public dayWithdraw; // Max value of one day of withdraw\n    uint256 public monthWithdraw; // Max value of one month of withdraw\n    uint256 public dayWithdrawCount; // Max number of withdraw counting\n\n    uint256 public chargeFee; // the charge fee for withdraw\n    address public chargeFeePool; // the address that will get the returned charge fees.\n\n\n    function initialSingleWithdrawMax(uint256 _value) onlyOwner public {\n        require(!init);\n\n        singleWithdrawMax = _value;\n    }\n\n    function initialSingleWithdrawMin(uint256 _value) onlyOwner public {\n        require(!init);\n\n        singleWithdrawMin = _value;\n    }\n\n    function initialDayWithdraw(uint256 _value) onlyOwner public {\n        require(!init);\n\n        dayWithdraw = _value;\n    }\n\n    function initialDayWithdrawCount(uint256 _count) onlyOwner public {\n        require(!init);\n\n        dayWithdrawCount = _count;\n    }\n\n    function initialMonthWithdraw(uint256 _value) onlyOwner public {\n        require(!init);\n\n        monthWithdraw = _value;\n    }\n\n    function initialChargeFee(uint256 _value) onlyOwner public {\n        require(!init);\n\n        chargeFee = _value;\n    }\n\n    function initialChargeFeePool(address _pool) onlyOwner public {\n        require(!init);\n\n        chargeFeePool = _pool;\n    }    \n\n    function setSingleWithdrawMax(uint256 _value) onlyCongress public {\n        singleWithdrawMax = _value;\n    }   \n\n    function setSingleWithdrawMin(uint256 _value) onlyCongress public {\n        singleWithdrawMin = _value;\n    }\n\n    function setDayWithdraw(uint256 _value) onlyCongress public {\n        dayWithdraw = _value;\n    }\n\n    function setDayWithdrawCount(uint256 _count) onlyCongress public {\n        dayWithdrawCount = _count;\n    }\n\n    function setMonthWithdraw(uint256 _value) onlyCongress public {\n        monthWithdraw = _value;\n    }\n\n    function setChargeFee(uint256 _value) onlyCongress public {\n        chargeFee = _value;\n    }\n\n    function setChargeFeePool(address _pool) onlyCongress public {\n        chargeFeePool = _pool;\n    }\n}",
  "sourcePath": "/home/centos/Dapp/DRCWalletManager/contracts/DRCWalletMgrParams.sol",
  "compiler": {
    "name": "solc",
    "version": "0.4.24+commit.e67f0147.Emscripten.clang"
  },
  "schemaVersion": "2.0.1",
  "updatedAt": "2018-11-15T09:45:14.965Z"
}