{
  "contractName": "Autonomy",
  "abi": [
    {
      "constant": true,
      "inputs": [],
      "name": "congress",
      "outputs": [
        {
          "name": "",
          "type": "address"
        }
      ],
      "payable": false,
      "stateMutability": "view",
      "type": "function"
    },
    {
      "constant": true,
      "inputs": [],
      "name": "owner",
      "outputs": [
        {
          "name": "",
          "type": "address"
        }
      ],
      "payable": false,
      "stateMutability": "view",
      "type": "function"
    },
    {
      "constant": false,
      "inputs": [
        {
          "name": "newOwner",
          "type": "address"
        }
      ],
      "name": "transferOwnership",
      "outputs": [],
      "payable": false,
      "stateMutability": "nonpayable",
      "type": "function"
    },
    {
      "anonymous": false,
      "inputs": [
        {
          "indexed": true,
          "name": "previousOwner",
          "type": "address"
        },
        {
          "indexed": true,
          "name": "newOwner",
          "type": "address"
        }
      ],
      "name": "OwnershipTransferred",
      "type": "event"
    },
    {
      "constant": false,
      "inputs": [
        {
          "name": "_congress",
          "type": "address"
        }
      ],
      "name": "initialCongress",
      "outputs": [],
      "payable": false,
      "stateMutability": "nonpayable",
      "type": "function"
    },
    {
      "constant": false,
      "inputs": [
        {
          "name": "_congress",
          "type": "address"
        }
      ],
      "name": "changeCongress",
      "outputs": [],
      "payable": false,
      "stateMutability": "nonpayable",
      "type": "function"
    }
  ],
  "bytecode": "0x60806040526000600160146101000a81548160ff021916908315150217905550336000806101000a81548173ffffffffffffffffffffffffffffffffffffffff021916908373ffffffffffffffffffffffffffffffffffffffff1602179055506105a28061006e6000396000f30060806040526004361061006d576000357c0100000000000000000000000000000000000000000000000000000000900463ffffffff1680632253fff11461007257806360344938146100b557806386b0befc146100f85780638da5cb5b1461014f578063f2fde38b146101a6575b600080fd5b34801561007e57600080fd5b506100b3600480360381019080803573ffffffffffffffffffffffffffffffffffffffff1690602001909291905050506101e9565b005b3480156100c157600080fd5b506100f6600480360381019080803573ffffffffffffffffffffffffffffffffffffffff1690602001909291905050506102fa565b005b34801561010457600080fd5b5061010d6103d6565b604051808273ffffffffffffffffffffffffffffffffffffffff1673ffffffffffffffffffffffffffffffffffffffff16815260200191505060405180910390f35b34801561015b57600080fd5b506101646103fc565b604051808273ffffffffffffffffffffffffffffffffffffffff1673ffffffffffffffffffffffffffffffffffffffff16815260200191505060405180910390f35b3480156101b257600080fd5b506101e7600480360381019080803573ffffffffffffffffffffffffffffffffffffffff169060200190929190505050610421565b005b6000809054906101000a900473ffffffffffffffffffffffffffffffffffffffff1673ffffffffffffffffffffffffffffffffffffffff163373ffffffffffffffffffffffffffffffffffffffff1614151561024457600080fd5b600160149054906101000a900460ff1615151561026057600080fd5b600073ffffffffffffffffffffffffffffffffffffffff168173ffffffffffffffffffffffffffffffffffffffff161415151561029c57600080fd5b80600160006101000a81548173ffffffffffffffffffffffffffffffffffffffff021916908373ffffffffffffffffffffffffffffffffffffffff16021790555060018060146101000a81548160ff02191690831515021790555050565b600160009054906101000a900473ffffffffffffffffffffffffffffffffffffffff1673ffffffffffffffffffffffffffffffffffffffff163373ffffffffffffffffffffffffffffffffffffffff1614151561035657600080fd5b600073ffffffffffffffffffffffffffffffffffffffff168173ffffffffffffffffffffffffffffffffffffffff161415151561039257600080fd5b80600160006101000a81548173ffffffffffffffffffffffffffffffffffffffff021916908373ffffffffffffffffffffffffffffffffffffffff16021790555050565b600160009054906101000a900473ffffffffffffffffffffffffffffffffffffffff1681565b6000809054906101000a900473ffffffffffffffffffffffffffffffffffffffff1681565b6000809054906101000a900473ffffffffffffffffffffffffffffffffffffffff1673ffffffffffffffffffffffffffffffffffffffff163373ffffffffffffffffffffffffffffffffffffffff1614151561047c57600080fd5b600073ffffffffffffffffffffffffffffffffffffffff168173ffffffffffffffffffffffffffffffffffffffff16141515156104b857600080fd5b8073ffffffffffffffffffffffffffffffffffffffff166000809054906101000a900473ffffffffffffffffffffffffffffffffffffffff1673ffffffffffffffffffffffffffffffffffffffff167f8be0079c531659141344cd1fd0a4f28419497f9722a3daafe3b4186f6b6457e060405160405180910390a3806000806101000a81548173ffffffffffffffffffffffffffffffffffffffff021916908373ffffffffffffffffffffffffffffffffffffffff160217905550505600a165627a7a723058205b3291d5cf2535ad89039a74882e4596f24710ef37489b0289e0e2d9311ed8290029",
  "source": "pragma solidity ^0.4.23;\n\ncontract Ownable {\n  address public owner;\n\n\n  event OwnershipTransferred(address indexed previousOwner, address indexed newOwner);\n\n\n  /**\n   * @dev The Ownable constructor sets the original `owner` of the contract to the sender\n   * account.\n   */\n  function Ownable() public {\n    owner = msg.sender;\n  }\n\n  /**\n   * @dev Throws if called by any account other than the owner.\n   */\n  modifier onlyOwner() {\n    require(msg.sender == owner);\n    _;\n  }\n\n  /**\n   * @dev Allows the current owner to transfer control of the contract to a newOwner.\n   * @param newOwner The address to transfer ownership to.\n   */\n  function transferOwnership(address newOwner) public onlyOwner {\n    require(newOwner != address(0));\n    emit OwnershipTransferred(owner, newOwner);\n    owner = newOwner;\n  }\n\n}\n\ncontract Autonomy is Ownable {\n    address public congress;\n    bool init = false;\n\n    modifier onlyCongress() {\n        require(msg.sender == congress);\n        _;\n    }\n\n    /**\n     * @dev initialize a Congress contract address for this token \n     *\n     * @param _congress address the congress contract address\n     */\n    function initialCongress(address _congress) onlyOwner public {\n        require(!init);\n        require(_congress != address(0));\n        congress = _congress;\n        init = true;\n    }\n\n    /**\n     * @dev set a Congress contract address for this token\n     * must change this address by the last congress contract \n     *\n     * @param _congress address the congress contract address\n     */\n    function changeCongress(address _congress) onlyCongress public {\n        require(_congress != address(0));\n        congress = _congress;\n    }\n}\n\ncontract Destructible is Ownable {\n\n  function Destructible() public payable { }\n\n  /**\n   * @dev Transfers the current balance to the owner and terminates the contract.\n   */\n  function destroy() onlyOwner public {\n    selfdestruct(owner);\n  }\n\n  function destroyAndSend(address _recipient) onlyOwner public {\n    selfdestruct(_recipient);\n  }\n}\n\ncontract Claimable is Ownable {\n  address public pendingOwner;\n\n  /**\n   * @dev Modifier throws if called by any account other than the pendingOwner.\n   */\n  modifier onlyPendingOwner() {\n    require(msg.sender == pendingOwner);\n    _;\n  }\n\n  /**\n   * @dev Allows the current owner to set the pendingOwner address.\n   * @param newOwner The address to transfer ownership to.\n   */\n  function transferOwnership(address newOwner) onlyOwner public {\n    pendingOwner = newOwner;\n  }\n\n  /**\n   * @dev Allows the pendingOwner address to finalize the transfer.\n   */\n  function claimOwnership() onlyPendingOwner public {\n    emit OwnershipTransferred(owner, pendingOwner);\n    owner = pendingOwner;\n    pendingOwner = address(0);\n  }\n}\n\ncontract DRCWalletMgrParams is Claimable, Autonomy, Destructible {\n    uint256 public singleWithdrawMin; // min value of single withdraw\n    uint256 public singleWithdrawMax; // Max value of single withdraw\n    uint256 public dayWithdraw; // Max value of one day of withdraw\n    uint256 public monthWithdraw; // Max value of one month of withdraw\n    uint256 public dayWithdrawCount; // Max number of withdraw counting\n\n    uint256 public chargeFee; // the charge fee for withdraw\n    address public chargeFeePool; // the address that will get the returned charge fees.\n\n\n    function initialSingleWithdrawMax(uint256 _value) onlyOwner public {\n        require(!init);\n\n        singleWithdrawMax = _value;\n    }\n\n    function initialSingleWithdrawMin(uint256 _value) onlyOwner public {\n        require(!init);\n\n        singleWithdrawMin = _value;\n    }\n\n    function initialDayWithdraw(uint256 _value) onlyOwner public {\n        require(!init);\n\n        dayWithdraw = _value;\n    }\n\n    function initialDayWithdrawCount(uint256 _count) onlyOwner public {\n        require(!init);\n\n        dayWithdrawCount = _count;\n    }\n\n    function initialMonthWithdraw(uint256 _value) onlyOwner public {\n        require(!init);\n\n        monthWithdraw = _value;\n    }\n\n    function initialChargeFee(uint256 _value) onlyOwner public {\n        require(!init);\n\n        chargeFee = _value;\n    }\n\n    function initialChargeFeePool(address _pool) onlyOwner public {\n        require(!init);\n\n        chargeFeePool = _pool;\n    }    \n\n    function setSingleWithdrawMax(uint256 _value) onlyCongress public {\n        singleWithdrawMax = _value;\n    }   \n\n    function setSingleWithdrawMin(uint256 _value) onlyCongress public {\n        singleWithdrawMin = _value;\n    }\n\n    function setDayWithdraw(uint256 _value) onlyCongress public {\n        dayWithdraw = _value;\n    }\n\n    function setDayWithdrawCount(uint256 _count) onlyCongress public {\n        dayWithdrawCount = _count;\n    }\n\n    function setMonthWithdraw(uint256 _value) onlyCongress public {\n        monthWithdraw = _value;\n    }\n\n    function setChargeFee(uint256 _value) onlyCongress public {\n        chargeFee = _value;\n    }\n\n    function setChargeFeePool(address _pool) onlyCongress public {\n        chargeFeePool = _pool;\n    }\n}\n\n",
  "sourcePath": "/home/centos/Dapp/DRCWalletManager/contracts/DRCWalletMgrParamsFlattened.sol",
  "compiler": {
    "name": "solc",
    "version": "0.4.23+commit.124ca40d.Emscripten.clang"
  },
  "schemaVersion": "2.0.0",
  "updatedAt": "2018-06-07T12:44:40.753Z"
}