{
  "contractName": "DepositWithdraw",
  "abi": [
    {
      "constant": false,
      "inputs": [],
      "name": "unpause",
      "outputs": [],
      "payable": false,
      "stateMutability": "nonpayable",
      "type": "function"
    },
    {
      "constant": false,
      "inputs": [],
      "name": "claimOwnership",
      "outputs": [],
      "payable": false,
      "stateMutability": "nonpayable",
      "type": "function"
    },
    {
      "constant": true,
      "inputs": [],
      "name": "paused",
      "outputs": [
        {
          "name": "",
          "type": "bool"
        }
      ],
      "payable": false,
      "stateMutability": "view",
      "type": "function"
    },
    {
      "constant": false,
      "inputs": [],
      "name": "destroy",
      "outputs": [],
      "payable": false,
      "stateMutability": "nonpayable",
      "type": "function"
    },
    {
      "constant": false,
      "inputs": [],
      "name": "pause",
      "outputs": [],
      "payable": false,
      "stateMutability": "nonpayable",
      "type": "function"
    },
    {
      "constant": true,
      "inputs": [],
      "name": "owner",
      "outputs": [
        {
          "name": "",
          "type": "address"
        }
      ],
      "payable": false,
      "stateMutability": "view",
      "type": "function"
    },
    {
      "constant": false,
      "inputs": [
        {
          "name": "tokens",
          "type": "address[]"
        }
      ],
      "name": "destroy",
      "outputs": [],
      "payable": false,
      "stateMutability": "nonpayable",
      "type": "function"
    },
    {
      "constant": true,
      "inputs": [],
      "name": "pendingOwner",
      "outputs": [
        {
          "name": "",
          "type": "address"
        }
      ],
      "payable": false,
      "stateMutability": "view",
      "type": "function"
    },
    {
      "constant": false,
      "inputs": [
        {
          "name": "newOwner",
          "type": "address"
        }
      ],
      "name": "transferOwnership",
      "outputs": [],
      "payable": false,
      "stateMutability": "nonpayable",
      "type": "function"
    },
    {
      "constant": false,
      "inputs": [
        {
          "name": "_to",
          "type": "address"
        },
        {
          "name": "_amount",
          "type": "uint256"
        }
      ],
      "name": "withdraw",
      "outputs": [
        {
          "name": "",
          "type": "bool"
        }
      ],
      "payable": false,
      "stateMutability": "nonpayable",
      "type": "function"
    },
    {
      "constant": false,
      "inputs": [
        {
          "name": "_recipient",
          "type": "address"
        }
      ],
      "name": "destroyAndSend",
      "outputs": [],
      "payable": false,
      "stateMutability": "nonpayable",
      "type": "function"
    },
    {
      "inputs": [
        {
          "name": "_wallet",
          "type": "address"
        }
      ],
      "payable": false,
      "stateMutability": "nonpayable",
      "type": "constructor"
    },
    {
      "payable": true,
      "stateMutability": "payable",
      "type": "fallback"
    },
    {
      "anonymous": false,
      "inputs": [
        {
          "indexed": false,
          "name": "_from",
          "type": "address"
        },
        {
          "indexed": false,
          "name": "_value",
          "type": "uint256"
        },
        {
          "indexed": false,
          "name": "_token",
          "type": "address"
        },
        {
          "indexed": false,
          "name": "_extraData",
          "type": "bytes"
        }
      ],
      "name": "ReceiveDeposit",
      "type": "event"
    },
    {
      "anonymous": false,
      "inputs": [
        {
          "indexed": false,
          "name": "_from",
          "type": "address"
        },
        {
          "indexed": false,
          "name": "_value",
          "type": "uint256"
        }
      ],
      "name": "ReceiveEther",
      "type": "event"
    },
    {
      "anonymous": false,
      "inputs": [
        {
          "indexed": false,
          "name": "_to",
          "type": "address"
        },
        {
          "indexed": false,
          "name": "_value",
          "type": "uint256"
        }
      ],
      "name": "WithdrawEther",
      "type": "event"
    },
    {
      "anonymous": false,
      "inputs": [
        {
          "indexed": false,
          "name": "_token",
          "type": "address"
        },
        {
          "indexed": false,
          "name": "_to",
          "type": "address"
        },
        {
          "indexed": false,
          "name": "_value",
          "type": "uint256"
        }
      ],
      "name": "WithdrawToken",
      "type": "event"
    },
    {
      "anonymous": false,
      "inputs": [],
      "name": "Pause",
      "type": "event"
    },
    {
      "anonymous": false,
      "inputs": [],
      "name": "Unpause",
      "type": "event"
    },
    {
      "anonymous": false,
      "inputs": [
        {
          "indexed": true,
          "name": "previousOwner",
          "type": "address"
        },
        {
          "indexed": true,
          "name": "newOwner",
          "type": "address"
        }
      ],
      "name": "OwnershipTransferred",
      "type": "event"
    },
    {
      "constant": false,
      "inputs": [
        {
          "name": "_wallet",
          "type": "address"
        }
      ],
      "name": "setWithdrawWallet",
      "outputs": [
        {
          "name": "",
          "type": "bool"
        }
      ],
      "payable": false,
      "stateMutability": "nonpayable",
      "type": "function"
    },
    {
      "constant": true,
      "inputs": [
        {
          "name": "_data",
          "type": "bytes"
        }
      ],
      "name": "bytesToBytes32",
      "outputs": [
        {
          "name": "result",
          "type": "bytes32"
        }
      ],
      "payable": false,
      "stateMutability": "pure",
      "type": "function"
    },
    {
      "constant": false,
      "inputs": [
        {
          "name": "_from",
          "type": "address"
        },
        {
          "name": "_value",
          "type": "uint256"
        },
        {
          "name": "_token",
          "type": "address"
        },
        {
          "name": "_extraData",
          "type": "bytes"
        }
      ],
      "name": "receiveApproval",
      "outputs": [],
      "payable": false,
      "stateMutability": "nonpayable",
      "type": "function"
    },
    {
      "constant": false,
      "inputs": [
        {
          "name": "_token",
          "type": "address"
        },
        {
          "name": "_to",
          "type": "address"
        },
        {
          "name": "_value",
          "type": "uint256"
        }
      ],
      "name": "withdrawToken",
      "outputs": [
        {
          "name": "",
          "type": "bool"
        }
      ],
      "payable": false,
      "stateMutability": "nonpayable",
      "type": "function"
    },
    {
      "constant": false,
      "inputs": [
        {
          "name": "_token",
          "type": "address"
        },
        {
          "name": "_time",
          "type": "uint256"
        },
        {
          "name": "_to",
          "type": "address"
        },
        {
          "name": "_value",
          "type": "uint256"
        },
        {
          "name": "_fee",
          "type": "uint256"
        },
        {
          "name": "_tokenReturn",
          "type": "address"
        }
      ],
      "name": "withdrawToken",
      "outputs": [
        {
          "name": "",
          "type": "bool"
        }
      ],
      "payable": false,
      "stateMutability": "nonpayable",
      "type": "function"
    },
    {
      "constant": false,
      "inputs": [
        {
          "name": "_token",
          "type": "address"
        },
        {
          "name": "_time",
          "type": "uint256"
        },
        {
          "name": "_value",
          "type": "uint256"
        },
        {
          "name": "_fee",
          "type": "uint256"
        },
        {
          "name": "_tokenReturn",
          "type": "address"
        }
      ],
      "name": "withdrawTokenToDefault",
      "outputs": [
        {
          "name": "",
          "type": "bool"
        }
      ],
      "payable": false,
      "stateMutability": "nonpayable",
      "type": "function"
    },
    {
      "constant": true,
      "inputs": [],
      "name": "getDepositNum",
      "outputs": [
        {
          "name": "",
          "type": "uint256"
        }
      ],
      "payable": false,
      "stateMutability": "view",
      "type": "function"
    },
    {
      "constant": true,
      "inputs": [
        {
          "name": "_ind",
          "type": "uint256"
        }
      ],
      "name": "getOneDepositRec",
      "outputs": [
        {
          "name": "",
          "type": "uint256"
        },
        {
          "name": "",
          "type": "address"
        },
        {
          "name": "",
          "type": "uint256"
        }
      ],
      "payable": false,
      "stateMutability": "view",
      "type": "function"
    },
    {
      "constant": true,
      "inputs": [],
      "name": "getWithdrawNum",
      "outputs": [
        {
          "name": "",
          "type": "uint256"
        }
      ],
      "payable": false,
      "stateMutability": "view",
      "type": "function"
    },
    {
      "constant": true,
      "inputs": [
        {
          "name": "_ind",
          "type": "uint256"
        }
      ],
      "name": "getOneWithdrawRec",
      "outputs": [
        {
          "name": "",
          "type": "uint256"
        },
        {
          "name": "",
          "type": "address"
        },
        {
          "name": "",
          "type": "uint256"
        }
      ],
      "payable": false,
      "stateMutability": "view",
      "type": "function"
    }
  ],
  "bytecode": "0x60806040526000600160146101000a81548160ff02191690831515021790555034801561002b57600080fd5b5060405160208061213383398101806040528101908080519060200190929190505050336000806101000a81548173ffffffffffffffffffffffffffffffffffffffff021916908373ffffffffffffffffffffffffffffffffffffffff160217905550600073ffffffffffffffffffffffffffffffffffffffff168173ffffffffffffffffffffffffffffffffffffffff16141515156100ca57600080fd5b80600460006101000a81548173ffffffffffffffffffffffffffffffffffffffff021916908373ffffffffffffffffffffffffffffffffffffffff160217905550506120188061011b6000396000f30060806040526004361061011c576000357c0100000000000000000000000000000000000000000000000000000000900463ffffffff168062226eb51461018957806301e33667146101b45780633f4ba83a1461023957806346191b3c146102505780634e71e0c81461030957806352bfbe68146103205780635c975abb146103b957806374cd5c0b146103e857806383197ef0146104635780638456cb591461047a5780638da5cb5b146104915780638f4ffcb1146104e85780639373f4321461059b578063a9011990146105f6578063bfe370d914610671578063c5a88559146106f6578063c6786e5a14610721578063e30c397814610787578063f2fde38b146107de578063f3fef3a314610821578063f5074f4114610886575b7ff32a9f77675fd5917534c7746608fd3e309eac68fbdcbf5925e24ca97a7043963334604051808373ffffffffffffffffffffffffffffffffffffffff1673ffffffffffffffffffffffffffffffffffffffff1681526020018281526020019250505060405180910390a1005b34801561019557600080fd5b5061019e6108c9565b6040518082815260200191505060405180910390f35b3480156101c057600080fd5b5061021f600480360381019080803573ffffffffffffffffffffffffffffffffffffffff169060200190929190803573ffffffffffffffffffffffffffffffffffffffff169060200190929190803590602001909291905050506108d6565b604051808215151515815260200191505060405180910390f35b34801561024557600080fd5b5061024e610b39565b005b34801561025c57600080fd5b506102ef600480360381019080803573ffffffffffffffffffffffffffffffffffffffff16906020019092919080359060200190929190803573ffffffffffffffffffffffffffffffffffffffff1690602001909291908035906020019092919080359060200190929190803573ffffffffffffffffffffffffffffffffffffffff169060200190929190505050610bf8565b604051808215151515815260200191505060405180910390f35b34801561031557600080fd5b5061031e61107f565b005b34801561032c57600080fd5b5061039f600480360381019080803573ffffffffffffffffffffffffffffffffffffffff169060200190929190803590602001909291908035906020019092919080359060200190929190803573ffffffffffffffffffffffffffffffffffffffff16906020019092919050505061121e565b604051808215151515815260200191505060405180910390f35b3480156103c557600080fd5b506103ce6112d2565b604051808215151515815260200191505060405180910390f35b3480156103f457600080fd5b50610413600480360381019080803590602001909291905050506112e5565b604051808481526020018373ffffffffffffffffffffffffffffffffffffffff1673ffffffffffffffffffffffffffffffffffffffff168152602001828152602001935050505060405180910390f35b34801561046f57600080fd5b5061047861138d565b005b34801561048657600080fd5b5061048f611422565b005b34801561049d57600080fd5b506104a66114e1565b604051808273ffffffffffffffffffffffffffffffffffffffff1673ffffffffffffffffffffffffffffffffffffffff16815260200191505060405180910390f35b3480156104f457600080fd5b50610599600480360381019080803573ffffffffffffffffffffffffffffffffffffffff16906020019092919080359060200190929190803573ffffffffffffffffffffffffffffffffffffffff169060200190929190803590602001908201803590602001908080601f0160208091040260200160405190810160405280939291908181526020018383808284378201915050505050509192919290505050611506565b005b3480156105a757600080fd5b506105dc600480360381019080803573ffffffffffffffffffffffffffffffffffffffff1690602001909291905050506118f8565b604051808215151515815260200191505060405180910390f35b34801561060257600080fd5b50610621600480360381019080803590602001909291905050506119db565b604051808481526020018373ffffffffffffffffffffffffffffffffffffffff1673ffffffffffffffffffffffffffffffffffffffff168152602001828152602001935050505060405180910390f35b34801561067d57600080fd5b506106d8600480360381019080803590602001908201803590602001908080601f0160208091040260200160405190810160405280939291908181526020018383808284378201915050505050509192919290505050611a83565b60405180826000191660001916815260200191505060405180910390f35b34801561070257600080fd5b5061070b611a91565b6040518082815260200191505060405180910390f35b34801561072d57600080fd5b5061078560048036038101908080359060200190820180359060200190808060200260200160405190810160405280939291908181526020018383602002808284378201915050505050509192919290505050611a9e565b005b34801561079357600080fd5b5061079c611d45565b604051808273ffffffffffffffffffffffffffffffffffffffff1673ffffffffffffffffffffffffffffffffffffffff16815260200191505060405180910390f35b3480156107ea57600080fd5b5061081f600480360381019080803573ffffffffffffffffffffffffffffffffffffffff169060200190929190505050611d6b565b005b34801561082d57600080fd5b5061086c600480360381019080803573ffffffffffffffffffffffffffffffffffffffff16906020019092919080359060200190929190505050611e0a565b604051808215151515815260200191505060405180910390f35b34801561089257600080fd5b506108c7600480360381019080803573ffffffffffffffffffffffffffffffffffffffff169060200190929190505050611f5f565b005b6000600280549050905090565b6000806000809054906101000a900473ffffffffffffffffffffffffffffffffffffffff1673ffffffffffffffffffffffffffffffffffffffff163373ffffffffffffffffffffffffffffffffffffffff1614151561093457600080fd5b600073ffffffffffffffffffffffffffffffffffffffff168473ffffffffffffffffffffffffffffffffffffffff161415151561097057600080fd5b600073ffffffffffffffffffffffffffffffffffffffff168573ffffffffffffffffffffffffffffffffffffffff16141515156109ac57600080fd5b8490508073ffffffffffffffffffffffffffffffffffffffff1663a9059cbb85856040518363ffffffff167c0100000000000000000000000000000000000000000000000000000000028152600401808373ffffffffffffffffffffffffffffffffffffffff1673ffffffffffffffffffffffffffffffffffffffff16815260200182815260200192505050602060405180830381600087803b158015610a5257600080fd5b505af1158015610a66573d6000803e3d6000fd5b505050506040513d6020811015610a7c57600080fd5b8101908080519060200190929190505050507f037238854fe57fbf51f09946f854fc3916fe83938d6521f09bd05463839f1304858585604051808473ffffffffffffffffffffffffffffffffffffffff1673ffffffffffffffffffffffffffffffffffffffff1681526020018373ffffffffffffffffffffffffffffffffffffffff1673ffffffffffffffffffffffffffffffffffffffff168152602001828152602001935050505060405180910390a160019150509392505050565b6000809054906101000a900473ffffffffffffffffffffffffffffffffffffffff1673ffffffffffffffffffffffffffffffffffffffff163373ffffffffffffffffffffffffffffffffffffffff16141515610b9457600080fd5b600160149054906101000a900460ff161515610baf57600080fd5b6000600160146101000a81548160ff0219169083151502179055507f7805862f689e2f13df9f062ff482ad3ad112aca9e0847911ed832e158c525b3360405160405180910390a1565b60008060008060009054906101000a900473ffffffffffffffffffffffffffffffffffffffff1673ffffffffffffffffffffffffffffffffffffffff163373ffffffffffffffffffffffffffffffffffffffff16141515610c5857600080fd5b600160149054906101000a900460ff16151515610c7457600080fd5b600073ffffffffffffffffffffffffffffffffffffffff168773ffffffffffffffffffffffffffffffffffffffff1614151515610cb057600080fd5b600073ffffffffffffffffffffffffffffffffffffffff168973ffffffffffffffffffffffffffffffffffffffff1614151515610cec57600080fd5b8486111515610cfa57600080fd5b889150610d108587611fd390919063ffffffff16565b90508173ffffffffffffffffffffffffffffffffffffffff1663a9059cbb88836040518363ffffffff167c0100000000000000000000000000000000000000000000000000000000028152600401808373ffffffffffffffffffffffffffffffffffffffff1673ffffffffffffffffffffffffffffffffffffffff16815260200182815260200192505050602060405180830381600087803b158015610db557600080fd5b505af1158015610dc9573d6000803e3d6000fd5b505050506040513d6020811015610ddf57600080fd5b810190808051906020019092919050505050600073ffffffffffffffffffffffffffffffffffffffff168473ffffffffffffffffffffffffffffffffffffffff1614158015610e2e5750600085115b15610f13578173ffffffffffffffffffffffffffffffffffffffff1663a9059cbb85876040518363ffffffff167c0100000000000000000000000000000000000000000000000000000000028152600401808373ffffffffffffffffffffffffffffffffffffffff1673ffffffffffffffffffffffffffffffffffffffff16815260200182815260200192505050602060405180830381600087803b158015610ed657600080fd5b505af1158015610eea573d6000803e3d6000fd5b505050506040513d6020811015610f0057600080fd5b8101908080519060200190929190505050505b60036060604051908101604052808a81526020018973ffffffffffffffffffffffffffffffffffffffff16815260200183815250908060018154018082558091505090600182039060005260206000209060030201600090919290919091506000820151816000015560208201518160010160006101000a81548173ffffffffffffffffffffffffffffffffffffffff021916908373ffffffffffffffffffffffffffffffffffffffff160217905550604082015181600201555050507f037238854fe57fbf51f09946f854fc3916fe83938d6521f09bd05463839f1304898883604051808473ffffffffffffffffffffffffffffffffffffffff1673ffffffffffffffffffffffffffffffffffffffff1681526020018373ffffffffffffffffffffffffffffffffffffffff1673ffffffffffffffffffffffffffffffffffffffff168152602001828152602001935050505060405180910390a16001925050509695505050505050565b600160009054906101000a900473ffffffffffffffffffffffffffffffffffffffff1673ffffffffffffffffffffffffffffffffffffffff163373ffffffffffffffffffffffffffffffffffffffff161415156110db57600080fd5b600160009054906101000a900473ffffffffffffffffffffffffffffffffffffffff1673ffffffffffffffffffffffffffffffffffffffff166000809054906101000a900473ffffffffffffffffffffffffffffffffffffffff1673ffffffffffffffffffffffffffffffffffffffff167f8be0079c531659141344cd1fd0a4f28419497f9722a3daafe3b4186f6b6457e060405160405180910390a3600160009054906101000a900473ffffffffffffffffffffffffffffffffffffffff166000806101000a81548173ffffffffffffffffffffffffffffffffffffffff021916908373ffffffffffffffffffffffffffffffffffffffff1602179055506000600160006101000a81548173ffffffffffffffffffffffffffffffffffffffff021916908373ffffffffffffffffffffffffffffffffffffffff160217905550565b60008060009054906101000a900473ffffffffffffffffffffffffffffffffffffffff1673ffffffffffffffffffffffffffffffffffffffff163373ffffffffffffffffffffffffffffffffffffffff1614151561127b57600080fd5b600160149054906101000a900460ff1615151561129757600080fd5b6112c78686600460009054906101000a900473ffffffffffffffffffffffffffffffffffffffff16878787610bf8565b905095945050505050565b600160149054906101000a900460ff1681565b6000806000600380549050841015156112fd57600080fd5b60038481548110151561130c57fe5b90600052602060002090600302016000015460038581548110151561132d57fe5b906000526020600020906003020160010160009054906101000a900473ffffffffffffffffffffffffffffffffffffffff1660038681548110151561136e57fe5b9060005260206000209060030201600201549250925092509193909250565b6000809054906101000a900473ffffffffffffffffffffffffffffffffffffffff1673ffffffffffffffffffffffffffffffffffffffff163373ffffffffffffffffffffffffffffffffffffffff161415156113e857600080fd5b6000809054906101000a900473ffffffffffffffffffffffffffffffffffffffff1673ffffffffffffffffffffffffffffffffffffffff16ff5b6000809054906101000a900473ffffffffffffffffffffffffffffffffffffffff1673ffffffffffffffffffffffffffffffffffffffff163373ffffffffffffffffffffffffffffffffffffffff1614151561147d57600080fd5b600160149054906101000a900460ff1615151561149957600080fd5b60018060146101000a81548160ff0219169083151502179055507f6985a02210a168e66602d3235cb6db0e70f92b3ba4d376a33c0f3d9434bff62560405160405180910390a1565b6000809054906101000a900473ffffffffffffffffffffffffffffffffffffffff1681565b6000806000809054906101000a900473ffffffffffffffffffffffffffffffffffffffff1673ffffffffffffffffffffffffffffffffffffffff163373ffffffffffffffffffffffffffffffffffffffff1614151561156457600080fd5b600160149054906101000a900460ff1615151561158057600080fd5b600073ffffffffffffffffffffffffffffffffffffffff168473ffffffffffffffffffffffffffffffffffffffff16141515156115bc57600080fd5b600073ffffffffffffffffffffffffffffffffffffffff168673ffffffffffffffffffffffffffffffffffffffff16141515156115f857600080fd5b8391508173ffffffffffffffffffffffffffffffffffffffff166323b872dd8730886040518463ffffffff167c0100000000000000000000000000000000000000000000000000000000028152600401808473ffffffffffffffffffffffffffffffffffffffff1673ffffffffffffffffffffffffffffffffffffffff1681526020018373ffffffffffffffffffffffffffffffffffffffff1673ffffffffffffffffffffffffffffffffffffffff1681526020018281526020019350505050602060405180830381600087803b1580156116d257600080fd5b505af11580156116e6573d6000803e3d6000fd5b505050506040513d60208110156116fc57600080fd5b8101908080519060200190929190505050151561171857600080fd5b61172183611a83565b90506002606060405190810160405280836001900481526020018873ffffffffffffffffffffffffffffffffffffffff16815260200187815250908060018154018082558091505090600182039060005260206000209060030201600090919290919091506000820151816000015560208201518160010160006101000a81548173ffffffffffffffffffffffffffffffffffffffff021916908373ffffffffffffffffffffffffffffffffffffffff160217905550604082015181600201555050507f3bc54c6dcf5be6793947a9f34e5ca45d6ce9196bea304a5550c3e2d2f215650286868686604051808573ffffffffffffffffffffffffffffffffffffffff1673ffffffffffffffffffffffffffffffffffffffff1681526020018481526020018373ffffffffffffffffffffffffffffffffffffffff1673ffffffffffffffffffffffffffffffffffffffff16815260200180602001828103825283818151815260200191508051906020019080838360005b838110156118b3578082015181840152602081019050611898565b50505050905090810190601f1680156118e05780820380516001836020036101000a031916815260200191505b509550505050505060405180910390a1505050505050565b60008060009054906101000a900473ffffffffffffffffffffffffffffffffffffffff1673ffffffffffffffffffffffffffffffffffffffff163373ffffffffffffffffffffffffffffffffffffffff1614151561195557600080fd5b600073ffffffffffffffffffffffffffffffffffffffff168273ffffffffffffffffffffffffffffffffffffffff161415151561199157600080fd5b81600460006101000a81548173ffffffffffffffffffffffffffffffffffffffff021916908373ffffffffffffffffffffffffffffffffffffffff16021790555060019050919050565b6000806000600280549050841015156119f357600080fd5b600284815481101515611a0257fe5b906000526020600020906003020160000154600285815481101515611a2357fe5b906000526020600020906003020160010160009054906101000a900473ffffffffffffffffffffffffffffffffffffffff16600286815481101515611a6457fe5b9060005260206000209060030201600201549250925092509193909250565b600060208201519050919050565b6000600380549050905090565b60008060008060009054906101000a900473ffffffffffffffffffffffffffffffffffffffff1673ffffffffffffffffffffffffffffffffffffffff163373ffffffffffffffffffffffffffffffffffffffff16141515611afe57600080fd5b600092505b8351831015611d0b578383815181101515611b1a57fe5b9060200190602002015191508173ffffffffffffffffffffffffffffffffffffffff166370a08231306040518263ffffffff167c0100000000000000000000000000000000000000000000000000000000028152600401808273ffffffffffffffffffffffffffffffffffffffff1673ffffffffffffffffffffffffffffffffffffffff168152602001915050602060405180830381600087803b158015611bc157600080fd5b505af1158015611bd5573d6000803e3d6000fd5b505050506040513d6020811015611beb57600080fd5b810190808051906020019092919050505090508173ffffffffffffffffffffffffffffffffffffffff1663a9059cbb6000809054906101000a900473ffffffffffffffffffffffffffffffffffffffff16836040518363ffffffff167c0100000000000000000000000000000000000000000000000000000000028152600401808373ffffffffffffffffffffffffffffffffffffffff1673ffffffffffffffffffffffffffffffffffffffff16815260200182815260200192505050602060405180830381600087803b158015611cc257600080fd5b505af1158015611cd6573d6000803e3d6000fd5b505050506040513d6020811015611cec57600080fd5b8101908080519060200190929190505050508280600101935050611b03565b6000809054906101000a900473ffffffffffffffffffffffffffffffffffffffff1673ffffffffffffffffffffffffffffffffffffffff16ff5b600160009054906101000a900473ffffffffffffffffffffffffffffffffffffffff1681565b6000809054906101000a900473ffffffffffffffffffffffffffffffffffffffff1673ffffffffffffffffffffffffffffffffffffffff163373ffffffffffffffffffffffffffffffffffffffff16141515611dc657600080fd5b80600160006101000a81548173ffffffffffffffffffffffffffffffffffffffff021916908373ffffffffffffffffffffffffffffffffffffffff16021790555050565b60008060009054906101000a900473ffffffffffffffffffffffffffffffffffffffff1673ffffffffffffffffffffffffffffffffffffffff163373ffffffffffffffffffffffffffffffffffffffff16141515611e6757600080fd5b600073ffffffffffffffffffffffffffffffffffffffff168373ffffffffffffffffffffffffffffffffffffffff1614151515611ea357600080fd5b8273ffffffffffffffffffffffffffffffffffffffff166108fc839081150290604051600060405180830381858888f19350505050158015611ee9573d6000803e3d6000fd5b507fdb35132c111efe920cede025e819975671cfd1b8fcc1174762c8670c4e94c2118383604051808373ffffffffffffffffffffffffffffffffffffffff1673ffffffffffffffffffffffffffffffffffffffff1681526020018281526020019250505060405180910390a16001905092915050565b6000809054906101000a900473ffffffffffffffffffffffffffffffffffffffff1673ffffffffffffffffffffffffffffffffffffffff163373ffffffffffffffffffffffffffffffffffffffff16141515611fba57600080fd5b8073ffffffffffffffffffffffffffffffffffffffff16ff5b6000828211151515611fe157fe5b8183039050929150505600a165627a7a7230582044ba0de0bc3b2e360cc7cf6999e429c4abe9a5ee8c90e0022117e7680fda0b950029",
  "source": "pragma solidity ^0.4.23;\r\n\r\n\r\nimport 'zeppelin-solidity/contracts/ownership/Claimable.sol';\r\nimport 'zeppelin-solidity/contracts/lifecycle/Pausable.sol';\r\nimport 'zeppelin-solidity/contracts/lifecycle/Destructible.sol';\r\nimport 'zeppelin-solidity/contracts/lifecycle/TokenDestructible.sol';\r\nimport 'zeppelin-solidity/contracts/token/ERC20/ERC20.sol';\r\nimport 'zeppelin-solidity/contracts/math/SafeMath.sol';\r\n\r\n\r\ncontract OwnerContract is Claimable {\r\n    Claimable public ownedContract;\r\n    address internal origOwner;\r\n\r\n    /**\r\n     * @dev bind a contract as its owner\r\n     *\r\n     * @param _contract the contract address that will be binded by this Owner Contract\r\n     */\r\n    function bindContract(address _contract) onlyOwner public returns (bool) {\r\n        require(_contract != address(0));\r\n        ownedContract = Claimable(_contract);\r\n        origOwner = ownedContract.owner();\r\n\r\n        // take ownership of the owned contract\r\n        ownedContract.claimOwnership();\r\n\r\n        return true;\r\n    }\r\n\r\n    /**\r\n     * @dev change the owner of the contract from this contract address to the original one. \r\n     *\r\n     */\r\n    function transferOwnershipBack() onlyOwner public {\r\n        ownedContract.transferOwnership(origOwner);\r\n        ownedContract = Claimable(address(0));\r\n        origOwner = address(0);\r\n    }\r\n\r\n    /**\r\n     * @dev change the owner of the contract from this contract address to another one. \r\n     *\r\n     * @param _nextOwner the contract address that will be next Owner of the original Contract\r\n     */\r\n    function changeOwnershipto(address _nextOwner)  onlyOwner public {\r\n        ownedContract.transferOwnership(_nextOwner);\r\n        ownedContract = Claimable(address(0));\r\n        origOwner = address(0);\r\n    }\r\n}\r\n\r\ncontract withdrawable is Ownable {\r\n    event ReceiveEther(address _from, uint256 _value);\r\n    event WithdrawEther(address _to, uint256 _value);\r\n    event WithdrawToken(address _token, address _to, uint256 _value);\r\n\r\n    /**\r\n\t * @dev recording receiving ether from msn.sender\r\n\t */\r\n    function () payable public {\r\n        emit ReceiveEther(msg.sender, msg.value);\r\n    }\r\n\r\n    /**\r\n\t * @dev withdraw,send ether to target\r\n\t * @param _to is where the ether will be sent to\r\n\t *        _amount is the number of the ether\r\n\t */\r\n    function withdraw(address _to, uint _amount) public onlyOwner returns (bool) {\r\n        require(_to != address(0));\r\n        _to.transfer(_amount);\r\n        emit WithdrawEther(_to, _amount);\r\n\r\n        return true;\r\n    }\r\n\r\n    /**\r\n\t * @dev withdraw tokens, send tokens to target\r\n     *\r\n     * @param _token the token address that will be withdraw\r\n\t * @param _to is where the tokens will be sent to\r\n\t *        _value is the number of the token\r\n\t */\r\n    function withdrawToken(address _token, address _to, uint256 _value) public onlyOwner returns (bool) {\r\n        require(_to != address(0));\r\n        require(_token != address(0));\r\n\r\n        ERC20 tk = ERC20(_token);\r\n        tk.transfer(_to, _value);\r\n        emit WithdrawToken(_token, _to, _value);\r\n\r\n        return true;\r\n    }\r\n\r\n    /**\r\n     * @dev receive approval from an ERC20 token contract, and then gain the tokens, \r\n     *      then take a record\r\n     *\r\n     * @param _from address The address which you want to send tokens from\r\n     * @param _value uint256 the amounts of tokens to be sent\r\n     * @param _token address the ERC20 token address\r\n     * @param _extraData bytes the extra data for the record\r\n     */\r\n    // function receiveApproval(address _from, uint256 _value, address _token, bytes _extraData) public {\r\n    //     require(_token != address(0));\r\n    //     require(_from != address(0));\r\n        \r\n    //     ERC20 tk = ERC20(_token);\r\n    //     require(tk.transferFrom(_from, this, _value));\r\n        \r\n    //     emit ReceiveDeposit(_from, _value, _token, _extraData);\r\n    // }\r\n}\r\n\r\ncontract DepositWithdraw is Claimable, Pausable, withdrawable, Destructible, TokenDestructible {\r\n    using SafeMath for uint256;\r\n\r\n    struct TransferRecord {\r\n        uint256 timeStamp;\r\n        address account;\r\n        uint256 value;\r\n    }\r\n\r\n    TransferRecord[] deposRecs;\r\n    TransferRecord[] withdrRecs;\r\n\r\n    address wallet; // the binded withdraw address\r\n\r\n    event ReceiveDeposit(address _from, uint256 _value, address _token, bytes _extraData);\r\n    \r\n    constructor(address _wallet) public {\r\n        require(_wallet != address(0));\r\n        wallet = _wallet;\r\n    }\r\n\r\n    /**\r\n\t * @dev set the default wallet address\r\n\t * @param _wallet the default wallet address binded to this deposit contract\r\n\t */\r\n    function setWithdrawWallet(address _wallet) onlyOwner public returns (bool) {\r\n        require(_wallet != address(0));\r\n        wallet = _wallet;\r\n\r\n        return true;\r\n    }\r\n\r\n    function bytesToBytes32(bytes _data) public pure returns (bytes32 result) {\r\n        assembly {\r\n            result := mload(add(_data, 32))\r\n        }\r\n    }\r\n\r\n    /**\r\n     * @dev receive approval from an ERC20 token contract, take a record\r\n     *\r\n     * @param _from address The address which you want to send tokens from\r\n     * @param _value uint256 the amounts of tokens to be sent\r\n     * @param _token address the ERC20 token address\r\n     * @param _extraData bytes the extra data for the record\r\n     */\r\n    function receiveApproval(address _from, uint256 _value, address _token, bytes _extraData) onlyOwner whenNotPaused public {\r\n        require(_token != address(0));\r\n        require(_from != address(0));\r\n        \r\n        ERC20 tk = ERC20(_token);\r\n        require(tk.transferFrom(_from, this, _value));\r\n        bytes32 timestamp = bytesToBytes32(_extraData);\r\n        deposRecs.push(TransferRecord(uint256(timestamp), _from, _value));\r\n        emit ReceiveDeposit(_from, _value, _token, _extraData);\r\n    }\r\n\r\n    /**\r\n\t * @dev withdraw tokens, send tokens to target\r\n     *\r\n     * @param _token the token address that will be withdraw\r\n\t * @param _to is where the tokens will be sent to\r\n\t *        _value is the number of the token\r\n     *        _fee is the amount of the transferring costs\r\n     *        tokenReturn is the address that return back the tokens of the _fee\r\n\t */\r\n    function withdrawToken(address _token, uint256 _time, address _to, uint256 _value, uint256 _fee, address _tokenReturn) public onlyOwner whenNotPaused returns (bool) {\r\n        require(_to != address(0));\r\n        require(_token != address(0));\r\n        require(_value > _fee);\r\n        // require(_tokenReturn != address(0));\r\n\r\n        ERC20 tk = ERC20(_token);\r\n        uint256 realAmount = _value.sub(_fee);\r\n        tk.transfer(_to, realAmount);\r\n        if (_tokenReturn != address(0) && _fee > 0) {\r\n            tk.transfer(_tokenReturn, _fee);\r\n        }\r\n        withdrRecs.push(TransferRecord(_time, _to, realAmount));\r\n        emit WithdrawToken(_token, _to, realAmount);\r\n\r\n        return true;\r\n    }\r\n\r\n    /**\r\n\t * @dev withdraw tokens, send tokens to target\r\n     *\r\n     * @param _token the token address that will be withdraw\r\n\t * @param _to is where the tokens will be sent to\r\n\t *        _value is the number of the token\r\n\t */\r\n    // function withdrawToken(address _token, uint256 _time, address _to, uint256 _value) public onlyOwner whenNotPaused returns (bool) {\r\n    //     require(_to != address(0));\r\n    //     require(_token != address(0));\r\n\r\n    //     ERC20 tk = ERC20(_token);\r\n    //     tk.transfer(_to, _value);\r\n    //     withdrRecs.push(TransferRecord(_time, _to, _value));\r\n    //     emit WithdrawToken(_token, _to, _value);\r\n\r\n    //     return true;\r\n    // }\r\n\r\n    /**\r\n\t * @dev withdraw tokens, send tokens to target default wallet\r\n     *\r\n     * @param _token the token address that will be withdraw\r\n     * @param _time the timestamp occur the withdraw record\r\n\t * @param _value is the number of the token\r\n\t */\r\n    // function withdrawTokenToDefault(address _token, uint256 _time, uint256 _value) public onlyOwner whenNotPaused returns (bool) {\r\n    //     return withdrawToken(_token, _time, wallet, _value);\r\n    // }\r\n\r\n    /**\r\n\t * @dev withdraw tokens, send tokens to target default wallet\r\n     *\r\n     * @param _token the token address that will be withdraw\r\n     * @param _time the timestamp occur the withdraw record\r\n\t * @param _value is the number of the token\r\n     *        _fee is the amount of the transferring costs\r\n     *        tokenReturn is the address that return back the tokens of the _fee\r\n\t */\r\n    function withdrawTokenToDefault(address _token, uint256 _time, uint256 _value, uint256 _fee, address _tokenReturn) public onlyOwner whenNotPaused returns (bool) {\r\n        return withdrawToken(_token, _time, wallet, _value, _fee, _tokenReturn);\r\n    }\r\n\r\n    /**\r\n\t * @dev get the Deposit records number\r\n     *\r\n     */\r\n    function getDepositNum() public view returns (uint256) {\r\n        return deposRecs.length;\r\n    }\r\n\r\n    /**\r\n\t * @dev get the one of the Deposit records\r\n     *\r\n     * @param _ind the deposit record index\r\n     */\r\n    function getOneDepositRec(uint256 _ind) public view returns (uint256, address, uint256) {\r\n        require(_ind < deposRecs.length);\r\n\r\n        return (deposRecs[_ind].timeStamp, deposRecs[_ind].account, deposRecs[_ind].value);\r\n    }\r\n\r\n    /**\r\n\t * @dev get the withdraw records number\r\n     *\r\n     */\r\n    function getWithdrawNum() public view returns (uint256) {\r\n        return withdrRecs.length;\r\n    }\r\n    \r\n    /**\r\n\t * @dev get the one of the withdraw records\r\n     *\r\n     * @param _ind the withdraw record index\r\n     */\r\n    function getOneWithdrawRec(uint256 _ind) public view returns (uint256, address, uint256) {\r\n        require(_ind < withdrRecs.length);\r\n\r\n        return (withdrRecs[_ind].timeStamp, withdrRecs[_ind].account, withdrRecs[_ind].value);\r\n    }\r\n}\r\n\r\ncontract DRCWalletManager is OwnerContract, withdrawable, Destructible, TokenDestructible {\r\n    using SafeMath for uint256;\r\n\r\n    struct WithdrawWallet {\r\n        bytes32 name;\r\n        address walletAddr;\r\n    }\r\n\r\n    struct DepositRepository {\r\n        uint256 balance;\r\n        uint256 frozen;\r\n        WithdrawWallet[] withdrawWallets;\r\n        // mapping (bytes32 => address) withdrawWallets;\r\n    }\r\n\r\n    mapping (address => DepositRepository) depositRepos;\r\n    mapping (address => address) walletDeposits;\r\n    mapping (address => bool) public frozenDeposits;\r\n\r\n    ERC20 public tk;\r\n    address public tokenReturn;\r\n    uint256 public chargeFee;\r\n    \r\n    event CreateDepositAddress(address indexed _wallet, address _deposit);\r\n    event FrozenTokens(address indexed _deposit, uint256 _value);\r\n    event ChangeDefaultWallet(address indexed _oldWallet, address _newWallet);\r\n\r\n    function bindToken(address _token) onlyOwner public returns (bool) {\r\n        require(_token != address(0));\r\n\r\n        tk = ERC20(_token);\r\n        return true;\r\n    }\r\n\r\n    function setTokenReturnAddress(address _tokenReturn) onlyOwner public {\r\n        require(_tokenReturn != address(0));\r\n        tokenReturn = _tokenReturn;\r\n    }\r\n\r\n    function setChargeFee(uint256 _fee) onlyOwner public {\r\n        chargeFee = _fee;\r\n    }\r\n\r\n    function createDepositContract(address _wallet) onlyOwner public returns (address) {\r\n        require(_wallet != address(0));\r\n\r\n        DepositWithdraw deposWithdr = new DepositWithdraw(_wallet);\r\n        walletDeposits[_wallet] = address(deposWithdr);\r\n        depositRepos[deposWithdr].balance = 0;\r\n        depositRepos[deposWithdr].frozen = 0;\r\n        WithdrawWallet[] storage withdrawWalletList = depositRepos[deposWithdr].withdrawWallets;\r\n        withdrawWalletList.push(WithdrawWallet(\"default wallet\", _wallet));\r\n        emit CreateDepositAddress(_wallet, address(deposWithdr));\r\n\r\n        return deposWithdr;\r\n    }\r\n\r\n    function getDepositAddress(address _wallet) onlyOwner public view returns (address) {\r\n        require(_wallet != address(0));\r\n        address deposit = walletDeposits[_wallet];\r\n\r\n        return deposit;\r\n    }\r\n\r\n    function getDepositInfo(address _deposit) onlyOwner public returns (uint256, uint256) {\r\n        require(_deposit != address(0));\r\n        uint256 _balance = tk.balanceOf(_deposit);\r\n        uint256 frozenAmount = depositRepos[_deposit].frozen;\r\n        depositRepos[_deposit].balance = _balance;\r\n\r\n        return (_balance, frozenAmount);\r\n    }\r\n\r\n    function getDepositBalance(address _deposit) onlyOwner public returns (uint256) {\r\n        require(_deposit != address(0));\r\n        uint256 _balance = tk.balanceOf(_deposit);\r\n\r\n        depositRepos[_deposit].balance = _balance;\r\n        return _balance;\r\n    }\r\n\r\n    function getDepositFrozen(address _deposit) onlyOwner public view returns (uint256) {\r\n        require(_deposit != address(0));\r\n        uint256 frozenAmount = depositRepos[_deposit].frozen;\r\n\r\n        return frozenAmount;\r\n    }\r\n\r\n    function getDepositWithdrawCount(address _deposit) onlyOwner public view returns (uint) {\r\n        require(_deposit != address(0));\r\n\r\n        WithdrawWallet[] storage withdrawWalletList = depositRepos[_deposit].withdrawWallets;\r\n        uint len = withdrawWalletList.length;\r\n\r\n        return len;\r\n    }\r\n\r\n    function getDepositWithdrawList(address _deposit, uint[] _indices) onlyOwner public view returns (bytes32[], address[]) {\r\n        require(_indices.length != 0);\r\n\r\n        bytes32[] memory names = new bytes32[](_indices.length);\r\n        address[] memory wallets = new address[](_indices.length);\r\n        \r\n        for (uint i = 0; i < _indices.length; i = i.add(1)) {\r\n            WithdrawWallet storage wallet = depositRepos[_deposit].withdrawWallets[_indices[i]];\r\n            names[i] = wallet.name;\r\n            wallets[i] = wallet.walletAddr;\r\n        }\r\n        \r\n        return (names, wallets);\r\n    }\r\n\r\n    function changeDefaultWithdraw(address _oldWallet, address _newWallet) onlyOwner public returns (bool) {\r\n        require(_newWallet != address(0));\r\n        \r\n        address deposit = walletDeposits[_oldWallet];\r\n        DepositWithdraw deposWithdr = DepositWithdraw(deposit);\r\n        require(deposWithdr.setWithdrawWallet(_newWallet));\r\n\r\n        WithdrawWallet[] storage withdrawWalletList = depositRepos[deposit].withdrawWallets;\r\n        withdrawWalletList[0].walletAddr = _newWallet;\r\n        emit ChangeDefaultWallet(_oldWallet, _newWallet);\r\n\r\n        return true;\r\n    }\r\n\r\n    function freezeTokens(address _deposit, uint256 _value) onlyOwner public returns (bool) {\r\n        require(_deposit != address(0));\r\n        \r\n        frozenDeposits[_deposit] = true;\r\n        depositRepos[_deposit].frozen = _value;\r\n\r\n        emit FrozenTokens(_deposit, _value);\r\n        return true;\r\n    }\r\n\r\n    // function withdraw(address _deposit, uint256 _time, uint256 _value) onlyOwner public returns (bool) {\r\n    //     require(_deposit != address(0));\r\n    //     require(_value <= depositRepos[_deposit].balance);\r\n\r\n    //     uint256 _balance = depositRepos[_deposit].balance;\r\n    //     uint256 frozenAmount = depositRepos[_deposit].frozen;\r\n    //     require(_value <= _balance.sub(frozenAmount));\r\n\r\n    //     DepositWithdraw deposWithdr = DepositWithdraw(_deposit);\r\n    //     return (deposWithdr.withdrawTokenToDefault(address(tk), _time, _value));\r\n    // }\r\n\r\n    function withdrawWithFee(address _deposit, uint256 _time, uint256 _value) onlyOwner public returns (bool) {\r\n        require(_deposit != address(0));\r\n        require(_value <= depositRepos[_deposit].balance);\r\n\r\n        uint256 _balance = depositRepos[_deposit].balance;\r\n        uint256 frozenAmount = depositRepos[_deposit].frozen;\r\n        require(_value <= _balance.sub(frozenAmount));\r\n\r\n        require(tk.transfer(msg.sender, _value));\r\n\r\n        DepositWithdraw deposWithdr = DepositWithdraw(_deposit);\r\n        return (deposWithdr.withdrawTokenToDefault(address(tk), _time, _value, chargeFee, tokenReturn));\r\n    }\r\n\r\n    function checkWithdrawAddress(address _deposit, bytes32 _name, address _to) public view returns (bool, bool) {\r\n        uint len = depositRepos[_deposit].withdrawWallets.length;\r\n        for (uint i = 0; i < len; i = i.add(1)) {\r\n            WithdrawWallet storage wallet = depositRepos[_deposit].withdrawWallets[i];\r\n            if (_name == wallet.name) {\r\n                return(true, (_to == wallet.walletAddr));\r\n            }\r\n        }\r\n\r\n        return (false, true);\r\n    }\r\n\r\n    // function withdraw(address _deposit, uint256 _time, bytes32 _name, address _to, uint256 _value) onlyOwner public returns (bool) {\r\n    //     require(_deposit != address(0));\r\n    //     require(_to != address(0));\r\n    //     require(_value <= depositRepos[_deposit].balance);\r\n\r\n    //     uint256 _balance = depositRepos[_deposit].balance;\r\n    //     uint256 frozenAmount = depositRepos[_deposit].frozen;\r\n    //     require(_value <= _balance.sub(frozenAmount));\r\n\r\n    //     bool exist;\r\n    //     bool correct;\r\n    //     WithdrawWallet[] storage withdrawWalletList = depositRepos[_deposit].withdrawWallets;\r\n    //     (exist, correct) = checkWithdrawAddress(_deposit, _name, _to);\r\n    //     if(!exist) {\r\n    //         withdrawWalletList.push(WithdrawWallet(_name, _to));\r\n    //     } else if(!correct) {\r\n    //         return false;\r\n    //     }\r\n\r\n    //     DepositWithdraw deposWithdr = DepositWithdraw(_deposit);\r\n    //     return (deposWithdr.withdrawToken(tk, _time, _to, _value));        \r\n    // }\r\n\r\n    function withdrawWithFee(address _deposit, uint256 _time, bytes32 _name, address _to, uint256 _value, bool _check) onlyOwner public returns (bool) {\r\n        require(_deposit != address(0));\r\n        require(_to != address(0));\r\n        if (_check) {\r\n            require(_value <= depositRepos[_deposit].balance);\r\n        }\r\n\r\n        uint256 _balance = depositRepos[_deposit].balance;\r\n        uint256 frozenAmount = depositRepos[_deposit].frozen;\r\n        uint256 available = _balance.sub(frozenAmount);\r\n        if (_check) {\r\n            require(_value <= available);\r\n        }\r\n\r\n        bool exist;\r\n        bool correct;\r\n        WithdrawWallet[] storage withdrawWalletList = depositRepos[_deposit].withdrawWallets;\r\n        (exist, correct) = checkWithdrawAddress(_deposit, _name, _to);\r\n        if(!exist) {\r\n            withdrawWalletList.push(WithdrawWallet(_name, _to));\r\n        } else if(!correct) {\r\n            return false;\r\n        }\r\n\r\n        DepositWithdraw deposWithdr = DepositWithdraw(_deposit);\r\n        if (_value > available) {\r\n            tk.transfer(deposWithdr, _value.sub(available));\r\n        }\r\n\r\n        return (deposWithdr.withdrawToken(address(tk), _time, _to, _value, chargeFee, tokenReturn));        \r\n    }\r\n\r\n    // function withdrawNoCheck(address _deposit, uint256 _time, bytes32 _name, address _to, uint256 _value) onlyOwner public returns (bool) {\r\n    //     require(_deposit != address(0));\r\n    //     require(_to != address(0));\r\n\r\n    //     uint256 _balance = depositRepos[_deposit].balance;\r\n    //     uint256 frozenAmount = depositRepos[_deposit].frozen;\r\n    //     uint256 available = _balance.sub(frozenAmount);\r\n\r\n    //     bool exist;\r\n    //     bool correct;\r\n    //     WithdrawWallet[] storage withdrawWalletList = depositRepos[_deposit].withdrawWallets;\r\n    //     (exist, correct) = checkWithdrawAddress(_deposit, _name, _to);\r\n    //     if(!exist) {\r\n    //         withdrawWalletList.push(WithdrawWallet(_name, _to));\r\n    //     } else if(!correct) {\r\n    //         return false;\r\n    //     }\r\n\r\n    //     DepositWithdraw deposWithdr = DepositWithdraw(_deposit);\r\n    //     if (_value > available) {\r\n    //         tk.transfer(deposWithdr, _value.sub(available));\r\n    //     }\r\n\r\n    //     return (deposWithdr.withdrawToken(tk, _time, _to, _value));\r\n    // }\r\n\r\n    // function withdrawWithFeeNoCheck(address _deposit, uint256 _time, bytes32 _name, address _to, uint256 _value) onlyOwner public returns (bool) {\r\n    //     require(_deposit != address(0));\r\n    //     require(_to != address(0));\r\n\r\n    //     uint256 _balance = depositRepos[_deposit].balance;\r\n    //     uint256 frozenAmount = depositRepos[_deposit].frozen;\r\n    //     uint256 available = _balance.sub(frozenAmount);\r\n\r\n    //     bool exist;\r\n    //     bool correct;\r\n    //     WithdrawWallet[] storage withdrawWalletList = depositRepos[_deposit].withdrawWallets;\r\n    //     (exist, correct) = checkWithdrawAddress(_deposit, _name, _to);\r\n    //     if(!exist) {\r\n    //         withdrawWalletList.push(WithdrawWallet(_name, _to));\r\n    //     } else if(!correct) {\r\n    //         return false;\r\n    //     }\r\n\r\n    //     DepositWithdraw deposWithdr = DepositWithdraw(_deposit);\r\n    //     if (_value > available) {\r\n    //         tk.transfer(deposWithdr, _value.sub(available));\r\n    //     }\r\n\r\n    //     return (deposWithdr.withdrawToken(tk, _time, _to, _value, chargeFee, tokenReturn));\r\n    // }\r\n\r\n}",
  "sourcePath": "D:\\workspace\\Dapp\\DRCWalletManager\\contracts\\DRCWalletManager.sol",
  "compiler": {
    "name": "solc",
    "version": "0.4.23+commit.124ca40d.Emscripten.clang"
  },
  "schemaVersion": "2.0.0",
  "updatedAt": "2018-05-14T04:07:30.060Z"
}