{
  "contractName": "DepositWithdraw",
  "abi": [
    {
      "constant": false,
      "inputs": [],
      "name": "claimOwnership",
      "outputs": [],
      "payable": false,
      "stateMutability": "nonpayable",
      "type": "function"
    },
    {
      "constant": false,
      "inputs": [],
      "name": "renounceOwnership",
      "outputs": [],
      "payable": false,
      "stateMutability": "nonpayable",
      "type": "function"
    },
    {
      "constant": true,
      "inputs": [],
      "name": "owner",
      "outputs": [
        {
          "name": "",
          "type": "address"
        }
      ],
      "payable": false,
      "stateMutability": "view",
      "type": "function"
    },
    {
      "constant": false,
      "inputs": [
        {
          "name": "_tokens",
          "type": "address[]"
        }
      ],
      "name": "destroy",
      "outputs": [],
      "payable": false,
      "stateMutability": "nonpayable",
      "type": "function"
    },
    {
      "constant": true,
      "inputs": [],
      "name": "pendingOwner",
      "outputs": [
        {
          "name": "",
          "type": "address"
        }
      ],
      "payable": false,
      "stateMutability": "view",
      "type": "function"
    },
    {
      "constant": false,
      "inputs": [
        {
          "name": "newOwner",
          "type": "address"
        }
      ],
      "name": "transferOwnership",
      "outputs": [],
      "payable": false,
      "stateMutability": "nonpayable",
      "type": "function"
    },
    {
      "constant": false,
      "inputs": [
        {
          "name": "_to",
          "type": "address"
        },
        {
          "name": "_amount",
          "type": "uint256"
        }
      ],
      "name": "withdraw",
      "outputs": [
        {
          "name": "",
          "type": "bool"
        }
      ],
      "payable": false,
      "stateMutability": "nonpayable",
      "type": "function"
    },
    {
      "inputs": [
        {
          "name": "_wallet",
          "type": "address"
        }
      ],
      "payable": false,
      "stateMutability": "nonpayable",
      "type": "constructor"
    },
    {
      "payable": true,
      "stateMutability": "payable",
      "type": "fallback"
    },
    {
      "anonymous": false,
      "inputs": [
        {
          "indexed": false,
          "name": "_from",
          "type": "address"
        },
        {
          "indexed": false,
          "name": "_value",
          "type": "uint256"
        },
        {
          "indexed": false,
          "name": "_token",
          "type": "address"
        },
        {
          "indexed": false,
          "name": "_extraData",
          "type": "bytes"
        }
      ],
      "name": "ReceiveDeposit",
      "type": "event"
    },
    {
      "anonymous": false,
      "inputs": [
        {
          "indexed": false,
          "name": "_from",
          "type": "address"
        },
        {
          "indexed": false,
          "name": "_value",
          "type": "uint256"
        }
      ],
      "name": "ReceiveEther",
      "type": "event"
    },
    {
      "anonymous": false,
      "inputs": [
        {
          "indexed": false,
          "name": "_to",
          "type": "address"
        },
        {
          "indexed": false,
          "name": "_value",
          "type": "uint256"
        }
      ],
      "name": "WithdrawEther",
      "type": "event"
    },
    {
      "anonymous": false,
      "inputs": [
        {
          "indexed": false,
          "name": "_token",
          "type": "address"
        },
        {
          "indexed": false,
          "name": "_to",
          "type": "address"
        },
        {
          "indexed": false,
          "name": "_value",
          "type": "uint256"
        }
      ],
      "name": "WithdrawToken",
      "type": "event"
    },
    {
      "anonymous": false,
      "inputs": [
        {
          "indexed": true,
          "name": "previousOwner",
          "type": "address"
        }
      ],
      "name": "OwnershipRenounced",
      "type": "event"
    },
    {
      "anonymous": false,
      "inputs": [
        {
          "indexed": true,
          "name": "previousOwner",
          "type": "address"
        },
        {
          "indexed": true,
          "name": "newOwner",
          "type": "address"
        }
      ],
      "name": "OwnershipTransferred",
      "type": "event"
    },
    {
      "constant": false,
      "inputs": [
        {
          "name": "_wallet",
          "type": "address"
        }
      ],
      "name": "setWithdrawWallet",
      "outputs": [
        {
          "name": "",
          "type": "bool"
        }
      ],
      "payable": false,
      "stateMutability": "nonpayable",
      "type": "function"
    },
    {
      "constant": true,
      "inputs": [
        {
          "name": "_data",
          "type": "bytes"
        }
      ],
      "name": "bytesToBytes32",
      "outputs": [
        {
          "name": "result",
          "type": "bytes32"
        }
      ],
      "payable": false,
      "stateMutability": "pure",
      "type": "function"
    },
    {
      "constant": false,
      "inputs": [
        {
          "name": "_from",
          "type": "address"
        },
        {
          "name": "_value",
          "type": "uint256"
        },
        {
          "name": "_token",
          "type": "address"
        },
        {
          "name": "_extraData",
          "type": "bytes"
        }
      ],
      "name": "receiveApproval",
      "outputs": [],
      "payable": false,
      "stateMutability": "nonpayable",
      "type": "function"
    },
    {
      "constant": false,
      "inputs": [
        {
          "name": "_time",
          "type": "uint256"
        },
        {
          "name": "_to",
          "type": "address"
        },
        {
          "name": "_value",
          "type": "uint256"
        }
      ],
      "name": "recordWithdraw",
      "outputs": [],
      "payable": false,
      "stateMutability": "nonpayable",
      "type": "function"
    },
    {
      "constant": false,
      "inputs": [
        {
          "name": "_params",
          "type": "address"
        },
        {
          "name": "_value",
          "type": "uint256"
        },
        {
          "name": "_time",
          "type": "uint256"
        }
      ],
      "name": "checkWithdrawAmount",
      "outputs": [
        {
          "name": "",
          "type": "bool"
        }
      ],
      "payable": false,
      "stateMutability": "nonpayable",
      "type": "function"
    },
    {
      "constant": false,
      "inputs": [
        {
          "name": "_token",
          "type": "address"
        },
        {
          "name": "_params",
          "type": "address"
        },
        {
          "name": "_time",
          "type": "uint256"
        },
        {
          "name": "_to",
          "type": "address"
        },
        {
          "name": "_value",
          "type": "uint256"
        },
        {
          "name": "_fee",
          "type": "uint256"
        },
        {
          "name": "_tokenReturn",
          "type": "address"
        }
      ],
      "name": "withdrawToken",
      "outputs": [
        {
          "name": "",
          "type": "bool"
        }
      ],
      "payable": false,
      "stateMutability": "nonpayable",
      "type": "function"
    },
    {
      "constant": false,
      "inputs": [
        {
          "name": "_token",
          "type": "address"
        },
        {
          "name": "_to",
          "type": "address"
        },
        {
          "name": "_value",
          "type": "uint256"
        }
      ],
      "name": "withdrawToken",
      "outputs": [
        {
          "name": "",
          "type": "bool"
        }
      ],
      "payable": false,
      "stateMutability": "nonpayable",
      "type": "function"
    },
    {
      "constant": false,
      "inputs": [
        {
          "name": "_token",
          "type": "address"
        },
        {
          "name": "_params",
          "type": "address"
        },
        {
          "name": "_time",
          "type": "uint256"
        },
        {
          "name": "_value",
          "type": "uint256"
        },
        {
          "name": "_fee",
          "type": "uint256"
        },
        {
          "name": "_tokenReturn",
          "type": "address"
        }
      ],
      "name": "withdrawTokenToDefault",
      "outputs": [
        {
          "name": "",
          "type": "bool"
        }
      ],
      "payable": false,
      "stateMutability": "nonpayable",
      "type": "function"
    },
    {
      "constant": true,
      "inputs": [],
      "name": "getDepositNum",
      "outputs": [
        {
          "name": "",
          "type": "uint256"
        }
      ],
      "payable": false,
      "stateMutability": "view",
      "type": "function"
    },
    {
      "constant": true,
      "inputs": [
        {
          "name": "_ind",
          "type": "uint256"
        }
      ],
      "name": "getOneDepositRec",
      "outputs": [
        {
          "name": "",
          "type": "uint256"
        },
        {
          "name": "",
          "type": "address"
        },
        {
          "name": "",
          "type": "uint256"
        }
      ],
      "payable": false,
      "stateMutability": "view",
      "type": "function"
    },
    {
      "constant": true,
      "inputs": [],
      "name": "getWithdrawNum",
      "outputs": [
        {
          "name": "",
          "type": "uint256"
        }
      ],
      "payable": false,
      "stateMutability": "view",
      "type": "function"
    },
    {
      "constant": true,
      "inputs": [
        {
          "name": "_ind",
          "type": "uint256"
        }
      ],
      "name": "getOneWithdrawRec",
      "outputs": [
        {
          "name": "",
          "type": "uint256"
        },
        {
          "name": "",
          "type": "address"
        },
        {
          "name": "",
          "type": "uint256"
        }
      ],
      "payable": false,
      "stateMutability": "view",
      "type": "function"
    }
  ],
  "bytecode": "0x608060405234801561001057600080fd5b506040516020806114f0833981016040525160008054600160a060020a03191633179055600160a060020a038116151561004957600080fd5b600a8054600160a060020a031916600160a060020a0392909216919091179055611478806100786000396000f3006080604052600436106100ec5763ffffffff60e060020a600035041662226eb5811461012857806301e336671461014f5780634e71e0c81461018d57806366013bdd146101a457806368c31649146101e3578063715018a61461020a57806374cd5c0b1461021f5780638da5cb5b1461025d5780638f4ffcb11461028e5780639373f432146102fe5780639bdd070d1461031f578063a901199014610358578063ab40340a14610370578063bfe370d914610397578063c5a88559146103f0578063c6786e5a14610405578063e30c39781461045a578063f2fde38b1461046f578063f3fef3a314610490575b6040805133815234602082015281517ff32a9f77675fd5917534c7746608fd3e309eac68fbdcbf5925e24ca97a704396929181900390910190a1005b34801561013457600080fd5b5061013d6104b4565b60408051918252519081900360200190f35b34801561015b57600080fd5b50610179600160a060020a03600435811690602435166044356104ba565b604080519115158252519081900360200190f35b34801561019957600080fd5b506101a26105ec565b005b3480156101b057600080fd5b50610179600160a060020a03600435811690602435811690604435906064358116906084359060a4359060c43516610674565b3480156101ef57600080fd5b50610179600160a060020a03600435166024356044356108a7565b34801561021657600080fd5b506101a2610bdf565b34801561022b57600080fd5b50610237600435610c4b565b60408051938452600160a060020a03909216602084015282820152519081900360600190f35b34801561026957600080fd5b50610272610ce2565b60408051600160a060020a039092168252519081900360200190f35b34801561029a57600080fd5b50604080516020601f6064356004818101359283018490048402850184019095528184526101a294600160a060020a03813581169560248035966044359093169536956084949201918190840183828082843750949750610cf19650505050505050565b34801561030a57600080fd5b50610179600160a060020a0360043516610f83565b34801561032b57600080fd5b50610179600160a060020a0360043581169060243581169060443590606435906084359060a43516610fe2565b34801561036457600080fd5b50610237600435611023565b34801561037c57600080fd5b506101a2600435600160a060020a0360243516604435611095565b3480156103a357600080fd5b506040805160206004803580820135601f810184900484028501840190955284845261013d9436949293602493928401919081908401838280828437509497506111789650505050505050565b3480156103fc57600080fd5b5061013d61117f565b34801561041157600080fd5b50604080516020600480358082013583810280860185019096528085526101a2953695939460249493850192918291850190849080828437509497506111859650505050505050565b34801561046657600080fd5b5061027261130c565b34801561047b57600080fd5b506101a2600160a060020a036004351661131b565b34801561049c57600080fd5b50610179600160a060020a0360043516602435611361565b60025490565b600080548190600160a060020a031633146104d457600080fd5b600160a060020a03841615156104e957600080fd5b600160a060020a03851615156104fe57600080fd5b50604080517fa9059cbb000000000000000000000000000000000000000000000000000000008152600160a060020a038581166004830152602482018590529151869283169163a9059cbb9160448083019260209291908290030181600087803b15801561056b57600080fd5b505af115801561057f573d6000803e3d6000fd5b505050506040513d602081101561059557600080fd5b505060408051600160a060020a0380881682528616602082015280820185905290517f037238854fe57fbf51f09946f854fc3916fe83938d6521f09bd05463839f13049181900360600190a1506001949350505050565b600154600160a060020a0316331461060357600080fd5b60015460008054604051600160a060020a0393841693909116917f8be0079c531659141344cd1fd0a4f28419497f9722a3daafe3b4186f6b6457e091a3600180546000805473ffffffffffffffffffffffffffffffffffffffff19908116600160a060020a03841617909155169055565b6000805481908190600160a060020a0316331461069057600080fd5b600160a060020a03871615156106a557600080fd5b600160a060020a038a1615156106ba57600080fd5b8486116106c657600080fd5b6106d189878a6108a7565b15156106dc57600080fd5b8991506106ef868663ffffffff61141216565b905081600160a060020a031663a9059cbb88836040518363ffffffff1660e060020a0281526004018083600160a060020a0316600160a060020a0316815260200182815260200192505050602060405180830381600087803b15801561075457600080fd5b505af1158015610768573d6000803e3d6000fd5b505050506040513d602081101561077e57600080fd5b5051151561078b57600080fd5b600160a060020a038416158015906107a35750600085115b156108425781600160a060020a031663a9059cbb85876040518363ffffffff1660e060020a0281526004018083600160a060020a0316600160a060020a0316815260200182815260200192505050602060405180830381600087803b15801561080b57600080fd5b505af115801561081f573d6000803e3d6000fd5b505050506040513d602081101561083557600080fd5b5051151561084257600080fd5b61084d888883611095565b60408051600160a060020a03808d1682528916602082015280820183905290517f037238854fe57fbf51f09946f854fc3916fe83938d6521f09bd05463839f13049181900360600190a15060019998505050505050505050565b60008060008086925082600160a060020a0316637312aaae6040518163ffffffff1660e060020a028152600401602060405180830381600087803b1580156108ee57600080fd5b505af1158015610902573d6000803e3d6000fd5b505050506040513d602081101561091857600080fd5b505186111561092657600080fd5b82600160a060020a03166314361fd16040518163ffffffff1660e060020a028152600401602060405180830381600087803b15801561096457600080fd5b505af1158015610978573d6000803e3d6000fd5b505050506040513d602081101561098e57600080fd5b505186101561099c57600080fd5b6109af856201518063ffffffff61142416565b6004549092508211610ae3576005546109cf90600163ffffffff61143916565b6005556006546109e5908763ffffffff61143916565b60046002018190555082600160a060020a031663f213aad26040518163ffffffff1660e060020a028152600401602060405180830381600087803b158015610a2c57600080fd5b505af1158015610a40573d6000803e3d6000fd5b505050506040513d6020811015610a5657600080fd5b50516005541115610a6657600080fd5b82600160a060020a0316635e3cbb7c6040518163ffffffff1660e060020a028152600401602060405180830381600087803b158015610aa457600080fd5b505af1158015610ab8573d6000803e3d6000fd5b505050506040513d6020811015610ace57600080fd5b50516006541115610ade57600080fd5b610af3565b6004829055600160055560068690555b610b068562278d0063ffffffff61142416565b6007549091508111610bc257600854610b2690600163ffffffff61143916565b600855600954610b3c908763ffffffff61143916565b60076002018190555082600160a060020a031663be54f2146040518163ffffffff1660e060020a028152600401602060405180830381600087803b158015610b8357600080fd5b505af1158015610b97573d6000803e3d6000fd5b505050506040513d6020811015610bad57600080fd5b50516009541115610bbd57600080fd5b610bd2565b6007819055600160085560098690555b5060019695505050505050565b600054600160a060020a03163314610bf657600080fd5b60008054604051600160a060020a03909116917ff8df31144d9c2f0f6b59d69b8b98abd5459d07f2742c4df920b25aae33c6482091a26000805473ffffffffffffffffffffffffffffffffffffffff19169055565b600354600090819081908410610c6057600080fd5b6003805485908110610c6e57fe5b906000526020600020906003020160000154600385815481101515610c8f57fe5b906000526020600020906003020160010160009054906101000a9004600160a060020a0316600386815481101515610cc357fe5b9060005260206000209060030201600201549250925092509193909250565b600054600160a060020a031681565b600080548190600160a060020a03163314610d0b57600080fd5b600160a060020a0384161515610d2057600080fd5b600160a060020a0386161515610d3557600080fd5b604080517f23b872dd000000000000000000000000000000000000000000000000000000008152600160a060020a038881166004830152306024830152604482018890529151869450918416916323b872dd916064808201926020929091908290030181600087803b158015610daa57600080fd5b505af1158015610dbe573d6000803e3d6000fd5b505050506040513d6020811015610dd457600080fd5b50511515610de157600080fd5b610dea83611178565b6040805160608082018352838252600160a060020a038a811660208085018281528587018d815260028054600181018255600091825297517f405787fa12a823e0f2b7631cc41b3ba8828b3321ca811111fa75cd3aa3bb5ace60039099029889015591517f405787fa12a823e0f2b7631cc41b3ba8828b3321ca811111fa75cd3aa3bb5acf8801805473ffffffffffffffffffffffffffffffffffffffff1916918716919091179055517f405787fa12a823e0f2b7631cc41b3ba8828b3321ca811111fa75cd3aa3bb5ad09096019590955585519182528181018c9052918a1694810194909452608091840182815288519285019290925287519495507f3bc54c6dcf5be6793947a9f34e5ca45d6ce9196bea304a5550c3e2d2f2156502948b948b948b948b949293909260a085019290860191908190849084905b83811015610f3e578181015183820152602001610f26565b50505050905090810190601f168015610f6b5780820380516001836020036101000a031916815260200191505b509550505050505060405180910390a1505050505050565b60008054600160a060020a03163314610f9b57600080fd5b600160a060020a0382161515610fb057600080fd5b50600a8054600160a060020a03831673ffffffffffffffffffffffffffffffffffffffff199091161790556001919050565b60008054600160a060020a03163314610ffa57600080fd5b600a5461101890889088908890600160a060020a0316888888610674565b979650505050505050565b60025460009081908190841061103857600080fd5b600280548590811061104657fe5b90600052602060002090600302016000015460028581548110151561106757fe5b600091825260209091206001600390920201015460028054600160a060020a039092169187908110610cc357fe5b600054600160a060020a031633146110ac57600080fd5b60408051606081018252938452600160a060020a039283166020850190815290840191825260038054600181018255600082905294517fc2575a0e9e593c00f959f8c92f12db2869c3395a3b0502d05e2516446f71f85b9590910294850155517fc2575a0e9e593c00f959f8c92f12db2869c3395a3b0502d05e2516446f71f85c8401805473ffffffffffffffffffffffffffffffffffffffff19169190931617909155517fc2575a0e9e593c00f959f8c92f12db2869c3395a3b0502d05e2516446f71f85d90910155565b6020015190565b60035490565b6000805481908190600160a060020a031633146111a157600080fd5b600092505b83518310156112fe5783838151811015156111bd57fe5b6020908102909101810151604080517f70a082310000000000000000000000000000000000000000000000000000000081523060048201529051919450600160a060020a038516926370a08231926024808401938290030181600087803b15801561122757600080fd5b505af115801561123b573d6000803e3d6000fd5b505050506040513d602081101561125157600080fd5b505160008054604080517fa9059cbb000000000000000000000000000000000000000000000000000000008152600160a060020a0392831660048201526024810185905290519394509085169263a9059cbb92604480840193602093929083900390910190829087803b1580156112c757600080fd5b505af11580156112db573d6000803e3d6000fd5b505050506040513d60208110156112f157600080fd5b50506001909201916111a6565b600054600160a060020a0316ff5b600154600160a060020a031681565b600054600160a060020a0316331461133257600080fd5b6001805473ffffffffffffffffffffffffffffffffffffffff1916600160a060020a0392909216919091179055565b60008054600160a060020a0316331461137957600080fd5b600160a060020a038316151561138e57600080fd5b604051600160a060020a0384169083156108fc029084906000818181858888f193505050501580156113c4573d6000803e3d6000fd5b5060408051600160a060020a03851681526020810184905281517fdb35132c111efe920cede025e819975671cfd1b8fcc1174762c8670c4e94c211929181900390910190a150600192915050565b60008282111561141e57fe5b50900390565b6000818381151561143157fe5b049392505050565b8181018281101561144657fe5b929150505600a165627a7a72305820d52dca950a6a3d8af4ce8f07729e9eece2056215b9beb265064fa2acbf76c93f0029",
  "source": "pragma solidity ^0.4.23;\r\n\r\n\r\nimport 'openzeppelin-solidity/contracts/ownership/Claimable.sol';\r\nimport 'openzeppelin-solidity/contracts/lifecycle/TokenDestructible.sol';\r\nimport 'openzeppelin-solidity/contracts/token/ERC20/ERC20.sol';\r\nimport 'openzeppelin-solidity/contracts/math/SafeMath.sol';\r\nimport './OwnerContract.sol';\r\nimport './Withdrawable.sol';\r\nimport './DRCWalletMgrParamsInterface.sol';\r\n\r\n\r\n/**\r\n * contract that can deposit and withdraw tokens\r\n */\r\ncontract DepositWithdraw is Claimable, Withdrawable, TokenDestructible {\r\n    using SafeMath for uint256;\r\n\r\n    /**\r\n     * transaction record\r\n     */\r\n    struct TransferRecord {\r\n        uint256 timeStamp;\r\n        address account;\r\n        uint256 value;\r\n    }\r\n    \r\n    /**\r\n     * accumulated transferring amount record\r\n     */\r\n    struct accumulatedRecord {\r\n        uint256 mul;\r\n        uint256 count;\r\n        uint256 value;\r\n    }\r\n\r\n    TransferRecord[] deposRecs; // record all the deposit tx data\r\n    TransferRecord[] withdrRecs; // record all the withdraw tx data\r\n\r\n    accumulatedRecord dayWithdrawRec; // accumulated amount record for one day\r\n    accumulatedRecord monthWithdrawRec; // accumulated amount record for one month\r\n\r\n    address wallet; // the binded withdraw address\r\n\r\n    event ReceiveDeposit(address _from, uint256 _value, address _token, bytes _extraData);\r\n    \r\n    /**\r\n     * @dev constructor of the DepositWithdraw contract\r\n     * @param _wallet the binded wallet address to this depositwithdraw contract\r\n     */\r\n    constructor(address _wallet) public {\r\n        require(_wallet != address(0));\r\n        wallet = _wallet;\r\n    }\r\n\r\n    /**\r\n\t * @dev set the default wallet address\r\n\t * @param _wallet the default wallet address binded to this deposit contract\r\n\t */\r\n    function setWithdrawWallet(address _wallet) onlyOwner public returns (bool) {\r\n        require(_wallet != address(0));\r\n        wallet = _wallet;\r\n\r\n        return true;\r\n    }\r\n\r\n    /**\r\n\t * @dev util function to change bytes data to bytes32 data\r\n\t * @param _data the bytes data to be converted\r\n\t */\r\n    function bytesToBytes32(bytes _data) public pure returns (bytes32 result) {\r\n        assembly {\r\n            result := mload(add(_data, 32))\r\n        }\r\n    }\r\n\r\n    /**\r\n     * @dev receive approval from an ERC20 token contract, take a record\r\n     *\r\n     * @param _from address The address which you want to send tokens from\r\n     * @param _value uint256 the amounts of tokens to be sent\r\n     * @param _token address the ERC20 token address\r\n     * @param _extraData bytes the extra data for the record\r\n     */\r\n    function receiveApproval(address _from, uint256 _value, address _token, bytes _extraData) onlyOwner public {\r\n        require(_token != address(0));\r\n        require(_from != address(0));\r\n        \r\n        ERC20 tk = ERC20(_token);\r\n        require(tk.transferFrom(_from, this, _value));\r\n        bytes32 timestamp = bytesToBytes32(_extraData);\r\n        deposRecs.push(TransferRecord(uint256(timestamp), _from, _value));\r\n        emit ReceiveDeposit(_from, _value, _token, _extraData);\r\n    }\r\n\r\n    // function authorize(address _token, address _spender, uint256 _value) onlyOwner public returns (bool) {\r\n    //     ERC20 tk = ERC20(_token);\r\n    //     require(tk.approve(_spender, _value));\r\n\r\n    //     return true;\r\n    // }\r\n\r\n    /**\r\n     * @dev record withdraw into this contract\r\n     *\r\n     * @param _time the timstamp of the withdraw time\r\n     * @param _to is where the tokens will be sent to\r\n     * @param _value is the number of the token\r\n     */\r\n    function recordWithdraw(uint256 _time, address _to, uint256 _value) onlyOwner public {    \r\n        withdrRecs.push(TransferRecord(_time, _to, _value));\r\n    }\r\n\r\n    /**\r\n     * @dev check if withdraw amount is not valid\r\n     *\r\n     * @param _params the limitation parameters for withdraw\r\n     * @param _value is the number of the token\r\n     * @param _time the timstamp of the withdraw time\r\n     */\r\n    function checkWithdrawAmount(address _params, uint256 _value, uint256 _time) public returns (bool) {\r\n        IDRCWalletMgrParams params = IDRCWalletMgrParams(_params);\r\n        require(_value <= params.singleWithdrawMax());\r\n        require(_value >= params.singleWithdrawMin());\r\n\r\n        uint256 daysCount = _time.div(86400); // one day of seconds\r\n        if (daysCount <= dayWithdrawRec.mul) {\r\n            dayWithdrawRec.count = dayWithdrawRec.count.add(1);\r\n            dayWithdrawRec.value = dayWithdrawRec.value.add(_value);\r\n            require(dayWithdrawRec.count <= params.dayWithdrawCount());\r\n            require(dayWithdrawRec.value <= params.dayWithdraw());\r\n        } else {\r\n            dayWithdrawRec.mul = daysCount;\r\n            dayWithdrawRec.count = 1;\r\n            dayWithdrawRec.value = _value;\r\n        }\r\n        \r\n        uint256 monthsCount = _time.div(86400 * 30);\r\n        if (monthsCount <= monthWithdrawRec.mul) {\r\n            monthWithdrawRec.count = monthWithdrawRec.count.add(1);\r\n            monthWithdrawRec.value = monthWithdrawRec.value.add(_value);\r\n            require(monthWithdrawRec.value <= params.monthWithdraw());\r\n        } else {            \r\n            monthWithdrawRec.mul = monthsCount;\r\n            monthWithdrawRec.count = 1;\r\n            monthWithdrawRec.value = _value;\r\n        }\r\n\r\n        return true;\r\n    }\r\n\r\n    /**\r\n\t * @dev withdraw tokens, send tokens to target\r\n     *\r\n     * @param _token the token address that will be withdraw\r\n     * @param _params the limitation parameters for withdraw\r\n     * @param _time the timstamp of the withdraw time\r\n\t * @param _to is where the tokens will be sent to\r\n\t *        _value is the number of the token\r\n     *        _fee is the amount of the transferring costs\r\n     *        _tokenReturn is the address that return back the tokens of the _fee\r\n\t */\r\n    function withdrawToken(address _token, address _params, uint256 _time, address _to, uint256 _value, uint256 _fee, address _tokenReturn) public onlyOwner returns (bool) {\r\n        require(_to != address(0));\r\n        require(_token != address(0));\r\n        require(_value > _fee);\r\n        // require(_tokenReturn != address(0));\r\n\r\n        require(checkWithdrawAmount(_params, _value, _time));\r\n\r\n        ERC20 tk = ERC20(_token);\r\n        uint256 realAmount = _value.sub(_fee);\r\n        require(tk.transfer(_to, realAmount));\r\n        if (_tokenReturn != address(0) && _fee > 0) {\r\n            require(tk.transfer(_tokenReturn, _fee));\r\n        }\r\n\r\n        recordWithdraw(_time, _to, realAmount);\r\n        emit WithdrawToken(_token, _to, realAmount);\r\n\r\n        return true;\r\n    }\r\n\r\n    /**\r\n\t * @dev withdraw tokens, send tokens to target default wallet\r\n     *\r\n     * @param _token the token address that will be withdraw\r\n     * @param _params the limitation parameters for withdraw\r\n     * @param _time the timestamp occur the withdraw record\r\n\t * @param _value is the number of the token\r\n     *        _fee is the amount of the transferring costs\r\n     *        —tokenReturn is the address that return back the tokens of the _fee\r\n\t */\r\n    function withdrawTokenToDefault(address _token, address _params, uint256 _time, uint256 _value, uint256 _fee, address _tokenReturn) public onlyOwner returns (bool) {\r\n        return withdrawToken(_token, _params, _time, wallet, _value, _fee, _tokenReturn);\r\n    }\r\n\r\n    /**\r\n\t * @dev get the Deposit records number\r\n     *\r\n     */\r\n    function getDepositNum() public view returns (uint256) {\r\n        return deposRecs.length;\r\n    }\r\n\r\n    /**\r\n\t * @dev get the one of the Deposit records\r\n     *\r\n     * @param _ind the deposit record index\r\n     */\r\n    function getOneDepositRec(uint256 _ind) public view returns (uint256, address, uint256) {\r\n        require(_ind < deposRecs.length);\r\n\r\n        return (deposRecs[_ind].timeStamp, deposRecs[_ind].account, deposRecs[_ind].value);\r\n    }\r\n\r\n    /**\r\n\t * @dev get the withdraw records number\r\n     *\r\n     */\r\n    function getWithdrawNum() public view returns (uint256) {\r\n        return withdrRecs.length;\r\n    }\r\n    \r\n    /**\r\n\t * @dev get the one of the withdraw records\r\n     *\r\n     * @param _ind the withdraw record index\r\n     */\r\n    function getOneWithdrawRec(uint256 _ind) public view returns (uint256, address, uint256) {\r\n        require(_ind < withdrRecs.length);\r\n\r\n        return (withdrRecs[_ind].timeStamp, withdrRecs[_ind].account, withdrRecs[_ind].value);\r\n    }\r\n}\r\n",
  "sourcePath": "E:\\workspace\\Dapp\\DRCWalletManager\\contracts\\DepositWithdraw.sol",
  "compiler": {
    "name": "solc",
    "version": "0.4.24+commit.e67f0147.Emscripten.clang"
  },
  "schemaVersion": "2.0.1",
  "updatedAt": "2018-08-30T10:00:14.447Z"
}