{
  "contractName": "Destructible",
  "abi": [
    {
      "constant": false,
      "inputs": [],
      "name": "renounceOwnership",
      "outputs": [],
      "payable": false,
      "stateMutability": "nonpayable",
      "type": "function"
    },
    {
      "constant": true,
      "inputs": [],
      "name": "owner",
      "outputs": [
        {
          "name": "",
          "type": "address"
        }
      ],
      "payable": false,
      "stateMutability": "view",
      "type": "function"
    },
    {
      "constant": false,
      "inputs": [
        {
          "name": "_newOwner",
          "type": "address"
        }
      ],
      "name": "transferOwnership",
      "outputs": [],
      "payable": false,
      "stateMutability": "nonpayable",
      "type": "function"
    },
    {
      "inputs": [],
      "payable": true,
      "stateMutability": "payable",
      "type": "constructor"
    },
    {
      "anonymous": false,
      "inputs": [
        {
          "indexed": true,
          "name": "previousOwner",
          "type": "address"
        }
      ],
      "name": "OwnershipRenounced",
      "type": "event"
    },
    {
      "anonymous": false,
      "inputs": [
        {
          "indexed": true,
          "name": "previousOwner",
          "type": "address"
        },
        {
          "indexed": true,
          "name": "newOwner",
          "type": "address"
        }
      ],
      "name": "OwnershipTransferred",
      "type": "event"
    },
    {
      "constant": false,
      "inputs": [],
      "name": "destroy",
      "outputs": [],
      "payable": false,
      "stateMutability": "nonpayable",
      "type": "function"
    },
    {
      "constant": false,
      "inputs": [
        {
          "name": "_recipient",
          "type": "address"
        }
      ],
      "name": "destroyAndSend",
      "outputs": [],
      "payable": false,
      "stateMutability": "nonpayable",
      "type": "function"
    }
  ],
  "bytecode": "0x608060405260008054600160a060020a0319163317905561029f806100256000396000f30060806040526004361061006c5763ffffffff7c0100000000000000000000000000000000000000000000000000000000600035041663715018a6811461007157806383197ef0146100885780638da5cb5b1461009d578063f2fde38b146100ce578063f5074f41146100ef575b600080fd5b34801561007d57600080fd5b50610086610110565b005b34801561009457600080fd5b5061008661017c565b3480156100a957600080fd5b506100b26101a1565b60408051600160a060020a039092168252519081900360200190f35b3480156100da57600080fd5b50610086600160a060020a03600435166101b0565b3480156100fb57600080fd5b50610086600160a060020a03600435166101d3565b600054600160a060020a0316331461012757600080fd5b60008054604051600160a060020a03909116917ff8df31144d9c2f0f6b59d69b8b98abd5459d07f2742c4df920b25aae33c6482091a26000805473ffffffffffffffffffffffffffffffffffffffff19169055565b600054600160a060020a0316331461019357600080fd5b600054600160a060020a0316ff5b600054600160a060020a031681565b600054600160a060020a031633146101c757600080fd5b6101d0816101f6565b50565b600054600160a060020a031633146101ea57600080fd5b80600160a060020a0316ff5b600160a060020a038116151561020b57600080fd5b60008054604051600160a060020a03808516939216917f8be0079c531659141344cd1fd0a4f28419497f9722a3daafe3b4186f6b6457e091a36000805473ffffffffffffffffffffffffffffffffffffffff1916600160a060020a03929092169190911790555600a165627a7a72305820abe513e94819a730c7ea57a452464b2937f334bcae1964d0d062793ce9091dc80029",
  "source": "pragma solidity ^0.4.13;\r\n\r\ncontract Ownable {\r\n  address public owner;\r\n\r\n\r\n  event OwnershipRenounced(address indexed previousOwner);\r\n  event OwnershipTransferred(\r\n    address indexed previousOwner,\r\n    address indexed newOwner\r\n  );\r\n\r\n\r\n  /**\r\n   * @dev The Ownable constructor sets the original `owner` of the contract to the sender\r\n   * account.\r\n   */\r\n  constructor() public {\r\n    owner = msg.sender;\r\n  }\r\n\r\n  /**\r\n   * @dev Throws if called by any account other than the owner.\r\n   */\r\n  modifier onlyOwner() {\r\n    require(msg.sender == owner);\r\n    _;\r\n  }\r\n\r\n  /**\r\n   * @dev Allows the current owner to relinquish control of the contract.\r\n   */\r\n  function renounceOwnership() public onlyOwner {\r\n    emit OwnershipRenounced(owner);\r\n    owner = address(0);\r\n  }\r\n\r\n  /**\r\n   * @dev Allows the current owner to transfer control of the contract to a newOwner.\r\n   * @param _newOwner The address to transfer ownership to.\r\n   */\r\n  function transferOwnership(address _newOwner) public onlyOwner {\r\n    _transferOwnership(_newOwner);\r\n  }\r\n\r\n  /**\r\n   * @dev Transfers control of the contract to a newOwner.\r\n   * @param _newOwner The address to transfer ownership to.\r\n   */\r\n  function _transferOwnership(address _newOwner) internal {\r\n    require(_newOwner != address(0));\r\n    emit OwnershipTransferred(owner, _newOwner);\r\n    owner = _newOwner;\r\n  }\r\n}\r\n\r\ncontract Autonomy is Ownable {\r\n    address public congress;\r\n    bool init = false;\r\n\r\n    modifier onlyCongress() {\r\n        require(msg.sender == congress);\r\n        _;\r\n    }\r\n\r\n    /**\r\n     * @dev initialize a Congress contract address for this token \r\n     *\r\n     * @param _congress address the congress contract address\r\n     */\r\n    function initialCongress(address _congress) onlyOwner public {\r\n        require(!init);\r\n        require(_congress != address(0));\r\n        congress = _congress;\r\n        init = true;\r\n    }\r\n\r\n    /**\r\n     * @dev set a Congress contract address for this token\r\n     * must change this address by the last congress contract \r\n     *\r\n     * @param _congress address the congress contract address\r\n     */\r\n    function changeCongress(address _congress) onlyCongress public {\r\n        require(_congress != address(0));\r\n        congress = _congress;\r\n    }\r\n}\r\n\r\ncontract Destructible is Ownable {\r\n\r\n  constructor() public payable { }\r\n\r\n  /**\r\n   * @dev Transfers the current balance to the owner and terminates the contract.\r\n   */\r\n  function destroy() onlyOwner public {\r\n    selfdestruct(owner);\r\n  }\r\n\r\n  function destroyAndSend(address _recipient) onlyOwner public {\r\n    selfdestruct(_recipient);\r\n  }\r\n}\r\n\r\ncontract Claimable is Ownable {\r\n  address public pendingOwner;\r\n\r\n  /**\r\n   * @dev Modifier throws if called by any account other than the pendingOwner.\r\n   */\r\n  modifier onlyPendingOwner() {\r\n    require(msg.sender == pendingOwner);\r\n    _;\r\n  }\r\n\r\n  /**\r\n   * @dev Allows the current owner to set the pendingOwner address.\r\n   * @param newOwner The address to transfer ownership to.\r\n   */\r\n  function transferOwnership(address newOwner) onlyOwner public {\r\n    pendingOwner = newOwner;\r\n  }\r\n\r\n  /**\r\n   * @dev Allows the pendingOwner address to finalize the transfer.\r\n   */\r\n  function claimOwnership() onlyPendingOwner public {\r\n    emit OwnershipTransferred(owner, pendingOwner);\r\n    owner = pendingOwner;\r\n    pendingOwner = address(0);\r\n  }\r\n}\r\n\r\ncontract DRCWalletMgrParams is Claimable, Autonomy, Destructible {\r\n    uint256 public singleWithdrawMin; // min value of single withdraw\r\n    uint256 public singleWithdrawMax; // Max value of single withdraw\r\n    uint256 public dayWithdraw; // Max value of one day of withdraw\r\n    uint256 public monthWithdraw; // Max value of one month of withdraw\r\n    uint256 public dayWithdrawCount; // Max number of withdraw counting\r\n\r\n    uint256 public chargeFee; // the charge fee for withdraw\r\n    address public chargeFeePool; // the address that will get the returned charge fees.\r\n\r\n\r\n    function initialSingleWithdrawMax(uint256 _value) onlyOwner public {\r\n        require(!init);\r\n\r\n        singleWithdrawMax = _value;\r\n    }\r\n\r\n    function initialSingleWithdrawMin(uint256 _value) onlyOwner public {\r\n        require(!init);\r\n\r\n        singleWithdrawMin = _value;\r\n    }\r\n\r\n    function initialDayWithdraw(uint256 _value) onlyOwner public {\r\n        require(!init);\r\n\r\n        dayWithdraw = _value;\r\n    }\r\n\r\n    function initialDayWithdrawCount(uint256 _count) onlyOwner public {\r\n        require(!init);\r\n\r\n        dayWithdrawCount = _count;\r\n    }\r\n\r\n    function initialMonthWithdraw(uint256 _value) onlyOwner public {\r\n        require(!init);\r\n\r\n        monthWithdraw = _value;\r\n    }\r\n\r\n    function initialChargeFee(uint256 _value) onlyOwner public {\r\n        require(!init);\r\n\r\n        chargeFee = _value;\r\n    }\r\n\r\n    function initialChargeFeePool(address _pool) onlyOwner public {\r\n        require(!init);\r\n\r\n        chargeFeePool = _pool;\r\n    }    \r\n\r\n    function setSingleWithdrawMax(uint256 _value) onlyCongress public {\r\n        singleWithdrawMax = _value;\r\n    }   \r\n\r\n    function setSingleWithdrawMin(uint256 _value) onlyCongress public {\r\n        singleWithdrawMin = _value;\r\n    }\r\n\r\n    function setDayWithdraw(uint256 _value) onlyCongress public {\r\n        dayWithdraw = _value;\r\n    }\r\n\r\n    function setDayWithdrawCount(uint256 _count) onlyCongress public {\r\n        dayWithdrawCount = _count;\r\n    }\r\n\r\n    function setMonthWithdraw(uint256 _value) onlyCongress public {\r\n        monthWithdraw = _value;\r\n    }\r\n\r\n    function setChargeFee(uint256 _value) onlyCongress public {\r\n        chargeFee = _value;\r\n    }\r\n\r\n    function setChargeFeePool(address _pool) onlyCongress public {\r\n        chargeFeePool = _pool;\r\n    }\r\n}\r\n\r\n",
  "sourcePath": "E:\\workspace\\Dapp\\DRCWalletManager\\contracts\\DRCWalletMgrParamsFlattened.sol",
  "compiler": {
    "name": "solc",
    "version": "0.4.24+commit.e67f0147.Emscripten.clang"
  },
  "schemaVersion": "2.0.1",
  "updatedAt": "2018-08-30T10:23:49.916Z"
}