{
  "contractName": "DRCWalletManager",
  "abi": [
    {
      "constant": false,
      "inputs": [
        {
          "name": "_token",
          "type": "address"
        },
        {
          "name": "_to",
          "type": "address"
        },
        {
          "name": "_value",
          "type": "uint256"
        }
      ],
      "name": "withdrawToken",
      "outputs": [
        {
          "name": "",
          "type": "bool"
        }
      ],
      "payable": false,
      "stateMutability": "nonpayable",
      "type": "function"
    },
    {
      "constant": true,
      "inputs": [],
      "name": "tk",
      "outputs": [
        {
          "name": "",
          "type": "address"
        }
      ],
      "payable": false,
      "stateMutability": "view",
      "type": "function"
    },
    {
      "constant": false,
      "inputs": [],
      "name": "transferOwnershipBack",
      "outputs": [],
      "payable": false,
      "stateMutability": "nonpayable",
      "type": "function"
    },
    {
      "constant": false,
      "inputs": [],
      "name": "claimOwnership",
      "outputs": [],
      "payable": false,
      "stateMutability": "nonpayable",
      "type": "function"
    },
    {
      "constant": false,
      "inputs": [
        {
          "name": "_contract",
          "type": "address"
        }
      ],
      "name": "bindContract",
      "outputs": [
        {
          "name": "",
          "type": "bool"
        }
      ],
      "payable": false,
      "stateMutability": "nonpayable",
      "type": "function"
    },
    {
      "constant": false,
      "inputs": [],
      "name": "destroy",
      "outputs": [],
      "payable": false,
      "stateMutability": "nonpayable",
      "type": "function"
    },
    {
      "constant": true,
      "inputs": [],
      "name": "owner",
      "outputs": [
        {
          "name": "",
          "type": "address"
        }
      ],
      "payable": false,
      "stateMutability": "view",
      "type": "function"
    },
    {
      "constant": true,
      "inputs": [],
      "name": "ownedContract",
      "outputs": [
        {
          "name": "",
          "type": "address"
        }
      ],
      "payable": false,
      "stateMutability": "view",
      "type": "function"
    },
    {
      "constant": false,
      "inputs": [
        {
          "name": "tokens",
          "type": "address[]"
        }
      ],
      "name": "destroy",
      "outputs": [],
      "payable": false,
      "stateMutability": "nonpayable",
      "type": "function"
    },
    {
      "constant": true,
      "inputs": [
        {
          "name": "",
          "type": "address"
        }
      ],
      "name": "frozenDeposits",
      "outputs": [
        {
          "name": "",
          "type": "bool"
        }
      ],
      "payable": false,
      "stateMutability": "view",
      "type": "function"
    },
    {
      "constant": true,
      "inputs": [],
      "name": "pendingOwner",
      "outputs": [
        {
          "name": "",
          "type": "address"
        }
      ],
      "payable": false,
      "stateMutability": "view",
      "type": "function"
    },
    {
      "constant": false,
      "inputs": [
        {
          "name": "_nextOwner",
          "type": "address"
        }
      ],
      "name": "changeOwnershipto",
      "outputs": [],
      "payable": false,
      "stateMutability": "nonpayable",
      "type": "function"
    },
    {
      "constant": false,
      "inputs": [
        {
          "name": "newOwner",
          "type": "address"
        }
      ],
      "name": "transferOwnership",
      "outputs": [],
      "payable": false,
      "stateMutability": "nonpayable",
      "type": "function"
    },
    {
      "constant": false,
      "inputs": [
        {
          "name": "_to",
          "type": "address"
        },
        {
          "name": "_amount",
          "type": "uint256"
        }
      ],
      "name": "withdraw",
      "outputs": [
        {
          "name": "",
          "type": "bool"
        }
      ],
      "payable": false,
      "stateMutability": "nonpayable",
      "type": "function"
    },
    {
      "constant": false,
      "inputs": [
        {
          "name": "_recipient",
          "type": "address"
        }
      ],
      "name": "destroyAndSend",
      "outputs": [],
      "payable": false,
      "stateMutability": "nonpayable",
      "type": "function"
    },
    {
      "payable": true,
      "stateMutability": "payable",
      "type": "fallback"
    },
    {
      "anonymous": false,
      "inputs": [
        {
          "indexed": true,
          "name": "_wallet",
          "type": "address"
        },
        {
          "indexed": false,
          "name": "_deposit",
          "type": "address"
        }
      ],
      "name": "CreateDepositAddress",
      "type": "event"
    },
    {
      "anonymous": false,
      "inputs": [
        {
          "indexed": true,
          "name": "_deposit",
          "type": "address"
        },
        {
          "indexed": false,
          "name": "_value",
          "type": "uint256"
        }
      ],
      "name": "FrozenTokens",
      "type": "event"
    },
    {
      "anonymous": false,
      "inputs": [
        {
          "indexed": true,
          "name": "_oldWallet",
          "type": "address"
        },
        {
          "indexed": false,
          "name": "_newWallet",
          "type": "address"
        }
      ],
      "name": "ChangeDefaultWallet",
      "type": "event"
    },
    {
      "anonymous": false,
      "inputs": [
        {
          "indexed": false,
          "name": "_from",
          "type": "address"
        },
        {
          "indexed": false,
          "name": "_value",
          "type": "uint256"
        }
      ],
      "name": "ReceiveEther",
      "type": "event"
    },
    {
      "anonymous": false,
      "inputs": [
        {
          "indexed": false,
          "name": "_to",
          "type": "address"
        },
        {
          "indexed": false,
          "name": "_value",
          "type": "uint256"
        }
      ],
      "name": "WithdrawEther",
      "type": "event"
    },
    {
      "anonymous": false,
      "inputs": [
        {
          "indexed": false,
          "name": "_token",
          "type": "address"
        },
        {
          "indexed": false,
          "name": "_to",
          "type": "address"
        },
        {
          "indexed": false,
          "name": "_value",
          "type": "uint256"
        }
      ],
      "name": "WithdrawToken",
      "type": "event"
    },
    {
      "anonymous": false,
      "inputs": [
        {
          "indexed": true,
          "name": "previousOwner",
          "type": "address"
        },
        {
          "indexed": true,
          "name": "newOwner",
          "type": "address"
        }
      ],
      "name": "OwnershipTransferred",
      "type": "event"
    },
    {
      "constant": false,
      "inputs": [
        {
          "name": "_token",
          "type": "address"
        },
        {
          "name": "_walletParams",
          "type": "address"
        }
      ],
      "name": "bindToken",
      "outputs": [
        {
          "name": "",
          "type": "bool"
        }
      ],
      "payable": false,
      "stateMutability": "nonpayable",
      "type": "function"
    },
    {
      "constant": false,
      "inputs": [
        {
          "name": "_wallet",
          "type": "address"
        }
      ],
      "name": "createDepositContract",
      "outputs": [
        {
          "name": "",
          "type": "address"
        }
      ],
      "payable": false,
      "stateMutability": "nonpayable",
      "type": "function"
    },
    {
      "constant": true,
      "inputs": [
        {
          "name": "_wallet",
          "type": "address"
        }
      ],
      "name": "getDepositAddress",
      "outputs": [
        {
          "name": "",
          "type": "address"
        }
      ],
      "payable": false,
      "stateMutability": "view",
      "type": "function"
    },
    {
      "constant": true,
      "inputs": [
        {
          "name": "_deposit",
          "type": "address"
        }
      ],
      "name": "getDepositInfo",
      "outputs": [
        {
          "name": "",
          "type": "uint256"
        },
        {
          "name": "",
          "type": "uint256"
        }
      ],
      "payable": false,
      "stateMutability": "view",
      "type": "function"
    },
    {
      "constant": true,
      "inputs": [
        {
          "name": "_deposit",
          "type": "address"
        }
      ],
      "name": "getDepositWithdrawCount",
      "outputs": [
        {
          "name": "",
          "type": "uint256"
        }
      ],
      "payable": false,
      "stateMutability": "view",
      "type": "function"
    },
    {
      "constant": true,
      "inputs": [
        {
          "name": "_deposit",
          "type": "address"
        },
        {
          "name": "_indices",
          "type": "uint256[]"
        }
      ],
      "name": "getDepositWithdrawList",
      "outputs": [
        {
          "name": "",
          "type": "bytes32[]"
        },
        {
          "name": "",
          "type": "address[]"
        }
      ],
      "payable": false,
      "stateMutability": "view",
      "type": "function"
    },
    {
      "constant": false,
      "inputs": [
        {
          "name": "_oldWallet",
          "type": "address"
        },
        {
          "name": "_newWallet",
          "type": "address"
        }
      ],
      "name": "changeDefaultWithdraw",
      "outputs": [
        {
          "name": "",
          "type": "bool"
        }
      ],
      "payable": false,
      "stateMutability": "nonpayable",
      "type": "function"
    },
    {
      "constant": false,
      "inputs": [
        {
          "name": "_deposit",
          "type": "address"
        },
        {
          "name": "_value",
          "type": "uint256"
        }
      ],
      "name": "freezeTokens",
      "outputs": [
        {
          "name": "",
          "type": "bool"
        }
      ],
      "payable": false,
      "stateMutability": "nonpayable",
      "type": "function"
    },
    {
      "constant": true,
      "inputs": [
        {
          "name": "_deposit",
          "type": "address"
        },
        {
          "name": "_name",
          "type": "bytes32"
        },
        {
          "name": "_to",
          "type": "address"
        }
      ],
      "name": "checkWithdrawAddress",
      "outputs": [
        {
          "name": "",
          "type": "bool"
        },
        {
          "name": "",
          "type": "bool"
        }
      ],
      "payable": false,
      "stateMutability": "view",
      "type": "function"
    },
    {
      "constant": false,
      "inputs": [
        {
          "name": "_deposit",
          "type": "address"
        },
        {
          "name": "_time",
          "type": "uint256"
        },
        {
          "name": "_value",
          "type": "uint256"
        }
      ],
      "name": "withdrawWithFee",
      "outputs": [
        {
          "name": "",
          "type": "bool"
        }
      ],
      "payable": false,
      "stateMutability": "nonpayable",
      "type": "function"
    },
    {
      "constant": false,
      "inputs": [
        {
          "name": "_deposit",
          "type": "address"
        },
        {
          "name": "_time",
          "type": "uint256"
        },
        {
          "name": "_name",
          "type": "bytes32"
        },
        {
          "name": "_to",
          "type": "address"
        },
        {
          "name": "_value",
          "type": "uint256"
        },
        {
          "name": "_check",
          "type": "bool"
        }
      ],
      "name": "withdrawWithFee",
      "outputs": [
        {
          "name": "",
          "type": "bool"
        }
      ],
      "payable": false,
      "stateMutability": "nonpayable",
      "type": "function"
    }
  ],
  "bytecode": "0x6080604052336000806101000a81548173ffffffffffffffffffffffffffffffffffffffff021916908373ffffffffffffffffffffffffffffffffffffffff160217905550615a3c806100536000396000f300608060405260043610610154576000357c0100000000000000000000000000000000000000000000000000000000900463ffffffff16806301e33667146101c1578063196198fa1461024657806321f408be1461029d578063240705eb146102f457806325f731c814610363578063456294021461037a5780634a738bea146103f55780634e71e0c81461049e5780635287ce12146104b55780635682d43d146105135780637df83cd0146105a75780638157d4b5146106ca57806383197ef0146107255780638da5cb5b1461073c578063a4df6c6a14610793578063aba9650e146107f8578063bc467a3e1461087b578063c6786e5a146108d2578063c77bdfce14610938578063d83a7f67146109b3578063dd513e3c14610a36578063e30c397814610a91578063ede930c914610ae8578063f2fde38b14610b2b578063f3fef3a314610b6e578063f5074f4114610bd3575b7ff32a9f77675fd5917534c7746608fd3e309eac68fbdcbf5925e24ca97a7043963334604051808373ffffffffffffffffffffffffffffffffffffffff1673ffffffffffffffffffffffffffffffffffffffff1681526020018281526020019250505060405180910390a1005b3480156101cd57600080fd5b5061022c600480360381019080803573ffffffffffffffffffffffffffffffffffffffff169060200190929190803573ffffffffffffffffffffffffffffffffffffffff16906020019092919080359060200190929190505050610c16565b604051808215151515815260200191505060405180910390f35b34801561025257600080fd5b50610287600480360381019080803573ffffffffffffffffffffffffffffffffffffffff169060200190929190505050610e79565b6040518082815260200191505060405180910390f35b3480156102a957600080fd5b506102b2610f6a565b604051808273ffffffffffffffffffffffffffffffffffffffff1673ffffffffffffffffffffffffffffffffffffffff16815260200191505060405180910390f35b34801561030057600080fd5b50610349600480360381019080803573ffffffffffffffffffffffffffffffffffffffff1690602001909291908035906020019092919080359060200190929190505050610f90565b604051808215151515815260200191505060405180910390f35b34801561036f57600080fd5b506103786114c5565b005b34801561038657600080fd5b506103db600480360381019080803573ffffffffffffffffffffffffffffffffffffffff169060200190929190803573ffffffffffffffffffffffffffffffffffffffff16906020019092919050505061169d565b604051808215151515815260200191505060405180910390f35b34801561040157600080fd5b50610484600480360381019080803573ffffffffffffffffffffffffffffffffffffffff169060200190929190803590602001909291908035600019169060200190929190803573ffffffffffffffffffffffffffffffffffffffff169060200190929190803590602001909291908035151590602001909291905050506119aa565b604051808215151515815260200191505060405180910390f35b3480156104aa57600080fd5b506104b36121b8565b005b3480156104c157600080fd5b506104f6600480360381019080803573ffffffffffffffffffffffffffffffffffffffff169060200190929190505050612357565b604051808381526020018281526020019250505060405180910390f35b34801561051f57600080fd5b50610582600480360381019080803573ffffffffffffffffffffffffffffffffffffffff1690602001909291908035600019169060200190929190803573ffffffffffffffffffffffffffffffffffffffff169060200190929190505050612540565b6040518083151515158152602001821515151581526020019250505060405180910390f35b3480156105b357600080fd5b5061062b600480360381019080803573ffffffffffffffffffffffffffffffffffffffff1690602001909291908035906020019082018035906020019080806020026020016040519081016040528093929190818152602001838360200280828437820191505050505050919291929050505061269d565b604051808060200180602001838103835285818151815260200191508051906020019060200280838360005b83811015610672578082015181840152602081019050610657565b50505050905001838103825284818151815260200191508051906020019060200280838360005b838110156106b4578082015181840152602081019050610699565b5050505090500194505050505060405180910390f35b3480156106d657600080fd5b5061070b600480360381019080803573ffffffffffffffffffffffffffffffffffffffff1690602001909291905050506128c2565b604051808215151515815260200191505060405180910390f35b34801561073157600080fd5b5061073a612b44565b005b34801561074857600080fd5b50610751612bd9565b604051808273ffffffffffffffffffffffffffffffffffffffff1673ffffffffffffffffffffffffffffffffffffffff16815260200191505060405180910390f35b34801561079f57600080fd5b506107de600480360381019080803573ffffffffffffffffffffffffffffffffffffffff16906020019092919080359060200190929190505050612bfe565b604051808215151515815260200191505060405180910390f35b34801561080457600080fd5b50610839600480360381019080803573ffffffffffffffffffffffffffffffffffffffff169060200190929190505050612d8e565b604051808273ffffffffffffffffffffffffffffffffffffffff1673ffffffffffffffffffffffffffffffffffffffff16815260200191505060405180910390f35b34801561088757600080fd5b506108906130f0565b604051808273ffffffffffffffffffffffffffffffffffffffff1673ffffffffffffffffffffffffffffffffffffffff16815260200191505060405180910390f35b3480156108de57600080fd5b5061093660048036038101908080359060200190820180359060200190808060200260200160405190810160405280939291908181526020018383602002808284378201915050505050509192919290505050613116565b005b34801561094457600080fd5b50610999600480360381019080803573ffffffffffffffffffffffffffffffffffffffff169060200190929190803573ffffffffffffffffffffffffffffffffffffffff1690602001909291905050506133bd565b604051808215151515815260200191505060405180910390f35b3480156109bf57600080fd5b506109f4600480360381019080803573ffffffffffffffffffffffffffffffffffffffff16906020019092919050505061351e565b604051808273ffffffffffffffffffffffffffffffffffffffff1673ffffffffffffffffffffffffffffffffffffffff16815260200191505060405180910390f35b348015610a4257600080fd5b50610a77600480360381019080803573ffffffffffffffffffffffffffffffffffffffff169060200190929190505050613623565b604051808215151515815260200191505060405180910390f35b348015610a9d57600080fd5b50610aa6613643565b604051808273ffffffffffffffffffffffffffffffffffffffff1673ffffffffffffffffffffffffffffffffffffffff16815260200191505060405180910390f35b348015610af457600080fd5b50610b29600480360381019080803573ffffffffffffffffffffffffffffffffffffffff169060200190929190505050613669565b005b348015610b3757600080fd5b50610b6c600480360381019080803573ffffffffffffffffffffffffffffffffffffffff169060200190929190505050613820565b005b348015610b7a57600080fd5b50610bb9600480360381019080803573ffffffffffffffffffffffffffffffffffffffff169060200190929190803590602001909291905050506138bf565b604051808215151515815260200191505060405180910390f35b348015610bdf57600080fd5b50610c14600480360381019080803573ffffffffffffffffffffffffffffffffffffffff169060200190929190505050613a14565b005b6000806000809054906101000a900473ffffffffffffffffffffffffffffffffffffffff1673ffffffffffffffffffffffffffffffffffffffff163373ffffffffffffffffffffffffffffffffffffffff16141515610c7457600080fd5b600073ffffffffffffffffffffffffffffffffffffffff168473ffffffffffffffffffffffffffffffffffffffff1614151515610cb057600080fd5b600073ffffffffffffffffffffffffffffffffffffffff168573ffffffffffffffffffffffffffffffffffffffff1614151515610cec57600080fd5b8490508073ffffffffffffffffffffffffffffffffffffffff1663a9059cbb85856040518363ffffffff167c0100000000000000000000000000000000000000000000000000000000028152600401808373ffffffffffffffffffffffffffffffffffffffff1673ffffffffffffffffffffffffffffffffffffffff16815260200182815260200192505050602060405180830381600087803b158015610d9257600080fd5b505af1158015610da6573d6000803e3d6000fd5b505050506040513d6020811015610dbc57600080fd5b8101908080519060200190929190505050507f037238854fe57fbf51f09946f854fc3916fe83938d6521f09bd05463839f1304858585604051808473ffffffffffffffffffffffffffffffffffffffff1673ffffffffffffffffffffffffffffffffffffffff1681526020018373ffffffffffffffffffffffffffffffffffffffff1673ffffffffffffffffffffffffffffffffffffffff168152602001828152602001935050505060405180910390a160019150509392505050565b60008060008060009054906101000a900473ffffffffffffffffffffffffffffffffffffffff1673ffffffffffffffffffffffffffffffffffffffff163373ffffffffffffffffffffffffffffffffffffffff16141515610ed957600080fd5b600073ffffffffffffffffffffffffffffffffffffffff168473ffffffffffffffffffffffffffffffffffffffff1614151515610f1557600080fd5b600460008573ffffffffffffffffffffffffffffffffffffffff1673ffffffffffffffffffffffffffffffffffffffff1681526020019081526020016000206001019150818054905090508092505050919050565b600760009054906101000a900473ffffffffffffffffffffffffffffffffffffffff1681565b6000806000806000809054906101000a900473ffffffffffffffffffffffffffffffffffffffff1673ffffffffffffffffffffffffffffffffffffffff163373ffffffffffffffffffffffffffffffffffffffff16141515610ff157600080fd5b600073ffffffffffffffffffffffffffffffffffffffff168773ffffffffffffffffffffffffffffffffffffffff161415151561102d57600080fd5b600760009054906101000a900473ffffffffffffffffffffffffffffffffffffffff1673ffffffffffffffffffffffffffffffffffffffff166370a08231886040518263ffffffff167c0100000000000000000000000000000000000000000000000000000000028152600401808273ffffffffffffffffffffffffffffffffffffffff1673ffffffffffffffffffffffffffffffffffffffff168152602001915050602060405180830381600087803b1580156110ea57600080fd5b505af11580156110fe573d6000803e3d6000fd5b505050506040513d602081101561111457600080fd5b8101908080519060200190929190505050925082851115151561113657600080fd5b600460008873ffffffffffffffffffffffffffffffffffffffff1673ffffffffffffffffffffffffffffffffffffffff16815260200190815260200160002060000154915061118e8284613a8890919063ffffffff16565b851115151561119c57600080fd5b8690508073ffffffffffffffffffffffffffffffffffffffff16639bdd070d600760009054906101000a900473ffffffffffffffffffffffffffffffffffffffff16600860009054906101000a900473ffffffffffffffffffffffffffffffffffffffff168989600860009054906101000a900473ffffffffffffffffffffffffffffffffffffffff1673ffffffffffffffffffffffffffffffffffffffff1663744c8c096040518163ffffffff167c0100000000000000000000000000000000000000000000000000000000028152600401602060405180830381600087803b15801561128957600080fd5b505af115801561129d573d6000803e3d6000fd5b505050506040513d60208110156112b357600080fd5b8101908080519060200190929190505050600860009054906101000a900473ffffffffffffffffffffffffffffffffffffffff1673ffffffffffffffffffffffffffffffffffffffff1663d16edc156040518163ffffffff167c0100000000000000000000000000000000000000000000000000000000028152600401602060405180830381600087803b15801561134a57600080fd5b505af115801561135e573d6000803e3d6000fd5b505050506040513d602081101561137457600080fd5b81019080805190602001909291905050506040518763ffffffff167c0100000000000000000000000000000000000000000000000000000000028152600401808773ffffffffffffffffffffffffffffffffffffffff1673ffffffffffffffffffffffffffffffffffffffff1681526020018673ffffffffffffffffffffffffffffffffffffffff1673ffffffffffffffffffffffffffffffffffffffff1681526020018581526020018481526020018381526020018273ffffffffffffffffffffffffffffffffffffffff1673ffffffffffffffffffffffffffffffffffffffff1681526020019650505050505050602060405180830381600087803b15801561147e57600080fd5b505af1158015611492573d6000803e3d6000fd5b505050506040513d60208110156114a857600080fd5b810190808051906020019092919050505093505050509392505050565b6000809054906101000a900473ffffffffffffffffffffffffffffffffffffffff1673ffffffffffffffffffffffffffffffffffffffff163373ffffffffffffffffffffffffffffffffffffffff1614151561152057600080fd5b600260009054906101000a900473ffffffffffffffffffffffffffffffffffffffff1673ffffffffffffffffffffffffffffffffffffffff1663f2fde38b600360009054906101000a900473ffffffffffffffffffffffffffffffffffffffff166040518263ffffffff167c0100000000000000000000000000000000000000000000000000000000028152600401808273ffffffffffffffffffffffffffffffffffffffff1673ffffffffffffffffffffffffffffffffffffffff168152602001915050600060405180830381600087803b1580156115ff57600080fd5b505af1158015611613573d6000803e3d6000fd5b505050506000600260006101000a81548173ffffffffffffffffffffffffffffffffffffffff021916908373ffffffffffffffffffffffffffffffffffffffff1602179055506000600360006101000a81548173ffffffffffffffffffffffffffffffffffffffff021916908373ffffffffffffffffffffffffffffffffffffffff160217905550565b6000806000806000809054906101000a900473ffffffffffffffffffffffffffffffffffffffff1673ffffffffffffffffffffffffffffffffffffffff163373ffffffffffffffffffffffffffffffffffffffff161415156116fe57600080fd5b600073ffffffffffffffffffffffffffffffffffffffff168573ffffffffffffffffffffffffffffffffffffffff161415151561173a57600080fd5b600560008773ffffffffffffffffffffffffffffffffffffffff1673ffffffffffffffffffffffffffffffffffffffff16815260200190815260200160002060009054906101000a900473ffffffffffffffffffffffffffffffffffffffff1692508291508173ffffffffffffffffffffffffffffffffffffffff16639373f432866040518263ffffffff167c0100000000000000000000000000000000000000000000000000000000028152600401808273ffffffffffffffffffffffffffffffffffffffff1673ffffffffffffffffffffffffffffffffffffffff168152602001915050602060405180830381600087803b15801561183a57600080fd5b505af115801561184e573d6000803e3d6000fd5b505050506040513d602081101561186457600080fd5b8101908080519060200190929190505050151561188057600080fd5b600460008473ffffffffffffffffffffffffffffffffffffffff1673ffffffffffffffffffffffffffffffffffffffff1681526020019081526020016000206001019050848160008154811015156118d457fe5b906000526020600020906002020160010160006101000a81548173ffffffffffffffffffffffffffffffffffffffff021916908373ffffffffffffffffffffffffffffffffffffffff1602179055508573ffffffffffffffffffffffffffffffffffffffff167fb15573eb768216f61724fe33469e0a6160b82aadd32d51a4faec79aeb5351ad386604051808273ffffffffffffffffffffffffffffffffffffffff1673ffffffffffffffffffffffffffffffffffffffff16815260200191505060405180910390a26001935050505092915050565b60008060008060008060008060009054906101000a900473ffffffffffffffffffffffffffffffffffffffff1673ffffffffffffffffffffffffffffffffffffffff163373ffffffffffffffffffffffffffffffffffffffff16141515611a1057600080fd5b600073ffffffffffffffffffffffffffffffffffffffff168d73ffffffffffffffffffffffffffffffffffffffff1614151515611a4c57600080fd5b600073ffffffffffffffffffffffffffffffffffffffff168a73ffffffffffffffffffffffffffffffffffffffff1614151515611a8857600080fd5b600760009054906101000a900473ffffffffffffffffffffffffffffffffffffffff1673ffffffffffffffffffffffffffffffffffffffff166370a082318e6040518263ffffffff167c0100000000000000000000000000000000000000000000000000000000028152600401808273ffffffffffffffffffffffffffffffffffffffff1673ffffffffffffffffffffffffffffffffffffffff168152602001915050602060405180830381600087803b158015611b4557600080fd5b505af1158015611b59573d6000803e3d6000fd5b505050506040513d6020811015611b6f57600080fd5b810190808051906020019092919050505095508715611b9857858911151515611b9757600080fd5b5b611bed600460008f73ffffffffffffffffffffffffffffffffffffffff1673ffffffffffffffffffffffffffffffffffffffff1681526020019081526020016000206000015487613a8890919063ffffffff16565b94508715611c0557848911151515611c0457600080fd5b5b600460008e73ffffffffffffffffffffffffffffffffffffffff1673ffffffffffffffffffffffffffffffffffffffff1681526020019081526020016000206001019150611c548d8c8c612540565b8094508195505050831515611d1d578160408051908101604052808d6000191681526020018c73ffffffffffffffffffffffffffffffffffffffff16815250908060018154018082558091505090600182039060005260206000209060020201600090919290919091506000820151816000019060001916905560208201518160010160006101000a81548173ffffffffffffffffffffffffffffffffffffffff021916908373ffffffffffffffffffffffffffffffffffffffff160217905550505050611d2e565b821515611d2d57600096506121a8565b5b87158015611d3b57508489115b15611e5457600760009054906101000a900473ffffffffffffffffffffffffffffffffffffffff1673ffffffffffffffffffffffffffffffffffffffff1663a9059cbb8e611d92888d613a8890919063ffffffff16565b6040518363ffffffff167c0100000000000000000000000000000000000000000000000000000000028152600401808373ffffffffffffffffffffffffffffffffffffffff1673ffffffffffffffffffffffffffffffffffffffff16815260200182815260200192505050602060405180830381600087803b158015611e1757600080fd5b505af1158015611e2b573d6000803e3d6000fd5b505050506040513d6020811015611e4157600080fd5b8101908080519060200190929190505050505b8c90508073ffffffffffffffffffffffffffffffffffffffff166366013bdd600760009054906101000a900473ffffffffffffffffffffffffffffffffffffffff16600860009054906101000a900473ffffffffffffffffffffffffffffffffffffffff168f8e8e600860009054906101000a900473ffffffffffffffffffffffffffffffffffffffff1673ffffffffffffffffffffffffffffffffffffffff1663744c8c096040518163ffffffff167c0100000000000000000000000000000000000000000000000000000000028152600401602060405180830381600087803b158015611f4257600080fd5b505af1158015611f56573d6000803e3d6000fd5b505050506040513d6020811015611f6c57600080fd5b8101908080519060200190929190505050600860009054906101000a900473ffffffffffffffffffffffffffffffffffffffff1673ffffffffffffffffffffffffffffffffffffffff1663d16edc156040518163ffffffff167c0100000000000000000000000000000000000000000000000000000000028152600401602060405180830381600087803b15801561200357600080fd5b505af1158015612017573d6000803e3d6000fd5b505050506040513d602081101561202d57600080fd5b81019080805190602001909291905050506040518863ffffffff167c0100000000000000000000000000000000000000000000000000000000028152600401808873ffffffffffffffffffffffffffffffffffffffff1673ffffffffffffffffffffffffffffffffffffffff1681526020018773ffffffffffffffffffffffffffffffffffffffff1673ffffffffffffffffffffffffffffffffffffffff1681526020018681526020018573ffffffffffffffffffffffffffffffffffffffff1673ffffffffffffffffffffffffffffffffffffffff1681526020018481526020018381526020018273ffffffffffffffffffffffffffffffffffffffff1673ffffffffffffffffffffffffffffffffffffffff168152602001975050505050505050602060405180830381600087803b15801561216a57600080fd5b505af115801561217e573d6000803e3d6000fd5b505050506040513d602081101561219457600080fd5b810190808051906020019092919050505096505b5050505050509695505050505050565b600160009054906101000a900473ffffffffffffffffffffffffffffffffffffffff1673ffffffffffffffffffffffffffffffffffffffff163373ffffffffffffffffffffffffffffffffffffffff1614151561221457600080fd5b600160009054906101000a900473ffffffffffffffffffffffffffffffffffffffff1673ffffffffffffffffffffffffffffffffffffffff166000809054906101000a900473ffffffffffffffffffffffffffffffffffffffff1673ffffffffffffffffffffffffffffffffffffffff167f8be0079c531659141344cd1fd0a4f28419497f9722a3daafe3b4186f6b6457e060405160405180910390a3600160009054906101000a900473ffffffffffffffffffffffffffffffffffffffff166000806101000a81548173ffffffffffffffffffffffffffffffffffffffff021916908373ffffffffffffffffffffffffffffffffffffffff1602179055506000600160006101000a81548173ffffffffffffffffffffffffffffffffffffffff021916908373ffffffffffffffffffffffffffffffffffffffff160217905550565b6000806000806000809054906101000a900473ffffffffffffffffffffffffffffffffffffffff1673ffffffffffffffffffffffffffffffffffffffff163373ffffffffffffffffffffffffffffffffffffffff161415156123b857600080fd5b600073ffffffffffffffffffffffffffffffffffffffff168573ffffffffffffffffffffffffffffffffffffffff16141515156123f457600080fd5b600760009054906101000a900473ffffffffffffffffffffffffffffffffffffffff1673ffffffffffffffffffffffffffffffffffffffff166370a08231866040518263ffffffff167c0100000000000000000000000000000000000000000000000000000000028152600401808273ffffffffffffffffffffffffffffffffffffffff1673ffffffffffffffffffffffffffffffffffffffff168152602001915050602060405180830381600087803b1580156124b157600080fd5b505af11580156124c5573d6000803e3d6000fd5b505050506040513d60208110156124db57600080fd5b81019080805190602001909291905050509150600460008673ffffffffffffffffffffffffffffffffffffffff1673ffffffffffffffffffffffffffffffffffffffff1681526020019081526020016000206000015490508181935093505050915091565b6000806000806000600460008973ffffffffffffffffffffffffffffffffffffffff1673ffffffffffffffffffffffffffffffffffffffff168152602001908152602001600020600101805490509250600091505b8282101561268957600460008973ffffffffffffffffffffffffffffffffffffffff1673ffffffffffffffffffffffffffffffffffffffff168152602001908152602001600020600101828154811015156125ec57fe5b906000526020600020906002020190508060000154600019168760001916141561266e5760018160010160009054906101000a900473ffffffffffffffffffffffffffffffffffffffff1673ffffffffffffffffffffffffffffffffffffffff168773ffffffffffffffffffffffffffffffffffffffff161494509450612692565b612682600183613aa190919063ffffffff16565b9150612595565b60006001945094505b505050935093915050565b6060806060806000806000809054906101000a900473ffffffffffffffffffffffffffffffffffffffff1673ffffffffffffffffffffffffffffffffffffffff163373ffffffffffffffffffffffffffffffffffffffff1614151561270157600080fd5b600087511415151561271257600080fd5b86516040519080825280602002602001820160405280156127425781602001602082028038833980820191505090505b50935086516040519080825280602002602001820160405280156127755781602001602082028038833980820191505090505b509250600091505b86518210156128b157600460008973ffffffffffffffffffffffffffffffffffffffff1673ffffffffffffffffffffffffffffffffffffffff16815260200190815260200160002060010187838151811015156127d657fe5b906020019060200201518154811015156127ec57fe5b906000526020600020906002020190508060000154848381518110151561280f57fe5b9060200190602002019060001916908160001916815250508060010160009054906101000a900473ffffffffffffffffffffffffffffffffffffffff16838381518110151561285a57fe5b9060200190602002019073ffffffffffffffffffffffffffffffffffffffff16908173ffffffffffffffffffffffffffffffffffffffff16815250506128aa600183613aa190919063ffffffff16565b915061277d565b838395509550505050509250929050565b60008060009054906101000a900473ffffffffffffffffffffffffffffffffffffffff1673ffffffffffffffffffffffffffffffffffffffff163373ffffffffffffffffffffffffffffffffffffffff1614151561291f57600080fd5b600073ffffffffffffffffffffffffffffffffffffffff168273ffffffffffffffffffffffffffffffffffffffff161415151561295b57600080fd5b81600260006101000a81548173ffffffffffffffffffffffffffffffffffffffff021916908373ffffffffffffffffffffffffffffffffffffffff160217905550600260009054906101000a900473ffffffffffffffffffffffffffffffffffffffff1673ffffffffffffffffffffffffffffffffffffffff16638da5cb5b6040518163ffffffff167c0100000000000000000000000000000000000000000000000000000000028152600401602060405180830381600087803b158015612a2257600080fd5b505af1158015612a36573d6000803e3d6000fd5b505050506040513d6020811015612a4c57600080fd5b8101908080519060200190929190505050600360006101000a81548173ffffffffffffffffffffffffffffffffffffffff021916908373ffffffffffffffffffffffffffffffffffffffff160217905550600260009054906101000a900473ffffffffffffffffffffffffffffffffffffffff1673ffffffffffffffffffffffffffffffffffffffff16634e71e0c86040518163ffffffff167c0100000000000000000000000000000000000000000000000000000000028152600401600060405180830381600087803b158015612b2357600080fd5b505af1158015612b37573d6000803e3d6000fd5b5050505060019050919050565b6000809054906101000a900473ffffffffffffffffffffffffffffffffffffffff1673ffffffffffffffffffffffffffffffffffffffff163373ffffffffffffffffffffffffffffffffffffffff16141515612b9f57600080fd5b6000809054906101000a900473ffffffffffffffffffffffffffffffffffffffff1673ffffffffffffffffffffffffffffffffffffffff16ff5b6000809054906101000a900473ffffffffffffffffffffffffffffffffffffffff1681565b60008060009054906101000a900473ffffffffffffffffffffffffffffffffffffffff1673ffffffffffffffffffffffffffffffffffffffff163373ffffffffffffffffffffffffffffffffffffffff16141515612c5b57600080fd5b600073ffffffffffffffffffffffffffffffffffffffff168373ffffffffffffffffffffffffffffffffffffffff1614151515612c9757600080fd5b6001600660008573ffffffffffffffffffffffffffffffffffffffff1673ffffffffffffffffffffffffffffffffffffffff16815260200190815260200160002060006101000a81548160ff02191690831515021790555081600460008573ffffffffffffffffffffffffffffffffffffffff1673ffffffffffffffffffffffffffffffffffffffff168152602001908152602001600020600001819055508273ffffffffffffffffffffffffffffffffffffffff167fcbce0cc3ab252117420c1c3812c7b7174f1418e2befe8a96e5683515f9509f25836040518082815260200191505060405180910390a26001905092915050565b6000806000806000809054906101000a900473ffffffffffffffffffffffffffffffffffffffff1673ffffffffffffffffffffffffffffffffffffffff163373ffffffffffffffffffffffffffffffffffffffff16141515612def57600080fd5b600073ffffffffffffffffffffffffffffffffffffffff168573ffffffffffffffffffffffffffffffffffffffff1614151515612e2b57600080fd5b84612e34613abd565b808273ffffffffffffffffffffffffffffffffffffffff1673ffffffffffffffffffffffffffffffffffffffff168152602001915050604051809103906000f080158015612e86573d6000803e3d6000fd5b50925082915081600560008773ffffffffffffffffffffffffffffffffffffffff1673ffffffffffffffffffffffffffffffffffffffff16815260200190815260200160002060006101000a81548173ffffffffffffffffffffffffffffffffffffffff021916908373ffffffffffffffffffffffffffffffffffffffff160217905550600460008373ffffffffffffffffffffffffffffffffffffffff1673ffffffffffffffffffffffffffffffffffffffff16815260200190815260200160002060010190508060408051908101604052807f64656661756c742077616c6c65740000000000000000000000000000000000006000191681526020018773ffffffffffffffffffffffffffffffffffffffff16815250908060018154018082558091505090600182039060005260206000209060020201600090919290919091506000820151816000019060001916905560208201518160010160006101000a81548173ffffffffffffffffffffffffffffffffffffffff021916908373ffffffffffffffffffffffffffffffffffffffff1602179055505050506000600460008473ffffffffffffffffffffffffffffffffffffffff1673ffffffffffffffffffffffffffffffffffffffff168152602001908152602001600020600001819055508473ffffffffffffffffffffffffffffffffffffffff167f55c48b5893b218bfd1f85d28d11d185c7ec0f376933dbb0a09db48711c120e2284604051808273ffffffffffffffffffffffffffffffffffffffff1673ffffffffffffffffffffffffffffffffffffffff16815260200191505060405180910390a2829350505050919050565b600260009054906101000a900473ffffffffffffffffffffffffffffffffffffffff1681565b60008060008060009054906101000a900473ffffffffffffffffffffffffffffffffffffffff1673ffffffffffffffffffffffffffffffffffffffff163373ffffffffffffffffffffffffffffffffffffffff1614151561317657600080fd5b600092505b835183101561338357838381518110151561319257fe5b9060200190602002015191508173ffffffffffffffffffffffffffffffffffffffff166370a08231306040518263ffffffff167c0100000000000000000000000000000000000000000000000000000000028152600401808273ffffffffffffffffffffffffffffffffffffffff1673ffffffffffffffffffffffffffffffffffffffff168152602001915050602060405180830381600087803b15801561323957600080fd5b505af115801561324d573d6000803e3d6000fd5b505050506040513d602081101561326357600080fd5b810190808051906020019092919050505090508173ffffffffffffffffffffffffffffffffffffffff1663a9059cbb6000809054906101000a900473ffffffffffffffffffffffffffffffffffffffff16836040518363ffffffff167c0100000000000000000000000000000000000000000000000000000000028152600401808373ffffffffffffffffffffffffffffffffffffffff1673ffffffffffffffffffffffffffffffffffffffff16815260200182815260200192505050602060405180830381600087803b15801561333a57600080fd5b505af115801561334e573d6000803e3d6000fd5b505050506040513d602081101561336457600080fd5b810190808051906020019092919050505050828060010193505061317b565b6000809054906101000a900473ffffffffffffffffffffffffffffffffffffffff1673ffffffffffffffffffffffffffffffffffffffff16ff5b60008060009054906101000a900473ffffffffffffffffffffffffffffffffffffffff1673ffffffffffffffffffffffffffffffffffffffff163373ffffffffffffffffffffffffffffffffffffffff1614151561341a57600080fd5b600073ffffffffffffffffffffffffffffffffffffffff168373ffffffffffffffffffffffffffffffffffffffff161415151561345657600080fd5b600073ffffffffffffffffffffffffffffffffffffffff168273ffffffffffffffffffffffffffffffffffffffff161415151561349257600080fd5b82600760006101000a81548173ffffffffffffffffffffffffffffffffffffffff021916908373ffffffffffffffffffffffffffffffffffffffff16021790555081600860006101000a81548173ffffffffffffffffffffffffffffffffffffffff021916908373ffffffffffffffffffffffffffffffffffffffff1602179055506001905092915050565b6000806000809054906101000a900473ffffffffffffffffffffffffffffffffffffffff1673ffffffffffffffffffffffffffffffffffffffff163373ffffffffffffffffffffffffffffffffffffffff1614151561357c57600080fd5b600073ffffffffffffffffffffffffffffffffffffffff168373ffffffffffffffffffffffffffffffffffffffff16141515156135b857600080fd5b600560008473ffffffffffffffffffffffffffffffffffffffff1673ffffffffffffffffffffffffffffffffffffffff16815260200190815260200160002060009054906101000a900473ffffffffffffffffffffffffffffffffffffffff16905080915050919050565b60066020528060005260406000206000915054906101000a900460ff1681565b600160009054906101000a900473ffffffffffffffffffffffffffffffffffffffff1681565b6000809054906101000a900473ffffffffffffffffffffffffffffffffffffffff1673ffffffffffffffffffffffffffffffffffffffff163373ffffffffffffffffffffffffffffffffffffffff161415156136c457600080fd5b600260009054906101000a900473ffffffffffffffffffffffffffffffffffffffff1673ffffffffffffffffffffffffffffffffffffffff1663f2fde38b826040518263ffffffff167c0100000000000000000000000000000000000000000000000000000000028152600401808273ffffffffffffffffffffffffffffffffffffffff1673ffffffffffffffffffffffffffffffffffffffff168152602001915050600060405180830381600087803b15801561378157600080fd5b505af1158015613795573d6000803e3d6000fd5b505050506000600260006101000a81548173ffffffffffffffffffffffffffffffffffffffff021916908373ffffffffffffffffffffffffffffffffffffffff1602179055506000600360006101000a81548173ffffffffffffffffffffffffffffffffffffffff021916908373ffffffffffffffffffffffffffffffffffffffff16021790555050565b6000809054906101000a900473ffffffffffffffffffffffffffffffffffffffff1673ffffffffffffffffffffffffffffffffffffffff163373ffffffffffffffffffffffffffffffffffffffff1614151561387b57600080fd5b80600160006101000a81548173ffffffffffffffffffffffffffffffffffffffff021916908373ffffffffffffffffffffffffffffffffffffffff16021790555050565b60008060009054906101000a900473ffffffffffffffffffffffffffffffffffffffff1673ffffffffffffffffffffffffffffffffffffffff163373ffffffffffffffffffffffffffffffffffffffff1614151561391c57600080fd5b600073ffffffffffffffffffffffffffffffffffffffff168373ffffffffffffffffffffffffffffffffffffffff161415151561395857600080fd5b8273ffffffffffffffffffffffffffffffffffffffff166108fc839081150290604051600060405180830381858888f1935050505015801561399e573d6000803e3d6000fd5b507fdb35132c111efe920cede025e819975671cfd1b8fcc1174762c8670c4e94c2118383604051808373ffffffffffffffffffffffffffffffffffffffff1673ffffffffffffffffffffffffffffffffffffffff1681526020018281526020019250505060405180910390a16001905092915050565b6000809054906101000a900473ffffffffffffffffffffffffffffffffffffffff1673ffffffffffffffffffffffffffffffffffffffff163373ffffffffffffffffffffffffffffffffffffffff16141515613a6f57600080fd5b8073ffffffffffffffffffffffffffffffffffffffff16ff5b6000828211151515613a9657fe5b818303905092915050565b60008183019050828110151515613ab457fe5b80905092915050565b604051611f4380613ace833901905600608060405234801561001057600080fd5b50604051602080611f4383398101806040528101908080519060200190929190505050336000806101000a81548173ffffffffffffffffffffffffffffffffffffffff021916908373ffffffffffffffffffffffffffffffffffffffff160217905550600073ffffffffffffffffffffffffffffffffffffffff168173ffffffffffffffffffffffffffffffffffffffff16141515156100af57600080fd5b80600a60006101000a81548173ffffffffffffffffffffffffffffffffffffffff021916908373ffffffffffffffffffffffffffffffffffffffff16021790555050611e43806101006000396000f3006080604052600436106100da576000357c0100000000000000000000000000000000000000000000000000000000900463ffffffff168062226eb51461014757806301e33667146101725780634e71e0c8146101f757806366013bdd1461020e57806374cd5c0b146102e75780638da5cb5b146103625780638f4ffcb1146103b95780639373f4321461046c5780639bdd070d146104c7578063a901199014610580578063bfe370d9146105fb578063c5a8855914610680578063e30c3978146106ab578063f2fde38b14610702578063f3fef3a314610745575b7ff32a9f77675fd5917534c7746608fd3e309eac68fbdcbf5925e24ca97a7043963334604051808373ffffffffffffffffffffffffffffffffffffffff1673ffffffffffffffffffffffffffffffffffffffff1681526020018281526020019250505060405180910390a1005b34801561015357600080fd5b5061015c6107aa565b6040518082815260200191505060405180910390f35b34801561017e57600080fd5b506101dd600480360381019080803573ffffffffffffffffffffffffffffffffffffffff169060200190929190803573ffffffffffffffffffffffffffffffffffffffff169060200190929190803590602001909291905050506107b7565b604051808215151515815260200191505060405180910390f35b34801561020357600080fd5b5061020c610a1a565b005b34801561021a57600080fd5b506102cd600480360381019080803573ffffffffffffffffffffffffffffffffffffffff169060200190929190803573ffffffffffffffffffffffffffffffffffffffff16906020019092919080359060200190929190803573ffffffffffffffffffffffffffffffffffffffff1690602001909291908035906020019092919080359060200190929190803573ffffffffffffffffffffffffffffffffffffffff169060200190929190505050610bb9565b604051808215151515815260200191505060405180910390f35b3480156102f357600080fd5b50610312600480360381019080803590602001909291905050506114cf565b604051808481526020018373ffffffffffffffffffffffffffffffffffffffff1673ffffffffffffffffffffffffffffffffffffffff168152602001828152602001935050505060405180910390f35b34801561036e57600080fd5b50610377611577565b604051808273ffffffffffffffffffffffffffffffffffffffff1673ffffffffffffffffffffffffffffffffffffffff16815260200191505060405180910390f35b3480156103c557600080fd5b5061046a600480360381019080803573ffffffffffffffffffffffffffffffffffffffff16906020019092919080359060200190929190803573ffffffffffffffffffffffffffffffffffffffff169060200190929190803590602001908201803590602001908080601f016020809104026020016040519081016040528093929190818152602001838380828437820191505050505050919291929050505061159c565b005b34801561047857600080fd5b506104ad600480360381019080803573ffffffffffffffffffffffffffffffffffffffff169060200190929190505050611972565b604051808215151515815260200191505060405180910390f35b3480156104d357600080fd5b50610566600480360381019080803573ffffffffffffffffffffffffffffffffffffffff169060200190929190803573ffffffffffffffffffffffffffffffffffffffff169060200190929190803590602001909291908035906020019092919080359060200190929190803573ffffffffffffffffffffffffffffffffffffffff169060200190929190505050611a55565b604051808215151515815260200191505060405180910390f35b34801561058c57600080fd5b506105ab60048036038101908080359060200190929190505050611aef565b604051808481526020018373ffffffffffffffffffffffffffffffffffffffff1673ffffffffffffffffffffffffffffffffffffffff168152602001828152602001935050505060405180910390f35b34801561060757600080fd5b50610662600480360381019080803590602001908201803590602001908080601f0160208091040260200160405190810160405280939291908181526020018383808284378201915050505050509192919290505050611b97565b60405180826000191660001916815260200191505060405180910390f35b34801561068c57600080fd5b50610695611ba5565b6040518082815260200191505060405180910390f35b3480156106b757600080fd5b506106c0611bb2565b604051808273ffffffffffffffffffffffffffffffffffffffff1673ffffffffffffffffffffffffffffffffffffffff16815260200191505060405180910390f35b34801561070e57600080fd5b50610743600480360381019080803573ffffffffffffffffffffffffffffffffffffffff169060200190929190505050611bd8565b005b34801561075157600080fd5b50610790600480360381019080803573ffffffffffffffffffffffffffffffffffffffff16906020019092919080359060200190929190505050611c77565b604051808215151515815260200191505060405180910390f35b6000600280549050905090565b6000806000809054906101000a900473ffffffffffffffffffffffffffffffffffffffff1673ffffffffffffffffffffffffffffffffffffffff163373ffffffffffffffffffffffffffffffffffffffff1614151561081557600080fd5b600073ffffffffffffffffffffffffffffffffffffffff168473ffffffffffffffffffffffffffffffffffffffff161415151561085157600080fd5b600073ffffffffffffffffffffffffffffffffffffffff168573ffffffffffffffffffffffffffffffffffffffff161415151561088d57600080fd5b8490508073ffffffffffffffffffffffffffffffffffffffff1663a9059cbb85856040518363ffffffff167c0100000000000000000000000000000000000000000000000000000000028152600401808373ffffffffffffffffffffffffffffffffffffffff1673ffffffffffffffffffffffffffffffffffffffff16815260200182815260200192505050602060405180830381600087803b15801561093357600080fd5b505af1158015610947573d6000803e3d6000fd5b505050506040513d602081101561095d57600080fd5b8101908080519060200190929190505050507f037238854fe57fbf51f09946f854fc3916fe83938d6521f09bd05463839f1304858585604051808473ffffffffffffffffffffffffffffffffffffffff1673ffffffffffffffffffffffffffffffffffffffff1681526020018373ffffffffffffffffffffffffffffffffffffffff1673ffffffffffffffffffffffffffffffffffffffff168152602001828152602001935050505060405180910390a160019150509392505050565b600160009054906101000a900473ffffffffffffffffffffffffffffffffffffffff1673ffffffffffffffffffffffffffffffffffffffff163373ffffffffffffffffffffffffffffffffffffffff16141515610a7657600080fd5b600160009054906101000a900473ffffffffffffffffffffffffffffffffffffffff1673ffffffffffffffffffffffffffffffffffffffff166000809054906101000a900473ffffffffffffffffffffffffffffffffffffffff1673ffffffffffffffffffffffffffffffffffffffff167f8be0079c531659141344cd1fd0a4f28419497f9722a3daafe3b4186f6b6457e060405160405180910390a3600160009054906101000a900473ffffffffffffffffffffffffffffffffffffffff166000806101000a81548173ffffffffffffffffffffffffffffffffffffffff021916908373ffffffffffffffffffffffffffffffffffffffff1602179055506000600160006101000a81548173ffffffffffffffffffffffffffffffffffffffff021916908373ffffffffffffffffffffffffffffffffffffffff160217905550565b6000806000806000806000809054906101000a900473ffffffffffffffffffffffffffffffffffffffff1673ffffffffffffffffffffffffffffffffffffffff163373ffffffffffffffffffffffffffffffffffffffff16141515610c1d57600080fd5b600073ffffffffffffffffffffffffffffffffffffffff168a73ffffffffffffffffffffffffffffffffffffffff1614151515610c5957600080fd5b600073ffffffffffffffffffffffffffffffffffffffff168d73ffffffffffffffffffffffffffffffffffffffff1614151515610c9557600080fd5b8789111515610ca357600080fd5b8b94508473ffffffffffffffffffffffffffffffffffffffff16637312aaae6040518163ffffffff167c0100000000000000000000000000000000000000000000000000000000028152600401602060405180830381600087803b158015610d0a57600080fd5b505af1158015610d1e573d6000803e3d6000fd5b505050506040513d6020811015610d3457600080fd5b81019080805190602001909291905050508911151515610d5357600080fd5b8473ffffffffffffffffffffffffffffffffffffffff166314361fd16040518163ffffffff167c0100000000000000000000000000000000000000000000000000000000028152600401602060405180830381600087803b158015610db757600080fd5b505af1158015610dcb573d6000803e3d6000fd5b505050506040513d6020811015610de157600080fd5b81019080805190602001909291905050508910151515610e0057600080fd5b610e16620151808c611dcc90919063ffffffff16565b935060046000015484111515610fd257610e3f6001600460010154611de290919063ffffffff16565b600460010181905550610e6089600460020154611de290919063ffffffff16565b6004600201819055508473ffffffffffffffffffffffffffffffffffffffff1663f213aad26040518163ffffffff167c0100000000000000000000000000000000000000000000000000000000028152600401602060405180830381600087803b158015610ecd57600080fd5b505af1158015610ee1573d6000803e3d6000fd5b505050506040513d6020811015610ef757600080fd5b810190808051906020019092919050505060046001015411151515610f1b57600080fd5b8473ffffffffffffffffffffffffffffffffffffffff16635e3cbb7c6040518163ffffffff167c0100000000000000000000000000000000000000000000000000000000028152600401602060405180830381600087803b158015610f7f57600080fd5b505af1158015610f93573d6000803e3d6000fd5b505050506040513d6020811015610fa957600080fd5b810190808051906020019092919050505060046002015411151515610fcd57600080fd5b610ff2565b836004600001819055506001600460010181905550886004600201819055505b61100862278d008c611dcc90919063ffffffff16565b925060076000015483111515611112576110316001600760010154611de290919063ffffffff16565b60076001018190555061105289600760020154611de290919063ffffffff16565b6007600201819055508473ffffffffffffffffffffffffffffffffffffffff1663be54f2146040518163ffffffff167c0100000000000000000000000000000000000000000000000000000000028152600401602060405180830381600087803b1580156110bf57600080fd5b505af11580156110d3573d6000803e3d6000fd5b505050506040513d60208110156110e957600080fd5b81019080805190602001909291905050506007600201541115151561110d57600080fd5b611132565b826007600001819055506001600760010181905550886007600201819055505b8c9150611148888a611dfe90919063ffffffff16565b90508173ffffffffffffffffffffffffffffffffffffffff1663a9059cbb8b836040518363ffffffff167c0100000000000000000000000000000000000000000000000000000000028152600401808373ffffffffffffffffffffffffffffffffffffffff1673ffffffffffffffffffffffffffffffffffffffff16815260200182815260200192505050602060405180830381600087803b1580156111ed57600080fd5b505af1158015611201573d6000803e3d6000fd5b505050506040513d602081101561121757600080fd5b8101908080519060200190929190505050151561123357600080fd5b600073ffffffffffffffffffffffffffffffffffffffff168773ffffffffffffffffffffffffffffffffffffffff16141580156112705750600088115b1561135f578173ffffffffffffffffffffffffffffffffffffffff1663a9059cbb888a6040518363ffffffff167c0100000000000000000000000000000000000000000000000000000000028152600401808373ffffffffffffffffffffffffffffffffffffffff1673ffffffffffffffffffffffffffffffffffffffff16815260200182815260200192505050602060405180830381600087803b15801561131857600080fd5b505af115801561132c573d6000803e3d6000fd5b505050506040513d602081101561134257600080fd5b8101908080519060200190929190505050151561135e57600080fd5b5b60036060604051908101604052808d81526020018c73ffffffffffffffffffffffffffffffffffffffff16815260200183815250908060018154018082558091505090600182039060005260206000209060030201600090919290919091506000820151816000015560208201518160010160006101000a81548173ffffffffffffffffffffffffffffffffffffffff021916908373ffffffffffffffffffffffffffffffffffffffff160217905550604082015181600201555050507f037238854fe57fbf51f09946f854fc3916fe83938d6521f09bd05463839f13048d8b83604051808473ffffffffffffffffffffffffffffffffffffffff1673ffffffffffffffffffffffffffffffffffffffff1681526020018373ffffffffffffffffffffffffffffffffffffffff1673ffffffffffffffffffffffffffffffffffffffff168152602001828152602001935050505060405180910390a1600195505050505050979650505050505050565b6000806000600380549050841015156114e757600080fd5b6003848154811015156114f657fe5b90600052602060002090600302016000015460038581548110151561151757fe5b906000526020600020906003020160010160009054906101000a900473ffffffffffffffffffffffffffffffffffffffff1660038681548110151561155857fe5b9060005260206000209060030201600201549250925092509193909250565b6000809054906101000a900473ffffffffffffffffffffffffffffffffffffffff1681565b6000806000809054906101000a900473ffffffffffffffffffffffffffffffffffffffff1673ffffffffffffffffffffffffffffffffffffffff163373ffffffffffffffffffffffffffffffffffffffff161415156115fa57600080fd5b600073ffffffffffffffffffffffffffffffffffffffff168473ffffffffffffffffffffffffffffffffffffffff161415151561163657600080fd5b600073ffffffffffffffffffffffffffffffffffffffff168673ffffffffffffffffffffffffffffffffffffffff161415151561167257600080fd5b8391508173ffffffffffffffffffffffffffffffffffffffff166323b872dd8730886040518463ffffffff167c0100000000000000000000000000000000000000000000000000000000028152600401808473ffffffffffffffffffffffffffffffffffffffff1673ffffffffffffffffffffffffffffffffffffffff1681526020018373ffffffffffffffffffffffffffffffffffffffff1673ffffffffffffffffffffffffffffffffffffffff1681526020018281526020019350505050602060405180830381600087803b15801561174c57600080fd5b505af1158015611760573d6000803e3d6000fd5b505050506040513d602081101561177657600080fd5b8101908080519060200190929190505050151561179257600080fd5b61179b83611b97565b90506002606060405190810160405280836001900481526020018873ffffffffffffffffffffffffffffffffffffffff16815260200187815250908060018154018082558091505090600182039060005260206000209060030201600090919290919091506000820151816000015560208201518160010160006101000a81548173ffffffffffffffffffffffffffffffffffffffff021916908373ffffffffffffffffffffffffffffffffffffffff160217905550604082015181600201555050507f3bc54c6dcf5be6793947a9f34e5ca45d6ce9196bea304a5550c3e2d2f215650286868686604051808573ffffffffffffffffffffffffffffffffffffffff1673ffffffffffffffffffffffffffffffffffffffff1681526020018481526020018373ffffffffffffffffffffffffffffffffffffffff1673ffffffffffffffffffffffffffffffffffffffff16815260200180602001828103825283818151815260200191508051906020019080838360005b8381101561192d578082015181840152602081019050611912565b50505050905090810190601f16801561195a5780820380516001836020036101000a031916815260200191505b509550505050505060405180910390a1505050505050565b60008060009054906101000a900473ffffffffffffffffffffffffffffffffffffffff1673ffffffffffffffffffffffffffffffffffffffff163373ffffffffffffffffffffffffffffffffffffffff161415156119cf57600080fd5b600073ffffffffffffffffffffffffffffffffffffffff168273ffffffffffffffffffffffffffffffffffffffff1614151515611a0b57600080fd5b81600a60006101000a81548173ffffffffffffffffffffffffffffffffffffffff021916908373ffffffffffffffffffffffffffffffffffffffff16021790555060019050919050565b60008060009054906101000a900473ffffffffffffffffffffffffffffffffffffffff1673ffffffffffffffffffffffffffffffffffffffff163373ffffffffffffffffffffffffffffffffffffffff16141515611ab257600080fd5b611ae3878787600a60009054906101000a900473ffffffffffffffffffffffffffffffffffffffff16888888610bb9565b90509695505050505050565b600080600060028054905084101515611b0757600080fd5b600284815481101515611b1657fe5b906000526020600020906003020160000154600285815481101515611b3757fe5b906000526020600020906003020160010160009054906101000a900473ffffffffffffffffffffffffffffffffffffffff16600286815481101515611b7857fe5b9060005260206000209060030201600201549250925092509193909250565b600060208201519050919050565b6000600380549050905090565b600160009054906101000a900473ffffffffffffffffffffffffffffffffffffffff1681565b6000809054906101000a900473ffffffffffffffffffffffffffffffffffffffff1673ffffffffffffffffffffffffffffffffffffffff163373ffffffffffffffffffffffffffffffffffffffff16141515611c3357600080fd5b80600160006101000a81548173ffffffffffffffffffffffffffffffffffffffff021916908373ffffffffffffffffffffffffffffffffffffffff16021790555050565b60008060009054906101000a900473ffffffffffffffffffffffffffffffffffffffff1673ffffffffffffffffffffffffffffffffffffffff163373ffffffffffffffffffffffffffffffffffffffff16141515611cd457600080fd5b600073ffffffffffffffffffffffffffffffffffffffff168373ffffffffffffffffffffffffffffffffffffffff1614151515611d1057600080fd5b8273ffffffffffffffffffffffffffffffffffffffff166108fc839081150290604051600060405180830381858888f19350505050158015611d56573d6000803e3d6000fd5b507fdb35132c111efe920cede025e819975671cfd1b8fcc1174762c8670c4e94c2118383604051808373ffffffffffffffffffffffffffffffffffffffff1673ffffffffffffffffffffffffffffffffffffffff1681526020018281526020019250505060405180910390a16001905092915050565b60008183811515611dd957fe5b04905092915050565b60008183019050828110151515611df557fe5b80905092915050565b6000828211151515611e0c57fe5b8183039050929150505600a165627a7a72305820b678756ca658d2b7a93113aacf2ae1d7017252c55c8bb5efebc1b628568619a20029a165627a7a723058209185f178660043e75986cb1f7588d5b49ded720a4bc0c609131fa14a0bf7fa6d0029",
  "source": "pragma solidity ^0.4.23;\n\nlibrary SafeMath {\n\n  /**\n  * @dev Multiplies two numbers, throws on overflow.\n  */\n  function mul(uint256 a, uint256 b) internal pure returns (uint256 c) {\n    if (a == 0) {\n      return 0;\n    }\n    c = a * b;\n    assert(c / a == b);\n    return c;\n  }\n\n  /**\n  * @dev Integer division of two numbers, truncating the quotient.\n  */\n  function div(uint256 a, uint256 b) internal pure returns (uint256) {\n    // assert(b > 0); // Solidity automatically throws when dividing by 0\n    // uint256 c = a / b;\n    // assert(a == b * c + a % b); // There is no case in which this doesn't hold\n    return a / b;\n  }\n\n  /**\n  * @dev Subtracts two numbers, throws on overflow (i.e. if subtrahend is greater than minuend).\n  */\n  function sub(uint256 a, uint256 b) internal pure returns (uint256) {\n    assert(b <= a);\n    return a - b;\n  }\n\n  /**\n  * @dev Adds two numbers, throws on overflow.\n  */\n  function add(uint256 a, uint256 b) internal pure returns (uint256 c) {\n    c = a + b;\n    assert(c >= a);\n    return c;\n  }\n}\n\ncontract Ownable {\n  address public owner;\n\n\n  event OwnershipTransferred(address indexed previousOwner, address indexed newOwner);\n\n\n  /**\n   * @dev The Ownable constructor sets the original `owner` of the contract to the sender\n   * account.\n   */\n  function Ownable() public {\n    owner = msg.sender;\n  }\n\n  /**\n   * @dev Throws if called by any account other than the owner.\n   */\n  modifier onlyOwner() {\n    require(msg.sender == owner);\n    _;\n  }\n\n  /**\n   * @dev Allows the current owner to transfer control of the contract to a newOwner.\n   * @param newOwner The address to transfer ownership to.\n   */\n  function transferOwnership(address newOwner) public onlyOwner {\n    require(newOwner != address(0));\n    emit OwnershipTransferred(owner, newOwner);\n    owner = newOwner;\n  }\n\n}\n\ncontract Autonomy is Ownable {\n    address public congress;\n    bool init = false;\n\n    modifier onlyCongress() {\n        require(msg.sender == congress);\n        _;\n    }\n\n    /**\n     * @dev initialize a Congress contract address for this token \n     *\n     * @param _congress address the congress contract address\n     */\n    function initialCongress(address _congress) onlyOwner public {\n        require(!init);\n        require(_congress != address(0));\n        congress = _congress;\n        init = true;\n    }\n\n    /**\n     * @dev set a Congress contract address for this token\n     * must change this address by the last congress contract \n     *\n     * @param _congress address the congress contract address\n     */\n    function changeCongress(address _congress) onlyCongress public {\n        require(_congress != address(0));\n        congress = _congress;\n    }\n}\n\ncontract withdrawable is Ownable {\n    event ReceiveEther(address _from, uint256 _value);\n    event WithdrawEther(address _to, uint256 _value);\n    event WithdrawToken(address _token, address _to, uint256 _value);\n\n    /**\n\t * @dev recording receiving ether from msn.sender\n\t */\n    function () payable public {\n        emit ReceiveEther(msg.sender, msg.value);\n    }\n\n    /**\n\t * @dev withdraw,send ether to target\n\t * @param _to is where the ether will be sent to\n\t *        _amount is the number of the ether\n\t */\n    function withdraw(address _to, uint _amount) public onlyOwner returns (bool) {\n        require(_to != address(0));\n        _to.transfer(_amount);\n        emit WithdrawEther(_to, _amount);\n\n        return true;\n    }\n\n    /**\n\t * @dev withdraw tokens, send tokens to target\n     *\n     * @param _token the token address that will be withdraw\n\t * @param _to is where the tokens will be sent to\n\t *        _value is the number of the token\n\t */\n    function withdrawToken(address _token, address _to, uint256 _value) public onlyOwner returns (bool) {\n        require(_to != address(0));\n        require(_token != address(0));\n\n        ERC20 tk = ERC20(_token);\n        tk.transfer(_to, _value);\n        emit WithdrawToken(_token, _to, _value);\n\n        return true;\n    }\n\n    /**\n     * @dev receive approval from an ERC20 token contract, and then gain the tokens, \n     *      then take a record\n     *\n     * @param _from address The address which you want to send tokens from\n     * @param _value uint256 the amounts of tokens to be sent\n     * @param _token address the ERC20 token address\n     * @param _extraData bytes the extra data for the record\n     */\n    // function receiveApproval(address _from, uint256 _value, address _token, bytes _extraData) public {\n    //     require(_token != address(0));\n    //     require(_from != address(0));\n        \n    //     ERC20 tk = ERC20(_token);\n    //     require(tk.transferFrom(_from, this, _value));\n        \n    //     emit ReceiveDeposit(_from, _value, _token, _extraData);\n    // }\n}\n\ncontract Destructible is Ownable {\n\n  function Destructible() public payable { }\n\n  /**\n   * @dev Transfers the current balance to the owner and terminates the contract.\n   */\n  function destroy() onlyOwner public {\n    selfdestruct(owner);\n  }\n\n  function destroyAndSend(address _recipient) onlyOwner public {\n    selfdestruct(_recipient);\n  }\n}\n\ncontract TokenDestructible is Ownable {\n\n  function TokenDestructible() public payable { }\n\n  /**\n   * @notice Terminate contract and refund to owner\n   * @param tokens List of addresses of ERC20 or ERC20Basic token contracts to\n   refund.\n   * @notice The called token contracts could try to re-enter this contract. Only\n   supply token contracts you trust.\n   */\n  function destroy(address[] tokens) onlyOwner public {\n\n    // Transfer tokens to owner\n    for (uint256 i = 0; i < tokens.length; i++) {\n      ERC20Basic token = ERC20Basic(tokens[i]);\n      uint256 balance = token.balanceOf(this);\n      token.transfer(owner, balance);\n    }\n\n    // Transfer Eth to owner and terminate contract\n    selfdestruct(owner);\n  }\n}\n\ncontract Claimable is Ownable {\n  address public pendingOwner;\n\n  /**\n   * @dev Modifier throws if called by any account other than the pendingOwner.\n   */\n  modifier onlyPendingOwner() {\n    require(msg.sender == pendingOwner);\n    _;\n  }\n\n  /**\n   * @dev Allows the current owner to set the pendingOwner address.\n   * @param newOwner The address to transfer ownership to.\n   */\n  function transferOwnership(address newOwner) onlyOwner public {\n    pendingOwner = newOwner;\n  }\n\n  /**\n   * @dev Allows the pendingOwner address to finalize the transfer.\n   */\n  function claimOwnership() onlyPendingOwner public {\n    emit OwnershipTransferred(owner, pendingOwner);\n    owner = pendingOwner;\n    pendingOwner = address(0);\n  }\n}\n\ncontract OwnerContract is Claimable {\n    Claimable public ownedContract;\n    address internal origOwner;\n\n    /**\n     * @dev bind a contract as its owner\n     *\n     * @param _contract the contract address that will be binded by this Owner Contract\n     */\n    function bindContract(address _contract) onlyOwner public returns (bool) {\n        require(_contract != address(0));\n        ownedContract = Claimable(_contract);\n        origOwner = ownedContract.owner();\n\n        // take ownership of the owned contract\n        ownedContract.claimOwnership();\n\n        return true;\n    }\n\n    /**\n     * @dev change the owner of the contract from this contract address to the original one. \n     *\n     */\n    function transferOwnershipBack() onlyOwner public {\n        ownedContract.transferOwnership(origOwner);\n        ownedContract = Claimable(address(0));\n        origOwner = address(0);\n    }\n\n    /**\n     * @dev change the owner of the contract from this contract address to another one. \n     *\n     * @param _nextOwner the contract address that will be next Owner of the original Contract\n     */\n    function changeOwnershipto(address _nextOwner)  onlyOwner public {\n        ownedContract.transferOwnership(_nextOwner);\n        ownedContract = Claimable(address(0));\n        origOwner = address(0);\n    }\n}\n\ncontract DepositWithdraw is Claimable, withdrawable {\n    using SafeMath for uint256;\n\n    /**\n     * transaction record\n     */\n    struct TransferRecord {\n        uint256 timeStamp;\n        address account;\n        uint256 value;\n    }\n    \n    /**\n     * accumulated transferring amount record\n     */\n    struct accumulatedRecord {\n        uint256 mul;\n        uint256 count;\n        uint256 value;\n    }\n\n    TransferRecord[] deposRecs; // record all the deposit tx data\n    TransferRecord[] withdrRecs; // record all the withdraw tx data\n\n    accumulatedRecord dayWithdrawRec; // accumulated amount record for one day\n    accumulatedRecord monthWithdrawRec; // accumulated amount record for one month\n\n    address wallet; // the binded withdraw address\n\n    event ReceiveDeposit(address _from, uint256 _value, address _token, bytes _extraData);\n    \n    /**\n     * @dev constructor of the DepositWithdraw contract\n     * @param _wallet the binded wallet address to this depositwithdraw contract\n     */\n    constructor(address _wallet) public {\n        require(_wallet != address(0));\n        wallet = _wallet;\n    }\n\n    /**\n\t * @dev set the default wallet address\n\t * @param _wallet the default wallet address binded to this deposit contract\n\t */\n    function setWithdrawWallet(address _wallet) onlyOwner public returns (bool) {\n        require(_wallet != address(0));\n        wallet = _wallet;\n\n        return true;\n    }\n\n    /**\n\t * @dev util function to change bytes data to bytes32 data\n\t * @param _data the bytes data to be converted\n\t */\n    function bytesToBytes32(bytes _data) public pure returns (bytes32 result) {\n        assembly {\n            result := mload(add(_data, 32))\n        }\n    }\n\n    /**\n     * @dev receive approval from an ERC20 token contract, take a record\n     *\n     * @param _from address The address which you want to send tokens from\n     * @param _value uint256 the amounts of tokens to be sent\n     * @param _token address the ERC20 token address\n     * @param _extraData bytes the extra data for the record\n     */\n    function receiveApproval(address _from, uint256 _value, address _token, bytes _extraData) onlyOwner public {\n        require(_token != address(0));\n        require(_from != address(0));\n        \n        ERC20 tk = ERC20(_token);\n        require(tk.transferFrom(_from, this, _value));\n        bytes32 timestamp = bytesToBytes32(_extraData);\n        deposRecs.push(TransferRecord(uint256(timestamp), _from, _value));\n        emit ReceiveDeposit(_from, _value, _token, _extraData);\n    }\n\n    /**\n\t * @dev withdraw tokens, send tokens to target\n     *\n     * @param _token the token address that will be withdraw\n     * @param _params the limitation parameters for withdraw\n     * @param _time the timstamp of the withdraw time\n\t * @param _to is where the tokens will be sent to\n\t *        _value is the number of the token\n     *        _fee is the amount of the transferring costs\n     *        _tokenReturn is the address that return back the tokens of the _fee\n\t */\n    function withdrawToken(address _token, address _params, uint256 _time, address _to, uint256 _value, uint256 _fee, address _tokenReturn) public onlyOwner returns (bool) {\n        require(_to != address(0));\n        require(_token != address(0));\n        require(_value > _fee);\n        // require(_tokenReturn != address(0));\n\n        DRCWalletMgrParams params = DRCWalletMgrParams(_params);\n        require(_value <= params.singleWithdrawMax());\n        require(_value >= params.singleWithdrawMin());\n\n        uint256 daysCount = _time.div(86400); // one day of seconds\n        if (daysCount <= dayWithdrawRec.mul) {\n            dayWithdrawRec.count = dayWithdrawRec.count.add(1);\n            dayWithdrawRec.value = dayWithdrawRec.value.add(_value);\n            require(dayWithdrawRec.count <= params.dayWithdrawCount());\n            require(dayWithdrawRec.value <= params.dayWithdraw());\n        } else {\n            dayWithdrawRec.mul = daysCount;\n            dayWithdrawRec.count = 1;\n            dayWithdrawRec.value = _value;\n        }\n        \n        uint256 monthsCount = _time.div(86400 * 30);\n        if (monthsCount <= monthWithdrawRec.mul) {\n            monthWithdrawRec.count = monthWithdrawRec.count.add(1);\n            monthWithdrawRec.value = monthWithdrawRec.value.add(_value);\n            require(monthWithdrawRec.value <= params.monthWithdraw());\n        } else {            \n            monthWithdrawRec.mul = monthsCount;\n            monthWithdrawRec.count = 1;\n            monthWithdrawRec.value = _value;\n        }\n\n        ERC20 tk = ERC20(_token);\n        uint256 realAmount = _value.sub(_fee);\n        require(tk.transfer(_to, realAmount));\n        if (_tokenReturn != address(0) && _fee > 0) {\n            require(tk.transfer(_tokenReturn, _fee));\n        }\n\n        withdrRecs.push(TransferRecord(_time, _to, realAmount));\n        emit WithdrawToken(_token, _to, realAmount);\n\n        return true;\n    }\n\n    /**\n\t * @dev withdraw tokens, send tokens to target default wallet\n     *\n     * @param _token the token address that will be withdraw\n     * @param _params the limitation parameters for withdraw\n     * @param _time the timestamp occur the withdraw record\n\t * @param _value is the number of the token\n     *        _fee is the amount of the transferring costs\n     *        tokenReturn is the address that return back the tokens of the _fee\n\t */\n    function withdrawTokenToDefault(address _token, address _params, uint256 _time, uint256 _value, uint256 _fee, address _tokenReturn) public onlyOwner returns (bool) {\n        return withdrawToken(_token, _params, _time, wallet, _value, _fee, _tokenReturn);\n    }\n\n    /**\n\t * @dev get the Deposit records number\n     *\n     */\n    function getDepositNum() public view returns (uint256) {\n        return deposRecs.length;\n    }\n\n    /**\n\t * @dev get the one of the Deposit records\n     *\n     * @param _ind the deposit record index\n     */\n    function getOneDepositRec(uint256 _ind) public view returns (uint256, address, uint256) {\n        require(_ind < deposRecs.length);\n\n        return (deposRecs[_ind].timeStamp, deposRecs[_ind].account, deposRecs[_ind].value);\n    }\n\n    /**\n\t * @dev get the withdraw records number\n     *\n     */\n    function getWithdrawNum() public view returns (uint256) {\n        return withdrRecs.length;\n    }\n    \n    /**\n\t * @dev get the one of the withdraw records\n     *\n     * @param _ind the withdraw record index\n     */\n    function getOneWithdrawRec(uint256 _ind) public view returns (uint256, address, uint256) {\n        require(_ind < withdrRecs.length);\n\n        return (withdrRecs[_ind].timeStamp, withdrRecs[_ind].account, withdrRecs[_ind].value);\n    }\n}\n\ncontract DRCWalletManager is OwnerContract, withdrawable, Destructible, TokenDestructible {\n    using SafeMath for uint256;\n    \n    /**\n     * withdraw wallet description\n     */\n    struct WithdrawWallet {\n        bytes32 name;\n        address walletAddr;\n    }\n\n    /**\n     * Deposit data storage\n     */\n    struct DepositRepository {\n        // uint256 balance;\n        uint256 frozen;\n        WithdrawWallet[] withdrawWallets;\n        // mapping (bytes32 => address) withdrawWallets;\n    }\n\n    mapping (address => DepositRepository) depositRepos;\n    mapping (address => address) walletDeposits;\n    mapping (address => bool) public frozenDeposits;\n\n    ERC20 public tk; // the token will be managed\n    DRCWalletMgrParams params; // the parameters that the management needs\n    \n    event CreateDepositAddress(address indexed _wallet, address _deposit);\n    event FrozenTokens(address indexed _deposit, uint256 _value);\n    event ChangeDefaultWallet(address indexed _oldWallet, address _newWallet);\n\n    /**\n\t * @dev withdraw tokens, send tokens to target default wallet\n     *\n     * @param _token the token address that will be withdraw\n     * @param _walletParams the wallet management parameters\n\t */\n    function bindToken(address _token, address _walletParams) onlyOwner public returns (bool) {\n        require(_token != address(0));\n        require(_walletParams != address(0));\n\n        tk = ERC20(_token);\n        params = DRCWalletMgrParams(_walletParams);\n        return true;\n    }\n    \n    /**\n\t * @dev create deposit contract address for the default withdraw wallet\n     *\n     * @param _wallet the binded default withdraw wallet address\n\t */\n    function createDepositContract(address _wallet) onlyOwner public returns (address) {\n        require(_wallet != address(0));\n\n        DepositWithdraw deposWithdr = new DepositWithdraw(_wallet); // new contract for deposit\n        address _deposit = address(deposWithdr);\n        walletDeposits[_wallet] = _deposit;\n        WithdrawWallet[] storage withdrawWalletList = depositRepos[_deposit].withdrawWallets;\n        withdrawWalletList.push(WithdrawWallet(\"default wallet\", _wallet));\n        // depositRepos[_deposit].balance = 0;\n        depositRepos[_deposit].frozen = 0;\n\n        emit CreateDepositAddress(_wallet, address(deposWithdr));\n        return deposWithdr;\n    }\n    \n    /**\n\t * @dev get deposit contract address by using the default withdraw wallet\n     *\n     * @param _wallet the binded default withdraw wallet address\n\t */\n    function getDepositAddress(address _wallet) onlyOwner public view returns (address) {\n        require(_wallet != address(0));\n        address deposit = walletDeposits[_wallet];\n\n        return deposit;\n    }\n    \n    /**\n\t * @dev get deposit balance and frozen amount by using the deposit address\n     *\n     * @param _deposit the deposit contract address\n\t */\n    function getDepositInfo(address _deposit) onlyOwner public view returns (uint256, uint256) {\n        require(_deposit != address(0));\n        uint256 _balance = tk.balanceOf(_deposit);\n        uint256 frozenAmount = depositRepos[_deposit].frozen;\n        // depositRepos[_deposit].balance = _balance;\n\n        return (_balance, frozenAmount);\n    }\n    \n    /**\n\t * @dev get the number of withdraw wallet addresses bindig to the deposit contract address\n     *\n     * @param _deposit the deposit contract address\n\t */\n    function getDepositWithdrawCount(address _deposit) onlyOwner public view returns (uint) {\n        require(_deposit != address(0));\n\n        WithdrawWallet[] storage withdrawWalletList = depositRepos[_deposit].withdrawWallets;\n        uint len = withdrawWalletList.length;\n\n        return len;\n    }\n    \n    /**\n\t * @dev get the withdraw wallet addresses list binding to the deposit contract address\n     *\n     * @param _deposit the deposit contract address\n     * @param _indices the array of indices of the withdraw wallets\n\t */\n    function getDepositWithdrawList(address _deposit, uint[] _indices) onlyOwner public view returns (bytes32[], address[]) {\n        require(_indices.length != 0);\n\n        bytes32[] memory names = new bytes32[](_indices.length);\n        address[] memory wallets = new address[](_indices.length);\n        \n        for (uint i = 0; i < _indices.length; i = i.add(1)) {\n            WithdrawWallet storage wallet = depositRepos[_deposit].withdrawWallets[_indices[i]];\n            names[i] = wallet.name;\n            wallets[i] = wallet.walletAddr;\n        }\n        \n        return (names, wallets);\n    }\n    \n    /**\n\t * @dev change the default withdraw wallet address binding to the deposit contract address\n     *\n     * @param _oldWallet the previous default withdraw wallet\n     * @param _newWallet the new default withdraw wallet\n\t */\n    function changeDefaultWithdraw(address _oldWallet, address _newWallet) onlyOwner public returns (bool) {\n        require(_newWallet != address(0));\n        \n        address deposit = walletDeposits[_oldWallet];\n        DepositWithdraw deposWithdr = DepositWithdraw(deposit);\n        require(deposWithdr.setWithdrawWallet(_newWallet));\n\n        WithdrawWallet[] storage withdrawWalletList = depositRepos[deposit].withdrawWallets;\n        withdrawWalletList[0].walletAddr = _newWallet;\n        emit ChangeDefaultWallet(_oldWallet, _newWallet);\n\n        return true;\n    }\n    \n    /**\n\t * @dev freeze the tokens in the deposit address\n     *\n     * @param _deposit the deposit address\n     * @param _value the amount of tokens need to be frozen\n\t */\n    function freezeTokens(address _deposit, uint256 _value) onlyOwner public returns (bool) {\n        require(_deposit != address(0));\n        \n        frozenDeposits[_deposit] = true;\n        depositRepos[_deposit].frozen = _value;\n\n        emit FrozenTokens(_deposit, _value);\n        return true;\n    }\n    \n    /**\n\t * @dev withdraw the tokens from the deposit address with charge fee\n     *\n     * @param _deposit the deposit address\n     * @param _time the timestamp the withdraw occurs\n     * @param _value the amount of tokens need to be frozen\n\t */\n    function withdrawWithFee(address _deposit, uint256 _time, uint256 _value) onlyOwner public returns (bool) {\n        require(_deposit != address(0));\n\n        uint256 _balance = tk.balanceOf(_deposit);\n        require(_value <= _balance);\n\n        // depositRepos[_deposit].balance = _balance;\n        uint256 frozenAmount = depositRepos[_deposit].frozen;\n        require(_value <= _balance.sub(frozenAmount));\n\n        DepositWithdraw deposWithdr = DepositWithdraw(_deposit);\n        return (deposWithdr.withdrawTokenToDefault(address(tk), address(params), _time, _value, params.chargeFee(), params.chargeFeePool()));\n    }\n    \n    /**\n\t * @dev check if the wallet name is not matching the expected wallet address\n     *\n     * @param _deposit the deposit address\n     * @param _name the withdraw wallet name\n     * @param _to the withdraw wallet address\n\t */\n    function checkWithdrawAddress(address _deposit, bytes32 _name, address _to) public view returns (bool, bool) {\n        uint len = depositRepos[_deposit].withdrawWallets.length;\n        for (uint i = 0; i < len; i = i.add(1)) {\n            WithdrawWallet storage wallet = depositRepos[_deposit].withdrawWallets[i];\n            if (_name == wallet.name) {\n                return(true, (_to == wallet.walletAddr));\n            }\n        }\n\n        return (false, true);\n    }\n\n    /**\n\t * @dev withdraw tokens, send tokens to target withdraw wallet\n     *\n     * @param _deposit the deposit address that will be withdraw from\n     * @param _time the timestamp occur the withdraw record\n\t * @param _name the withdraw address alias name to verify\n     * @param _to the address the token will be transfer to \n     * @param _value the token transferred value\n     * @param _check if we will check the value is valid or meet the limit condition\n\t */\n    function withdrawWithFee(address _deposit, \n                             uint256 _time, \n                             bytes32 _name, \n                             address _to, \n                             uint256 _value, \n                             bool _check) onlyOwner public returns (bool) {\n        require(_deposit != address(0));\n        require(_to != address(0));\n\n        uint256 _balance = tk.balanceOf(_deposit);\n        if (_check) {\n            require(_value <= _balance);\n        }\n\n        uint256 available = _balance.sub(depositRepos[_deposit].frozen);\n        if (_check) {\n            require(_value <= available);\n        }\n\n        bool exist;\n        bool correct;\n        WithdrawWallet[] storage withdrawWalletList = depositRepos[_deposit].withdrawWallets;\n        (exist, correct) = checkWithdrawAddress(_deposit, _name, _to);\n        if(!exist) {\n            withdrawWalletList.push(WithdrawWallet(_name, _to));\n        } else if(!correct) {\n            return false;\n        }\n\n        if (!_check && _value > available) {\n            tk.transfer(_deposit, _value.sub(available));\n            // _value = _value.sub(available);\n        }\n\n        DepositWithdraw deposWithdr = DepositWithdraw(_deposit);\n        return (deposWithdr.withdrawToken(address(tk), address(params), _time, _to, _value, params.chargeFee(), params.chargeFeePool()));        \n    }\n\n}\n\ncontract DRCWalletMgrParams is Claimable, Autonomy, Destructible {\n    uint256 public singleWithdrawMin; // min value of single withdraw\n    uint256 public singleWithdrawMax; // Max value of single withdraw\n    uint256 public dayWithdraw; // Max value of one day of withdraw\n    uint256 public monthWithdraw; // Max value of one month of withdraw\n    uint256 public dayWithdrawCount; // Max number of withdraw counting\n\n    uint256 public chargeFee; // the charge fee for withdraw\n    address public chargeFeePool; // the address that will get the returned charge fees.\n\n\n    function initialSingleWithdrawMax(uint256 _value) onlyOwner public {\n        require(!init);\n\n        singleWithdrawMax = _value;\n    }\n\n    function initialSingleWithdrawMin(uint256 _value) onlyOwner public {\n        require(!init);\n\n        singleWithdrawMin = _value;\n    }\n\n    function initialDayWithdraw(uint256 _value) onlyOwner public {\n        require(!init);\n\n        dayWithdraw = _value;\n    }\n\n    function initialDayWithdrawCount(uint256 _count) onlyOwner public {\n        require(!init);\n\n        dayWithdrawCount = _count;\n    }\n\n    function initialMonthWithdraw(uint256 _value) onlyOwner public {\n        require(!init);\n\n        monthWithdraw = _value;\n    }\n\n    function initialChargeFee(uint256 _value) onlyOwner public {\n        require(!init);\n\n        chargeFee = _value;\n    }\n\n    function initialChargeFeePool(address _pool) onlyOwner public {\n        require(!init);\n\n        chargeFeePool = _pool;\n    }    \n\n    function setSingleWithdrawMax(uint256 _value) onlyCongress public {\n        singleWithdrawMax = _value;\n    }   \n\n    function setSingleWithdrawMin(uint256 _value) onlyCongress public {\n        singleWithdrawMin = _value;\n    }\n\n    function setDayWithdraw(uint256 _value) onlyCongress public {\n        dayWithdraw = _value;\n    }\n\n    function setDayWithdrawCount(uint256 _count) onlyCongress public {\n        dayWithdrawCount = _count;\n    }\n\n    function setMonthWithdraw(uint256 _value) onlyCongress public {\n        monthWithdraw = _value;\n    }\n\n    function setChargeFee(uint256 _value) onlyCongress public {\n        chargeFee = _value;\n    }\n\n    function setChargeFeePool(address _pool) onlyCongress public {\n        chargeFeePool = _pool;\n    }\n}\n\ncontract ERC20Basic {\n  function totalSupply() public view returns (uint256);\n  function balanceOf(address who) public view returns (uint256);\n  function transfer(address to, uint256 value) public returns (bool);\n  event Transfer(address indexed from, address indexed to, uint256 value);\n}\n\ncontract ERC20 is ERC20Basic {\n  function allowance(address owner, address spender) public view returns (uint256);\n  function transferFrom(address from, address to, uint256 value) public returns (bool);\n  function approve(address spender, uint256 value) public returns (bool);\n  event Approval(address indexed owner, address indexed spender, uint256 value);\n}\n\n",
  "sourcePath": "/home/centos/Dapp/DRCWalletManager/contracts/DRCWalletManagerFlattened.sol",
  "compiler": {
    "name": "solc",
    "version": "0.4.23+commit.124ca40d.Emscripten.clang"
  },
  "schemaVersion": "2.0.0",
  "updatedAt": "2018-06-07T12:44:40.888Z"
}