{
  "contractName": "DRCWalletManager",
  "abi": [
    {
      "constant": false,
      "inputs": [
        {
          "name": "_token",
          "type": "address"
        },
        {
          "name": "_to",
          "type": "address"
        },
        {
          "name": "_value",
          "type": "uint256"
        }
      ],
      "name": "withdrawToken",
      "outputs": [
        {
          "name": "",
          "type": "bool"
        }
      ],
      "payable": false,
      "stateMutability": "nonpayable",
      "type": "function"
    },
    {
      "constant": true,
      "inputs": [],
      "name": "walletStorage",
      "outputs": [
        {
          "name": "",
          "type": "address"
        }
      ],
      "payable": false,
      "stateMutability": "view",
      "type": "function"
    },
    {
      "constant": true,
      "inputs": [],
      "name": "tk",
      "outputs": [
        {
          "name": "",
          "type": "address"
        }
      ],
      "payable": false,
      "stateMutability": "view",
      "type": "function"
    },
    {
      "constant": true,
      "inputs": [],
      "name": "pendingOwnedOwner",
      "outputs": [
        {
          "name": "",
          "type": "address"
        }
      ],
      "payable": false,
      "stateMutability": "view",
      "type": "function"
    },
    {
      "constant": false,
      "inputs": [],
      "name": "claimOwnership",
      "outputs": [],
      "payable": false,
      "stateMutability": "nonpayable",
      "type": "function"
    },
    {
      "constant": false,
      "inputs": [],
      "name": "renounceOwnership",
      "outputs": [],
      "payable": false,
      "stateMutability": "nonpayable",
      "type": "function"
    },
    {
      "constant": false,
      "inputs": [
        {
          "name": "_contract",
          "type": "address"
        }
      ],
      "name": "bindContract",
      "outputs": [
        {
          "name": "",
          "type": "bool"
        }
      ],
      "payable": false,
      "stateMutability": "nonpayable",
      "type": "function"
    },
    {
      "constant": true,
      "inputs": [],
      "name": "owner",
      "outputs": [
        {
          "name": "",
          "type": "address"
        }
      ],
      "payable": false,
      "stateMutability": "view",
      "type": "function"
    },
    {
      "constant": true,
      "inputs": [],
      "name": "ownedContract",
      "outputs": [
        {
          "name": "",
          "type": "address"
        }
      ],
      "payable": false,
      "stateMutability": "view",
      "type": "function"
    },
    {
      "constant": true,
      "inputs": [],
      "name": "start",
      "outputs": [
        {
          "name": "",
          "type": "uint256"
        }
      ],
      "payable": false,
      "stateMutability": "view",
      "type": "function"
    },
    {
      "constant": false,
      "inputs": [
        {
          "name": "_start",
          "type": "uint256"
        },
        {
          "name": "_end",
          "type": "uint256"
        }
      ],
      "name": "setLimits",
      "outputs": [],
      "payable": false,
      "stateMutability": "nonpayable",
      "type": "function"
    },
    {
      "constant": false,
      "inputs": [
        {
          "name": "_tokens",
          "type": "address[]"
        }
      ],
      "name": "destroy",
      "outputs": [],
      "payable": false,
      "stateMutability": "nonpayable",
      "type": "function"
    },
    {
      "constant": true,
      "inputs": [],
      "name": "params",
      "outputs": [
        {
          "name": "",
          "type": "address"
        }
      ],
      "payable": false,
      "stateMutability": "view",
      "type": "function"
    },
    {
      "constant": false,
      "inputs": [],
      "name": "ownedOwnershipTransferred",
      "outputs": [
        {
          "name": "",
          "type": "bool"
        }
      ],
      "payable": false,
      "stateMutability": "nonpayable",
      "type": "function"
    },
    {
      "constant": true,
      "inputs": [],
      "name": "pendingOwner",
      "outputs": [
        {
          "name": "",
          "type": "address"
        }
      ],
      "payable": false,
      "stateMutability": "view",
      "type": "function"
    },
    {
      "constant": false,
      "inputs": [
        {
          "name": "_nextOwner",
          "type": "address"
        }
      ],
      "name": "changeOwnershipto",
      "outputs": [],
      "payable": false,
      "stateMutability": "nonpayable",
      "type": "function"
    },
    {
      "constant": true,
      "inputs": [],
      "name": "end",
      "outputs": [
        {
          "name": "",
          "type": "uint256"
        }
      ],
      "payable": false,
      "stateMutability": "view",
      "type": "function"
    },
    {
      "constant": false,
      "inputs": [
        {
          "name": "newOwner",
          "type": "address"
        }
      ],
      "name": "transferOwnership",
      "outputs": [],
      "payable": false,
      "stateMutability": "nonpayable",
      "type": "function"
    },
    {
      "constant": false,
      "inputs": [
        {
          "name": "_to",
          "type": "address"
        },
        {
          "name": "_amount",
          "type": "uint256"
        }
      ],
      "name": "withdraw",
      "outputs": [
        {
          "name": "",
          "type": "bool"
        }
      ],
      "payable": false,
      "stateMutability": "nonpayable",
      "type": "function"
    },
    {
      "payable": true,
      "stateMutability": "payable",
      "type": "fallback"
    },
    {
      "anonymous": false,
      "inputs": [
        {
          "indexed": true,
          "name": "_wallet",
          "type": "address"
        },
        {
          "indexed": false,
          "name": "_deposit",
          "type": "address"
        }
      ],
      "name": "CreateDepositAddress",
      "type": "event"
    },
    {
      "anonymous": false,
      "inputs": [
        {
          "indexed": true,
          "name": "_deposit",
          "type": "address"
        },
        {
          "indexed": false,
          "name": "_freeze",
          "type": "bool"
        },
        {
          "indexed": false,
          "name": "_value",
          "type": "uint256"
        }
      ],
      "name": "FrozenTokens",
      "type": "event"
    },
    {
      "anonymous": false,
      "inputs": [
        {
          "indexed": true,
          "name": "_oldWallet",
          "type": "address"
        },
        {
          "indexed": false,
          "name": "_newWallet",
          "type": "address"
        }
      ],
      "name": "ChangeDefaultWallet",
      "type": "event"
    },
    {
      "anonymous": false,
      "inputs": [
        {
          "indexed": false,
          "name": "_from",
          "type": "address"
        },
        {
          "indexed": false,
          "name": "_value",
          "type": "uint256"
        }
      ],
      "name": "ReceiveEther",
      "type": "event"
    },
    {
      "anonymous": false,
      "inputs": [
        {
          "indexed": false,
          "name": "_to",
          "type": "address"
        },
        {
          "indexed": false,
          "name": "_value",
          "type": "uint256"
        }
      ],
      "name": "WithdrawEther",
      "type": "event"
    },
    {
      "anonymous": false,
      "inputs": [
        {
          "indexed": false,
          "name": "_token",
          "type": "address"
        },
        {
          "indexed": false,
          "name": "_to",
          "type": "address"
        },
        {
          "indexed": false,
          "name": "_value",
          "type": "uint256"
        }
      ],
      "name": "WithdrawToken",
      "type": "event"
    },
    {
      "anonymous": false,
      "inputs": [
        {
          "indexed": true,
          "name": "previousOwner",
          "type": "address"
        }
      ],
      "name": "OwnershipRenounced",
      "type": "event"
    },
    {
      "anonymous": false,
      "inputs": [
        {
          "indexed": true,
          "name": "previousOwner",
          "type": "address"
        },
        {
          "indexed": true,
          "name": "newOwner",
          "type": "address"
        }
      ],
      "name": "OwnershipTransferred",
      "type": "event"
    },
    {
      "constant": false,
      "inputs": [
        {
          "name": "_token",
          "type": "address"
        },
        {
          "name": "_walletParams",
          "type": "address"
        },
        {
          "name": "_walletStorage",
          "type": "address"
        }
      ],
      "name": "initialize",
      "outputs": [
        {
          "name": "",
          "type": "bool"
        }
      ],
      "payable": false,
      "stateMutability": "nonpayable",
      "type": "function"
    },
    {
      "constant": false,
      "inputs": [
        {
          "name": "_wallet",
          "type": "address"
        }
      ],
      "name": "createDepositContract",
      "outputs": [
        {
          "name": "",
          "type": "address"
        }
      ],
      "payable": false,
      "stateMutability": "nonpayable",
      "type": "function"
    },
    {
      "constant": false,
      "inputs": [
        {
          "name": "_deposit",
          "type": "address"
        },
        {
          "name": "_value",
          "type": "uint256"
        }
      ],
      "name": "doDeposit",
      "outputs": [
        {
          "name": "",
          "type": "bool"
        }
      ],
      "payable": false,
      "stateMutability": "nonpayable",
      "type": "function"
    },
    {
      "constant": true,
      "inputs": [
        {
          "name": "_wallet",
          "type": "address"
        }
      ],
      "name": "getDepositAddress",
      "outputs": [
        {
          "name": "",
          "type": "address"
        }
      ],
      "payable": false,
      "stateMutability": "view",
      "type": "function"
    },
    {
      "constant": true,
      "inputs": [
        {
          "name": "_deposit",
          "type": "address"
        }
      ],
      "name": "getDepositInfo",
      "outputs": [
        {
          "name": "",
          "type": "uint256"
        },
        {
          "name": "",
          "type": "uint256"
        }
      ],
      "payable": false,
      "stateMutability": "view",
      "type": "function"
    },
    {
      "constant": true,
      "inputs": [
        {
          "name": "_deposit",
          "type": "address"
        }
      ],
      "name": "getDepositWithdrawCount",
      "outputs": [
        {
          "name": "",
          "type": "uint256"
        }
      ],
      "payable": false,
      "stateMutability": "view",
      "type": "function"
    },
    {
      "constant": true,
      "inputs": [
        {
          "name": "_deposit",
          "type": "address"
        },
        {
          "name": "_indices",
          "type": "uint256[]"
        }
      ],
      "name": "getDepositWithdrawList",
      "outputs": [
        {
          "name": "",
          "type": "bytes32[]"
        },
        {
          "name": "",
          "type": "address[]"
        }
      ],
      "payable": false,
      "stateMutability": "view",
      "type": "function"
    },
    {
      "constant": false,
      "inputs": [
        {
          "name": "_oldWallet",
          "type": "address"
        },
        {
          "name": "_newWallet",
          "type": "address"
        }
      ],
      "name": "changeDefaultWithdraw",
      "outputs": [
        {
          "name": "",
          "type": "bool"
        }
      ],
      "payable": false,
      "stateMutability": "nonpayable",
      "type": "function"
    },
    {
      "constant": false,
      "inputs": [
        {
          "name": "_deposit",
          "type": "address"
        },
        {
          "name": "_freeze",
          "type": "bool"
        },
        {
          "name": "_value",
          "type": "uint256"
        }
      ],
      "name": "freezeTokens",
      "outputs": [
        {
          "name": "",
          "type": "bool"
        }
      ],
      "payable": false,
      "stateMutability": "nonpayable",
      "type": "function"
    },
    {
      "constant": true,
      "inputs": [
        {
          "name": "_deposit",
          "type": "address"
        },
        {
          "name": "_name",
          "type": "bytes32"
        },
        {
          "name": "_to",
          "type": "address"
        }
      ],
      "name": "checkWithdrawAddress",
      "outputs": [
        {
          "name": "",
          "type": "bool"
        },
        {
          "name": "",
          "type": "bool"
        }
      ],
      "payable": false,
      "stateMutability": "view",
      "type": "function"
    },
    {
      "constant": false,
      "inputs": [
        {
          "name": "_deposit",
          "type": "address"
        },
        {
          "name": "_time",
          "type": "uint256"
        },
        {
          "name": "_name",
          "type": "bytes32"
        },
        {
          "name": "_to",
          "type": "address"
        },
        {
          "name": "_value",
          "type": "uint256"
        },
        {
          "name": "_check",
          "type": "bool"
        }
      ],
      "name": "withdrawWithFee",
      "outputs": [
        {
          "name": "",
          "type": "bool"
        }
      ],
      "payable": false,
      "stateMutability": "nonpayable",
      "type": "function"
    },
    {
      "constant": false,
      "inputs": [
        {
          "name": "_deposit",
          "type": "address"
        },
        {
          "name": "_time",
          "type": "uint256"
        },
        {
          "name": "_value",
          "type": "uint256"
        },
        {
          "name": "_check",
          "type": "bool"
        }
      ],
      "name": "withdrawWithFee",
      "outputs": [
        {
          "name": "",
          "type": "bool"
        }
      ],
      "payable": false,
      "stateMutability": "nonpayable",
      "type": "function"
    },
    {
      "constant": false,
      "inputs": [
        {
          "name": "_deposit",
          "type": "address"
        }
      ],
      "name": "destroyDepositContract",
      "outputs": [
        {
          "name": "",
          "type": "bool"
        }
      ],
      "payable": false,
      "stateMutability": "nonpayable",
      "type": "function"
    }
  ],
  "bytecode": "0x608060405260008054600160a060020a031916331790556141c2806100256000396000f30060806040526004361061017c5763ffffffff60e060020a60003504166301e3366781146101b857806314a0bc6f146101f6578063196198fa1461022757806321f408be1461025a57806322e113a31461026f57806345629402146102985780634902d163146102bf5780634a738bea146102d45780634e71e0c81461030b5780635287ce12146103225780635682d43d1461035c57806365a31545146103a2578063715018a6146103c65780637df83cd0146103db5780638157d4b5146104d75780638da5cb5b146104f85780639ab8bc271461050d578063aba9650e1461052e578063bc467a3e1461054f578063be9a655514610564578063c0c53b8b14610579578063c4590d3f146105a6578063c6786e5a146105c1578063cff0ab9614610616578063d83a7f671461062b578063dbf354301461064c578063e30c397814610661578063ede930c914610676578063efbe1c1c14610697578063f23f2cbe146106ac578063f2fde38b146106d8578063f3fef3a3146106f9575b6040805133815234602082015281517ff32a9f77675fd5917534c7746608fd3e309eac68fbdcbf5925e24ca97a704396929181900390910190a1005b3480156101c457600080fd5b506101e2600160a060020a036004358116906024351660443561071d565b604080519115158252519081900360200190f35b34801561020257600080fd5b5061020b610839565b60408051600160a060020a039092168252519081900360200190f35b34801561023357600080fd5b50610248600160a060020a0360043516610848565b60408051918252519081900360200190f35b34801561026657600080fd5b5061020b610912565b34801561027b57600080fd5b506101e2600160a060020a03600435166024351515604435610921565b3480156102a457600080fd5b506101e2600160a060020a0360043581169060243516610a31565b3480156102cb57600080fd5b5061020b610c98565b3480156102e057600080fd5b506101e2600160a060020a0360043581169060243590604435906064351660843560a4351515610ca7565b34801561031757600080fd5b50610320611572565b005b34801561032e57600080fd5b50610343600160a060020a0360043516611611565b6040805192835260208301919091528051918290030190f35b34801561036857600080fd5b50610387600160a060020a03600435811690602435906044351661177a565b60408051921515835290151560208301528051918290030190f35b3480156103ae57600080fd5b506101e2600160a060020a03600435166024356119db565b3480156103d257600080fd5b50610320611a62565b3480156103e757600080fd5b5060408051602060046024803582810135848102808701860190975280865261043e968435600160a060020a031696369660449591949091019291829185019084908082843750949750611ac19650505050505050565b604051808060200180602001838103835285818151815260200191508051906020019060200280838360005b8381101561048257818101518382015260200161046a565b50505050905001838103825284818151815260200191508051906020019060200280838360005b838110156104c15781810151838201526020016104a9565b5050505090500194505050505060405180910390f35b3480156104e357600080fd5b506101e2600160a060020a0360043516611cf0565b34801561050457600080fd5b5061020b611e49565b34801561051957600080fd5b506101e2600160a060020a0360043516611e58565b34801561053a57600080fd5b5061020b600160a060020a0360043516612028565b34801561055b57600080fd5b5061020b612179565b34801561057057600080fd5b50610248612188565b34801561058557600080fd5b506101e2600160a060020a036004358116906024358116906044351661218e565b3480156105b257600080fd5b50610320600435602435612213565b3480156105cd57600080fd5b50604080516020600480358082013583810280860185019096528085526103209536959394602494938501929182918501908490808284375094975061223f9650505050505050565b34801561062257600080fd5b5061020b6123b0565b34801561063757600080fd5b5061020b600160a060020a03600435166123bf565b34801561065857600080fd5b506101e2612486565b34801561066d57600080fd5b5061020b61257f565b34801561068257600080fd5b50610320600160a060020a036004351661258e565b3480156106a357600080fd5b5061024861271e565b3480156106b857600080fd5b506101e2600160a060020a03600435166024356044356064351515612724565b3480156106e457600080fd5b50610320600160a060020a0360043516612898565b34801561070557600080fd5b506101e2600160a060020a03600435166024356128d1565b600080548190600160a060020a0316331461073757600080fd5b600160a060020a038416151561074c57600080fd5b600160a060020a038516151561076157600080fd5b506040805160e060020a63a9059cbb028152600160a060020a038581166004830152602482018590529151869283169163a9059cbb9160448083019260209291908290030181600087803b1580156107b857600080fd5b505af11580156107cc573d6000803e3d6000fd5b505050506040513d60208110156107e257600080fd5b505060408051600160a060020a0380881682528616602082015280820185905290517f037238854fe57fbf51f09946f854fc3916fe83938d6521f09bd05463839f13049181900360600190a1506001949350505050565b600854600160a060020a031681565b600080548190600160a060020a0316331461086257600080fd5b600160a060020a038316151561087757600080fd5b600854604080517fb714a90d000000000000000000000000000000000000000000000000000000008152600160a060020a0386811660048301529151919092169163b714a90d9160248083019260209291908290030181600087803b1580156108df57600080fd5b505af11580156108f3573d6000803e3d6000fd5b505050506040513d602081101561090957600080fd5b50519392505050565b600654600160a060020a031681565b600080548190600160a060020a0316331461093b57600080fd5b600854604080517f22e113a3000000000000000000000000000000000000000000000000000000008152600160a060020a038881166004830152871515602483015260448201879052915191909216916322e113a39160648083019260209291908290030181600087803b1580156109b257600080fd5b505af11580156109c6573d6000803e3d6000fd5b505050506040513d60208110156109dc57600080fd5b5051604080518615158152602081018690528151929350600160a060020a038816927ffd984c05c771ebc127f8483a21238f2b87610feb88410280c0f435d02ae0f439929181900390910190a2949350505050565b60008054819081908190600160a060020a03163314610a4f57600080fd5b600160a060020a0386161515610a6457600080fd5b600160a060020a0385161515610a7957600080fd5b600854604080517f79b6fead000000000000000000000000000000000000000000000000000000008152600160a060020a038981166004830152915191909216916379b6fead9160248083019260209291908290030181600087803b158015610ae157600080fd5b505af1158015610af5573d6000803e3d6000fd5b505050506040513d6020811015610b0b57600080fd5b5051604080517f9373f432000000000000000000000000000000000000000000000000000000008152600160a060020a038881166004830152915192955085945090841691639373f432916024808201926020929091908290030181600087803b158015610b7857600080fd5b505af1158015610b8c573d6000803e3d6000fd5b505050506040513d6020811015610ba257600080fd5b50511515610baf57600080fd5b600854604080517fbf403204000000000000000000000000000000000000000000000000000000008152600160a060020a03898116600483015288811660248301529151919092169163bf4032049160448083019260209291908290030181600087803b158015610c1f57600080fd5b505af1158015610c33573d6000803e3d6000fd5b505050506040513d6020811015610c4957600080fd5b505160408051600160a060020a0388811682529151929350908816917fb15573eb768216f61724fe33469e0a6160b82aadd32d51a4faec79aeb5351ad39181900360200190a295945050505050565b600554600160a060020a031681565b60008054819081908190819081908190600160a060020a03163314610ccb57600080fd5b600160a060020a038d161515610ce057600080fd5b600160a060020a038a161515610cf557600080fd5b600860009054906101000a9004600160a060020a0316600160a060020a03166370a082318e6040518263ffffffff1660e060020a0281526004018082600160a060020a0316600160a060020a03168152602001915050602060405180830381600087803b158015610d6557600080fd5b505af1158015610d79573d6000803e3d6000fd5b505050506040513d6020811015610d8f57600080fd5b81019080805190602001909291905050509550600860009054906101000a9004600160a060020a0316600160a060020a03166386602c848e6040518263ffffffff1660e060020a0281526004018082600160a060020a0316600160a060020a03168152602001915050602060405180830381600087803b158015610e1257600080fd5b505af1158015610e26573d6000803e3d6000fd5b505050506040513d6020811015610e3c57600080fd5b505194508715610e6257610e56868663ffffffff61298216565b891115610e6257600080fd5b600660009054906101000a9004600160a060020a0316600160a060020a03166370a082318e6040518263ffffffff1660e060020a0281526004018082600160a060020a0316600160a060020a03168152602001915050602060405180830381600087803b158015610ed257600080fd5b505af1158015610ee6573d6000803e3d6000fd5b505050506040513d6020811015610efc57600080fd5b50519350610f0b8d8c8c61177a565b90935091508215156110b657811515610fea57600860009054906101000a9004600160a060020a0316600160a060020a03166384062bdd8e8d8d6040518463ffffffff1660e060020a0281526004018084600160a060020a0316600160a060020a03168152602001836000191660001916815260200182600160a060020a0316600160a060020a031681526020019350505050602060405180830381600087803b158015610fb857600080fd5b505af1158015610fcc573d6000803e3d6000fd5b505050506040513d6020811015610fe257600080fd5b506110b19050565b600860009054906101000a9004600160a060020a0316600160a060020a031663e31dd8968e8d8d6040518463ffffffff1660e060020a0281526004018084600160a060020a0316600160a060020a03168152602001836000191660001916815260200182600160a060020a0316600160a060020a031681526020019350505050602060405180830381600087803b15801561108457600080fd5b505af1158015611098573d6000803e3d6000fd5b505050506040513d60208110156110ae57600080fd5b50505b61114a565b81151561114a57604080517f08c379a000000000000000000000000000000000000000000000000000000000815260206004820152603060248201527f77616c6c65742061646472657373206d75737420626520636f7272656374207760448201527f6974682077616c6c6574206e616d652100000000000000000000000000000000606482015290519081900360840190fd5b508b838911156112c957600754604080517f68c31649000000000000000000000000000000000000000000000000000000008152600160a060020a039283166004820152602481018c9052604481018f90529051918316916368c31649916064808201926020929091908290030181600087803b1580156111ca57600080fd5b505af11580156111de573d6000803e3d6000fd5b505050506040513d60208110156111f457600080fd5b5051151561120157600080fd5b600654604080517f01e33667000000000000000000000000000000000000000000000000000000008152600160a060020a039283166004820152306024820152604481018790529051918316916301e33667916064808201926020929091908290030181600087803b15801561127657600080fd5b505af115801561128a573d6000803e3d6000fd5b505050506040513d60208110156112a057600080fd5b505115156112ad57600080fd5b6112b9818d8c8c612994565b15156112c457600080fd5b6114bd565b80600160a060020a03166366013bdd600660009054906101000a9004600160a060020a0316600760009054906101000a9004600160a060020a03168f8e8e600760009054906101000a9004600160a060020a0316600160a060020a031663744c8c096040518163ffffffff1660e060020a028152600401602060405180830381600087803b15801561135a57600080fd5b505af115801561136e573d6000803e3d6000fd5b505050506040513d602081101561138457600080fd5b5051600754604080517fd16edc150000000000000000000000000000000000000000000000000000000081529051600160a060020a039092169163d16edc15916004808201926020929091908290030181600087803b1580156113e657600080fd5b505af11580156113fa573d6000803e3d6000fd5b505050506040513d602081101561141057600080fd5b50516040805160e060020a63ffffffff8b16028152600160a060020a039889166004820152968816602488015260448701959095529286166064860152608485019190915260a48401529290921660c4820152905160e48083019260209291908290030181600087803b15801561148657600080fd5b505af115801561149a573d6000803e3d6000fd5b505050506040513d60208110156114b057600080fd5b505115156114bd57600080fd5b600860009054906101000a9004600160a060020a0316600160a060020a031663ff0569498e8b6040518363ffffffff1660e060020a0281526004018083600160a060020a0316600160a060020a0316815260200182815260200192505050602060405180830381600087803b15801561153557600080fd5b505af1158015611549573d6000803e3d6000fd5b505050506040513d602081101561155f57600080fd5b50519d9c50505050505050505050505050565b600154600160a060020a0316331461158957600080fd5b600254431115801561159d57506003544310155b15156115a857600080fd5b60015460008054604051600160a060020a0393841693909116917f8be0079c531659141344cd1fd0a4f28419497f9722a3daafe3b4186f6b6457e091a36001805460008054600160a060020a0319908116600160a060020a038416178255909116909155600255565b60008054819081908190600160a060020a0316331461162f57600080fd5b600160a060020a038516151561164457600080fd5b600854604080517f70a08231000000000000000000000000000000000000000000000000000000008152600160a060020a038881166004830152915191909216916370a082319160248083019260209291908290030181600087803b1580156116ac57600080fd5b505af11580156116c0573d6000803e3d6000fd5b505050506040513d60208110156116d657600080fd5b5051600854604080517f86602c84000000000000000000000000000000000000000000000000000000008152600160a060020a03898116600483015291519395509116916386602c84916024808201926020929091908290030181600087803b15801561174257600080fd5b505af1158015611756573d6000803e3d6000fd5b505050506040513d602081101561176c57600080fd5b505191959194509092505050565b600854604080517fb714a90d000000000000000000000000000000000000000000000000000000008152600160a060020a038681166004830152915160009384938493849384938493169163b714a90d91602480830192602092919082900301818787803b1580156117eb57600080fd5b505af11580156117ff573d6000803e3d6000fd5b505050506040513d602081101561181557600080fd5b50519350600092505b838310156119c757600854604080517ff19ae02a000000000000000000000000000000000000000000000000000000008152600160a060020a038c81166004830152602482018790529151919092169163f19ae02a9160448083019260209291908290030181600087803b15801561189557600080fd5b505af11580156118a9573d6000803e3d6000fd5b505050506040513d60208110156118bf57600080fd5b5051600854604080517f437ec21d000000000000000000000000000000000000000000000000000000008152600160a060020a038d8116600483015260248201889052915193955091169163437ec21d916044808201926020929091908290030181600087803b15801561193257600080fd5b505af1158015611946573d6000803e3d6000fd5b505050506040513d602081101561195c57600080fd5b505190508782141561198857600181600160a060020a031688600160a060020a031614955095506119cf565b80600160a060020a031687600160a060020a031614156119af5760006001955095506119cf565b6119c083600163ffffffff612c8316565b925061181e565b600080955095505b50505050935093915050565b60008054600160a060020a031633146119f357600080fd5b600854604080517f5b86f599000000000000000000000000000000000000000000000000000000008152600160a060020a0386811660048301526024820186905291519190921691635b86f5999160448083019260209291908290030181600087803b1580156108df57600080fd5b600054600160a060020a03163314611a7957600080fd5b60008054604051600160a060020a03909116917ff8df31144d9c2f0f6b59d69b8b98abd5459d07f2742c4df920b25aae33c6482091a260008054600160a060020a0319169055565b60008054606091829182918291600160a060020a03163314611ae257600080fd5b85511515611aef57600080fd5b8551604051908082528060200260200182016040528015611b1a578160200160208202803883390190505b5092508551604051908082528060200260200182016040528015611b48578160200160208202803883390190505b509150600090505b8551811015611ce457600854604080517ff19ae02a000000000000000000000000000000000000000000000000000000008152600160a060020a038a81166004830152602482018590529151919092169163f19ae02a9160448083019260209291908290030181600087803b158015611bc857600080fd5b505af1158015611bdc573d6000803e3d6000fd5b505050506040513d6020811015611bf257600080fd5b50518351849083908110611c0257fe5b6020908102909101810191909152600854604080517f437ec21d000000000000000000000000000000000000000000000000000000008152600160a060020a038b81166004830152602482018690529151919092169263437ec21d92604480820193918290030181600087803b158015611c7b57600080fd5b505af1158015611c8f573d6000803e3d6000fd5b505050506040513d6020811015611ca557600080fd5b50518251839083908110611cb557fe5b600160a060020a03909216602092830290910190910152611cdd81600163ffffffff612c8316565b9050611b50565b50909590945092505050565b60008054600160a060020a03163314611d0857600080fd5b600160a060020a0382161515611d1d57600080fd5b60048054600160a060020a031916600160a060020a0384811691909117808355604080517f8da5cb5b000000000000000000000000000000000000000000000000000000008152905130949290931692638da5cb5b928281019260209291908290030181600087803b158015611d9257600080fd5b505af1158015611da6573d6000803e3d6000fd5b505050506040513d6020811015611dbc57600080fd5b5051600160a060020a031614611e415760048054604080517f4e71e0c80000000000000000000000000000000000000000000000000000000081529051600160a060020a0390921692634e71e0c892828201926000929082900301818387803b158015611e2857600080fd5b505af1158015611e3c573d6000803e3d6000fd5b505050505b506001919050565b600054600160a060020a031681565b600080548190606090600160a060020a03163314611e7557600080fd5b600160a060020a0384161515611e8a57600080fd5b604080516001808252818301909252859350906020808301908038833950506006548251929350600160a060020a0316918391506000908110611ec957fe5b600160a060020a0392831660209182029092018101919091526040517fc6786e5a000000000000000000000000000000000000000000000000000000008152600481018281528451602483015284519386169363c6786e5a9386938392604490910191858101910280838360005b83811015611f4f578181015183820152602001611f37565b5050505090500192505050600060405180830381600087803b158015611f7457600080fd5b505af1158015611f88573d6000803e3d6000fd5b5050600854604080517f0a633e09000000000000000000000000000000000000000000000000000000008152600160a060020a0389811660048301529151919092169350630a633e09925060248083019260209291908290030181600087803b158015611ff457600080fd5b505af1158015612008573d6000803e3d6000fd5b505050506040513d602081101561201e57600080fd5b5051949350505050565b6000805481908190600160a060020a0316331461204457600080fd5b600160a060020a038416151561205957600080fd5b83612062612c96565b600160a060020a03909116815260405190819003602001906000f08015801561208f573d6000803e3d6000fd5b50600854604080517f2f1c563e000000000000000000000000000000000000000000000000000000008152600160a060020a03888116600483015280851660248301529151939550859450911691632f1c563e916044808201926020929091908290030181600087803b15801561210557600080fd5b505af1158015612119573d6000803e3d6000fd5b505050506040513d602081101561212f57600080fd5b505060408051600160a060020a0383811682529151918616917f55c48b5893b218bfd1f85d28d11d185c7ec0f376933dbb0a09db48711c120e229181900360200190a29392505050565b600454600160a060020a031681565b60035481565b60008054600160a060020a031633146121a657600080fd5b600160a060020a03841615156121bb57600080fd5b600160a060020a03831615156121d057600080fd5b5060068054600160a060020a03948516600160a060020a031991821617909155600780549385169382169390931790925560088054919093169116179055600190565b600054600160a060020a0316331461222a57600080fd5b8082111561223757600080fd5b600255600355565b6000805481908190600160a060020a0316331461225b57600080fd5b600092505b83518310156123a257838381518110151561227757fe5b6020908102909101810151604080517f70a082310000000000000000000000000000000000000000000000000000000081523060048201529051919450600160a060020a038516926370a08231926024808401938290030181600087803b1580156122e157600080fd5b505af11580156122f5573d6000803e3d6000fd5b505050506040513d602081101561230b57600080fd5b5051600080546040805160e060020a63a9059cbb028152600160a060020a0392831660048201526024810185905290519394509085169263a9059cbb92604480840193602093929083900390910190829087803b15801561236b57600080fd5b505af115801561237f573d6000803e3d6000fd5b505050506040513d602081101561239557600080fd5b5050600190920191612260565b600054600160a060020a0316ff5b600754600160a060020a031681565b60008054600160a060020a031633146123d757600080fd5b600160a060020a03821615156123ec57600080fd5b600854604080517f79b6fead000000000000000000000000000000000000000000000000000000008152600160a060020a038581166004830152915191909216916379b6fead9160248083019260209291908290030181600087803b15801561245457600080fd5b505af1158015612468573d6000803e3d6000fd5b505050506040513d602081101561247e57600080fd5b505192915050565b60008054600160a060020a0316331461249e57600080fd5b600454600160a060020a031615156124b557600080fd5b60055460048054604080517f8da5cb5b0000000000000000000000000000000000000000000000000000000081529051600160a060020a039485169490921692638da5cb5b9282820192602092908290030181600087803b15801561251957600080fd5b505af115801561252d573d6000803e3d6000fd5b505050506040513d602081101561254357600080fd5b5051600160a060020a03161415612578575060048054600160a060020a0319908116909155600580549091169055600161257c565b5060005b90565b600154600160a060020a031681565b600054600160a060020a031633146125a557600080fd5b600454600160a060020a031615156125bc57600080fd5b60055460048054604080517f8da5cb5b0000000000000000000000000000000000000000000000000000000081529051600160a060020a039485169490921692638da5cb5b9282820192602092908290030181600087803b15801561262057600080fd5b505af1158015612634573d6000803e3d6000fd5b505050506040513d602081101561264a57600080fd5b5051600160a060020a0316146126fe5760048054604080517ff2fde38b000000000000000000000000000000000000000000000000000000008152600160a060020a03858116948201949094529051929091169163f2fde38b9160248082019260009290919082900301818387803b1580156126c557600080fd5b505af11580156126d9573d6000803e3d6000fd5b505060058054600160a060020a031916600160a060020a0385161790555061271b9050565b60048054600160a060020a03199081169091556005805490911690555b50565b60025481565b6000805481908190600160a060020a0316331461274057600080fd5b600854604080517ff19ae02a000000000000000000000000000000000000000000000000000000008152600160a060020a038a81166004830152600060248301819052925193169263f19ae02a92604480840193602093929083900390910190829087803b1580156127b157600080fd5b505af11580156127c5573d6000803e3d6000fd5b505050506040513d60208110156127db57600080fd5b5051600854604080517f437ec21d000000000000000000000000000000000000000000000000000000008152600160a060020a038b8116600483015260006024830181905292519496509092169263437ec21d926044808201936020939283900390910190829087803b15801561285157600080fd5b505af1158015612865573d6000803e3d6000fd5b505050506040513d602081101561287b57600080fd5b5051905061288d878784848989610ca7565b979650505050505050565b600054600160a060020a031633146128af57600080fd5b60018054600160a060020a031916600160a060020a0392909216919091179055565b60008054600160a060020a031633146128e957600080fd5b600160a060020a03831615156128fe57600080fd5b604051600160a060020a0384169083156108fc029084906000818181858888f19350505050158015612934573d6000803e3d6000fd5b5060408051600160a060020a03851681526020810184905281517fdb35132c111efe920cede025e819975671cfd1b8fcc1174762c8670c4e94c211929181900390910190a150600192915050565b60008282111561298e57fe5b50900390565b600080600080600760009054906101000a9004600160a060020a0316600160a060020a031663744c8c096040518163ffffffff1660e060020a028152600401602060405180830381600087803b1580156129ed57600080fd5b505af1158015612a01573d6000803e3d6000fd5b505050506040513d6020811015612a1757600080fd5b50519250612a2b858463ffffffff61298216565b9150600760009054906101000a9004600160a060020a0316600160a060020a031663d16edc156040518163ffffffff1660e060020a028152600401602060405180830381600087803b158015612a8057600080fd5b505af1158015612a94573d6000803e3d6000fd5b505050506040513d6020811015612aaa57600080fd5b50519050600160a060020a03811615801590612ac65750600083115b15612b5b576006546040805160e060020a63a9059cbb028152600160a060020a038481166004830152602482018790529151919092169163a9059cbb9160448083019260209291908290030181600087803b158015612b2457600080fd5b505af1158015612b38573d6000803e3d6000fd5b505050506040513d6020811015612b4e57600080fd5b50511515612b5b57600080fd5b6006546040805160e060020a63a9059cbb028152600160a060020a038981166004830152602482018690529151919092169163a9059cbb9160448083019260209291908290030181600087803b158015612bb457600080fd5b505af1158015612bc8573d6000803e3d6000fd5b505050506040513d6020811015612bde57600080fd5b50511515612beb57600080fd5b604080517fab40340a00000000000000000000000000000000000000000000000000000000815260048101899052600160a060020a038881166024830152604482018590529151918a169163ab40340a9160648082019260009290919082900301818387803b158015612c5d57600080fd5b505af1158015612c71573d6000803e3d6000fd5b5060019b9a5050505050505050505050565b81810182811015612c9057fe5b92915050565b6040516114f080612ca7833901905600608060405234801561001057600080fd5b506040516020806114f0833981016040525160008054600160a060020a03191633179055600160a060020a038116151561004957600080fd5b600a8054600160a060020a031916600160a060020a0392909216919091179055611478806100786000396000f3006080604052600436106100ec5763ffffffff60e060020a600035041662226eb5811461012857806301e336671461014f5780634e71e0c81461018d57806366013bdd146101a457806368c31649146101e3578063715018a61461020a57806374cd5c0b1461021f5780638da5cb5b1461025d5780638f4ffcb11461028e5780639373f432146102fe5780639bdd070d1461031f578063a901199014610358578063ab40340a14610370578063bfe370d914610397578063c5a88559146103f0578063c6786e5a14610405578063e30c39781461045a578063f2fde38b1461046f578063f3fef3a314610490575b6040805133815234602082015281517ff32a9f77675fd5917534c7746608fd3e309eac68fbdcbf5925e24ca97a704396929181900390910190a1005b34801561013457600080fd5b5061013d6104b4565b60408051918252519081900360200190f35b34801561015b57600080fd5b50610179600160a060020a03600435811690602435166044356104ba565b604080519115158252519081900360200190f35b34801561019957600080fd5b506101a26105ec565b005b3480156101b057600080fd5b50610179600160a060020a03600435811690602435811690604435906064358116906084359060a4359060c43516610674565b3480156101ef57600080fd5b50610179600160a060020a03600435166024356044356108a7565b34801561021657600080fd5b506101a2610bdf565b34801561022b57600080fd5b50610237600435610c4b565b60408051938452600160a060020a03909216602084015282820152519081900360600190f35b34801561026957600080fd5b50610272610ce2565b60408051600160a060020a039092168252519081900360200190f35b34801561029a57600080fd5b50604080516020601f6064356004818101359283018490048402850184019095528184526101a294600160a060020a03813581169560248035966044359093169536956084949201918190840183828082843750949750610cf19650505050505050565b34801561030a57600080fd5b50610179600160a060020a0360043516610f83565b34801561032b57600080fd5b50610179600160a060020a0360043581169060243581169060443590606435906084359060a43516610fe2565b34801561036457600080fd5b50610237600435611023565b34801561037c57600080fd5b506101a2600435600160a060020a0360243516604435611095565b3480156103a357600080fd5b506040805160206004803580820135601f810184900484028501840190955284845261013d9436949293602493928401919081908401838280828437509497506111789650505050505050565b3480156103fc57600080fd5b5061013d61117f565b34801561041157600080fd5b50604080516020600480358082013583810280860185019096528085526101a2953695939460249493850192918291850190849080828437509497506111859650505050505050565b34801561046657600080fd5b5061027261130c565b34801561047b57600080fd5b506101a2600160a060020a036004351661131b565b34801561049c57600080fd5b50610179600160a060020a0360043516602435611361565b60025490565b600080548190600160a060020a031633146104d457600080fd5b600160a060020a03841615156104e957600080fd5b600160a060020a03851615156104fe57600080fd5b50604080517fa9059cbb000000000000000000000000000000000000000000000000000000008152600160a060020a038581166004830152602482018590529151869283169163a9059cbb9160448083019260209291908290030181600087803b15801561056b57600080fd5b505af115801561057f573d6000803e3d6000fd5b505050506040513d602081101561059557600080fd5b505060408051600160a060020a0380881682528616602082015280820185905290517f037238854fe57fbf51f09946f854fc3916fe83938d6521f09bd05463839f13049181900360600190a1506001949350505050565b600154600160a060020a0316331461060357600080fd5b60015460008054604051600160a060020a0393841693909116917f8be0079c531659141344cd1fd0a4f28419497f9722a3daafe3b4186f6b6457e091a3600180546000805473ffffffffffffffffffffffffffffffffffffffff19908116600160a060020a03841617909155169055565b6000805481908190600160a060020a0316331461069057600080fd5b600160a060020a03871615156106a557600080fd5b600160a060020a038a1615156106ba57600080fd5b8486116106c657600080fd5b6106d189878a6108a7565b15156106dc57600080fd5b8991506106ef868663ffffffff61141216565b905081600160a060020a031663a9059cbb88836040518363ffffffff1660e060020a0281526004018083600160a060020a0316600160a060020a0316815260200182815260200192505050602060405180830381600087803b15801561075457600080fd5b505af1158015610768573d6000803e3d6000fd5b505050506040513d602081101561077e57600080fd5b5051151561078b57600080fd5b600160a060020a038416158015906107a35750600085115b156108425781600160a060020a031663a9059cbb85876040518363ffffffff1660e060020a0281526004018083600160a060020a0316600160a060020a0316815260200182815260200192505050602060405180830381600087803b15801561080b57600080fd5b505af115801561081f573d6000803e3d6000fd5b505050506040513d602081101561083557600080fd5b5051151561084257600080fd5b61084d888883611095565b60408051600160a060020a03808d1682528916602082015280820183905290517f037238854fe57fbf51f09946f854fc3916fe83938d6521f09bd05463839f13049181900360600190a15060019998505050505050505050565b60008060008086925082600160a060020a0316637312aaae6040518163ffffffff1660e060020a028152600401602060405180830381600087803b1580156108ee57600080fd5b505af1158015610902573d6000803e3d6000fd5b505050506040513d602081101561091857600080fd5b505186111561092657600080fd5b82600160a060020a03166314361fd16040518163ffffffff1660e060020a028152600401602060405180830381600087803b15801561096457600080fd5b505af1158015610978573d6000803e3d6000fd5b505050506040513d602081101561098e57600080fd5b505186101561099c57600080fd5b6109af856201518063ffffffff61142416565b6004549092508211610ae3576005546109cf90600163ffffffff61143916565b6005556006546109e5908763ffffffff61143916565b60046002018190555082600160a060020a031663f213aad26040518163ffffffff1660e060020a028152600401602060405180830381600087803b158015610a2c57600080fd5b505af1158015610a40573d6000803e3d6000fd5b505050506040513d6020811015610a5657600080fd5b50516005541115610a6657600080fd5b82600160a060020a0316635e3cbb7c6040518163ffffffff1660e060020a028152600401602060405180830381600087803b158015610aa457600080fd5b505af1158015610ab8573d6000803e3d6000fd5b505050506040513d6020811015610ace57600080fd5b50516006541115610ade57600080fd5b610af3565b6004829055600160055560068690555b610b068562278d0063ffffffff61142416565b6007549091508111610bc257600854610b2690600163ffffffff61143916565b600855600954610b3c908763ffffffff61143916565b60076002018190555082600160a060020a031663be54f2146040518163ffffffff1660e060020a028152600401602060405180830381600087803b158015610b8357600080fd5b505af1158015610b97573d6000803e3d6000fd5b505050506040513d6020811015610bad57600080fd5b50516009541115610bbd57600080fd5b610bd2565b6007819055600160085560098690555b5060019695505050505050565b600054600160a060020a03163314610bf657600080fd5b60008054604051600160a060020a03909116917ff8df31144d9c2f0f6b59d69b8b98abd5459d07f2742c4df920b25aae33c6482091a26000805473ffffffffffffffffffffffffffffffffffffffff19169055565b600354600090819081908410610c6057600080fd5b6003805485908110610c6e57fe5b906000526020600020906003020160000154600385815481101515610c8f57fe5b906000526020600020906003020160010160009054906101000a9004600160a060020a0316600386815481101515610cc357fe5b9060005260206000209060030201600201549250925092509193909250565b600054600160a060020a031681565b600080548190600160a060020a03163314610d0b57600080fd5b600160a060020a0384161515610d2057600080fd5b600160a060020a0386161515610d3557600080fd5b604080517f23b872dd000000000000000000000000000000000000000000000000000000008152600160a060020a038881166004830152306024830152604482018890529151869450918416916323b872dd916064808201926020929091908290030181600087803b158015610daa57600080fd5b505af1158015610dbe573d6000803e3d6000fd5b505050506040513d6020811015610dd457600080fd5b50511515610de157600080fd5b610dea83611178565b6040805160608082018352838252600160a060020a038a811660208085018281528587018d815260028054600181018255600091825297517f405787fa12a823e0f2b7631cc41b3ba8828b3321ca811111fa75cd3aa3bb5ace60039099029889015591517f405787fa12a823e0f2b7631cc41b3ba8828b3321ca811111fa75cd3aa3bb5acf8801805473ffffffffffffffffffffffffffffffffffffffff1916918716919091179055517f405787fa12a823e0f2b7631cc41b3ba8828b3321ca811111fa75cd3aa3bb5ad09096019590955585519182528181018c9052918a1694810194909452608091840182815288519285019290925287519495507f3bc54c6dcf5be6793947a9f34e5ca45d6ce9196bea304a5550c3e2d2f2156502948b948b948b948b949293909260a085019290860191908190849084905b83811015610f3e578181015183820152602001610f26565b50505050905090810190601f168015610f6b5780820380516001836020036101000a031916815260200191505b509550505050505060405180910390a1505050505050565b60008054600160a060020a03163314610f9b57600080fd5b600160a060020a0382161515610fb057600080fd5b50600a8054600160a060020a03831673ffffffffffffffffffffffffffffffffffffffff199091161790556001919050565b60008054600160a060020a03163314610ffa57600080fd5b600a5461101890889088908890600160a060020a0316888888610674565b979650505050505050565b60025460009081908190841061103857600080fd5b600280548590811061104657fe5b90600052602060002090600302016000015460028581548110151561106757fe5b600091825260209091206001600390920201015460028054600160a060020a039092169187908110610cc357fe5b600054600160a060020a031633146110ac57600080fd5b60408051606081018252938452600160a060020a039283166020850190815290840191825260038054600181018255600082905294517fc2575a0e9e593c00f959f8c92f12db2869c3395a3b0502d05e2516446f71f85b9590910294850155517fc2575a0e9e593c00f959f8c92f12db2869c3395a3b0502d05e2516446f71f85c8401805473ffffffffffffffffffffffffffffffffffffffff19169190931617909155517fc2575a0e9e593c00f959f8c92f12db2869c3395a3b0502d05e2516446f71f85d90910155565b6020015190565b60035490565b6000805481908190600160a060020a031633146111a157600080fd5b600092505b83518310156112fe5783838151811015156111bd57fe5b6020908102909101810151604080517f70a082310000000000000000000000000000000000000000000000000000000081523060048201529051919450600160a060020a038516926370a08231926024808401938290030181600087803b15801561122757600080fd5b505af115801561123b573d6000803e3d6000fd5b505050506040513d602081101561125157600080fd5b505160008054604080517fa9059cbb000000000000000000000000000000000000000000000000000000008152600160a060020a0392831660048201526024810185905290519394509085169263a9059cbb92604480840193602093929083900390910190829087803b1580156112c757600080fd5b505af11580156112db573d6000803e3d6000fd5b505050506040513d60208110156112f157600080fd5b50506001909201916111a6565b600054600160a060020a0316ff5b600154600160a060020a031681565b600054600160a060020a0316331461133257600080fd5b6001805473ffffffffffffffffffffffffffffffffffffffff1916600160a060020a0392909216919091179055565b60008054600160a060020a0316331461137957600080fd5b600160a060020a038316151561138e57600080fd5b604051600160a060020a0384169083156108fc029084906000818181858888f193505050501580156113c4573d6000803e3d6000fd5b5060408051600160a060020a03851681526020810184905281517fdb35132c111efe920cede025e819975671cfd1b8fcc1174762c8670c4e94c211929181900390910190a150600192915050565b60008282111561141e57fe5b50900390565b6000818381151561143157fe5b049392505050565b8181018281101561144657fe5b929150505600a165627a7a72305820d52dca950a6a3d8af4ce8f07729e9eece2056215b9beb265064fa2acbf76c93f0029a165627a7a72305820e03f5a6c550c30d2cd6ef9566a1b8b3674c41c9b6ee4dd652b43d9930d0147d30029",
  "source": "pragma solidity ^0.4.23;\r\n\r\n\r\nimport 'openzeppelin-solidity/contracts/lifecycle/TokenDestructible.sol';\r\nimport 'openzeppelin-solidity/contracts/token/ERC20/ERC20.sol';\r\nimport 'openzeppelin-solidity/contracts/math/SafeMath.sol';\r\nimport './OwnerContract.sol';\r\nimport './Withdrawable.sol';\r\nimport './DepositWithdraw.sol';\r\nimport './DRCWalletMgrParamsInterface.sol';\r\nimport './DRCWalletStorageInterface.sol';\r\n\r\n\r\n/**\r\n * contract that manage the wallet operations on DRC platform\r\n */\r\ncontract DRCWalletManager is OwnerContract, Withdrawable, TokenDestructible {\r\n    using SafeMath for uint256;\r\n    \r\n    /**\r\n     * withdraw wallet description\r\n     */\r\n    // struct WithdrawWallet {\r\n    //     bytes32 name;\r\n    //     address walletAddr;\r\n    // }\r\n\r\n    /**\r\n     * Deposit data storage\r\n     */\r\n    // struct DepositRepository {\r\n    //     // uint256 balance;\r\n    //     uint256 frozen;\r\n    //     WithdrawWallet[] withdrawWallets;\r\n    //     // mapping (bytes32 => address) withdrawWallets;\r\n    // }\r\n\r\n    // mapping (address => DepositRepository) depositRepos;\r\n    // mapping (address => address) public walletDeposits;\r\n    // mapping (address => bool) public frozenDeposits;\r\n\r\n    ERC20 public tk; // the token will be managed\r\n    IDRCWalletMgrParams public params; // the parameters that the management needs\r\n    IDRCWalletStorage public walletStorage; // the deposits and wallets data stored in a contract\r\n    \r\n    event CreateDepositAddress(address indexed _wallet, address _deposit);\r\n    event FrozenTokens(address indexed _deposit, bool _freeze, uint256 _value);\r\n    event ChangeDefaultWallet(address indexed _oldWallet, address _newWallet);\r\n\r\n    /**\r\n\t * @dev initialize this contract with token, parameters and storage address\r\n     *\r\n     * @param _token the token address that will be withdraw\r\n     * @param _walletParams the wallet management parameters\r\n\t */\r\n    function initialize(address _token, address _walletParams, address _walletStorage) onlyOwner public returns (bool) {\r\n        require(_token != address(0));\r\n        require(_walletParams != address(0));\r\n\r\n        tk = ERC20(_token);\r\n        params = IDRCWalletMgrParams(_walletParams);\r\n        walletStorage = IDRCWalletStorage(_walletStorage);\r\n\r\n        return true;\r\n    }\r\n    \r\n    /**\r\n\t * @dev create deposit contract address for the default withdraw wallet\r\n     *\r\n     * @param _wallet the binded default withdraw wallet address\r\n\t */\r\n    function createDepositContract(address _wallet) onlyOwner public returns (address) {\r\n        require(_wallet != address(0));\r\n\r\n        DepositWithdraw deposWithdr = new DepositWithdraw(_wallet); // new contract for deposit\r\n        address _deposit = address(deposWithdr);\r\n        // walletDeposits[_wallet] = _deposit;\r\n        // WithdrawWallet[] storage withdrawWalletList = depositRepos[_deposit].withdrawWallets;\r\n        // withdrawWalletList.push(WithdrawWallet(\"default wallet\", _wallet));\r\n        // // depositRepos[_deposit].balance = 0;\r\n        // depositRepos[_deposit].frozen = 0;\r\n\r\n        walletStorage.addDeposit(_wallet, _deposit);\r\n\r\n        // deposWithdr.authorize(address(tk), this, 1e27); // give authorization to owner contract\r\n\r\n        emit CreateDepositAddress(_wallet, _deposit);\r\n        return _deposit;\r\n    }\r\n\r\n    /**\r\n\t * @dev deposit a value of funds to the deposit address\r\n     *\r\n     * @param _deposit the deposit address\r\n     * @param _value the deposit funds value\r\n\t */\r\n    function doDeposit(address _deposit, uint256 _value) onlyOwner public returns (bool) {\r\n        return walletStorage.increaseBalance(_deposit, _value);\r\n    }\r\n    \r\n    /**\r\n\t * @dev get deposit contract address by using the default withdraw wallet\r\n     *\r\n     * @param _wallet the binded default withdraw wallet address\r\n\t */\r\n    function getDepositAddress(address _wallet) onlyOwner public view returns (address) {\r\n        require(_wallet != address(0));\r\n        // address deposit = walletDeposits[_wallet];\r\n\r\n        // return deposit;\r\n        return walletStorage.walletDeposits(_wallet);\r\n    }\r\n    \r\n    /**\r\n\t * @dev get deposit balance and frozen amount by using the deposit address\r\n     *\r\n     * @param _deposit the deposit contract address\r\n\t */\r\n    function getDepositInfo(address _deposit) onlyOwner public view returns (uint256, uint256) {\r\n        require(_deposit != address(0));\r\n        uint256 _balance = walletStorage.balanceOf(_deposit);\r\n        // uint256 frozenAmount = depositRepos[_deposit].frozen;\r\n        uint256 frozenAmount = walletStorage.frozenAmount(_deposit);\r\n        // depositRepos[_deposit].balance = _balance;\r\n\r\n        return (_balance, frozenAmount);\r\n    }\r\n    \r\n    /**\r\n\t * @dev get the number of withdraw wallet addresses bindig to the deposit contract address\r\n     *\r\n     * @param _deposit the deposit contract address\r\n\t */\r\n    function getDepositWithdrawCount(address _deposit) onlyOwner public view returns (uint) {\r\n        require(_deposit != address(0));\r\n\r\n        // WithdrawWallet[] storage withdrawWalletList = depositRepos[_deposit].withdrawWallets;\r\n        // uint len = withdrawWalletList.length;\r\n        uint len = walletStorage.walletsNumber(_deposit);\r\n\r\n        return len;\r\n    }\r\n    \r\n    /**\r\n\t * @dev get the withdraw wallet addresses list binding to the deposit contract address\r\n     *\r\n     * @param _deposit the deposit contract address\r\n     * @param _indices the array of indices of the withdraw wallets\r\n\t */\r\n    function getDepositWithdrawList(address _deposit, uint[] _indices) onlyOwner public view returns (bytes32[], address[]) {\r\n        require(_indices.length != 0);\r\n\r\n        bytes32[] memory names = new bytes32[](_indices.length);\r\n        address[] memory wallets = new address[](_indices.length);\r\n        \r\n        for (uint i = 0; i < _indices.length; i = i.add(1)) {\r\n            // WithdrawWallet storage wallet = depositRepos[_deposit].withdrawWallets[_indices[i]];\r\n            // names[i] = wallet.name;\r\n            // wallets[i] = wallet.walletAddr;\r\n            names[i] = walletStorage.walletName(_deposit, i);\r\n            wallets[i] = walletStorage.wallet(_deposit, i);\r\n        }\r\n        \r\n        return (names, wallets);\r\n    }\r\n    \r\n    /**\r\n\t * @dev change the default withdraw wallet address binding to the deposit contract address\r\n     *\r\n     * @param _oldWallet the previous default withdraw wallet\r\n     * @param _newWallet the new default withdraw wallet\r\n\t */\r\n    function changeDefaultWithdraw(address _oldWallet, address _newWallet) onlyOwner public returns (bool) {\r\n        require(_oldWallet != address(0));\r\n        require(_newWallet != address(0));\r\n        \r\n        address deposit = walletStorage.walletDeposits(_oldWallet);\r\n        DepositWithdraw deposWithdr = DepositWithdraw(deposit);\r\n        require(deposWithdr.setWithdrawWallet(_newWallet));\r\n\r\n        // WithdrawWallet[] storage withdrawWalletList = depositRepos[deposit].withdrawWallets;\r\n        // withdrawWalletList[0].walletAddr = _newWallet;\r\n        bool res = walletStorage.changeDefaultWallet(_oldWallet, _newWallet);\r\n        emit ChangeDefaultWallet(_oldWallet, _newWallet);\r\n\r\n        return res;\r\n    }\r\n    \r\n    /**\r\n\t * @dev freeze the tokens in the deposit address\r\n     *\r\n     * @param _deposit the deposit address\r\n     * @param _freeze to freeze or release\r\n     * @param _value the amount of tokens need to be frozen\r\n\t */\r\n    function freezeTokens(address _deposit, bool _freeze, uint256 _value) onlyOwner public returns (bool) {\r\n        // require(_deposit != address(0));\r\n        \r\n        // frozenDeposits[_deposit] = _freeze;\r\n        // if (_freeze) {\r\n        //     depositRepos[_deposit].frozen = depositRepos[_deposit].frozen.add(_value);\r\n        // } else {\r\n        //     require(_value <= depositRepos[_deposit].frozen);\r\n        //     depositRepos[_deposit].frozen = depositRepos[_deposit].frozen.sub(_value);\r\n        // }\r\n\r\n        bool res = walletStorage.freezeTokens(_deposit, _freeze, _value);\r\n\r\n        emit FrozenTokens(_deposit, _freeze, _value);\r\n        return res;\r\n    }\r\n    \r\n    /**\r\n\t * @dev withdraw the tokens from the deposit address to default wallet with charge fee\r\n     *\r\n     * @param _deposit the deposit address\r\n     * @param _time the timestamp the withdraw occurs\r\n     * @param _value the amount of tokens need to be frozen\r\n     * @param _check if we will check the value is valid or meet the limit condition\r\n\t */\r\n    function withdrawWithFee(address _deposit, uint256 _time, uint256 _value, bool _check) onlyOwner public returns (bool) {    \r\n        // WithdrawWallet[] storage withdrawWalletList = depositRepos[_deposit].withdrawWallets;\r\n        // return withdrawWithFee(_deposit, _time, withdrawWalletList[0].name, withdrawWalletList[0].walletAddr, _value, _check);\r\n        bytes32 defaultWalletName = walletStorage.walletName(_deposit, 0);\r\n        address defaultWallet = walletStorage.wallet(_deposit, 0);\r\n        return withdrawWithFee(_deposit, _time, defaultWalletName, defaultWallet, _value, _check);\r\n    }\r\n    \r\n    /**\r\n\t * @dev check if the wallet name is not matching the expected wallet address\r\n     *\r\n     * @param _deposit the deposit address\r\n     * @param _name the withdraw wallet name\r\n     * @param _to the withdraw wallet address\r\n\t */\r\n    function checkWithdrawAddress(address _deposit, bytes32 _name, address _to) public view returns (bool, bool) {\r\n        // uint len = depositRepos[_deposit].withdrawWallets.length;\r\n        uint len = walletStorage.walletsNumber(_deposit);\r\n        for (uint i = 0; i < len; i = i.add(1)) {\r\n            // WithdrawWallet memory wallet = depositRepos[_deposit].withdrawWallets[i];\r\n            // if (_name == wallet.name) {\r\n            //     return(true, (_to == wallet.walletAddr));\r\n            // }\r\n            // if (_to == wallet.walletAddr) {\r\n            //     return(true, true);\r\n            // }\r\n            bytes32 walletName = walletStorage.walletName(_deposit, i);\r\n            address walletAddr = walletStorage.wallet(_deposit, i);\r\n            if (_name == walletName) {\r\n                return(true, (_to == walletAddr));\r\n            }\r\n            if (_to == walletAddr) {\r\n                return(false, true);\r\n            }\r\n        }\r\n\r\n        return (false, false);\r\n    }\r\n    \r\n    /**\r\n\t * @dev withdraw tokens from this contract, send tokens to target withdraw wallet\r\n     *\r\n     * @param _deposWithdr the deposit contract that will record withdrawing\r\n     * @param _time the timestamp occur the withdraw record\r\n     * @param _to the address the token will be transfer to \r\n     * @param _value the token transferred value\r\n\t */\r\n    function withdrawFromThis(DepositWithdraw _deposWithdr, uint256 _time, address _to, uint256 _value) private returns (bool) {\r\n        uint256 fee = params.chargeFee();\r\n        uint256 realAmount = _value.sub(fee);\r\n        address tokenReturn = params.chargeFeePool();\r\n        if (tokenReturn != address(0) && fee > 0) {\r\n            require(tk.transfer(tokenReturn, fee));\r\n        }\r\n\r\n        require (tk.transfer(_to, realAmount));\r\n        _deposWithdr.recordWithdraw(_time, _to, realAmount);\r\n\r\n        return true;\r\n    }\r\n\r\n    /**\r\n\t * @dev withdraw tokens, send tokens to target withdraw wallet\r\n     *\r\n     * @param _deposit the deposit address that will be withdraw from\r\n     * @param _time the timestamp occur the withdraw record\r\n\t * @param _name the withdraw address alias name to verify\r\n     * @param _to the address the token will be transfer to \r\n     * @param _value the token transferred value\r\n     * @param _check if we will check the value is valid or meet the limit condition\r\n\t */\r\n    function withdrawWithFee(address _deposit, \r\n                             uint256 _time, \r\n                             bytes32 _name, \r\n                             address _to, \r\n                             uint256 _value,\r\n                             bool _check) onlyOwner public returns (bool) {\r\n        require(_deposit != address(0));\r\n        require(_to != address(0));\r\n\r\n        uint256 totalBalance = walletStorage.balanceOf(_deposit);\r\n        uint256 frozen = walletStorage.frozenAmount(_deposit);\r\n        // uint256 available = totalBalance.sub(frozen);\r\n        // require(_value <= available);\r\n        if (_check) {\r\n            require(_value <= totalBalance.sub(frozen));\r\n        }\r\n\r\n        uint256 _balance = tk.balanceOf(_deposit);\r\n\r\n        bool exist;\r\n        bool correct;\r\n        // WithdrawWallet[] storage withdrawWalletList = depositRepos[_deposit].withdrawWallets;\r\n        (exist, correct) = checkWithdrawAddress(_deposit, _name, _to);\r\n        if(!exist) {\r\n            // withdrawWalletList.push(WithdrawWallet(_name, _to));\r\n            if (!correct) {\r\n                walletStorage.addWithdraw(_deposit, _name, _to);\r\n            } else {\r\n                walletStorage.changeWalletName(_deposit, _name, _to);\r\n            }\r\n        } else {\r\n            require(correct, \"wallet address must be correct with wallet name!\");\r\n        }            \r\n\r\n        DepositWithdraw deposWithdr = DepositWithdraw(_deposit);\r\n        /**\r\n         * if deposit address doesn't have enough tokens to withdraw, \r\n         * then withdraw from this contract. Record this in the independent deposit contract.\r\n         */\r\n        if (_value > _balance) {\r\n            require(deposWithdr.checkWithdrawAmount(address(params), _value, _time));\r\n            require(deposWithdr.withdrawToken(address(tk), this, _balance));\r\n            \r\n            require(withdrawFromThis(deposWithdr, _time, _to, _value));\r\n            // return true;\r\n        } else {        \r\n            require(deposWithdr.withdrawToken(address(tk), address(params), _time, _to, _value, params.chargeFee(), params.chargeFeePool()));    \r\n        }  \r\n\r\n        return walletStorage.decreaseBalance(_deposit, _value);  \r\n    }\r\n\r\n    /**\r\n\t * @dev destory the old depoist contract and take back the tokens\r\n     *\r\n     * @param _deposit the deposit address\r\n\t */\r\n    function destroyDepositContract(address _deposit) onlyOwner public returns (bool) {\r\n        require(_deposit != address(0));\r\n\r\n        DepositWithdraw deposWithdr = DepositWithdraw(_deposit);\r\n        address[] memory tokens = new address[](1);\r\n        tokens[0] = address(tk);\r\n        deposWithdr.destroy(tokens);\r\n\r\n        return walletStorage.removeDeposit(_deposit);\r\n    }\r\n\r\n}",
  "sourcePath": "E:\\workspace\\Dapp\\DRCWalletManager\\contracts\\DRCWalletManager.sol",
  "compiler": {
    "name": "solc",
    "version": "0.4.24+commit.e67f0147.Emscripten.clang"
  },
  "schemaVersion": "2.0.1",
  "updatedAt": "2018-08-27T14:43:58.810Z"
}