{
  "contractName": "DRCWalletManager",
  "abi": [
    {
      "constant": false,
      "inputs": [
        {
          "name": "_token",
          "type": "address"
        },
        {
          "name": "_to",
          "type": "address"
        },
        {
          "name": "_value",
          "type": "uint256"
        }
      ],
      "name": "withdrawToken",
      "outputs": [
        {
          "name": "",
          "type": "bool"
        }
      ],
      "payable": false,
      "stateMutability": "nonpayable",
      "type": "function"
    },
    {
      "constant": true,
      "inputs": [],
      "name": "tk",
      "outputs": [
        {
          "name": "",
          "type": "address"
        }
      ],
      "payable": false,
      "stateMutability": "view",
      "type": "function"
    },
    {
      "constant": false,
      "inputs": [],
      "name": "transferOwnershipBack",
      "outputs": [],
      "payable": false,
      "stateMutability": "nonpayable",
      "type": "function"
    },
    {
      "constant": false,
      "inputs": [],
      "name": "claimOwnership",
      "outputs": [],
      "payable": false,
      "stateMutability": "nonpayable",
      "type": "function"
    },
    {
      "constant": true,
      "inputs": [],
      "name": "chargeFee",
      "outputs": [
        {
          "name": "",
          "type": "uint256"
        }
      ],
      "payable": false,
      "stateMutability": "view",
      "type": "function"
    },
    {
      "constant": false,
      "inputs": [
        {
          "name": "_contract",
          "type": "address"
        }
      ],
      "name": "bindContract",
      "outputs": [
        {
          "name": "",
          "type": "bool"
        }
      ],
      "payable": false,
      "stateMutability": "nonpayable",
      "type": "function"
    },
    {
      "constant": false,
      "inputs": [],
      "name": "destroy",
      "outputs": [],
      "payable": false,
      "stateMutability": "nonpayable",
      "type": "function"
    },
    {
      "constant": true,
      "inputs": [],
      "name": "owner",
      "outputs": [
        {
          "name": "",
          "type": "address"
        }
      ],
      "payable": false,
      "stateMutability": "view",
      "type": "function"
    },
    {
      "constant": true,
      "inputs": [],
      "name": "ownedContract",
      "outputs": [
        {
          "name": "",
          "type": "address"
        }
      ],
      "payable": false,
      "stateMutability": "view",
      "type": "function"
    },
    {
      "constant": false,
      "inputs": [
        {
          "name": "tokens",
          "type": "address[]"
        }
      ],
      "name": "destroy",
      "outputs": [],
      "payable": false,
      "stateMutability": "nonpayable",
      "type": "function"
    },
    {
      "constant": true,
      "inputs": [],
      "name": "tokenReturn",
      "outputs": [
        {
          "name": "",
          "type": "address"
        }
      ],
      "payable": false,
      "stateMutability": "view",
      "type": "function"
    },
    {
      "constant": true,
      "inputs": [],
      "name": "pendingOwner",
      "outputs": [
        {
          "name": "",
          "type": "address"
        }
      ],
      "payable": false,
      "stateMutability": "view",
      "type": "function"
    },
    {
      "constant": false,
      "inputs": [
        {
          "name": "_nextOwner",
          "type": "address"
        }
      ],
      "name": "changeOwnershipto",
      "outputs": [],
      "payable": false,
      "stateMutability": "nonpayable",
      "type": "function"
    },
    {
      "constant": false,
      "inputs": [
        {
          "name": "newOwner",
          "type": "address"
        }
      ],
      "name": "transferOwnership",
      "outputs": [],
      "payable": false,
      "stateMutability": "nonpayable",
      "type": "function"
    },
    {
      "constant": false,
      "inputs": [
        {
          "name": "_to",
          "type": "address"
        },
        {
          "name": "_amount",
          "type": "uint256"
        }
      ],
      "name": "withdraw",
      "outputs": [
        {
          "name": "",
          "type": "bool"
        }
      ],
      "payable": false,
      "stateMutability": "nonpayable",
      "type": "function"
    },
    {
      "constant": false,
      "inputs": [
        {
          "name": "_recipient",
          "type": "address"
        }
      ],
      "name": "destroyAndSend",
      "outputs": [],
      "payable": false,
      "stateMutability": "nonpayable",
      "type": "function"
    },
    {
      "payable": true,
      "stateMutability": "payable",
      "type": "fallback"
    },
    {
      "anonymous": false,
      "inputs": [
        {
          "indexed": true,
          "name": "_wallet",
          "type": "address"
        },
        {
          "indexed": false,
          "name": "_deposit",
          "type": "address"
        }
      ],
      "name": "CreateDepositAddress",
      "type": "event"
    },
    {
      "anonymous": false,
      "inputs": [
        {
          "indexed": true,
          "name": "_deposit",
          "type": "address"
        },
        {
          "indexed": false,
          "name": "_value",
          "type": "uint256"
        }
      ],
      "name": "FrozenTokens",
      "type": "event"
    },
    {
      "anonymous": false,
      "inputs": [
        {
          "indexed": true,
          "name": "_oldWallet",
          "type": "address"
        },
        {
          "indexed": false,
          "name": "_newWallet",
          "type": "address"
        }
      ],
      "name": "ChangeDefaultWallet",
      "type": "event"
    },
    {
      "anonymous": false,
      "inputs": [
        {
          "indexed": false,
          "name": "_from",
          "type": "address"
        },
        {
          "indexed": false,
          "name": "_value",
          "type": "uint256"
        }
      ],
      "name": "ReceiveEther",
      "type": "event"
    },
    {
      "anonymous": false,
      "inputs": [
        {
          "indexed": false,
          "name": "_to",
          "type": "address"
        },
        {
          "indexed": false,
          "name": "_value",
          "type": "uint256"
        }
      ],
      "name": "WithdrawEther",
      "type": "event"
    },
    {
      "anonymous": false,
      "inputs": [
        {
          "indexed": false,
          "name": "_token",
          "type": "address"
        },
        {
          "indexed": false,
          "name": "_to",
          "type": "address"
        },
        {
          "indexed": false,
          "name": "_value",
          "type": "uint256"
        }
      ],
      "name": "WithdrawToken",
      "type": "event"
    },
    {
      "anonymous": false,
      "inputs": [
        {
          "indexed": true,
          "name": "previousOwner",
          "type": "address"
        },
        {
          "indexed": true,
          "name": "newOwner",
          "type": "address"
        }
      ],
      "name": "OwnershipTransferred",
      "type": "event"
    },
    {
      "constant": false,
      "inputs": [
        {
          "name": "_token",
          "type": "address"
        }
      ],
      "name": "bindToken",
      "outputs": [
        {
          "name": "",
          "type": "bool"
        }
      ],
      "payable": false,
      "stateMutability": "nonpayable",
      "type": "function"
    },
    {
      "constant": false,
      "inputs": [
        {
          "name": "_tokenReturn",
          "type": "address"
        }
      ],
      "name": "setTokenReturnAddress",
      "outputs": [],
      "payable": false,
      "stateMutability": "nonpayable",
      "type": "function"
    },
    {
      "constant": false,
      "inputs": [
        {
          "name": "_fee",
          "type": "uint256"
        }
      ],
      "name": "setChargeFee",
      "outputs": [],
      "payable": false,
      "stateMutability": "nonpayable",
      "type": "function"
    },
    {
      "constant": false,
      "inputs": [
        {
          "name": "_wallet",
          "type": "address"
        }
      ],
      "name": "createDepositContract",
      "outputs": [
        {
          "name": "",
          "type": "address"
        }
      ],
      "payable": false,
      "stateMutability": "nonpayable",
      "type": "function"
    },
    {
      "constant": true,
      "inputs": [
        {
          "name": "_wallet",
          "type": "address"
        }
      ],
      "name": "getDepositAddress",
      "outputs": [
        {
          "name": "",
          "type": "address"
        }
      ],
      "payable": false,
      "stateMutability": "view",
      "type": "function"
    },
    {
      "constant": false,
      "inputs": [
        {
          "name": "_deposit",
          "type": "address"
        }
      ],
      "name": "getDepositInfo",
      "outputs": [
        {
          "name": "",
          "type": "uint256"
        },
        {
          "name": "",
          "type": "uint256"
        }
      ],
      "payable": false,
      "stateMutability": "nonpayable",
      "type": "function"
    },
    {
      "constant": false,
      "inputs": [
        {
          "name": "_deposit",
          "type": "address"
        }
      ],
      "name": "getDepositBalance",
      "outputs": [
        {
          "name": "",
          "type": "uint256"
        }
      ],
      "payable": false,
      "stateMutability": "nonpayable",
      "type": "function"
    },
    {
      "constant": true,
      "inputs": [
        {
          "name": "_deposit",
          "type": "address"
        }
      ],
      "name": "getDepositFrozen",
      "outputs": [
        {
          "name": "",
          "type": "uint256"
        }
      ],
      "payable": false,
      "stateMutability": "view",
      "type": "function"
    },
    {
      "constant": true,
      "inputs": [
        {
          "name": "_deposit",
          "type": "address"
        }
      ],
      "name": "getDepositWithdrawCount",
      "outputs": [
        {
          "name": "",
          "type": "uint256"
        }
      ],
      "payable": false,
      "stateMutability": "view",
      "type": "function"
    },
    {
      "constant": true,
      "inputs": [
        {
          "name": "_deposit",
          "type": "address"
        },
        {
          "name": "_indices",
          "type": "uint256[]"
        }
      ],
      "name": "getDepositWithdrawList",
      "outputs": [
        {
          "name": "",
          "type": "bytes32[]"
        },
        {
          "name": "",
          "type": "address[]"
        }
      ],
      "payable": false,
      "stateMutability": "view",
      "type": "function"
    },
    {
      "constant": false,
      "inputs": [
        {
          "name": "_oldWallet",
          "type": "address"
        },
        {
          "name": "_newWallet",
          "type": "address"
        }
      ],
      "name": "changeDefaultWithdraw",
      "outputs": [
        {
          "name": "",
          "type": "bool"
        }
      ],
      "payable": false,
      "stateMutability": "nonpayable",
      "type": "function"
    },
    {
      "constant": false,
      "inputs": [
        {
          "name": "_deposit",
          "type": "address"
        },
        {
          "name": "_value",
          "type": "uint256"
        }
      ],
      "name": "freezeTokens",
      "outputs": [
        {
          "name": "",
          "type": "bool"
        }
      ],
      "payable": false,
      "stateMutability": "nonpayable",
      "type": "function"
    },
    {
      "constant": true,
      "inputs": [
        {
          "name": "_deposit",
          "type": "address"
        },
        {
          "name": "_name",
          "type": "bytes32"
        },
        {
          "name": "_to",
          "type": "address"
        }
      ],
      "name": "checkWithdrawAddress",
      "outputs": [
        {
          "name": "",
          "type": "bool"
        },
        {
          "name": "",
          "type": "bool"
        }
      ],
      "payable": false,
      "stateMutability": "view",
      "type": "function"
    },
    {
      "constant": false,
      "inputs": [
        {
          "name": "_deposit",
          "type": "address"
        },
        {
          "name": "_time",
          "type": "uint256"
        },
        {
          "name": "_name",
          "type": "bytes32"
        },
        {
          "name": "_to",
          "type": "address"
        },
        {
          "name": "_value",
          "type": "uint256"
        },
        {
          "name": "_check",
          "type": "bool"
        }
      ],
      "name": "withdrawWithFee",
      "outputs": [
        {
          "name": "",
          "type": "bool"
        }
      ],
      "payable": false,
      "stateMutability": "nonpayable",
      "type": "function"
    },
    {
      "constant": false,
      "inputs": [
        {
          "name": "_deposit",
          "type": "address"
        },
        {
          "name": "_time",
          "type": "uint256"
        },
        {
          "name": "_value",
          "type": "uint256"
        }
      ],
      "name": "withdrawWithFee",
      "outputs": [
        {
          "name": "",
          "type": "bool"
        }
      ],
      "payable": false,
      "stateMutability": "nonpayable",
      "type": "function"
    }
  ],
  "bytecode": "0x6080604052336000806101000a81548173ffffffffffffffffffffffffffffffffffffffff021916908373ffffffffffffffffffffffffffffffffffffffff160217905550615ff7806100536000396000f300608060405260043610620001ab576000357c0100000000000000000000000000000000000000000000000000000000900463ffffffff16806301e33667146200021857806318d0f40514620002a0578063196198fa14620002e657806321f408be1462000340578063240705eb146200039a57806325f731c8146200040c5780633ff5aa0214620004265780634562940214620004845780634a738bea14620005025780634e71e0c814620005ae578063516ae99314620005c85780635287ce1214620005f85780635682d43d1462000659578063744c8c0914620006f05780637df83cd0146200071e5780638157d4b5146200084857806383197ef014620008a65780638513ad6914620008c05780638da5cb5b146200091a578063a4df6c6a1462000974578063aba9650e14620009dc578063bc467a3e1462000a62578063c6786e5a1462000abc578063d83a7f671462000b25578063d88295311462000bab578063e30c39781462000c05578063ed05ae781462000c5f578063ede930c91462000cb9578063f2fde38b1462000cff578063f3fef3a31462000d45578063f5074f411462000dad575b7ff32a9f77675fd5917534c7746608fd3e309eac68fbdcbf5925e24ca97a7043963334604051808373ffffffffffffffffffffffffffffffffffffffff1673ffffffffffffffffffffffffffffffffffffffff1681526020018281526020019250505060405180910390a1005b3480156200022557600080fd5b5062000286600480360381019080803573ffffffffffffffffffffffffffffffffffffffff169060200190929190803573ffffffffffffffffffffffffffffffffffffffff1690602001909291908035906020019092919050505062000df3565b604051808215151515815260200191505060405180910390f35b348015620002ad57600080fd5b50620002e4600480360381019080803573ffffffffffffffffffffffffffffffffffffffff1690602001909291905050506200105c565b005b348015620002f357600080fd5b506200032a600480360381019080803573ffffffffffffffffffffffffffffffffffffffff16906020019092919050505062001139565b6040518082815260200191505060405180910390f35b3480156200034d57600080fd5b50620003586200122c565b604051808273ffffffffffffffffffffffffffffffffffffffff1673ffffffffffffffffffffffffffffffffffffffff16815260200191505060405180910390f35b348015620003a757600080fd5b50620003f2600480360381019080803573ffffffffffffffffffffffffffffffffffffffff169060200190929190803590602001909291908035906020019092919050505062001252565b604051808215151515815260200191505060405180910390f35b3480156200041957600080fd5b506200042462001628565b005b3480156200043357600080fd5b506200046a600480360381019080803573ffffffffffffffffffffffffffffffffffffffff16906020019092919050505062001803565b604051808215151515815260200191505060405180910390f35b3480156200049157600080fd5b50620004e8600480360381019080803573ffffffffffffffffffffffffffffffffffffffff169060200190929190803573ffffffffffffffffffffffffffffffffffffffff169060200190929190505050620018e8565b604051808215151515815260200191505060405180910390f35b3480156200050f57600080fd5b5062000594600480360381019080803573ffffffffffffffffffffffffffffffffffffffff169060200190929190803590602001909291908035600019169060200190929190803573ffffffffffffffffffffffffffffffffffffffff1690602001909291908035906020019092919080351515906020019092919050505062001bfc565b604051808215151515815260200191505060405180910390f35b348015620005bb57600080fd5b50620005c6620022bb565b005b348015620005d557600080fd5b50620005f6600480360381019080803590602001909291905050506200245b565b005b3480156200060557600080fd5b506200063c600480360381019080803573ffffffffffffffffffffffffffffffffffffffff169060200190929190505050620024c1565b604051808381526020018281526020019250505060405180910390f35b3480156200066657600080fd5b50620006cb600480360381019080803573ffffffffffffffffffffffffffffffffffffffff1690602001909291908035600019169060200190929190803573ffffffffffffffffffffffffffffffffffffffff169060200190929190505050620026f6565b6040518083151515158152602001821515151581526020019250505060405180910390f35b348015620006fd57600080fd5b50620007086200285a565b6040518082815260200191505060405180910390f35b3480156200072b57600080fd5b50620007a5600480360381019080803573ffffffffffffffffffffffffffffffffffffffff1690602001909291908035906020019082018035906020019080806020026020016040519081016040528093929190818152602001838360200280828437820191505050505050919291929050505062002860565b604051808060200180602001838103835285818151815260200191508051906020019060200280838360005b83811015620007ee578082015181840152602081019050620007d1565b50505050905001838103825284818151815260200191508051906020019060200280838360005b838110156200083257808201518184015260208101905062000815565b5050505090500194505050505060405180910390f35b3480156200085557600080fd5b506200088c600480360381019080803573ffffffffffffffffffffffffffffffffffffffff16906020019092919050505062002a91565b604051808215151515815260200191505060405180910390f35b348015620008b357600080fd5b50620008be62002d1a565b005b348015620008cd57600080fd5b5062000904600480360381019080803573ffffffffffffffffffffffffffffffffffffffff16906020019092919050505062002db0565b6040518082815260200191505060405180910390f35b3480156200092757600080fd5b506200093262002e9a565b604051808273ffffffffffffffffffffffffffffffffffffffff1673ffffffffffffffffffffffffffffffffffffffff16815260200191505060405180910390f35b3480156200098157600080fd5b50620009c2600480360381019080803573ffffffffffffffffffffffffffffffffffffffff1690602001909291908035906020019092919050505062002ebf565b604051808215151515815260200191505060405180910390f35b348015620009e957600080fd5b5062000a20600480360381019080803573ffffffffffffffffffffffffffffffffffffffff16906020019092919050505062003051565b604051808273ffffffffffffffffffffffffffffffffffffffff1673ffffffffffffffffffffffffffffffffffffffff16815260200191505060405180910390f35b34801562000a6f57600080fd5b5062000a7a62003400565b604051808273ffffffffffffffffffffffffffffffffffffffff1673ffffffffffffffffffffffffffffffffffffffff16815260200191505060405180910390f35b34801562000ac957600080fd5b5062000b236004803603810190808035906020019082018035906020019080806020026020016040519081016040528093929190818152602001838360200280828437820191505050505050919291929050505062003426565b005b34801562000b3257600080fd5b5062000b69600480360381019080803573ffffffffffffffffffffffffffffffffffffffff169060200190929190505050620036d7565b604051808273ffffffffffffffffffffffffffffffffffffffff1673ffffffffffffffffffffffffffffffffffffffff16815260200191505060405180910390f35b34801562000bb857600080fd5b5062000bc3620037de565b604051808273ffffffffffffffffffffffffffffffffffffffff1673ffffffffffffffffffffffffffffffffffffffff16815260200191505060405180910390f35b34801562000c1257600080fd5b5062000c1d62003804565b604051808273ffffffffffffffffffffffffffffffffffffffff1673ffffffffffffffffffffffffffffffffffffffff16815260200191505060405180910390f35b34801562000c6c57600080fd5b5062000ca3600480360381019080803573ffffffffffffffffffffffffffffffffffffffff1690602001909291905050506200382a565b6040518082815260200191505060405180910390f35b34801562000cc657600080fd5b5062000cfd600480360381019080803573ffffffffffffffffffffffffffffffffffffffff16906020019092919050505062003a13565b005b34801562000d0c57600080fd5b5062000d43600480360381019080803573ffffffffffffffffffffffffffffffffffffffff16906020019092919050505062003bcd565b005b34801562000d5257600080fd5b5062000d93600480360381019080803573ffffffffffffffffffffffffffffffffffffffff1690602001909291908035906020019092919050505062003c6d565b604051808215151515815260200191505060405180910390f35b34801562000dba57600080fd5b5062000df1600480360381019080803573ffffffffffffffffffffffffffffffffffffffff16906020019092919050505062003dc5565b005b6000806000809054906101000a900473ffffffffffffffffffffffffffffffffffffffff1673ffffffffffffffffffffffffffffffffffffffff163373ffffffffffffffffffffffffffffffffffffffff1614151562000e5257600080fd5b600073ffffffffffffffffffffffffffffffffffffffff168473ffffffffffffffffffffffffffffffffffffffff161415151562000e8f57600080fd5b600073ffffffffffffffffffffffffffffffffffffffff168573ffffffffffffffffffffffffffffffffffffffff161415151562000ecc57600080fd5b8490508073ffffffffffffffffffffffffffffffffffffffff1663a9059cbb85856040518363ffffffff167c0100000000000000000000000000000000000000000000000000000000028152600401808373ffffffffffffffffffffffffffffffffffffffff1673ffffffffffffffffffffffffffffffffffffffff16815260200182815260200192505050602060405180830381600087803b15801562000f7357600080fd5b505af115801562000f88573d6000803e3d6000fd5b505050506040513d602081101562000f9f57600080fd5b8101908080519060200190929190505050507f037238854fe57fbf51f09946f854fc3916fe83938d6521f09bd05463839f1304858585604051808473ffffffffffffffffffffffffffffffffffffffff1673ffffffffffffffffffffffffffffffffffffffff1681526020018373ffffffffffffffffffffffffffffffffffffffff1673ffffffffffffffffffffffffffffffffffffffff168152602001828152602001935050505060405180910390a160019150509392505050565b6000809054906101000a900473ffffffffffffffffffffffffffffffffffffffff1673ffffffffffffffffffffffffffffffffffffffff163373ffffffffffffffffffffffffffffffffffffffff16141515620010b857600080fd5b600073ffffffffffffffffffffffffffffffffffffffff168173ffffffffffffffffffffffffffffffffffffffff1614151515620010f557600080fd5b80600860006101000a81548173ffffffffffffffffffffffffffffffffffffffff021916908373ffffffffffffffffffffffffffffffffffffffff16021790555050565b60008060008060009054906101000a900473ffffffffffffffffffffffffffffffffffffffff1673ffffffffffffffffffffffffffffffffffffffff163373ffffffffffffffffffffffffffffffffffffffff161415156200119a57600080fd5b600073ffffffffffffffffffffffffffffffffffffffff168473ffffffffffffffffffffffffffffffffffffffff1614151515620011d757600080fd5b600460008573ffffffffffffffffffffffffffffffffffffffff1673ffffffffffffffffffffffffffffffffffffffff1681526020019081526020016000206002019150818054905090508092505050919050565b600760009054906101000a900473ffffffffffffffffffffffffffffffffffffffff1681565b6000806000806000809054906101000a900473ffffffffffffffffffffffffffffffffffffffff1673ffffffffffffffffffffffffffffffffffffffff163373ffffffffffffffffffffffffffffffffffffffff16141515620012b457600080fd5b600073ffffffffffffffffffffffffffffffffffffffff168773ffffffffffffffffffffffffffffffffffffffff1614151515620012f157600080fd5b600760009054906101000a900473ffffffffffffffffffffffffffffffffffffffff1673ffffffffffffffffffffffffffffffffffffffff166370a08231886040518263ffffffff167c0100000000000000000000000000000000000000000000000000000000028152600401808273ffffffffffffffffffffffffffffffffffffffff1673ffffffffffffffffffffffffffffffffffffffff168152602001915050602060405180830381600087803b158015620013af57600080fd5b505af1158015620013c4573d6000803e3d6000fd5b505050506040513d6020811015620013db57600080fd5b81019080805190602001909291905050509250828511151515620013fe57600080fd5b82600460008973ffffffffffffffffffffffffffffffffffffffff1673ffffffffffffffffffffffffffffffffffffffff16815260200190815260200160002060000181905550600460008873ffffffffffffffffffffffffffffffffffffffff1673ffffffffffffffffffffffffffffffffffffffff1681526020019081526020016000206001015491506200149f828462003e3a90919063ffffffff16565b8511151515620014ae57600080fd5b8690508073ffffffffffffffffffffffffffffffffffffffff166352bfbe68600760009054906101000a900473ffffffffffffffffffffffffffffffffffffffff168888600954600860009054906101000a900473ffffffffffffffffffffffffffffffffffffffff166040518663ffffffff167c0100000000000000000000000000000000000000000000000000000000028152600401808673ffffffffffffffffffffffffffffffffffffffff1673ffffffffffffffffffffffffffffffffffffffff1681526020018581526020018481526020018381526020018273ffffffffffffffffffffffffffffffffffffffff1673ffffffffffffffffffffffffffffffffffffffff16815260200195505050505050602060405180830381600087803b158015620015df57600080fd5b505af1158015620015f4573d6000803e3d6000fd5b505050506040513d60208110156200160b57600080fd5b810190808051906020019092919050505093505050509392505050565b6000809054906101000a900473ffffffffffffffffffffffffffffffffffffffff1673ffffffffffffffffffffffffffffffffffffffff163373ffffffffffffffffffffffffffffffffffffffff161415156200168457600080fd5b600260009054906101000a900473ffffffffffffffffffffffffffffffffffffffff1673ffffffffffffffffffffffffffffffffffffffff1663f2fde38b600360009054906101000a900473ffffffffffffffffffffffffffffffffffffffff166040518263ffffffff167c0100000000000000000000000000000000000000000000000000000000028152600401808273ffffffffffffffffffffffffffffffffffffffff1673ffffffffffffffffffffffffffffffffffffffff168152602001915050600060405180830381600087803b1580156200176457600080fd5b505af115801562001779573d6000803e3d6000fd5b505050506000600260006101000a81548173ffffffffffffffffffffffffffffffffffffffff021916908373ffffffffffffffffffffffffffffffffffffffff1602179055506000600360006101000a81548173ffffffffffffffffffffffffffffffffffffffff021916908373ffffffffffffffffffffffffffffffffffffffff160217905550565b60008060009054906101000a900473ffffffffffffffffffffffffffffffffffffffff1673ffffffffffffffffffffffffffffffffffffffff163373ffffffffffffffffffffffffffffffffffffffff161415156200186157600080fd5b600073ffffffffffffffffffffffffffffffffffffffff168273ffffffffffffffffffffffffffffffffffffffff16141515156200189e57600080fd5b81600760006101000a81548173ffffffffffffffffffffffffffffffffffffffff021916908373ffffffffffffffffffffffffffffffffffffffff16021790555060019050919050565b6000806000806000809054906101000a900473ffffffffffffffffffffffffffffffffffffffff1673ffffffffffffffffffffffffffffffffffffffff163373ffffffffffffffffffffffffffffffffffffffff161415156200194a57600080fd5b600073ffffffffffffffffffffffffffffffffffffffff168573ffffffffffffffffffffffffffffffffffffffff16141515156200198757600080fd5b600560008773ffffffffffffffffffffffffffffffffffffffff1673ffffffffffffffffffffffffffffffffffffffff16815260200190815260200160002060009054906101000a900473ffffffffffffffffffffffffffffffffffffffff1692508291508173ffffffffffffffffffffffffffffffffffffffff16639373f432866040518263ffffffff167c0100000000000000000000000000000000000000000000000000000000028152600401808273ffffffffffffffffffffffffffffffffffffffff1673ffffffffffffffffffffffffffffffffffffffff168152602001915050602060405180830381600087803b15801562001a8857600080fd5b505af115801562001a9d573d6000803e3d6000fd5b505050506040513d602081101562001ab457600080fd5b8101908080519060200190929190505050151562001ad157600080fd5b600460008473ffffffffffffffffffffffffffffffffffffffff1673ffffffffffffffffffffffffffffffffffffffff16815260200190815260200160002060020190508481600081548110151562001b2657fe5b906000526020600020906002020160010160006101000a81548173ffffffffffffffffffffffffffffffffffffffff021916908373ffffffffffffffffffffffffffffffffffffffff1602179055508573ffffffffffffffffffffffffffffffffffffffff167fb15573eb768216f61724fe33469e0a6160b82aadd32d51a4faec79aeb5351ad386604051808273ffffffffffffffffffffffffffffffffffffffff1673ffffffffffffffffffffffffffffffffffffffff16815260200191505060405180910390a26001935050505092915050565b60008060008060008060008060009054906101000a900473ffffffffffffffffffffffffffffffffffffffff1673ffffffffffffffffffffffffffffffffffffffff163373ffffffffffffffffffffffffffffffffffffffff1614151562001c6357600080fd5b600073ffffffffffffffffffffffffffffffffffffffff168d73ffffffffffffffffffffffffffffffffffffffff161415151562001ca057600080fd5b600073ffffffffffffffffffffffffffffffffffffffff168a73ffffffffffffffffffffffffffffffffffffffff161415151562001cdd57600080fd5b600760009054906101000a900473ffffffffffffffffffffffffffffffffffffffff1673ffffffffffffffffffffffffffffffffffffffff166370a082318e6040518263ffffffff167c0100000000000000000000000000000000000000000000000000000000028152600401808273ffffffffffffffffffffffffffffffffffffffff1673ffffffffffffffffffffffffffffffffffffffff168152602001915050602060405180830381600087803b15801562001d9b57600080fd5b505af115801562001db0573d6000803e3d6000fd5b505050506040513d602081101562001dc757600080fd5b81019080805190602001909291905050509550871562001df25785891115151562001df157600080fd5b5b85600460008f73ffffffffffffffffffffffffffffffffffffffff1673ffffffffffffffffffffffffffffffffffffffff1681526020019081526020016000206000018190555062001e90600460008f73ffffffffffffffffffffffffffffffffffffffff1673ffffffffffffffffffffffffffffffffffffffff168152602001908152602001600020600101548762003e3a90919063ffffffff16565b9450871562001eaa5784891115151562001ea957600080fd5b5b600460008e73ffffffffffffffffffffffffffffffffffffffff1673ffffffffffffffffffffffffffffffffffffffff168152602001908152602001600020600201915062001efb8d8c8c620026f6565b809450819550505083151562001fc6578160408051908101604052808d6000191681526020018c73ffffffffffffffffffffffffffffffffffffffff16815250908060018154018082558091505090600182039060005260206000209060020201600090919290919091506000820151816000019060001916905560208201518160010160006101000a81548173ffffffffffffffffffffffffffffffffffffffff021916908373ffffffffffffffffffffffffffffffffffffffff16021790555050505062001fd9565b82151562001fd85760009650620022ab565b5b8715801562001fe757508489115b156200210657600760009054906101000a900473ffffffffffffffffffffffffffffffffffffffff1673ffffffffffffffffffffffffffffffffffffffff1663a9059cbb8e62002041888d62003e3a90919063ffffffff16565b6040518363ffffffff167c0100000000000000000000000000000000000000000000000000000000028152600401808373ffffffffffffffffffffffffffffffffffffffff1673ffffffffffffffffffffffffffffffffffffffff16815260200182815260200192505050602060405180830381600087803b158015620020c757600080fd5b505af1158015620020dc573d6000803e3d6000fd5b505050506040513d6020811015620020f357600080fd5b8101908080519060200190929190505050505b8c90508073ffffffffffffffffffffffffffffffffffffffff166346191b3c600760009054906101000a900473ffffffffffffffffffffffffffffffffffffffff168e8d8d600954600860009054906101000a900473ffffffffffffffffffffffffffffffffffffffff166040518763ffffffff167c0100000000000000000000000000000000000000000000000000000000028152600401808773ffffffffffffffffffffffffffffffffffffffff1673ffffffffffffffffffffffffffffffffffffffff1681526020018681526020018573ffffffffffffffffffffffffffffffffffffffff1673ffffffffffffffffffffffffffffffffffffffff1681526020018481526020018381526020018273ffffffffffffffffffffffffffffffffffffffff1673ffffffffffffffffffffffffffffffffffffffff1681526020019650505050505050602060405180830381600087803b1580156200226b57600080fd5b505af115801562002280573d6000803e3d6000fd5b505050506040513d60208110156200229757600080fd5b810190808051906020019092919050505096505b5050505050509695505050505050565b600160009054906101000a900473ffffffffffffffffffffffffffffffffffffffff1673ffffffffffffffffffffffffffffffffffffffff163373ffffffffffffffffffffffffffffffffffffffff161415156200231857600080fd5b600160009054906101000a900473ffffffffffffffffffffffffffffffffffffffff1673ffffffffffffffffffffffffffffffffffffffff166000809054906101000a900473ffffffffffffffffffffffffffffffffffffffff1673ffffffffffffffffffffffffffffffffffffffff167f8be0079c531659141344cd1fd0a4f28419497f9722a3daafe3b4186f6b6457e060405160405180910390a3600160009054906101000a900473ffffffffffffffffffffffffffffffffffffffff166000806101000a81548173ffffffffffffffffffffffffffffffffffffffff021916908373ffffffffffffffffffffffffffffffffffffffff1602179055506000600160006101000a81548173ffffffffffffffffffffffffffffffffffffffff021916908373ffffffffffffffffffffffffffffffffffffffff160217905550565b6000809054906101000a900473ffffffffffffffffffffffffffffffffffffffff1673ffffffffffffffffffffffffffffffffffffffff163373ffffffffffffffffffffffffffffffffffffffff16141515620024b757600080fd5b8060098190555050565b6000806000806000809054906101000a900473ffffffffffffffffffffffffffffffffffffffff1673ffffffffffffffffffffffffffffffffffffffff163373ffffffffffffffffffffffffffffffffffffffff161415156200252357600080fd5b600073ffffffffffffffffffffffffffffffffffffffff168573ffffffffffffffffffffffffffffffffffffffff16141515156200256057600080fd5b600760009054906101000a900473ffffffffffffffffffffffffffffffffffffffff1673ffffffffffffffffffffffffffffffffffffffff166370a08231866040518263ffffffff167c0100000000000000000000000000000000000000000000000000000000028152600401808273ffffffffffffffffffffffffffffffffffffffff1673ffffffffffffffffffffffffffffffffffffffff168152602001915050602060405180830381600087803b1580156200261e57600080fd5b505af115801562002633573d6000803e3d6000fd5b505050506040513d60208110156200264a57600080fd5b81019080805190602001909291905050509150600460008673ffffffffffffffffffffffffffffffffffffffff1673ffffffffffffffffffffffffffffffffffffffff16815260200190815260200160002060010154905081600460008773ffffffffffffffffffffffffffffffffffffffff1673ffffffffffffffffffffffffffffffffffffffff168152602001908152602001600020600001819055508181935093505050915091565b6000806000806000600460008973ffffffffffffffffffffffffffffffffffffffff1673ffffffffffffffffffffffffffffffffffffffff168152602001908152602001600020600201805490509250600091505b828210156200284657600460008973ffffffffffffffffffffffffffffffffffffffff1673ffffffffffffffffffffffffffffffffffffffff16815260200190815260200160002060020182815481101515620027a457fe5b9060005260206000209060020201905080600001546000191687600019161415620028285760018160010160009054906101000a900473ffffffffffffffffffffffffffffffffffffffff1673ffffffffffffffffffffffffffffffffffffffff168773ffffffffffffffffffffffffffffffffffffffff1614945094506200284f565b6200283e60018362003e5490919063ffffffff16565b91506200274b565b60006001945094505b505050935093915050565b60095481565b6060806060806000806000809054906101000a900473ffffffffffffffffffffffffffffffffffffffff1673ffffffffffffffffffffffffffffffffffffffff163373ffffffffffffffffffffffffffffffffffffffff16141515620028c557600080fd5b6000875114151515620028d757600080fd5b8651604051908082528060200260200182016040528015620029085781602001602082028038833980820191505090505b50935086516040519080825280602002602001820160405280156200293c5781602001602082028038833980820191505090505b509250600091505b865182101562002a8057600460008973ffffffffffffffffffffffffffffffffffffffff1673ffffffffffffffffffffffffffffffffffffffff16815260200190815260200160002060020187838151811015156200299f57fe5b90602001906020020151815481101515620029b657fe5b9060005260206000209060020201905080600001548483815181101515620029da57fe5b9060200190602002019060001916908160001916815250508060010160009054906101000a900473ffffffffffffffffffffffffffffffffffffffff16838381518110151562002a2657fe5b9060200190602002019073ffffffffffffffffffffffffffffffffffffffff16908173ffffffffffffffffffffffffffffffffffffffff168152505062002a7860018362003e5490919063ffffffff16565b915062002944565b838395509550505050509250929050565b60008060009054906101000a900473ffffffffffffffffffffffffffffffffffffffff1673ffffffffffffffffffffffffffffffffffffffff163373ffffffffffffffffffffffffffffffffffffffff1614151562002aef57600080fd5b600073ffffffffffffffffffffffffffffffffffffffff168273ffffffffffffffffffffffffffffffffffffffff161415151562002b2c57600080fd5b81600260006101000a81548173ffffffffffffffffffffffffffffffffffffffff021916908373ffffffffffffffffffffffffffffffffffffffff160217905550600260009054906101000a900473ffffffffffffffffffffffffffffffffffffffff1673ffffffffffffffffffffffffffffffffffffffff16638da5cb5b6040518163ffffffff167c0100000000000000000000000000000000000000000000000000000000028152600401602060405180830381600087803b15801562002bf457600080fd5b505af115801562002c09573d6000803e3d6000fd5b505050506040513d602081101562002c2057600080fd5b8101908080519060200190929190505050600360006101000a81548173ffffffffffffffffffffffffffffffffffffffff021916908373ffffffffffffffffffffffffffffffffffffffff160217905550600260009054906101000a900473ffffffffffffffffffffffffffffffffffffffff1673ffffffffffffffffffffffffffffffffffffffff16634e71e0c86040518163ffffffff167c0100000000000000000000000000000000000000000000000000000000028152600401600060405180830381600087803b15801562002cf857600080fd5b505af115801562002d0d573d6000803e3d6000fd5b5050505060019050919050565b6000809054906101000a900473ffffffffffffffffffffffffffffffffffffffff1673ffffffffffffffffffffffffffffffffffffffff163373ffffffffffffffffffffffffffffffffffffffff1614151562002d7657600080fd5b6000809054906101000a900473ffffffffffffffffffffffffffffffffffffffff1673ffffffffffffffffffffffffffffffffffffffff16ff5b6000806000809054906101000a900473ffffffffffffffffffffffffffffffffffffffff1673ffffffffffffffffffffffffffffffffffffffff163373ffffffffffffffffffffffffffffffffffffffff1614151562002e0f57600080fd5b600073ffffffffffffffffffffffffffffffffffffffff168373ffffffffffffffffffffffffffffffffffffffff161415151562002e4c57600080fd5b600460008473ffffffffffffffffffffffffffffffffffffffff1673ffffffffffffffffffffffffffffffffffffffff16815260200190815260200160002060010154905080915050919050565b6000809054906101000a900473ffffffffffffffffffffffffffffffffffffffff1681565b60008060009054906101000a900473ffffffffffffffffffffffffffffffffffffffff1673ffffffffffffffffffffffffffffffffffffffff163373ffffffffffffffffffffffffffffffffffffffff1614151562002f1d57600080fd5b600073ffffffffffffffffffffffffffffffffffffffff168373ffffffffffffffffffffffffffffffffffffffff161415151562002f5a57600080fd5b6001600660008573ffffffffffffffffffffffffffffffffffffffff1673ffffffffffffffffffffffffffffffffffffffff16815260200190815260200160002060006101000a81548160ff02191690831515021790555081600460008573ffffffffffffffffffffffffffffffffffffffff1673ffffffffffffffffffffffffffffffffffffffff168152602001908152602001600020600101819055508273ffffffffffffffffffffffffffffffffffffffff167fcbce0cc3ab252117420c1c3812c7b7174f1418e2befe8a96e5683515f9509f25836040518082815260200191505060405180910390a26001905092915050565b6000806000806000809054906101000a900473ffffffffffffffffffffffffffffffffffffffff1673ffffffffffffffffffffffffffffffffffffffff163373ffffffffffffffffffffffffffffffffffffffff16141515620030b357600080fd5b600073ffffffffffffffffffffffffffffffffffffffff168573ffffffffffffffffffffffffffffffffffffffff1614151515620030f057600080fd5b84620030fb62003e73565b808273ffffffffffffffffffffffffffffffffffffffff1673ffffffffffffffffffffffffffffffffffffffff168152602001915050604051809103906000f0801580156200314e573d6000803e3d6000fd5b50925082915081600560008773ffffffffffffffffffffffffffffffffffffffff1673ffffffffffffffffffffffffffffffffffffffff16815260200190815260200160002060006101000a81548173ffffffffffffffffffffffffffffffffffffffff021916908373ffffffffffffffffffffffffffffffffffffffff160217905550600460008373ffffffffffffffffffffffffffffffffffffffff1673ffffffffffffffffffffffffffffffffffffffff16815260200190815260200160002060020190508060408051908101604052807f64656661756c742077616c6c65740000000000000000000000000000000000006000191681526020018773ffffffffffffffffffffffffffffffffffffffff16815250908060018154018082558091505090600182039060005260206000209060020201600090919290919091506000820151816000019060001916905560208201518160010160006101000a81548173ffffffffffffffffffffffffffffffffffffffff021916908373ffffffffffffffffffffffffffffffffffffffff1602179055505050506000600460008473ffffffffffffffffffffffffffffffffffffffff1673ffffffffffffffffffffffffffffffffffffffff168152602001908152602001600020600001819055506000600460008473ffffffffffffffffffffffffffffffffffffffff1673ffffffffffffffffffffffffffffffffffffffff168152602001908152602001600020600101819055508473ffffffffffffffffffffffffffffffffffffffff167f55c48b5893b218bfd1f85d28d11d185c7ec0f376933dbb0a09db48711c120e2284604051808273ffffffffffffffffffffffffffffffffffffffff1673ffffffffffffffffffffffffffffffffffffffff16815260200191505060405180910390a2829350505050919050565b600260009054906101000a900473ffffffffffffffffffffffffffffffffffffffff1681565b60008060008060009054906101000a900473ffffffffffffffffffffffffffffffffffffffff1673ffffffffffffffffffffffffffffffffffffffff163373ffffffffffffffffffffffffffffffffffffffff161415156200348757600080fd5b600092505b83518310156200369d578383815181101515620034a557fe5b9060200190602002015191508173ffffffffffffffffffffffffffffffffffffffff166370a08231306040518263ffffffff167c0100000000000000000000000000000000000000000000000000000000028152600401808273ffffffffffffffffffffffffffffffffffffffff1673ffffffffffffffffffffffffffffffffffffffff168152602001915050602060405180830381600087803b1580156200354d57600080fd5b505af115801562003562573d6000803e3d6000fd5b505050506040513d60208110156200357957600080fd5b810190808051906020019092919050505090508173ffffffffffffffffffffffffffffffffffffffff1663a9059cbb6000809054906101000a900473ffffffffffffffffffffffffffffffffffffffff16836040518363ffffffff167c0100000000000000000000000000000000000000000000000000000000028152600401808373ffffffffffffffffffffffffffffffffffffffff1673ffffffffffffffffffffffffffffffffffffffff16815260200182815260200192505050602060405180830381600087803b1580156200365157600080fd5b505af115801562003666573d6000803e3d6000fd5b505050506040513d60208110156200367d57600080fd5b81019080805190602001909291905050505082806001019350506200348c565b6000809054906101000a900473ffffffffffffffffffffffffffffffffffffffff1673ffffffffffffffffffffffffffffffffffffffff16ff5b6000806000809054906101000a900473ffffffffffffffffffffffffffffffffffffffff1673ffffffffffffffffffffffffffffffffffffffff163373ffffffffffffffffffffffffffffffffffffffff161415156200373657600080fd5b600073ffffffffffffffffffffffffffffffffffffffff168373ffffffffffffffffffffffffffffffffffffffff16141515156200377357600080fd5b600560008473ffffffffffffffffffffffffffffffffffffffff1673ffffffffffffffffffffffffffffffffffffffff16815260200190815260200160002060009054906101000a900473ffffffffffffffffffffffffffffffffffffffff16905080915050919050565b600860009054906101000a900473ffffffffffffffffffffffffffffffffffffffff1681565b600160009054906101000a900473ffffffffffffffffffffffffffffffffffffffff1681565b6000806000809054906101000a900473ffffffffffffffffffffffffffffffffffffffff1673ffffffffffffffffffffffffffffffffffffffff163373ffffffffffffffffffffffffffffffffffffffff161415156200388957600080fd5b600073ffffffffffffffffffffffffffffffffffffffff168373ffffffffffffffffffffffffffffffffffffffff1614151515620038c657600080fd5b600760009054906101000a900473ffffffffffffffffffffffffffffffffffffffff1673ffffffffffffffffffffffffffffffffffffffff166370a08231846040518263ffffffff167c0100000000000000000000000000000000000000000000000000000000028152600401808273ffffffffffffffffffffffffffffffffffffffff1673ffffffffffffffffffffffffffffffffffffffff168152602001915050602060405180830381600087803b1580156200398457600080fd5b505af115801562003999573d6000803e3d6000fd5b505050506040513d6020811015620039b057600080fd5b8101908080519060200190929190505050905080600460008573ffffffffffffffffffffffffffffffffffffffff1673ffffffffffffffffffffffffffffffffffffffff1681526020019081526020016000206000018190555080915050919050565b6000809054906101000a900473ffffffffffffffffffffffffffffffffffffffff1673ffffffffffffffffffffffffffffffffffffffff163373ffffffffffffffffffffffffffffffffffffffff1614151562003a6f57600080fd5b600260009054906101000a900473ffffffffffffffffffffffffffffffffffffffff1673ffffffffffffffffffffffffffffffffffffffff1663f2fde38b826040518263ffffffff167c0100000000000000000000000000000000000000000000000000000000028152600401808273ffffffffffffffffffffffffffffffffffffffff1673ffffffffffffffffffffffffffffffffffffffff168152602001915050600060405180830381600087803b15801562003b2d57600080fd5b505af115801562003b42573d6000803e3d6000fd5b505050506000600260006101000a81548173ffffffffffffffffffffffffffffffffffffffff021916908373ffffffffffffffffffffffffffffffffffffffff1602179055506000600360006101000a81548173ffffffffffffffffffffffffffffffffffffffff021916908373ffffffffffffffffffffffffffffffffffffffff16021790555050565b6000809054906101000a900473ffffffffffffffffffffffffffffffffffffffff1673ffffffffffffffffffffffffffffffffffffffff163373ffffffffffffffffffffffffffffffffffffffff1614151562003c2957600080fd5b80600160006101000a81548173ffffffffffffffffffffffffffffffffffffffff021916908373ffffffffffffffffffffffffffffffffffffffff16021790555050565b60008060009054906101000a900473ffffffffffffffffffffffffffffffffffffffff1673ffffffffffffffffffffffffffffffffffffffff163373ffffffffffffffffffffffffffffffffffffffff1614151562003ccb57600080fd5b600073ffffffffffffffffffffffffffffffffffffffff168373ffffffffffffffffffffffffffffffffffffffff161415151562003d0857600080fd5b8273ffffffffffffffffffffffffffffffffffffffff166108fc839081150290604051600060405180830381858888f1935050505015801562003d4f573d6000803e3d6000fd5b507fdb35132c111efe920cede025e819975671cfd1b8fcc1174762c8670c4e94c2118383604051808373ffffffffffffffffffffffffffffffffffffffff1673ffffffffffffffffffffffffffffffffffffffff1681526020018281526020019250505060405180910390a16001905092915050565b6000809054906101000a900473ffffffffffffffffffffffffffffffffffffffff1673ffffffffffffffffffffffffffffffffffffffff163373ffffffffffffffffffffffffffffffffffffffff1614151562003e2157600080fd5b8073ffffffffffffffffffffffffffffffffffffffff16ff5b600082821115151562003e4957fe5b818303905092915050565b600080828401905083811015151562003e6957fe5b8091505092915050565b6040516121478062003e8583390190560060806040526000600160146101000a81548160ff02191690831515021790555034801561002b57600080fd5b5060405160208061214783398101806040528101908080519060200190929190505050336000806101000a81548173ffffffffffffffffffffffffffffffffffffffff021916908373ffffffffffffffffffffffffffffffffffffffff160217905550600073ffffffffffffffffffffffffffffffffffffffff168173ffffffffffffffffffffffffffffffffffffffff16141515156100ca57600080fd5b80600460006101000a81548173ffffffffffffffffffffffffffffffffffffffff021916908373ffffffffffffffffffffffffffffffffffffffff1602179055505061202c8061011b6000396000f30060806040526004361061011c576000357c0100000000000000000000000000000000000000000000000000000000900463ffffffff168062226eb51461018957806301e33667146101b45780633f4ba83a1461023957806346191b3c146102505780634e71e0c81461030957806352bfbe68146103205780635c975abb146103b957806374cd5c0b146103e857806383197ef0146104635780638456cb591461047a5780638da5cb5b146104915780638f4ffcb1146104e85780639373f4321461059b578063a9011990146105f6578063bfe370d914610671578063c5a88559146106f6578063c6786e5a14610721578063e30c397814610787578063f2fde38b146107de578063f3fef3a314610821578063f5074f4114610886575b7ff32a9f77675fd5917534c7746608fd3e309eac68fbdcbf5925e24ca97a7043963334604051808373ffffffffffffffffffffffffffffffffffffffff1673ffffffffffffffffffffffffffffffffffffffff1681526020018281526020019250505060405180910390a1005b34801561019557600080fd5b5061019e6108c9565b6040518082815260200191505060405180910390f35b3480156101c057600080fd5b5061021f600480360381019080803573ffffffffffffffffffffffffffffffffffffffff169060200190929190803573ffffffffffffffffffffffffffffffffffffffff169060200190929190803590602001909291905050506108d6565b604051808215151515815260200191505060405180910390f35b34801561024557600080fd5b5061024e610b39565b005b34801561025c57600080fd5b506102ef600480360381019080803573ffffffffffffffffffffffffffffffffffffffff16906020019092919080359060200190929190803573ffffffffffffffffffffffffffffffffffffffff1690602001909291908035906020019092919080359060200190929190803573ffffffffffffffffffffffffffffffffffffffff169060200190929190505050610bf8565b604051808215151515815260200191505060405180910390f35b34801561031557600080fd5b5061031e611093565b005b34801561032c57600080fd5b5061039f600480360381019080803573ffffffffffffffffffffffffffffffffffffffff169060200190929190803590602001909291908035906020019092919080359060200190929190803573ffffffffffffffffffffffffffffffffffffffff169060200190929190505050611232565b604051808215151515815260200191505060405180910390f35b3480156103c557600080fd5b506103ce6112e6565b604051808215151515815260200191505060405180910390f35b3480156103f457600080fd5b50610413600480360381019080803590602001909291905050506112f9565b604051808481526020018373ffffffffffffffffffffffffffffffffffffffff1673ffffffffffffffffffffffffffffffffffffffff168152602001828152602001935050505060405180910390f35b34801561046f57600080fd5b506104786113a1565b005b34801561048657600080fd5b5061048f611436565b005b34801561049d57600080fd5b506104a66114f5565b604051808273ffffffffffffffffffffffffffffffffffffffff1673ffffffffffffffffffffffffffffffffffffffff16815260200191505060405180910390f35b3480156104f457600080fd5b50610599600480360381019080803573ffffffffffffffffffffffffffffffffffffffff16906020019092919080359060200190929190803573ffffffffffffffffffffffffffffffffffffffff169060200190929190803590602001908201803590602001908080601f016020809104026020016040519081016040528093929190818152602001838380828437820191505050505050919291929050505061151a565b005b3480156105a757600080fd5b506105dc600480360381019080803573ffffffffffffffffffffffffffffffffffffffff16906020019092919050505061190c565b604051808215151515815260200191505060405180910390f35b34801561060257600080fd5b50610621600480360381019080803590602001909291905050506119ef565b604051808481526020018373ffffffffffffffffffffffffffffffffffffffff1673ffffffffffffffffffffffffffffffffffffffff168152602001828152602001935050505060405180910390f35b34801561067d57600080fd5b506106d8600480360381019080803590602001908201803590602001908080601f0160208091040260200160405190810160405280939291908181526020018383808284378201915050505050509192919290505050611a97565b60405180826000191660001916815260200191505060405180910390f35b34801561070257600080fd5b5061070b611aa5565b6040518082815260200191505060405180910390f35b34801561072d57600080fd5b5061078560048036038101908080359060200190820180359060200190808060200260200160405190810160405280939291908181526020018383602002808284378201915050505050509192919290505050611ab2565b005b34801561079357600080fd5b5061079c611d59565b604051808273ffffffffffffffffffffffffffffffffffffffff1673ffffffffffffffffffffffffffffffffffffffff16815260200191505060405180910390f35b3480156107ea57600080fd5b5061081f600480360381019080803573ffffffffffffffffffffffffffffffffffffffff169060200190929190505050611d7f565b005b34801561082d57600080fd5b5061086c600480360381019080803573ffffffffffffffffffffffffffffffffffffffff16906020019092919080359060200190929190505050611e1e565b604051808215151515815260200191505060405180910390f35b34801561089257600080fd5b506108c7600480360381019080803573ffffffffffffffffffffffffffffffffffffffff169060200190929190505050611f73565b005b6000600280549050905090565b6000806000809054906101000a900473ffffffffffffffffffffffffffffffffffffffff1673ffffffffffffffffffffffffffffffffffffffff163373ffffffffffffffffffffffffffffffffffffffff1614151561093457600080fd5b600073ffffffffffffffffffffffffffffffffffffffff168473ffffffffffffffffffffffffffffffffffffffff161415151561097057600080fd5b600073ffffffffffffffffffffffffffffffffffffffff168573ffffffffffffffffffffffffffffffffffffffff16141515156109ac57600080fd5b8490508073ffffffffffffffffffffffffffffffffffffffff1663a9059cbb85856040518363ffffffff167c0100000000000000000000000000000000000000000000000000000000028152600401808373ffffffffffffffffffffffffffffffffffffffff1673ffffffffffffffffffffffffffffffffffffffff16815260200182815260200192505050602060405180830381600087803b158015610a5257600080fd5b505af1158015610a66573d6000803e3d6000fd5b505050506040513d6020811015610a7c57600080fd5b8101908080519060200190929190505050507f037238854fe57fbf51f09946f854fc3916fe83938d6521f09bd05463839f1304858585604051808473ffffffffffffffffffffffffffffffffffffffff1673ffffffffffffffffffffffffffffffffffffffff1681526020018373ffffffffffffffffffffffffffffffffffffffff1673ffffffffffffffffffffffffffffffffffffffff168152602001828152602001935050505060405180910390a160019150509392505050565b6000809054906101000a900473ffffffffffffffffffffffffffffffffffffffff1673ffffffffffffffffffffffffffffffffffffffff163373ffffffffffffffffffffffffffffffffffffffff16141515610b9457600080fd5b600160149054906101000a900460ff161515610baf57600080fd5b6000600160146101000a81548160ff0219169083151502179055507f7805862f689e2f13df9f062ff482ad3ad112aca9e0847911ed832e158c525b3360405160405180910390a1565b60008060008060009054906101000a900473ffffffffffffffffffffffffffffffffffffffff1673ffffffffffffffffffffffffffffffffffffffff163373ffffffffffffffffffffffffffffffffffffffff16141515610c5857600080fd5b600160149054906101000a900460ff16151515610c7457600080fd5b600073ffffffffffffffffffffffffffffffffffffffff168773ffffffffffffffffffffffffffffffffffffffff1614151515610cb057600080fd5b600073ffffffffffffffffffffffffffffffffffffffff168973ffffffffffffffffffffffffffffffffffffffff1614151515610cec57600080fd5b8486111515610cfa57600080fd5b889150610d108587611fe790919063ffffffff16565b90508173ffffffffffffffffffffffffffffffffffffffff1663a9059cbb88836040518363ffffffff167c0100000000000000000000000000000000000000000000000000000000028152600401808373ffffffffffffffffffffffffffffffffffffffff1673ffffffffffffffffffffffffffffffffffffffff16815260200182815260200192505050602060405180830381600087803b158015610db557600080fd5b505af1158015610dc9573d6000803e3d6000fd5b505050506040513d6020811015610ddf57600080fd5b81019080805190602001909291905050501515610dfb57600080fd5b600073ffffffffffffffffffffffffffffffffffffffff168473ffffffffffffffffffffffffffffffffffffffff1614158015610e385750600085115b15610f27578173ffffffffffffffffffffffffffffffffffffffff1663a9059cbb85876040518363ffffffff167c0100000000000000000000000000000000000000000000000000000000028152600401808373ffffffffffffffffffffffffffffffffffffffff1673ffffffffffffffffffffffffffffffffffffffff16815260200182815260200192505050602060405180830381600087803b158015610ee057600080fd5b505af1158015610ef4573d6000803e3d6000fd5b505050506040513d6020811015610f0a57600080fd5b81019080805190602001909291905050501515610f2657600080fd5b5b60036060604051908101604052808a81526020018973ffffffffffffffffffffffffffffffffffffffff16815260200183815250908060018154018082558091505090600182039060005260206000209060030201600090919290919091506000820151816000015560208201518160010160006101000a81548173ffffffffffffffffffffffffffffffffffffffff021916908373ffffffffffffffffffffffffffffffffffffffff160217905550604082015181600201555050507f037238854fe57fbf51f09946f854fc3916fe83938d6521f09bd05463839f1304898883604051808473ffffffffffffffffffffffffffffffffffffffff1673ffffffffffffffffffffffffffffffffffffffff1681526020018373ffffffffffffffffffffffffffffffffffffffff1673ffffffffffffffffffffffffffffffffffffffff168152602001828152602001935050505060405180910390a16001925050509695505050505050565b600160009054906101000a900473ffffffffffffffffffffffffffffffffffffffff1673ffffffffffffffffffffffffffffffffffffffff163373ffffffffffffffffffffffffffffffffffffffff161415156110ef57600080fd5b600160009054906101000a900473ffffffffffffffffffffffffffffffffffffffff1673ffffffffffffffffffffffffffffffffffffffff166000809054906101000a900473ffffffffffffffffffffffffffffffffffffffff1673ffffffffffffffffffffffffffffffffffffffff167f8be0079c531659141344cd1fd0a4f28419497f9722a3daafe3b4186f6b6457e060405160405180910390a3600160009054906101000a900473ffffffffffffffffffffffffffffffffffffffff166000806101000a81548173ffffffffffffffffffffffffffffffffffffffff021916908373ffffffffffffffffffffffffffffffffffffffff1602179055506000600160006101000a81548173ffffffffffffffffffffffffffffffffffffffff021916908373ffffffffffffffffffffffffffffffffffffffff160217905550565b60008060009054906101000a900473ffffffffffffffffffffffffffffffffffffffff1673ffffffffffffffffffffffffffffffffffffffff163373ffffffffffffffffffffffffffffffffffffffff1614151561128f57600080fd5b600160149054906101000a900460ff161515156112ab57600080fd5b6112db8686600460009054906101000a900473ffffffffffffffffffffffffffffffffffffffff16878787610bf8565b905095945050505050565b600160149054906101000a900460ff1681565b60008060006003805490508410151561131157600080fd5b60038481548110151561132057fe5b90600052602060002090600302016000015460038581548110151561134157fe5b906000526020600020906003020160010160009054906101000a900473ffffffffffffffffffffffffffffffffffffffff1660038681548110151561138257fe5b9060005260206000209060030201600201549250925092509193909250565b6000809054906101000a900473ffffffffffffffffffffffffffffffffffffffff1673ffffffffffffffffffffffffffffffffffffffff163373ffffffffffffffffffffffffffffffffffffffff161415156113fc57600080fd5b6000809054906101000a900473ffffffffffffffffffffffffffffffffffffffff1673ffffffffffffffffffffffffffffffffffffffff16ff5b6000809054906101000a900473ffffffffffffffffffffffffffffffffffffffff1673ffffffffffffffffffffffffffffffffffffffff163373ffffffffffffffffffffffffffffffffffffffff1614151561149157600080fd5b600160149054906101000a900460ff161515156114ad57600080fd5b60018060146101000a81548160ff0219169083151502179055507f6985a02210a168e66602d3235cb6db0e70f92b3ba4d376a33c0f3d9434bff62560405160405180910390a1565b6000809054906101000a900473ffffffffffffffffffffffffffffffffffffffff1681565b6000806000809054906101000a900473ffffffffffffffffffffffffffffffffffffffff1673ffffffffffffffffffffffffffffffffffffffff163373ffffffffffffffffffffffffffffffffffffffff1614151561157857600080fd5b600160149054906101000a900460ff1615151561159457600080fd5b600073ffffffffffffffffffffffffffffffffffffffff168473ffffffffffffffffffffffffffffffffffffffff16141515156115d057600080fd5b600073ffffffffffffffffffffffffffffffffffffffff168673ffffffffffffffffffffffffffffffffffffffff161415151561160c57600080fd5b8391508173ffffffffffffffffffffffffffffffffffffffff166323b872dd8730886040518463ffffffff167c0100000000000000000000000000000000000000000000000000000000028152600401808473ffffffffffffffffffffffffffffffffffffffff1673ffffffffffffffffffffffffffffffffffffffff1681526020018373ffffffffffffffffffffffffffffffffffffffff1673ffffffffffffffffffffffffffffffffffffffff1681526020018281526020019350505050602060405180830381600087803b1580156116e657600080fd5b505af11580156116fa573d6000803e3d6000fd5b505050506040513d602081101561171057600080fd5b8101908080519060200190929190505050151561172c57600080fd5b61173583611a97565b90506002606060405190810160405280836001900481526020018873ffffffffffffffffffffffffffffffffffffffff16815260200187815250908060018154018082558091505090600182039060005260206000209060030201600090919290919091506000820151816000015560208201518160010160006101000a81548173ffffffffffffffffffffffffffffffffffffffff021916908373ffffffffffffffffffffffffffffffffffffffff160217905550604082015181600201555050507f3bc54c6dcf5be6793947a9f34e5ca45d6ce9196bea304a5550c3e2d2f215650286868686604051808573ffffffffffffffffffffffffffffffffffffffff1673ffffffffffffffffffffffffffffffffffffffff1681526020018481526020018373ffffffffffffffffffffffffffffffffffffffff1673ffffffffffffffffffffffffffffffffffffffff16815260200180602001828103825283818151815260200191508051906020019080838360005b838110156118c75780820151818401526020810190506118ac565b50505050905090810190601f1680156118f45780820380516001836020036101000a031916815260200191505b509550505050505060405180910390a1505050505050565b60008060009054906101000a900473ffffffffffffffffffffffffffffffffffffffff1673ffffffffffffffffffffffffffffffffffffffff163373ffffffffffffffffffffffffffffffffffffffff1614151561196957600080fd5b600073ffffffffffffffffffffffffffffffffffffffff168273ffffffffffffffffffffffffffffffffffffffff16141515156119a557600080fd5b81600460006101000a81548173ffffffffffffffffffffffffffffffffffffffff021916908373ffffffffffffffffffffffffffffffffffffffff16021790555060019050919050565b600080600060028054905084101515611a0757600080fd5b600284815481101515611a1657fe5b906000526020600020906003020160000154600285815481101515611a3757fe5b906000526020600020906003020160010160009054906101000a900473ffffffffffffffffffffffffffffffffffffffff16600286815481101515611a7857fe5b9060005260206000209060030201600201549250925092509193909250565b600060208201519050919050565b6000600380549050905090565b60008060008060009054906101000a900473ffffffffffffffffffffffffffffffffffffffff1673ffffffffffffffffffffffffffffffffffffffff163373ffffffffffffffffffffffffffffffffffffffff16141515611b1257600080fd5b600092505b8351831015611d1f578383815181101515611b2e57fe5b9060200190602002015191508173ffffffffffffffffffffffffffffffffffffffff166370a08231306040518263ffffffff167c0100000000000000000000000000000000000000000000000000000000028152600401808273ffffffffffffffffffffffffffffffffffffffff1673ffffffffffffffffffffffffffffffffffffffff168152602001915050602060405180830381600087803b158015611bd557600080fd5b505af1158015611be9573d6000803e3d6000fd5b505050506040513d6020811015611bff57600080fd5b810190808051906020019092919050505090508173ffffffffffffffffffffffffffffffffffffffff1663a9059cbb6000809054906101000a900473ffffffffffffffffffffffffffffffffffffffff16836040518363ffffffff167c0100000000000000000000000000000000000000000000000000000000028152600401808373ffffffffffffffffffffffffffffffffffffffff1673ffffffffffffffffffffffffffffffffffffffff16815260200182815260200192505050602060405180830381600087803b158015611cd657600080fd5b505af1158015611cea573d6000803e3d6000fd5b505050506040513d6020811015611d0057600080fd5b8101908080519060200190929190505050508280600101935050611b17565b6000809054906101000a900473ffffffffffffffffffffffffffffffffffffffff1673ffffffffffffffffffffffffffffffffffffffff16ff5b600160009054906101000a900473ffffffffffffffffffffffffffffffffffffffff1681565b6000809054906101000a900473ffffffffffffffffffffffffffffffffffffffff1673ffffffffffffffffffffffffffffffffffffffff163373ffffffffffffffffffffffffffffffffffffffff16141515611dda57600080fd5b80600160006101000a81548173ffffffffffffffffffffffffffffffffffffffff021916908373ffffffffffffffffffffffffffffffffffffffff16021790555050565b60008060009054906101000a900473ffffffffffffffffffffffffffffffffffffffff1673ffffffffffffffffffffffffffffffffffffffff163373ffffffffffffffffffffffffffffffffffffffff16141515611e7b57600080fd5b600073ffffffffffffffffffffffffffffffffffffffff168373ffffffffffffffffffffffffffffffffffffffff1614151515611eb757600080fd5b8273ffffffffffffffffffffffffffffffffffffffff166108fc839081150290604051600060405180830381858888f19350505050158015611efd573d6000803e3d6000fd5b507fdb35132c111efe920cede025e819975671cfd1b8fcc1174762c8670c4e94c2118383604051808373ffffffffffffffffffffffffffffffffffffffff1673ffffffffffffffffffffffffffffffffffffffff1681526020018281526020019250505060405180910390a16001905092915050565b6000809054906101000a900473ffffffffffffffffffffffffffffffffffffffff1673ffffffffffffffffffffffffffffffffffffffff163373ffffffffffffffffffffffffffffffffffffffff16141515611fce57600080fd5b8073ffffffffffffffffffffffffffffffffffffffff16ff5b6000828211151515611ff557fe5b8183039050929150505600a165627a7a7230582043753a357869b84f0ae53a80332aee5bfb4175b7af3e26ef5e8229a76a1106560029a165627a7a723058209e2a70a53516a5a37ad4ae0031733a141c0ee7907224bbf2e40880417d142c3d0029",
  "source": "pragma solidity ^0.4.23;\r\n\r\n\r\nimport 'zeppelin-solidity/contracts/ownership/Claimable.sol';\r\nimport 'zeppelin-solidity/contracts/lifecycle/Pausable.sol';\r\nimport 'zeppelin-solidity/contracts/lifecycle/Destructible.sol';\r\nimport 'zeppelin-solidity/contracts/lifecycle/TokenDestructible.sol';\r\nimport 'zeppelin-solidity/contracts/token/ERC20/ERC20.sol';\r\nimport 'zeppelin-solidity/contracts/math/SafeMath.sol';\r\n\r\n\r\ncontract OwnerContract is Claimable {\r\n    Claimable public ownedContract;\r\n    address internal origOwner;\r\n\r\n    /**\r\n     * @dev bind a contract as its owner\r\n     *\r\n     * @param _contract the contract address that will be binded by this Owner Contract\r\n     */\r\n    function bindContract(address _contract) onlyOwner public returns (bool) {\r\n        require(_contract != address(0));\r\n        ownedContract = Claimable(_contract);\r\n        origOwner = ownedContract.owner();\r\n\r\n        // take ownership of the owned contract\r\n        ownedContract.claimOwnership();\r\n\r\n        return true;\r\n    }\r\n\r\n    /**\r\n     * @dev change the owner of the contract from this contract address to the original one. \r\n     *\r\n     */\r\n    function transferOwnershipBack() onlyOwner public {\r\n        ownedContract.transferOwnership(origOwner);\r\n        ownedContract = Claimable(address(0));\r\n        origOwner = address(0);\r\n    }\r\n\r\n    /**\r\n     * @dev change the owner of the contract from this contract address to another one. \r\n     *\r\n     * @param _nextOwner the contract address that will be next Owner of the original Contract\r\n     */\r\n    function changeOwnershipto(address _nextOwner)  onlyOwner public {\r\n        ownedContract.transferOwnership(_nextOwner);\r\n        ownedContract = Claimable(address(0));\r\n        origOwner = address(0);\r\n    }\r\n}\r\n\r\ncontract withdrawable is Ownable {\r\n    event ReceiveEther(address _from, uint256 _value);\r\n    event WithdrawEther(address _to, uint256 _value);\r\n    event WithdrawToken(address _token, address _to, uint256 _value);\r\n\r\n    /**\r\n\t * @dev recording receiving ether from msn.sender\r\n\t */\r\n    function () payable public {\r\n        emit ReceiveEther(msg.sender, msg.value);\r\n    }\r\n\r\n    /**\r\n\t * @dev withdraw,send ether to target\r\n\t * @param _to is where the ether will be sent to\r\n\t *        _amount is the number of the ether\r\n\t */\r\n    function withdraw(address _to, uint _amount) public onlyOwner returns (bool) {\r\n        require(_to != address(0));\r\n        _to.transfer(_amount);\r\n        emit WithdrawEther(_to, _amount);\r\n\r\n        return true;\r\n    }\r\n\r\n    /**\r\n\t * @dev withdraw tokens, send tokens to target\r\n     *\r\n     * @param _token the token address that will be withdraw\r\n\t * @param _to is where the tokens will be sent to\r\n\t *        _value is the number of the token\r\n\t */\r\n    function withdrawToken(address _token, address _to, uint256 _value) public onlyOwner returns (bool) {\r\n        require(_to != address(0));\r\n        require(_token != address(0));\r\n\r\n        ERC20 tk = ERC20(_token);\r\n        tk.transfer(_to, _value);\r\n        emit WithdrawToken(_token, _to, _value);\r\n\r\n        return true;\r\n    }\r\n\r\n    /**\r\n     * @dev receive approval from an ERC20 token contract, and then gain the tokens, \r\n     *      then take a record\r\n     *\r\n     * @param _from address The address which you want to send tokens from\r\n     * @param _value uint256 the amounts of tokens to be sent\r\n     * @param _token address the ERC20 token address\r\n     * @param _extraData bytes the extra data for the record\r\n     */\r\n    // function receiveApproval(address _from, uint256 _value, address _token, bytes _extraData) public {\r\n    //     require(_token != address(0));\r\n    //     require(_from != address(0));\r\n        \r\n    //     ERC20 tk = ERC20(_token);\r\n    //     require(tk.transferFrom(_from, this, _value));\r\n        \r\n    //     emit ReceiveDeposit(_from, _value, _token, _extraData);\r\n    // }\r\n}\r\n\r\ncontract DepositWithdraw is Claimable, Pausable, withdrawable, Destructible, TokenDestructible {\r\n    using SafeMath for uint256;\r\n\r\n    struct TransferRecord {\r\n        uint256 timeStamp;\r\n        address account;\r\n        uint256 value;\r\n    }\r\n\r\n    TransferRecord[] deposRecs;\r\n    TransferRecord[] withdrRecs;\r\n\r\n    address wallet; // the binded withdraw address\r\n\r\n    event ReceiveDeposit(address _from, uint256 _value, address _token, bytes _extraData);\r\n    \r\n    constructor(address _wallet) public {\r\n        require(_wallet != address(0));\r\n        wallet = _wallet;\r\n    }\r\n\r\n    /**\r\n\t * @dev set the default wallet address\r\n\t * @param _wallet the default wallet address binded to this deposit contract\r\n\t */\r\n    function setWithdrawWallet(address _wallet) onlyOwner public returns (bool) {\r\n        require(_wallet != address(0));\r\n        wallet = _wallet;\r\n\r\n        return true;\r\n    }\r\n\r\n    function bytesToBytes32(bytes _data) public pure returns (bytes32 result) {\r\n        assembly {\r\n            result := mload(add(_data, 32))\r\n        }\r\n    }\r\n\r\n    /**\r\n     * @dev receive approval from an ERC20 token contract, take a record\r\n     *\r\n     * @param _from address The address which you want to send tokens from\r\n     * @param _value uint256 the amounts of tokens to be sent\r\n     * @param _token address the ERC20 token address\r\n     * @param _extraData bytes the extra data for the record\r\n     */\r\n    function receiveApproval(address _from, uint256 _value, address _token, bytes _extraData) onlyOwner whenNotPaused public {\r\n        require(_token != address(0));\r\n        require(_from != address(0));\r\n        \r\n        ERC20 tk = ERC20(_token);\r\n        require(tk.transferFrom(_from, this, _value));\r\n        bytes32 timestamp = bytesToBytes32(_extraData);\r\n        deposRecs.push(TransferRecord(uint256(timestamp), _from, _value));\r\n        emit ReceiveDeposit(_from, _value, _token, _extraData);\r\n    }\r\n\r\n    /**\r\n\t * @dev withdraw tokens, send tokens to target\r\n     *\r\n     * @param _token the token address that will be withdraw\r\n\t * @param _to is where the tokens will be sent to\r\n\t *        _value is the number of the token\r\n     *        _fee is the amount of the transferring costs\r\n     *        tokenReturn is the address that return back the tokens of the _fee\r\n\t */\r\n    function withdrawToken(address _token, uint256 _time, address _to, uint256 _value, uint256 _fee, address _tokenReturn) public onlyOwner whenNotPaused returns (bool) {\r\n        require(_to != address(0));\r\n        require(_token != address(0));\r\n        require(_value > _fee);\r\n        // require(_tokenReturn != address(0));\r\n\r\n        ERC20 tk = ERC20(_token);\r\n        uint256 realAmount = _value.sub(_fee);\r\n        require(tk.transfer(_to, realAmount));\r\n        if (_tokenReturn != address(0) && _fee > 0) {\r\n            require(tk.transfer(_tokenReturn, _fee));\r\n        }\r\n\r\n        withdrRecs.push(TransferRecord(_time, _to, realAmount));\r\n        emit WithdrawToken(_token, _to, realAmount);\r\n\r\n        return true;\r\n    }\r\n\r\n    /**\r\n\t * @dev withdraw tokens, send tokens to target\r\n     *\r\n     * @param _token the token address that will be withdraw\r\n\t * @param _to is where the tokens will be sent to\r\n\t *        _value is the number of the token\r\n\t */\r\n    // function withdrawToken(address _token, uint256 _time, address _to, uint256 _value) public onlyOwner whenNotPaused returns (bool) {\r\n    //     require(_to != address(0));\r\n    //     require(_token != address(0));\r\n\r\n    //     ERC20 tk = ERC20(_token);\r\n    //     tk.transfer(_to, _value);\r\n    //     withdrRecs.push(TransferRecord(_time, _to, _value));\r\n    //     emit WithdrawToken(_token, _to, _value);\r\n\r\n    //     return true;\r\n    // }\r\n\r\n    /**\r\n\t * @dev withdraw tokens, send tokens to target default wallet\r\n     *\r\n     * @param _token the token address that will be withdraw\r\n     * @param _time the timestamp occur the withdraw record\r\n\t * @param _value is the number of the token\r\n\t */\r\n    // function withdrawTokenToDefault(address _token, uint256 _time, uint256 _value) public onlyOwner whenNotPaused returns (bool) {\r\n    //     return withdrawToken(_token, _time, wallet, _value);\r\n    // }\r\n\r\n    /**\r\n\t * @dev withdraw tokens, send tokens to target default wallet\r\n     *\r\n     * @param _token the token address that will be withdraw\r\n     * @param _time the timestamp occur the withdraw record\r\n\t * @param _value is the number of the token\r\n     *        _fee is the amount of the transferring costs\r\n     *        tokenReturn is the address that return back the tokens of the _fee\r\n\t */\r\n    function withdrawTokenToDefault(address _token, uint256 _time, uint256 _value, uint256 _fee, address _tokenReturn) public onlyOwner whenNotPaused returns (bool) {\r\n        return withdrawToken(_token, _time, wallet, _value, _fee, _tokenReturn);\r\n    }\r\n\r\n    /**\r\n\t * @dev get the Deposit records number\r\n     *\r\n     */\r\n    function getDepositNum() public view returns (uint256) {\r\n        return deposRecs.length;\r\n    }\r\n\r\n    /**\r\n\t * @dev get the one of the Deposit records\r\n     *\r\n     * @param _ind the deposit record index\r\n     */\r\n    function getOneDepositRec(uint256 _ind) public view returns (uint256, address, uint256) {\r\n        require(_ind < deposRecs.length);\r\n\r\n        return (deposRecs[_ind].timeStamp, deposRecs[_ind].account, deposRecs[_ind].value);\r\n    }\r\n\r\n    /**\r\n\t * @dev get the withdraw records number\r\n     *\r\n     */\r\n    function getWithdrawNum() public view returns (uint256) {\r\n        return withdrRecs.length;\r\n    }\r\n    \r\n    /**\r\n\t * @dev get the one of the withdraw records\r\n     *\r\n     * @param _ind the withdraw record index\r\n     */\r\n    function getOneWithdrawRec(uint256 _ind) public view returns (uint256, address, uint256) {\r\n        require(_ind < withdrRecs.length);\r\n\r\n        return (withdrRecs[_ind].timeStamp, withdrRecs[_ind].account, withdrRecs[_ind].value);\r\n    }\r\n}\r\n\r\ncontract DRCWalletManager is OwnerContract, withdrawable, Destructible, TokenDestructible {\r\n    using SafeMath for uint256;\r\n\r\n    struct WithdrawWallet {\r\n        bytes32 name;\r\n        address walletAddr;\r\n    }\r\n\r\n    struct DepositRepository {\r\n        uint256 balance;\r\n        uint256 frozen;\r\n        WithdrawWallet[] withdrawWallets;\r\n        // mapping (bytes32 => address) withdrawWallets;\r\n    }\r\n\r\n    mapping (address => DepositRepository) depositRepos;\r\n    mapping (address => address) walletDeposits;\r\n    mapping (address => bool) frozenDeposits;\r\n\r\n    ERC20 public tk;\r\n    address public tokenReturn;\r\n    uint256 public chargeFee;\r\n    \r\n    event CreateDepositAddress(address indexed _wallet, address _deposit);\r\n    event FrozenTokens(address indexed _deposit, uint256 _value);\r\n    event ChangeDefaultWallet(address indexed _oldWallet, address _newWallet);\r\n\r\n    function bindToken(address _token) onlyOwner public returns (bool) {\r\n        require(_token != address(0));\r\n\r\n        tk = ERC20(_token);\r\n        return true;\r\n    }\r\n\r\n    function setTokenReturnAddress(address _tokenReturn) onlyOwner public {\r\n        require(_tokenReturn != address(0));\r\n        tokenReturn = _tokenReturn;\r\n    }\r\n\r\n    function setChargeFee(uint256 _fee) onlyOwner public {\r\n        chargeFee = _fee;\r\n    }\r\n\r\n    function createDepositContract(address _wallet) onlyOwner public returns (address) {\r\n        require(_wallet != address(0));\r\n\r\n        DepositWithdraw deposWithdr = new DepositWithdraw(_wallet);\r\n        address _deposit = address(deposWithdr);\r\n        walletDeposits[_wallet] = _deposit;\r\n        WithdrawWallet[] storage withdrawWalletList = depositRepos[_deposit].withdrawWallets;\r\n        withdrawWalletList.push(WithdrawWallet(\"default wallet\", _wallet));\r\n        depositRepos[_deposit].balance = 0;\r\n        depositRepos[_deposit].frozen = 0;\r\n\r\n        emit CreateDepositAddress(_wallet, address(deposWithdr));\r\n        return deposWithdr;\r\n    }\r\n\r\n    function getDepositAddress(address _wallet) onlyOwner public view returns (address) {\r\n        require(_wallet != address(0));\r\n        address deposit = walletDeposits[_wallet];\r\n\r\n        return deposit;\r\n    }\r\n\r\n    function getDepositInfo(address _deposit) onlyOwner public returns (uint256, uint256) {\r\n        require(_deposit != address(0));\r\n        uint256 _balance = tk.balanceOf(_deposit);\r\n        uint256 frozenAmount = depositRepos[_deposit].frozen;\r\n        depositRepos[_deposit].balance = _balance;\r\n\r\n        return (_balance, frozenAmount);\r\n    }\r\n\r\n    function getDepositBalance(address _deposit) onlyOwner public returns (uint256) {\r\n        require(_deposit != address(0));\r\n        uint256 _balance = tk.balanceOf(_deposit);\r\n\r\n        depositRepos[_deposit].balance = _balance;\r\n        return _balance;\r\n    }\r\n\r\n    function getDepositFrozen(address _deposit) onlyOwner public view returns (uint256) {\r\n        require(_deposit != address(0));\r\n        uint256 frozenAmount = depositRepos[_deposit].frozen;\r\n\r\n        return frozenAmount;\r\n    }\r\n\r\n    function getDepositWithdrawCount(address _deposit) onlyOwner public view returns (uint) {\r\n        require(_deposit != address(0));\r\n\r\n        WithdrawWallet[] storage withdrawWalletList = depositRepos[_deposit].withdrawWallets;\r\n        uint len = withdrawWalletList.length;\r\n\r\n        return len;\r\n    }\r\n\r\n    function getDepositWithdrawList(address _deposit, uint[] _indices) onlyOwner public view returns (bytes32[], address[]) {\r\n        require(_indices.length != 0);\r\n\r\n        bytes32[] memory names = new bytes32[](_indices.length);\r\n        address[] memory wallets = new address[](_indices.length);\r\n        \r\n        for (uint i = 0; i < _indices.length; i = i.add(1)) {\r\n            WithdrawWallet storage wallet = depositRepos[_deposit].withdrawWallets[_indices[i]];\r\n            names[i] = wallet.name;\r\n            wallets[i] = wallet.walletAddr;\r\n        }\r\n        \r\n        return (names, wallets);\r\n    }\r\n\r\n    function changeDefaultWithdraw(address _oldWallet, address _newWallet) onlyOwner public returns (bool) {\r\n        require(_newWallet != address(0));\r\n        \r\n        address deposit = walletDeposits[_oldWallet];\r\n        DepositWithdraw deposWithdr = DepositWithdraw(deposit);\r\n        require(deposWithdr.setWithdrawWallet(_newWallet));\r\n\r\n        WithdrawWallet[] storage withdrawWalletList = depositRepos[deposit].withdrawWallets;\r\n        withdrawWalletList[0].walletAddr = _newWallet;\r\n        emit ChangeDefaultWallet(_oldWallet, _newWallet);\r\n\r\n        return true;\r\n    }\r\n\r\n    function freezeTokens(address _deposit, uint256 _value) onlyOwner public returns (bool) {\r\n        require(_deposit != address(0));\r\n        \r\n        frozenDeposits[_deposit] = true;\r\n        depositRepos[_deposit].frozen = _value;\r\n\r\n        emit FrozenTokens(_deposit, _value);\r\n        return true;\r\n    }\r\n\r\n    // function withdraw(address _deposit, uint256 _time, uint256 _value) onlyOwner public returns (bool) {\r\n    //     require(_deposit != address(0));\r\n    //     require(_value <= depositRepos[_deposit].balance);\r\n\r\n    //     uint256 _balance = depositRepos[_deposit].balance;\r\n    //     uint256 frozenAmount = depositRepos[_deposit].frozen;\r\n    //     require(_value <= _balance.sub(frozenAmount));\r\n\r\n    //     DepositWithdraw deposWithdr = DepositWithdraw(_deposit);\r\n    //     return (deposWithdr.withdrawTokenToDefault(address(tk), _time, _value));\r\n    // }\r\n\r\n    function withdrawWithFee(address _deposit, uint256 _time, uint256 _value) onlyOwner public returns (bool) {\r\n        require(_deposit != address(0));\r\n\r\n        uint256 _balance = tk.balanceOf(_deposit);\r\n        require(_value <= _balance);\r\n\r\n        depositRepos[_deposit].balance = _balance;\r\n        uint256 frozenAmount = depositRepos[_deposit].frozen;\r\n        require(_value <= _balance.sub(frozenAmount));\r\n\r\n        DepositWithdraw deposWithdr = DepositWithdraw(_deposit);\r\n        return (deposWithdr.withdrawTokenToDefault(address(tk), _time, _value, chargeFee, tokenReturn));\r\n    }\r\n\r\n    function checkWithdrawAddress(address _deposit, bytes32 _name, address _to) public view returns (bool, bool) {\r\n        uint len = depositRepos[_deposit].withdrawWallets.length;\r\n        for (uint i = 0; i < len; i = i.add(1)) {\r\n            WithdrawWallet storage wallet = depositRepos[_deposit].withdrawWallets[i];\r\n            if (_name == wallet.name) {\r\n                return(true, (_to == wallet.walletAddr));\r\n            }\r\n        }\r\n\r\n        return (false, true);\r\n    }\r\n\r\n    // function withdraw(address _deposit, uint256 _time, bytes32 _name, address _to, uint256 _value) onlyOwner public returns (bool) {\r\n    //     require(_deposit != address(0));\r\n    //     require(_to != address(0));\r\n    //     require(_value <= depositRepos[_deposit].balance);\r\n\r\n    //     uint256 _balance = depositRepos[_deposit].balance;\r\n    //     uint256 frozenAmount = depositRepos[_deposit].frozen;\r\n    //     require(_value <= _balance.sub(frozenAmount));\r\n\r\n    //     bool exist;\r\n    //     bool correct;\r\n    //     WithdrawWallet[] storage withdrawWalletList = depositRepos[_deposit].withdrawWallets;\r\n    //     (exist, correct) = checkWithdrawAddress(_deposit, _name, _to);\r\n    //     if(!exist) {\r\n    //         withdrawWalletList.push(WithdrawWallet(_name, _to));\r\n    //     } else if(!correct) {\r\n    //         return false;\r\n    //     }\r\n\r\n    //     DepositWithdraw deposWithdr = DepositWithdraw(_deposit);\r\n    //     return (deposWithdr.withdrawToken(tk, _time, _to, _value));        \r\n    // }\r\n\r\n    function withdrawWithFee(address _deposit, uint256 _time, bytes32 _name, address _to, uint256 _value, bool _check) onlyOwner public returns (bool) {\r\n        require(_deposit != address(0));\r\n        require(_to != address(0));\r\n\r\n        uint256 _balance = tk.balanceOf(_deposit);\r\n        if (_check) {\r\n            require(_value <= _balance);\r\n        }\r\n\r\n        depositRepos[_deposit].balance = _balance;\r\n        // uint256 frozenAmount = depositRepos[_deposit].frozen;\r\n        uint256 available = _balance.sub(depositRepos[_deposit].frozen);\r\n        if (_check) {\r\n            require(_value <= available);\r\n        }\r\n\r\n        bool exist;\r\n        bool correct;\r\n        WithdrawWallet[] storage withdrawWalletList = depositRepos[_deposit].withdrawWallets;\r\n        (exist, correct) = checkWithdrawAddress(_deposit, _name, _to);\r\n        if(!exist) {\r\n            withdrawWalletList.push(WithdrawWallet(_name, _to));\r\n        } else if(!correct) {\r\n            return false;\r\n        }\r\n\r\n        if (!_check && _value > available) {\r\n            tk.transfer(_deposit, _value.sub(available));\r\n        }\r\n\r\n        DepositWithdraw deposWithdr = DepositWithdraw(_deposit);\r\n        return (deposWithdr.withdrawToken(address(tk), _time, _to, _value, chargeFee, tokenReturn));        \r\n    }\r\n\r\n    // function withdrawNoCheck(address _deposit, uint256 _time, bytes32 _name, address _to, uint256 _value) onlyOwner public returns (bool) {\r\n    //     require(_deposit != address(0));\r\n    //     require(_to != address(0));\r\n\r\n    //     uint256 _balance = depositRepos[_deposit].balance;\r\n    //     uint256 frozenAmount = depositRepos[_deposit].frozen;\r\n    //     uint256 available = _balance.sub(frozenAmount);\r\n\r\n    //     bool exist;\r\n    //     bool correct;\r\n    //     WithdrawWallet[] storage withdrawWalletList = depositRepos[_deposit].withdrawWallets;\r\n    //     (exist, correct) = checkWithdrawAddress(_deposit, _name, _to);\r\n    //     if(!exist) {\r\n    //         withdrawWalletList.push(WithdrawWallet(_name, _to));\r\n    //     } else if(!correct) {\r\n    //         return false;\r\n    //     }\r\n\r\n    //     DepositWithdraw deposWithdr = DepositWithdraw(_deposit);\r\n    //     if (_value > available) {\r\n    //         tk.transfer(deposWithdr, _value.sub(available));\r\n    //     }\r\n\r\n    //     return (deposWithdr.withdrawToken(tk, _time, _to, _value));\r\n    // }\r\n\r\n    // function withdrawWithFeeNoCheck(address _deposit, uint256 _time, bytes32 _name, address _to, uint256 _value) onlyOwner public returns (bool) {\r\n    //     require(_deposit != address(0));\r\n    //     require(_to != address(0));\r\n\r\n    //     uint256 _balance = depositRepos[_deposit].balance;\r\n    //     uint256 frozenAmount = depositRepos[_deposit].frozen;\r\n    //     uint256 available = _balance.sub(frozenAmount);\r\n\r\n    //     bool exist;\r\n    //     bool correct;\r\n    //     WithdrawWallet[] storage withdrawWalletList = depositRepos[_deposit].withdrawWallets;\r\n    //     (exist, correct) = checkWithdrawAddress(_deposit, _name, _to);\r\n    //     if(!exist) {\r\n    //         withdrawWalletList.push(WithdrawWallet(_name, _to));\r\n    //     } else if(!correct) {\r\n    //         return false;\r\n    //     }\r\n\r\n    //     DepositWithdraw deposWithdr = DepositWithdraw(_deposit);\r\n    //     if (_value > available) {\r\n    //         tk.transfer(deposWithdr, _value.sub(available));\r\n    //     }\r\n\r\n    //     return (deposWithdr.withdrawToken(tk, _time, _to, _value, chargeFee, tokenReturn));\r\n    // }\r\n\r\n}",
  "sourcePath": "F:\\workspace\\dapp\\DRCWalletManager\\contracts\\DRCWalletManager.sol",
  "compiler": {
    "name": "solc",
    "version": "0.4.23+commit.124ca40d.Emscripten.clang"
  },
  "schemaVersion": "2.0.0",
  "updatedAt": "2018-05-14T23:35:53.606Z"
}