{
  "contractName": "DRCWalletManager",
  "abi": [
    {
      "constant": false,
      "inputs": [
        {
          "name": "_token",
          "type": "address"
        },
        {
          "name": "_to",
          "type": "address"
        },
        {
          "name": "_value",
          "type": "uint256"
        }
      ],
      "name": "withdrawToken",
      "outputs": [
        {
          "name": "",
          "type": "bool"
        }
      ],
      "payable": false,
      "stateMutability": "nonpayable",
      "type": "function"
    },
    {
      "constant": true,
      "inputs": [],
      "name": "tk",
      "outputs": [
        {
          "name": "",
          "type": "address"
        }
      ],
      "payable": false,
      "stateMutability": "view",
      "type": "function"
    },
    {
      "constant": false,
      "inputs": [],
      "name": "transferOwnershipBack",
      "outputs": [],
      "payable": false,
      "stateMutability": "nonpayable",
      "type": "function"
    },
    {
      "constant": false,
      "inputs": [],
      "name": "claimOwnership",
      "outputs": [],
      "payable": false,
      "stateMutability": "nonpayable",
      "type": "function"
    },
    {
      "constant": true,
      "inputs": [
        {
          "name": "",
          "type": "address"
        }
      ],
      "name": "walletDeposits",
      "outputs": [
        {
          "name": "",
          "type": "address"
        }
      ],
      "payable": false,
      "stateMutability": "view",
      "type": "function"
    },
    {
      "constant": false,
      "inputs": [
        {
          "name": "_contract",
          "type": "address"
        }
      ],
      "name": "bindContract",
      "outputs": [
        {
          "name": "",
          "type": "bool"
        }
      ],
      "payable": false,
      "stateMutability": "nonpayable",
      "type": "function"
    },
    {
      "constant": true,
      "inputs": [],
      "name": "owner",
      "outputs": [
        {
          "name": "",
          "type": "address"
        }
      ],
      "payable": false,
      "stateMutability": "view",
      "type": "function"
    },
    {
      "constant": true,
      "inputs": [],
      "name": "ownedContract",
      "outputs": [
        {
          "name": "",
          "type": "address"
        }
      ],
      "payable": false,
      "stateMutability": "view",
      "type": "function"
    },
    {
      "constant": false,
      "inputs": [
        {
          "name": "tokens",
          "type": "address[]"
        }
      ],
      "name": "destroy",
      "outputs": [],
      "payable": false,
      "stateMutability": "nonpayable",
      "type": "function"
    },
    {
      "constant": true,
      "inputs": [],
      "name": "params",
      "outputs": [
        {
          "name": "",
          "type": "address"
        }
      ],
      "payable": false,
      "stateMutability": "view",
      "type": "function"
    },
    {
      "constant": true,
      "inputs": [
        {
          "name": "",
          "type": "address"
        }
      ],
      "name": "frozenDeposits",
      "outputs": [
        {
          "name": "",
          "type": "bool"
        }
      ],
      "payable": false,
      "stateMutability": "view",
      "type": "function"
    },
    {
      "constant": true,
      "inputs": [],
      "name": "pendingOwner",
      "outputs": [
        {
          "name": "",
          "type": "address"
        }
      ],
      "payable": false,
      "stateMutability": "view",
      "type": "function"
    },
    {
      "constant": false,
      "inputs": [
        {
          "name": "_nextOwner",
          "type": "address"
        }
      ],
      "name": "changeOwnershipto",
      "outputs": [],
      "payable": false,
      "stateMutability": "nonpayable",
      "type": "function"
    },
    {
      "constant": false,
      "inputs": [
        {
          "name": "newOwner",
          "type": "address"
        }
      ],
      "name": "transferOwnership",
      "outputs": [],
      "payable": false,
      "stateMutability": "nonpayable",
      "type": "function"
    },
    {
      "constant": false,
      "inputs": [
        {
          "name": "_to",
          "type": "address"
        },
        {
          "name": "_amount",
          "type": "uint256"
        }
      ],
      "name": "withdraw",
      "outputs": [
        {
          "name": "",
          "type": "bool"
        }
      ],
      "payable": false,
      "stateMutability": "nonpayable",
      "type": "function"
    },
    {
      "payable": true,
      "stateMutability": "payable",
      "type": "fallback"
    },
    {
      "anonymous": false,
      "inputs": [
        {
          "indexed": true,
          "name": "_wallet",
          "type": "address"
        },
        {
          "indexed": false,
          "name": "_deposit",
          "type": "address"
        }
      ],
      "name": "CreateDepositAddress",
      "type": "event"
    },
    {
      "anonymous": false,
      "inputs": [
        {
          "indexed": true,
          "name": "_deposit",
          "type": "address"
        },
        {
          "indexed": false,
          "name": "_freeze",
          "type": "bool"
        },
        {
          "indexed": false,
          "name": "_value",
          "type": "uint256"
        }
      ],
      "name": "FrozenTokens",
      "type": "event"
    },
    {
      "anonymous": false,
      "inputs": [
        {
          "indexed": false,
          "name": "_from",
          "type": "address"
        },
        {
          "indexed": false,
          "name": "_value",
          "type": "uint256"
        }
      ],
      "name": "ReceiveEther",
      "type": "event"
    },
    {
      "anonymous": false,
      "inputs": [
        {
          "indexed": false,
          "name": "_to",
          "type": "address"
        },
        {
          "indexed": false,
          "name": "_value",
          "type": "uint256"
        }
      ],
      "name": "WithdrawEther",
      "type": "event"
    },
    {
      "anonymous": false,
      "inputs": [
        {
          "indexed": false,
          "name": "_token",
          "type": "address"
        },
        {
          "indexed": false,
          "name": "_to",
          "type": "address"
        },
        {
          "indexed": false,
          "name": "_value",
          "type": "uint256"
        }
      ],
      "name": "WithdrawToken",
      "type": "event"
    },
    {
      "anonymous": false,
      "inputs": [
        {
          "indexed": true,
          "name": "previousOwner",
          "type": "address"
        },
        {
          "indexed": true,
          "name": "newOwner",
          "type": "address"
        }
      ],
      "name": "OwnershipTransferred",
      "type": "event"
    },
    {
      "constant": false,
      "inputs": [
        {
          "name": "_token",
          "type": "address"
        },
        {
          "name": "_walletParams",
          "type": "address"
        }
      ],
      "name": "bindToken",
      "outputs": [
        {
          "name": "",
          "type": "bool"
        }
      ],
      "payable": false,
      "stateMutability": "nonpayable",
      "type": "function"
    },
    {
      "constant": false,
      "inputs": [
        {
          "name": "_wallet",
          "type": "address"
        }
      ],
      "name": "createDepositContract",
      "outputs": [
        {
          "name": "",
          "type": "address"
        }
      ],
      "payable": false,
      "stateMutability": "nonpayable",
      "type": "function"
    },
    {
      "constant": true,
      "inputs": [
        {
          "name": "_deposit",
          "type": "address"
        }
      ],
      "name": "getDepositInfo",
      "outputs": [
        {
          "name": "",
          "type": "uint256"
        },
        {
          "name": "",
          "type": "uint256"
        }
      ],
      "payable": false,
      "stateMutability": "view",
      "type": "function"
    },
    {
      "constant": true,
      "inputs": [
        {
          "name": "_deposit",
          "type": "address"
        }
      ],
      "name": "getDepositWithdrawCount",
      "outputs": [
        {
          "name": "",
          "type": "uint256"
        }
      ],
      "payable": false,
      "stateMutability": "view",
      "type": "function"
    },
    {
      "constant": true,
      "inputs": [
        {
          "name": "_deposit",
          "type": "address"
        },
        {
          "name": "_indices",
          "type": "uint256[]"
        }
      ],
      "name": "getDepositWithdrawList",
      "outputs": [
        {
          "name": "",
          "type": "bytes32[]"
        },
        {
          "name": "",
          "type": "address[]"
        }
      ],
      "payable": false,
      "stateMutability": "view",
      "type": "function"
    },
    {
      "constant": false,
      "inputs": [
        {
          "name": "_oldWallet",
          "type": "address"
        },
        {
          "name": "_newWallet",
          "type": "address"
        }
      ],
      "name": "changeDefaultWithdraw",
      "outputs": [
        {
          "name": "",
          "type": "bool"
        }
      ],
      "payable": false,
      "stateMutability": "nonpayable",
      "type": "function"
    },
    {
      "constant": false,
      "inputs": [
        {
          "name": "_deposit",
          "type": "address"
        },
        {
          "name": "_freeze",
          "type": "bool"
        },
        {
          "name": "_value",
          "type": "uint256"
        }
      ],
      "name": "freezeTokens",
      "outputs": [
        {
          "name": "",
          "type": "bool"
        }
      ],
      "payable": false,
      "stateMutability": "nonpayable",
      "type": "function"
    },
    {
      "constant": true,
      "inputs": [
        {
          "name": "_deposit",
          "type": "address"
        },
        {
          "name": "_name",
          "type": "bytes32"
        },
        {
          "name": "_to",
          "type": "address"
        }
      ],
      "name": "checkWithdrawAddress",
      "outputs": [
        {
          "name": "",
          "type": "bool"
        },
        {
          "name": "",
          "type": "bool"
        }
      ],
      "payable": false,
      "stateMutability": "view",
      "type": "function"
    },
    {
      "constant": false,
      "inputs": [
        {
          "name": "_deposit",
          "type": "address"
        },
        {
          "name": "_time",
          "type": "uint256"
        },
        {
          "name": "_name",
          "type": "bytes32"
        },
        {
          "name": "_to",
          "type": "address"
        },
        {
          "name": "_value",
          "type": "uint256"
        },
        {
          "name": "_check",
          "type": "bool"
        }
      ],
      "name": "withdrawWithFee",
      "outputs": [
        {
          "name": "",
          "type": "bool"
        }
      ],
      "payable": false,
      "stateMutability": "nonpayable",
      "type": "function"
    },
    {
      "constant": false,
      "inputs": [
        {
          "name": "_deposit",
          "type": "address"
        },
        {
          "name": "_time",
          "type": "uint256"
        },
        {
          "name": "_value",
          "type": "uint256"
        },
        {
          "name": "_check",
          "type": "bool"
        }
      ],
      "name": "withdrawWithFee",
      "outputs": [
        {
          "name": "",
          "type": "bool"
        }
      ],
      "payable": false,
      "stateMutability": "nonpayable",
      "type": "function"
    }
  ],
  "bytecode": "0x6080604052336000806101000a81548173ffffffffffffffffffffffffffffffffffffffff021916908373ffffffffffffffffffffffffffffffffffffffff160217905550615db0806100536000396000f300608060405260043610610149576000357c0100000000000000000000000000000000000000000000000000000000900463ffffffff16806301e33667146101b6578063196198fa1461023b57806321f408be1461029257806322e113a3146102e957806325f731c81461035a57806345629402146103715780634a738bea146103ec5780634e71e0c8146104955780635287ce12146104ac5780635682d43d1461050a57806379b6fead1461059e5780637df83cd0146106215780638157d4b5146107445780638da5cb5b1461079f578063aba9650e146107f6578063bc467a3e14610879578063c6786e5a146108d0578063c77bdfce14610936578063cff0ab96146109b1578063dd513e3c14610a08578063e30c397814610a63578063ede930c914610aba578063f23f2cbe14610afd578063f2fde38b14610b78578063f3fef3a314610bbb575b7ff32a9f77675fd5917534c7746608fd3e309eac68fbdcbf5925e24ca97a7043963334604051808373ffffffffffffffffffffffffffffffffffffffff1673ffffffffffffffffffffffffffffffffffffffff1681526020018281526020019250505060405180910390a1005b3480156101c257600080fd5b50610221600480360381019080803573ffffffffffffffffffffffffffffffffffffffff169060200190929190803573ffffffffffffffffffffffffffffffffffffffff16906020019092919080359060200190929190505050610c20565b604051808215151515815260200191505060405180910390f35b34801561024757600080fd5b5061027c600480360381019080803573ffffffffffffffffffffffffffffffffffffffff169060200190929190505050610e83565b6040518082815260200191505060405180910390f35b34801561029e57600080fd5b506102a7610f74565b604051808273ffffffffffffffffffffffffffffffffffffffff1673ffffffffffffffffffffffffffffffffffffffff16815260200191505060405180910390f35b3480156102f557600080fd5b50610340600480360381019080803573ffffffffffffffffffffffffffffffffffffffff16906020019092919080351515906020019092919080359060200190929190505050610f9a565b604051808215151515815260200191505060405180910390f35b34801561036657600080fd5b5061036f611282565b005b34801561037d57600080fd5b506103d2600480360381019080803573ffffffffffffffffffffffffffffffffffffffff169060200190929190803573ffffffffffffffffffffffffffffffffffffffff16906020019092919050505061145a565b604051808215151515815260200191505060405180910390f35b3480156103f857600080fd5b5061047b600480360381019080803573ffffffffffffffffffffffffffffffffffffffff169060200190929190803590602001909291908035600019169060200190929190803573ffffffffffffffffffffffffffffffffffffffff169060200190929190803590602001909291908035151590602001909291905050506116ed565b604051808215151515815260200191505060405180910390f35b3480156104a157600080fd5b506104aa61204f565b005b3480156104b857600080fd5b506104ed600480360381019080803573ffffffffffffffffffffffffffffffffffffffff1690602001909291905050506121ee565b604051808381526020018281526020019250505060405180910390f35b34801561051657600080fd5b50610579600480360381019080803573ffffffffffffffffffffffffffffffffffffffff1690602001909291908035600019169060200190929190803573ffffffffffffffffffffffffffffffffffffffff1690602001909291905050506123d7565b6040518083151515158152602001821515151581526020019250505060405180910390f35b3480156105aa57600080fd5b506105df600480360381019080803573ffffffffffffffffffffffffffffffffffffffff1690602001909291905050506125d1565b604051808273ffffffffffffffffffffffffffffffffffffffff1673ffffffffffffffffffffffffffffffffffffffff16815260200191505060405180910390f35b34801561062d57600080fd5b506106a5600480360381019080803573ffffffffffffffffffffffffffffffffffffffff16906020019092919080359060200190820180359060200190808060200260200160405190810160405280939291908181526020018383602002808284378201915050505050509192919290505050612604565b604051808060200180602001838103835285818151815260200191508051906020019060200280838360005b838110156106ec5780820151818401526020810190506106d1565b50505050905001838103825284818151815260200191508051906020019060200280838360005b8381101561072e578082015181840152602081019050610713565b5050505090500194505050505060405180910390f35b34801561075057600080fd5b50610785600480360381019080803573ffffffffffffffffffffffffffffffffffffffff169060200190929190505050612829565b604051808215151515815260200191505060405180910390f35b3480156107ab57600080fd5b506107b4612aab565b604051808273ffffffffffffffffffffffffffffffffffffffff1673ffffffffffffffffffffffffffffffffffffffff16815260200191505060405180910390f35b34801561080257600080fd5b50610837600480360381019080803573ffffffffffffffffffffffffffffffffffffffff169060200190929190505050612ad0565b604051808273ffffffffffffffffffffffffffffffffffffffff1673ffffffffffffffffffffffffffffffffffffffff16815260200191505060405180910390f35b34801561088557600080fd5b5061088e612e32565b604051808273ffffffffffffffffffffffffffffffffffffffff1673ffffffffffffffffffffffffffffffffffffffff16815260200191505060405180910390f35b3480156108dc57600080fd5b5061093460048036038101908080359060200190820180359060200190808060200260200160405190810160405280939291908181526020018383602002808284378201915050505050509192919290505050612e58565b005b34801561094257600080fd5b50610997600480360381019080803573ffffffffffffffffffffffffffffffffffffffff169060200190929190803573ffffffffffffffffffffffffffffffffffffffff1690602001909291905050506130ff565b604051808215151515815260200191505060405180910390f35b3480156109bd57600080fd5b506109c6613260565b604051808273ffffffffffffffffffffffffffffffffffffffff1673ffffffffffffffffffffffffffffffffffffffff16815260200191505060405180910390f35b348015610a1457600080fd5b50610a49600480360381019080803573ffffffffffffffffffffffffffffffffffffffff169060200190929190505050613286565b604051808215151515815260200191505060405180910390f35b348015610a6f57600080fd5b50610a786132a6565b604051808273ffffffffffffffffffffffffffffffffffffffff1673ffffffffffffffffffffffffffffffffffffffff16815260200191505060405180910390f35b348015610ac657600080fd5b50610afb600480360381019080803573ffffffffffffffffffffffffffffffffffffffff1690602001909291905050506132cc565b005b348015610b0957600080fd5b50610b5e600480360381019080803573ffffffffffffffffffffffffffffffffffffffff1690602001909291908035906020019092919080359060200190929190803515159060200190929190505050613483565b604051808215151515815260200191505060405180910390f35b348015610b8457600080fd5b50610bb9600480360381019080803573ffffffffffffffffffffffffffffffffffffffff16906020019092919050505061359e565b005b348015610bc757600080fd5b50610c06600480360381019080803573ffffffffffffffffffffffffffffffffffffffff1690602001909291908035906020019092919050505061363d565b604051808215151515815260200191505060405180910390f35b6000806000809054906101000a900473ffffffffffffffffffffffffffffffffffffffff1673ffffffffffffffffffffffffffffffffffffffff163373ffffffffffffffffffffffffffffffffffffffff16141515610c7e57600080fd5b600073ffffffffffffffffffffffffffffffffffffffff168473ffffffffffffffffffffffffffffffffffffffff1614151515610cba57600080fd5b600073ffffffffffffffffffffffffffffffffffffffff168573ffffffffffffffffffffffffffffffffffffffff1614151515610cf657600080fd5b8490508073ffffffffffffffffffffffffffffffffffffffff1663a9059cbb85856040518363ffffffff167c0100000000000000000000000000000000000000000000000000000000028152600401808373ffffffffffffffffffffffffffffffffffffffff1673ffffffffffffffffffffffffffffffffffffffff16815260200182815260200192505050602060405180830381600087803b158015610d9c57600080fd5b505af1158015610db0573d6000803e3d6000fd5b505050506040513d6020811015610dc657600080fd5b8101908080519060200190929190505050507f037238854fe57fbf51f09946f854fc3916fe83938d6521f09bd05463839f1304858585604051808473ffffffffffffffffffffffffffffffffffffffff1673ffffffffffffffffffffffffffffffffffffffff1681526020018373ffffffffffffffffffffffffffffffffffffffff1673ffffffffffffffffffffffffffffffffffffffff168152602001828152602001935050505060405180910390a160019150509392505050565b60008060008060009054906101000a900473ffffffffffffffffffffffffffffffffffffffff1673ffffffffffffffffffffffffffffffffffffffff163373ffffffffffffffffffffffffffffffffffffffff16141515610ee357600080fd5b600073ffffffffffffffffffffffffffffffffffffffff168473ffffffffffffffffffffffffffffffffffffffff1614151515610f1f57600080fd5b600460008573ffffffffffffffffffffffffffffffffffffffff1673ffffffffffffffffffffffffffffffffffffffff1681526020019081526020016000206001019150818054905090508092505050919050565b600760009054906101000a900473ffffffffffffffffffffffffffffffffffffffff1681565b60008060009054906101000a900473ffffffffffffffffffffffffffffffffffffffff1673ffffffffffffffffffffffffffffffffffffffff163373ffffffffffffffffffffffffffffffffffffffff16141515610ff757600080fd5b600073ffffffffffffffffffffffffffffffffffffffff168473ffffffffffffffffffffffffffffffffffffffff161415151561103357600080fd5b82600660008673ffffffffffffffffffffffffffffffffffffffff1673ffffffffffffffffffffffffffffffffffffffff16815260200190815260200160002060006101000a81548160ff0219169083151502179055508215611130576110e582600460008773ffffffffffffffffffffffffffffffffffffffff1673ffffffffffffffffffffffffffffffffffffffff1681526020019081526020016000206000015461379290919063ffffffff16565b600460008673ffffffffffffffffffffffffffffffffffffffff1673ffffffffffffffffffffffffffffffffffffffff1681526020019081526020016000206000018190555061121d565b600460008573ffffffffffffffffffffffffffffffffffffffff1673ffffffffffffffffffffffffffffffffffffffff16815260200190815260200160002060000154821115151561118157600080fd5b6111d682600460008773ffffffffffffffffffffffffffffffffffffffff1673ffffffffffffffffffffffffffffffffffffffff168152602001908152602001600020600001546137ae90919063ffffffff16565b600460008673ffffffffffffffffffffffffffffffffffffffff1673ffffffffffffffffffffffffffffffffffffffff168152602001908152602001600020600001819055505b8373ffffffffffffffffffffffffffffffffffffffff167ffd984c05c771ebc127f8483a21238f2b87610feb88410280c0f435d02ae0f439848460405180831515151581526020018281526020019250505060405180910390a2600190509392505050565b6000809054906101000a900473ffffffffffffffffffffffffffffffffffffffff1673ffffffffffffffffffffffffffffffffffffffff163373ffffffffffffffffffffffffffffffffffffffff161415156112dd57600080fd5b600260009054906101000a900473ffffffffffffffffffffffffffffffffffffffff1673ffffffffffffffffffffffffffffffffffffffff1663f2fde38b600360009054906101000a900473ffffffffffffffffffffffffffffffffffffffff166040518263ffffffff167c0100000000000000000000000000000000000000000000000000000000028152600401808273ffffffffffffffffffffffffffffffffffffffff1673ffffffffffffffffffffffffffffffffffffffff168152602001915050600060405180830381600087803b1580156113bc57600080fd5b505af11580156113d0573d6000803e3d6000fd5b505050506000600260006101000a81548173ffffffffffffffffffffffffffffffffffffffff021916908373ffffffffffffffffffffffffffffffffffffffff1602179055506000600360006101000a81548173ffffffffffffffffffffffffffffffffffffffff021916908373ffffffffffffffffffffffffffffffffffffffff160217905550565b6000806000806000809054906101000a900473ffffffffffffffffffffffffffffffffffffffff1673ffffffffffffffffffffffffffffffffffffffff163373ffffffffffffffffffffffffffffffffffffffff161415156114bb57600080fd5b600073ffffffffffffffffffffffffffffffffffffffff168573ffffffffffffffffffffffffffffffffffffffff16141515156114f757600080fd5b600560008773ffffffffffffffffffffffffffffffffffffffff1673ffffffffffffffffffffffffffffffffffffffff16815260200190815260200160002060009054906101000a900473ffffffffffffffffffffffffffffffffffffffff1692508291508173ffffffffffffffffffffffffffffffffffffffff16639373f432866040518263ffffffff167c0100000000000000000000000000000000000000000000000000000000028152600401808273ffffffffffffffffffffffffffffffffffffffff1673ffffffffffffffffffffffffffffffffffffffff168152602001915050602060405180830381600087803b1580156115f757600080fd5b505af115801561160b573d6000803e3d6000fd5b505050506040513d602081101561162157600080fd5b8101908080519060200190929190505050151561163d57600080fd5b600460008473ffffffffffffffffffffffffffffffffffffffff1673ffffffffffffffffffffffffffffffffffffffff16815260200190815260200160002060010190508481600081548110151561169157fe5b906000526020600020906002020160010160006101000a81548173ffffffffffffffffffffffffffffffffffffffff021916908373ffffffffffffffffffffffffffffffffffffffff1602179055506001935050505092915050565b60008060008060008060008060009054906101000a900473ffffffffffffffffffffffffffffffffffffffff1673ffffffffffffffffffffffffffffffffffffffff163373ffffffffffffffffffffffffffffffffffffffff1614151561175357600080fd5b600073ffffffffffffffffffffffffffffffffffffffff168d73ffffffffffffffffffffffffffffffffffffffff161415151561178f57600080fd5b600073ffffffffffffffffffffffffffffffffffffffff168a73ffffffffffffffffffffffffffffffffffffffff16141515156117cb57600080fd5b600760009054906101000a900473ffffffffffffffffffffffffffffffffffffffff1673ffffffffffffffffffffffffffffffffffffffff166370a082318e6040518263ffffffff167c0100000000000000000000000000000000000000000000000000000000028152600401808273ffffffffffffffffffffffffffffffffffffffff1673ffffffffffffffffffffffffffffffffffffffff168152602001915050602060405180830381600087803b15801561188857600080fd5b505af115801561189c573d6000803e3d6000fd5b505050506040513d60208110156118b257600080fd5b8101908080519060200190929190505050955087156118db578589111515156118da57600080fd5b5b611930600460008f73ffffffffffffffffffffffffffffffffffffffff1673ffffffffffffffffffffffffffffffffffffffff16815260200190815260200160002060000154876137ae90919063ffffffff16565b945087156119485784891115151561194757600080fd5b5b600460008e73ffffffffffffffffffffffffffffffffffffffff1673ffffffffffffffffffffffffffffffffffffffff16815260200190815260200160002060010191506119978d8c8c6123d7565b8094508195505050831515611a60578160408051908101604052808d6000191681526020018c73ffffffffffffffffffffffffffffffffffffffff16815250908060018154018082558091505090600182039060005260206000209060020201600090919290919091506000820151816000019060001916905560208201518160010160006101000a81548173ffffffffffffffffffffffffffffffffffffffff021916908373ffffffffffffffffffffffffffffffffffffffff160217905550505050611a71565b821515611a70576000965061203f565b5b8c905084891115611cee578073ffffffffffffffffffffffffffffffffffffffff166368c31649600860009054906101000a900473ffffffffffffffffffffffffffffffffffffffff168b8f6040518463ffffffff167c0100000000000000000000000000000000000000000000000000000000028152600401808473ffffffffffffffffffffffffffffffffffffffff1673ffffffffffffffffffffffffffffffffffffffff1681526020018381526020018281526020019350505050602060405180830381600087803b158015611b4957600080fd5b505af1158015611b5d573d6000803e3d6000fd5b505050506040513d6020811015611b7357600080fd5b81019080805190602001909291905050501515611b8f57600080fd5b8073ffffffffffffffffffffffffffffffffffffffff166301e33667600760009054906101000a900473ffffffffffffffffffffffffffffffffffffffff1630886040518463ffffffff167c0100000000000000000000000000000000000000000000000000000000028152600401808473ffffffffffffffffffffffffffffffffffffffff1673ffffffffffffffffffffffffffffffffffffffff1681526020018373ffffffffffffffffffffffffffffffffffffffff1673ffffffffffffffffffffffffffffffffffffffff1681526020018281526020019350505050602060405180830381600087803b158015611c8857600080fd5b505af1158015611c9c573d6000803e3d6000fd5b505050506040513d6020811015611cb257600080fd5b81019080805190602001909291905050501515611cce57600080fd5b611cda818d8c8c6137c7565b1515611ce557600080fd5b6001965061203f565b8073ffffffffffffffffffffffffffffffffffffffff166366013bdd600760009054906101000a900473ffffffffffffffffffffffffffffffffffffffff16600860009054906101000a900473ffffffffffffffffffffffffffffffffffffffff168f8e8e600860009054906101000a900473ffffffffffffffffffffffffffffffffffffffff1673ffffffffffffffffffffffffffffffffffffffff1663744c8c096040518163ffffffff167c0100000000000000000000000000000000000000000000000000000000028152600401602060405180830381600087803b158015611dd957600080fd5b505af1158015611ded573d6000803e3d6000fd5b505050506040513d6020811015611e0357600080fd5b8101908080519060200190929190505050600860009054906101000a900473ffffffffffffffffffffffffffffffffffffffff1673ffffffffffffffffffffffffffffffffffffffff1663d16edc156040518163ffffffff167c0100000000000000000000000000000000000000000000000000000000028152600401602060405180830381600087803b158015611e9a57600080fd5b505af1158015611eae573d6000803e3d6000fd5b505050506040513d6020811015611ec457600080fd5b81019080805190602001909291905050506040518863ffffffff167c0100000000000000000000000000000000000000000000000000000000028152600401808873ffffffffffffffffffffffffffffffffffffffff1673ffffffffffffffffffffffffffffffffffffffff1681526020018773ffffffffffffffffffffffffffffffffffffffff1673ffffffffffffffffffffffffffffffffffffffff1681526020018681526020018573ffffffffffffffffffffffffffffffffffffffff1673ffffffffffffffffffffffffffffffffffffffff1681526020018481526020018381526020018273ffffffffffffffffffffffffffffffffffffffff1673ffffffffffffffffffffffffffffffffffffffff168152602001975050505050505050602060405180830381600087803b15801561200157600080fd5b505af1158015612015573d6000803e3d6000fd5b505050506040513d602081101561202b57600080fd5b810190808051906020019092919050505096505b5050505050509695505050505050565b600160009054906101000a900473ffffffffffffffffffffffffffffffffffffffff1673ffffffffffffffffffffffffffffffffffffffff163373ffffffffffffffffffffffffffffffffffffffff161415156120ab57600080fd5b600160009054906101000a900473ffffffffffffffffffffffffffffffffffffffff1673ffffffffffffffffffffffffffffffffffffffff166000809054906101000a900473ffffffffffffffffffffffffffffffffffffffff1673ffffffffffffffffffffffffffffffffffffffff167f8be0079c531659141344cd1fd0a4f28419497f9722a3daafe3b4186f6b6457e060405160405180910390a3600160009054906101000a900473ffffffffffffffffffffffffffffffffffffffff166000806101000a81548173ffffffffffffffffffffffffffffffffffffffff021916908373ffffffffffffffffffffffffffffffffffffffff1602179055506000600160006101000a81548173ffffffffffffffffffffffffffffffffffffffff021916908373ffffffffffffffffffffffffffffffffffffffff160217905550565b6000806000806000809054906101000a900473ffffffffffffffffffffffffffffffffffffffff1673ffffffffffffffffffffffffffffffffffffffff163373ffffffffffffffffffffffffffffffffffffffff1614151561224f57600080fd5b600073ffffffffffffffffffffffffffffffffffffffff168573ffffffffffffffffffffffffffffffffffffffff161415151561228b57600080fd5b600760009054906101000a900473ffffffffffffffffffffffffffffffffffffffff1673ffffffffffffffffffffffffffffffffffffffff166370a08231866040518263ffffffff167c0100000000000000000000000000000000000000000000000000000000028152600401808273ffffffffffffffffffffffffffffffffffffffff1673ffffffffffffffffffffffffffffffffffffffff168152602001915050602060405180830381600087803b15801561234857600080fd5b505af115801561235c573d6000803e3d6000fd5b505050506040513d602081101561237257600080fd5b81019080805190602001909291905050509150600460008673ffffffffffffffffffffffffffffffffffffffff1673ffffffffffffffffffffffffffffffffffffffff1681526020019081526020016000206000015490508181935093505050915091565b6000806000806123e5613c93565b600460008973ffffffffffffffffffffffffffffffffffffffff1673ffffffffffffffffffffffffffffffffffffffff168152602001908152602001600020600101805490509250600091505b828210156125bd57600460008973ffffffffffffffffffffffffffffffffffffffff1673ffffffffffffffffffffffffffffffffffffffff1681526020019081526020016000206001018281548110151561248957fe5b90600052602060002090600202016040805190810160405290816000820154600019166000191681526020016001820160009054906101000a900473ffffffffffffffffffffffffffffffffffffffff1673ffffffffffffffffffffffffffffffffffffffff1673ffffffffffffffffffffffffffffffffffffffff168152505090508060000151600019168760001916141561255e576001816020015173ffffffffffffffffffffffffffffffffffffffff168773ffffffffffffffffffffffffffffffffffffffff1614945094506125c6565b806020015173ffffffffffffffffffffffffffffffffffffffff168673ffffffffffffffffffffffffffffffffffffffff1614156125a257600180945094506125c6565b6125b660018361379290919063ffffffff16565b9150612432565b60006001945094505b505050935093915050565b60056020528060005260406000206000915054906101000a900473ffffffffffffffffffffffffffffffffffffffff1681565b6060806060806000806000809054906101000a900473ffffffffffffffffffffffffffffffffffffffff1673ffffffffffffffffffffffffffffffffffffffff163373ffffffffffffffffffffffffffffffffffffffff1614151561266857600080fd5b600087511415151561267957600080fd5b86516040519080825280602002602001820160405280156126a95781602001602082028038833980820191505090505b50935086516040519080825280602002602001820160405280156126dc5781602001602082028038833980820191505090505b509250600091505b865182101561281857600460008973ffffffffffffffffffffffffffffffffffffffff1673ffffffffffffffffffffffffffffffffffffffff168152602001908152602001600020600101878381518110151561273d57fe5b9060200190602002015181548110151561275357fe5b906000526020600020906002020190508060000154848381518110151561277657fe5b9060200190602002019060001916908160001916815250508060010160009054906101000a900473ffffffffffffffffffffffffffffffffffffffff1683838151811015156127c157fe5b9060200190602002019073ffffffffffffffffffffffffffffffffffffffff16908173ffffffffffffffffffffffffffffffffffffffff168152505061281160018361379290919063ffffffff16565b91506126e4565b838395509550505050509250929050565b60008060009054906101000a900473ffffffffffffffffffffffffffffffffffffffff1673ffffffffffffffffffffffffffffffffffffffff163373ffffffffffffffffffffffffffffffffffffffff1614151561288657600080fd5b600073ffffffffffffffffffffffffffffffffffffffff168273ffffffffffffffffffffffffffffffffffffffff16141515156128c257600080fd5b81600260006101000a81548173ffffffffffffffffffffffffffffffffffffffff021916908373ffffffffffffffffffffffffffffffffffffffff160217905550600260009054906101000a900473ffffffffffffffffffffffffffffffffffffffff1673ffffffffffffffffffffffffffffffffffffffff16638da5cb5b6040518163ffffffff167c0100000000000000000000000000000000000000000000000000000000028152600401602060405180830381600087803b15801561298957600080fd5b505af115801561299d573d6000803e3d6000fd5b505050506040513d60208110156129b357600080fd5b8101908080519060200190929190505050600360006101000a81548173ffffffffffffffffffffffffffffffffffffffff021916908373ffffffffffffffffffffffffffffffffffffffff160217905550600260009054906101000a900473ffffffffffffffffffffffffffffffffffffffff1673ffffffffffffffffffffffffffffffffffffffff16634e71e0c86040518163ffffffff167c0100000000000000000000000000000000000000000000000000000000028152600401600060405180830381600087803b158015612a8a57600080fd5b505af1158015612a9e573d6000803e3d6000fd5b5050505060019050919050565b6000809054906101000a900473ffffffffffffffffffffffffffffffffffffffff1681565b6000806000806000809054906101000a900473ffffffffffffffffffffffffffffffffffffffff1673ffffffffffffffffffffffffffffffffffffffff163373ffffffffffffffffffffffffffffffffffffffff16141515612b3157600080fd5b600073ffffffffffffffffffffffffffffffffffffffff168573ffffffffffffffffffffffffffffffffffffffff1614151515612b6d57600080fd5b84612b76613cc6565b808273ffffffffffffffffffffffffffffffffffffffff1673ffffffffffffffffffffffffffffffffffffffff168152602001915050604051809103906000f080158015612bc8573d6000803e3d6000fd5b50925082915081600560008773ffffffffffffffffffffffffffffffffffffffff1673ffffffffffffffffffffffffffffffffffffffff16815260200190815260200160002060006101000a81548173ffffffffffffffffffffffffffffffffffffffff021916908373ffffffffffffffffffffffffffffffffffffffff160217905550600460008373ffffffffffffffffffffffffffffffffffffffff1673ffffffffffffffffffffffffffffffffffffffff16815260200190815260200160002060010190508060408051908101604052807f64656661756c742077616c6c65740000000000000000000000000000000000006000191681526020018773ffffffffffffffffffffffffffffffffffffffff16815250908060018154018082558091505090600182039060005260206000209060020201600090919290919091506000820151816000019060001916905560208201518160010160006101000a81548173ffffffffffffffffffffffffffffffffffffffff021916908373ffffffffffffffffffffffffffffffffffffffff1602179055505050506000600460008473ffffffffffffffffffffffffffffffffffffffff1673ffffffffffffffffffffffffffffffffffffffff168152602001908152602001600020600001819055508473ffffffffffffffffffffffffffffffffffffffff167f55c48b5893b218bfd1f85d28d11d185c7ec0f376933dbb0a09db48711c120e2284604051808273ffffffffffffffffffffffffffffffffffffffff1673ffffffffffffffffffffffffffffffffffffffff16815260200191505060405180910390a2829350505050919050565b600260009054906101000a900473ffffffffffffffffffffffffffffffffffffffff1681565b60008060008060009054906101000a900473ffffffffffffffffffffffffffffffffffffffff1673ffffffffffffffffffffffffffffffffffffffff163373ffffffffffffffffffffffffffffffffffffffff16141515612eb857600080fd5b600092505b83518310156130c5578383815181101515612ed457fe5b9060200190602002015191508173ffffffffffffffffffffffffffffffffffffffff166370a08231306040518263ffffffff167c0100000000000000000000000000000000000000000000000000000000028152600401808273ffffffffffffffffffffffffffffffffffffffff1673ffffffffffffffffffffffffffffffffffffffff168152602001915050602060405180830381600087803b158015612f7b57600080fd5b505af1158015612f8f573d6000803e3d6000fd5b505050506040513d6020811015612fa557600080fd5b810190808051906020019092919050505090508173ffffffffffffffffffffffffffffffffffffffff1663a9059cbb6000809054906101000a900473ffffffffffffffffffffffffffffffffffffffff16836040518363ffffffff167c0100000000000000000000000000000000000000000000000000000000028152600401808373ffffffffffffffffffffffffffffffffffffffff1673ffffffffffffffffffffffffffffffffffffffff16815260200182815260200192505050602060405180830381600087803b15801561307c57600080fd5b505af1158015613090573d6000803e3d6000fd5b505050506040513d60208110156130a657600080fd5b8101908080519060200190929190505050508280600101935050612ebd565b6000809054906101000a900473ffffffffffffffffffffffffffffffffffffffff1673ffffffffffffffffffffffffffffffffffffffff16ff5b60008060009054906101000a900473ffffffffffffffffffffffffffffffffffffffff1673ffffffffffffffffffffffffffffffffffffffff163373ffffffffffffffffffffffffffffffffffffffff1614151561315c57600080fd5b600073ffffffffffffffffffffffffffffffffffffffff168373ffffffffffffffffffffffffffffffffffffffff161415151561319857600080fd5b600073ffffffffffffffffffffffffffffffffffffffff168273ffffffffffffffffffffffffffffffffffffffff16141515156131d457600080fd5b82600760006101000a81548173ffffffffffffffffffffffffffffffffffffffff021916908373ffffffffffffffffffffffffffffffffffffffff16021790555081600860006101000a81548173ffffffffffffffffffffffffffffffffffffffff021916908373ffffffffffffffffffffffffffffffffffffffff1602179055506001905092915050565b600860009054906101000a900473ffffffffffffffffffffffffffffffffffffffff1681565b60066020528060005260406000206000915054906101000a900460ff1681565b600160009054906101000a900473ffffffffffffffffffffffffffffffffffffffff1681565b6000809054906101000a900473ffffffffffffffffffffffffffffffffffffffff1673ffffffffffffffffffffffffffffffffffffffff163373ffffffffffffffffffffffffffffffffffffffff1614151561332757600080fd5b600260009054906101000a900473ffffffffffffffffffffffffffffffffffffffff1673ffffffffffffffffffffffffffffffffffffffff1663f2fde38b826040518263ffffffff167c0100000000000000000000000000000000000000000000000000000000028152600401808273ffffffffffffffffffffffffffffffffffffffff1673ffffffffffffffffffffffffffffffffffffffff168152602001915050600060405180830381600087803b1580156133e457600080fd5b505af11580156133f8573d6000803e3d6000fd5b505050506000600260006101000a81548173ffffffffffffffffffffffffffffffffffffffff021916908373ffffffffffffffffffffffffffffffffffffffff1602179055506000600360006101000a81548173ffffffffffffffffffffffffffffffffffffffff021916908373ffffffffffffffffffffffffffffffffffffffff16021790555050565b6000806000809054906101000a900473ffffffffffffffffffffffffffffffffffffffff1673ffffffffffffffffffffffffffffffffffffffff163373ffffffffffffffffffffffffffffffffffffffff161415156134e157600080fd5b600460008773ffffffffffffffffffffffffffffffffffffffff1673ffffffffffffffffffffffffffffffffffffffff1681526020019081526020016000206001019050613593868683600081548110151561353957fe5b90600052602060002090600202016000015484600081548110151561355a57fe5b906000526020600020906002020160010160009054906101000a900473ffffffffffffffffffffffffffffffffffffffff1688886116ed565b915050949350505050565b6000809054906101000a900473ffffffffffffffffffffffffffffffffffffffff1673ffffffffffffffffffffffffffffffffffffffff163373ffffffffffffffffffffffffffffffffffffffff161415156135f957600080fd5b80600160006101000a81548173ffffffffffffffffffffffffffffffffffffffff021916908373ffffffffffffffffffffffffffffffffffffffff16021790555050565b60008060009054906101000a900473ffffffffffffffffffffffffffffffffffffffff1673ffffffffffffffffffffffffffffffffffffffff163373ffffffffffffffffffffffffffffffffffffffff1614151561369a57600080fd5b600073ffffffffffffffffffffffffffffffffffffffff168373ffffffffffffffffffffffffffffffffffffffff16141515156136d657600080fd5b8273ffffffffffffffffffffffffffffffffffffffff166108fc839081150290604051600060405180830381858888f1935050505015801561371c573d6000803e3d6000fd5b507fdb35132c111efe920cede025e819975671cfd1b8fcc1174762c8670c4e94c2118383604051808373ffffffffffffffffffffffffffffffffffffffff1673ffffffffffffffffffffffffffffffffffffffff1681526020018281526020019250505060405180910390a16001905092915050565b600081830190508281101515156137a557fe5b80905092915050565b60008282111515156137bc57fe5b818303905092915050565b600080600080600860009054906101000a900473ffffffffffffffffffffffffffffffffffffffff1673ffffffffffffffffffffffffffffffffffffffff1663744c8c096040518163ffffffff167c0100000000000000000000000000000000000000000000000000000000028152600401602060405180830381600087803b15801561385357600080fd5b505af1158015613867573d6000803e3d6000fd5b505050506040513d602081101561387d57600080fd5b810190808051906020019092919050505092506138a383866137ae90919063ffffffff16565b9150600860009054906101000a900473ffffffffffffffffffffffffffffffffffffffff1673ffffffffffffffffffffffffffffffffffffffff1663d16edc156040518163ffffffff167c0100000000000000000000000000000000000000000000000000000000028152600401602060405180830381600087803b15801561392b57600080fd5b505af115801561393f573d6000803e3d6000fd5b505050506040513d602081101561395557600080fd5b81019080805190602001909291905050509050600073ffffffffffffffffffffffffffffffffffffffff168173ffffffffffffffffffffffffffffffffffffffff16141580156139a55750600083115b15613ab657600760009054906101000a900473ffffffffffffffffffffffffffffffffffffffff1673ffffffffffffffffffffffffffffffffffffffff1663a9059cbb82856040518363ffffffff167c0100000000000000000000000000000000000000000000000000000000028152600401808373ffffffffffffffffffffffffffffffffffffffff1673ffffffffffffffffffffffffffffffffffffffff16815260200182815260200192505050602060405180830381600087803b158015613a6f57600080fd5b505af1158015613a83573d6000803e3d6000fd5b505050506040513d6020811015613a9957600080fd5b81019080805190602001909291905050501515613ab557600080fd5b5b600760009054906101000a900473ffffffffffffffffffffffffffffffffffffffff1673ffffffffffffffffffffffffffffffffffffffff1663a9059cbb87846040518363ffffffff167c0100000000000000000000000000000000000000000000000000000000028152600401808373ffffffffffffffffffffffffffffffffffffffff1673ffffffffffffffffffffffffffffffffffffffff16815260200182815260200192505050602060405180830381600087803b158015613b7b57600080fd5b505af1158015613b8f573d6000803e3d6000fd5b505050506040513d6020811015613ba557600080fd5b81019080805190602001909291905050501515613bc157600080fd5b8773ffffffffffffffffffffffffffffffffffffffff1663ab40340a8888856040518463ffffffff167c0100000000000000000000000000000000000000000000000000000000028152600401808481526020018373ffffffffffffffffffffffffffffffffffffffff1673ffffffffffffffffffffffffffffffffffffffff1681526020018281526020019350505050600060405180830381600087803b158015613c6c57600080fd5b505af1158015613c80573d6000803e3d6000fd5b5050505060019350505050949350505050565b604080519081016040528060008019168152602001600073ffffffffffffffffffffffffffffffffffffffff1681525090565b6040516120ad8062003cd8833901905600608060405234801561001057600080fd5b506040516020806120ad83398101806040528101908080519060200190929190505050336000806101000a81548173ffffffffffffffffffffffffffffffffffffffff021916908373ffffffffffffffffffffffffffffffffffffffff160217905550600073ffffffffffffffffffffffffffffffffffffffff168173ffffffffffffffffffffffffffffffffffffffff16141515156100af57600080fd5b80600a60006101000a81548173ffffffffffffffffffffffffffffffffffffffff021916908373ffffffffffffffffffffffffffffffffffffffff16021790555050611fad806101006000396000f3006080604052600436106100f0576000357c0100000000000000000000000000000000000000000000000000000000900463ffffffff168062226eb51461015d57806301e33667146101885780634e71e0c81461020d57806366013bdd1461022457806368c31649146102fd57806374cd5c0b1461036c5780638da5cb5b146103e75780638f4ffcb11461043e5780639373f432146104f15780639bdd070d1461054c578063a901199014610605578063ab40340a14610680578063bfe370d9146106d7578063c5a885591461075c578063e30c397814610787578063f2fde38b146107de578063f3fef3a314610821575b7ff32a9f77675fd5917534c7746608fd3e309eac68fbdcbf5925e24ca97a7043963334604051808373ffffffffffffffffffffffffffffffffffffffff1673ffffffffffffffffffffffffffffffffffffffff1681526020018281526020019250505060405180910390a1005b34801561016957600080fd5b50610172610886565b6040518082815260200191505060405180910390f35b34801561019457600080fd5b506101f3600480360381019080803573ffffffffffffffffffffffffffffffffffffffff169060200190929190803573ffffffffffffffffffffffffffffffffffffffff16906020019092919080359060200190929190505050610893565b604051808215151515815260200191505060405180910390f35b34801561021957600080fd5b50610222610af6565b005b34801561023057600080fd5b506102e3600480360381019080803573ffffffffffffffffffffffffffffffffffffffff169060200190929190803573ffffffffffffffffffffffffffffffffffffffff16906020019092919080359060200190929190803573ffffffffffffffffffffffffffffffffffffffff1690602001909291908035906020019092919080359060200190929190803573ffffffffffffffffffffffffffffffffffffffff169060200190929190505050610c95565b604051808215151515815260200191505060405180910390f35b34801561030957600080fd5b50610352600480360381019080803573ffffffffffffffffffffffffffffffffffffffff1690602001909291908035906020019092919080359060200190929190505050611079565b604051808215151515815260200191505060405180910390f35b34801561037857600080fd5b506103976004803603810190808035906020019092919050505061151c565b604051808481526020018373ffffffffffffffffffffffffffffffffffffffff1673ffffffffffffffffffffffffffffffffffffffff168152602001828152602001935050505060405180910390f35b3480156103f357600080fd5b506103fc6115c4565b604051808273ffffffffffffffffffffffffffffffffffffffff1673ffffffffffffffffffffffffffffffffffffffff16815260200191505060405180910390f35b34801561044a57600080fd5b506104ef600480360381019080803573ffffffffffffffffffffffffffffffffffffffff16906020019092919080359060200190929190803573ffffffffffffffffffffffffffffffffffffffff169060200190929190803590602001908201803590602001908080601f01602080910402602001604051908101604052809392919081815260200183838082843782019150505050505091929192905050506115e9565b005b3480156104fd57600080fd5b50610532600480360381019080803573ffffffffffffffffffffffffffffffffffffffff1690602001909291905050506119bf565b604051808215151515815260200191505060405180910390f35b34801561055857600080fd5b506105eb600480360381019080803573ffffffffffffffffffffffffffffffffffffffff169060200190929190803573ffffffffffffffffffffffffffffffffffffffff169060200190929190803590602001909291908035906020019092919080359060200190929190803573ffffffffffffffffffffffffffffffffffffffff169060200190929190505050611aa2565b604051808215151515815260200191505060405180910390f35b34801561061157600080fd5b5061063060048036038101908080359060200190929190505050611b3c565b604051808481526020018373ffffffffffffffffffffffffffffffffffffffff1673ffffffffffffffffffffffffffffffffffffffff168152602001828152602001935050505060405180910390f35b34801561068c57600080fd5b506106d560048036038101908080359060200190929190803573ffffffffffffffffffffffffffffffffffffffff16906020019092919080359060200190929190505050611be4565b005b3480156106e357600080fd5b5061073e600480360381019080803590602001908201803590602001908080601f0160208091040260200160405190810160405280939291908181526020018383808284378201915050505050509192919290505050611d01565b60405180826000191660001916815260200191505060405180910390f35b34801561076857600080fd5b50610771611d0f565b6040518082815260200191505060405180910390f35b34801561079357600080fd5b5061079c611d1c565b604051808273ffffffffffffffffffffffffffffffffffffffff1673ffffffffffffffffffffffffffffffffffffffff16815260200191505060405180910390f35b3480156107ea57600080fd5b5061081f600480360381019080803573ffffffffffffffffffffffffffffffffffffffff169060200190929190505050611d42565b005b34801561082d57600080fd5b5061086c600480360381019080803573ffffffffffffffffffffffffffffffffffffffff16906020019092919080359060200190929190505050611de1565b604051808215151515815260200191505060405180910390f35b6000600280549050905090565b6000806000809054906101000a900473ffffffffffffffffffffffffffffffffffffffff1673ffffffffffffffffffffffffffffffffffffffff163373ffffffffffffffffffffffffffffffffffffffff161415156108f157600080fd5b600073ffffffffffffffffffffffffffffffffffffffff168473ffffffffffffffffffffffffffffffffffffffff161415151561092d57600080fd5b600073ffffffffffffffffffffffffffffffffffffffff168573ffffffffffffffffffffffffffffffffffffffff161415151561096957600080fd5b8490508073ffffffffffffffffffffffffffffffffffffffff1663a9059cbb85856040518363ffffffff167c0100000000000000000000000000000000000000000000000000000000028152600401808373ffffffffffffffffffffffffffffffffffffffff1673ffffffffffffffffffffffffffffffffffffffff16815260200182815260200192505050602060405180830381600087803b158015610a0f57600080fd5b505af1158015610a23573d6000803e3d6000fd5b505050506040513d6020811015610a3957600080fd5b8101908080519060200190929190505050507f037238854fe57fbf51f09946f854fc3916fe83938d6521f09bd05463839f1304858585604051808473ffffffffffffffffffffffffffffffffffffffff1673ffffffffffffffffffffffffffffffffffffffff1681526020018373ffffffffffffffffffffffffffffffffffffffff1673ffffffffffffffffffffffffffffffffffffffff168152602001828152602001935050505060405180910390a160019150509392505050565b600160009054906101000a900473ffffffffffffffffffffffffffffffffffffffff1673ffffffffffffffffffffffffffffffffffffffff163373ffffffffffffffffffffffffffffffffffffffff16141515610b5257600080fd5b600160009054906101000a900473ffffffffffffffffffffffffffffffffffffffff1673ffffffffffffffffffffffffffffffffffffffff166000809054906101000a900473ffffffffffffffffffffffffffffffffffffffff1673ffffffffffffffffffffffffffffffffffffffff167f8be0079c531659141344cd1fd0a4f28419497f9722a3daafe3b4186f6b6457e060405160405180910390a3600160009054906101000a900473ffffffffffffffffffffffffffffffffffffffff166000806101000a81548173ffffffffffffffffffffffffffffffffffffffff021916908373ffffffffffffffffffffffffffffffffffffffff1602179055506000600160006101000a81548173ffffffffffffffffffffffffffffffffffffffff021916908373ffffffffffffffffffffffffffffffffffffffff160217905550565b60008060008060009054906101000a900473ffffffffffffffffffffffffffffffffffffffff1673ffffffffffffffffffffffffffffffffffffffff163373ffffffffffffffffffffffffffffffffffffffff16141515610cf557600080fd5b600073ffffffffffffffffffffffffffffffffffffffff168773ffffffffffffffffffffffffffffffffffffffff1614151515610d3157600080fd5b600073ffffffffffffffffffffffffffffffffffffffff168a73ffffffffffffffffffffffffffffffffffffffff1614151515610d6d57600080fd5b8486111515610d7b57600080fd5b610d8689878a611079565b1515610d9157600080fd5b899150610da78587611f3690919063ffffffff16565b90508173ffffffffffffffffffffffffffffffffffffffff1663a9059cbb88836040518363ffffffff167c0100000000000000000000000000000000000000000000000000000000028152600401808373ffffffffffffffffffffffffffffffffffffffff1673ffffffffffffffffffffffffffffffffffffffff16815260200182815260200192505050602060405180830381600087803b158015610e4c57600080fd5b505af1158015610e60573d6000803e3d6000fd5b505050506040513d6020811015610e7657600080fd5b81019080805190602001909291905050501515610e9257600080fd5b600073ffffffffffffffffffffffffffffffffffffffff168473ffffffffffffffffffffffffffffffffffffffff1614158015610ecf5750600085115b15610fbe578173ffffffffffffffffffffffffffffffffffffffff1663a9059cbb85876040518363ffffffff167c0100000000000000000000000000000000000000000000000000000000028152600401808373ffffffffffffffffffffffffffffffffffffffff1673ffffffffffffffffffffffffffffffffffffffff16815260200182815260200192505050602060405180830381600087803b158015610f7757600080fd5b505af1158015610f8b573d6000803e3d6000fd5b505050506040513d6020811015610fa157600080fd5b81019080805190602001909291905050501515610fbd57600080fd5b5b610fc9888883611be4565b7f037238854fe57fbf51f09946f854fc3916fe83938d6521f09bd05463839f13048a8883604051808473ffffffffffffffffffffffffffffffffffffffff1673ffffffffffffffffffffffffffffffffffffffff1681526020018373ffffffffffffffffffffffffffffffffffffffff1673ffffffffffffffffffffffffffffffffffffffff168152602001828152602001935050505060405180910390a1600192505050979650505050505050565b6000806000808692508273ffffffffffffffffffffffffffffffffffffffff16637312aaae6040518163ffffffff167c0100000000000000000000000000000000000000000000000000000000028152600401602060405180830381600087803b1580156110e657600080fd5b505af11580156110fa573d6000803e3d6000fd5b505050506040513d602081101561111057600080fd5b8101908080519060200190929190505050861115151561112f57600080fd5b8273ffffffffffffffffffffffffffffffffffffffff166314361fd16040518163ffffffff167c0100000000000000000000000000000000000000000000000000000000028152600401602060405180830381600087803b15801561119357600080fd5b505af11580156111a7573d6000803e3d6000fd5b505050506040513d60208110156111bd57600080fd5b810190808051906020019092919050505086101515156111dc57600080fd5b6111f26201518086611f4f90919063ffffffff16565b9150600460000154821115156113ae5761121b6001600460010154611f6590919063ffffffff16565b60046001018190555061123c86600460020154611f6590919063ffffffff16565b6004600201819055508273ffffffffffffffffffffffffffffffffffffffff1663f213aad26040518163ffffffff167c0100000000000000000000000000000000000000000000000000000000028152600401602060405180830381600087803b1580156112a957600080fd5b505af11580156112bd573d6000803e3d6000fd5b505050506040513d60208110156112d357600080fd5b8101908080519060200190929190505050600460010154111515156112f757600080fd5b8273ffffffffffffffffffffffffffffffffffffffff16635e3cbb7c6040518163ffffffff167c0100000000000000000000000000000000000000000000000000000000028152600401602060405180830381600087803b15801561135b57600080fd5b505af115801561136f573d6000803e3d6000fd5b505050506040513d602081101561138557600080fd5b8101908080519060200190929190505050600460020154111515156113a957600080fd5b6113ce565b816004600001819055506001600460010181905550856004600201819055505b6113e462278d0086611f4f90919063ffffffff16565b9050600760000154811115156114ee5761140d6001600760010154611f6590919063ffffffff16565b60076001018190555061142e86600760020154611f6590919063ffffffff16565b6007600201819055508273ffffffffffffffffffffffffffffffffffffffff1663be54f2146040518163ffffffff167c0100000000000000000000000000000000000000000000000000000000028152600401602060405180830381600087803b15801561149b57600080fd5b505af11580156114af573d6000803e3d6000fd5b505050506040513d60208110156114c557600080fd5b8101908080519060200190929190505050600760020154111515156114e957600080fd5b61150e565b806007600001819055506001600760010181905550856007600201819055505b600193505050509392505050565b60008060006003805490508410151561153457600080fd5b60038481548110151561154357fe5b90600052602060002090600302016000015460038581548110151561156457fe5b906000526020600020906003020160010160009054906101000a900473ffffffffffffffffffffffffffffffffffffffff166003868154811015156115a557fe5b9060005260206000209060030201600201549250925092509193909250565b6000809054906101000a900473ffffffffffffffffffffffffffffffffffffffff1681565b6000806000809054906101000a900473ffffffffffffffffffffffffffffffffffffffff1673ffffffffffffffffffffffffffffffffffffffff163373ffffffffffffffffffffffffffffffffffffffff1614151561164757600080fd5b600073ffffffffffffffffffffffffffffffffffffffff168473ffffffffffffffffffffffffffffffffffffffff161415151561168357600080fd5b600073ffffffffffffffffffffffffffffffffffffffff168673ffffffffffffffffffffffffffffffffffffffff16141515156116bf57600080fd5b8391508173ffffffffffffffffffffffffffffffffffffffff166323b872dd8730886040518463ffffffff167c0100000000000000000000000000000000000000000000000000000000028152600401808473ffffffffffffffffffffffffffffffffffffffff1673ffffffffffffffffffffffffffffffffffffffff1681526020018373ffffffffffffffffffffffffffffffffffffffff1673ffffffffffffffffffffffffffffffffffffffff1681526020018281526020019350505050602060405180830381600087803b15801561179957600080fd5b505af11580156117ad573d6000803e3d6000fd5b505050506040513d60208110156117c357600080fd5b810190808051906020019092919050505015156117df57600080fd5b6117e883611d01565b90506002606060405190810160405280836001900481526020018873ffffffffffffffffffffffffffffffffffffffff16815260200187815250908060018154018082558091505090600182039060005260206000209060030201600090919290919091506000820151816000015560208201518160010160006101000a81548173ffffffffffffffffffffffffffffffffffffffff021916908373ffffffffffffffffffffffffffffffffffffffff160217905550604082015181600201555050507f3bc54c6dcf5be6793947a9f34e5ca45d6ce9196bea304a5550c3e2d2f215650286868686604051808573ffffffffffffffffffffffffffffffffffffffff1673ffffffffffffffffffffffffffffffffffffffff1681526020018481526020018373ffffffffffffffffffffffffffffffffffffffff1673ffffffffffffffffffffffffffffffffffffffff16815260200180602001828103825283818151815260200191508051906020019080838360005b8381101561197a57808201518184015260208101905061195f565b50505050905090810190601f1680156119a75780820380516001836020036101000a031916815260200191505b509550505050505060405180910390a1505050505050565b60008060009054906101000a900473ffffffffffffffffffffffffffffffffffffffff1673ffffffffffffffffffffffffffffffffffffffff163373ffffffffffffffffffffffffffffffffffffffff16141515611a1c57600080fd5b600073ffffffffffffffffffffffffffffffffffffffff168273ffffffffffffffffffffffffffffffffffffffff1614151515611a5857600080fd5b81600a60006101000a81548173ffffffffffffffffffffffffffffffffffffffff021916908373ffffffffffffffffffffffffffffffffffffffff16021790555060019050919050565b60008060009054906101000a900473ffffffffffffffffffffffffffffffffffffffff1673ffffffffffffffffffffffffffffffffffffffff163373ffffffffffffffffffffffffffffffffffffffff16141515611aff57600080fd5b611b30878787600a60009054906101000a900473ffffffffffffffffffffffffffffffffffffffff16888888610c95565b90509695505050505050565b600080600060028054905084101515611b5457600080fd5b600284815481101515611b6357fe5b906000526020600020906003020160000154600285815481101515611b8457fe5b906000526020600020906003020160010160009054906101000a900473ffffffffffffffffffffffffffffffffffffffff16600286815481101515611bc557fe5b9060005260206000209060030201600201549250925092509193909250565b6000809054906101000a900473ffffffffffffffffffffffffffffffffffffffff1673ffffffffffffffffffffffffffffffffffffffff163373ffffffffffffffffffffffffffffffffffffffff16141515611c3f57600080fd5b60036060604051908101604052808581526020018473ffffffffffffffffffffffffffffffffffffffff16815260200183815250908060018154018082558091505090600182039060005260206000209060030201600090919290919091506000820151816000015560208201518160010160006101000a81548173ffffffffffffffffffffffffffffffffffffffff021916908373ffffffffffffffffffffffffffffffffffffffff16021790555060408201518160020155505050505050565b600060208201519050919050565b6000600380549050905090565b600160009054906101000a900473ffffffffffffffffffffffffffffffffffffffff1681565b6000809054906101000a900473ffffffffffffffffffffffffffffffffffffffff1673ffffffffffffffffffffffffffffffffffffffff163373ffffffffffffffffffffffffffffffffffffffff16141515611d9d57600080fd5b80600160006101000a81548173ffffffffffffffffffffffffffffffffffffffff021916908373ffffffffffffffffffffffffffffffffffffffff16021790555050565b60008060009054906101000a900473ffffffffffffffffffffffffffffffffffffffff1673ffffffffffffffffffffffffffffffffffffffff163373ffffffffffffffffffffffffffffffffffffffff16141515611e3e57600080fd5b600073ffffffffffffffffffffffffffffffffffffffff168373ffffffffffffffffffffffffffffffffffffffff1614151515611e7a57600080fd5b8273ffffffffffffffffffffffffffffffffffffffff166108fc839081150290604051600060405180830381858888f19350505050158015611ec0573d6000803e3d6000fd5b507fdb35132c111efe920cede025e819975671cfd1b8fcc1174762c8670c4e94c2118383604051808373ffffffffffffffffffffffffffffffffffffffff1673ffffffffffffffffffffffffffffffffffffffff1681526020018281526020019250505060405180910390a16001905092915050565b6000828211151515611f4457fe5b818303905092915050565b60008183811515611f5c57fe5b04905092915050565b60008183019050828110151515611f7857fe5b809050929150505600a165627a7a723058208c2ee3fc53d78ecd0e650bbf12f7078e32b64439f846c2863b17c3d83119e5be0029a165627a7a72305820c6c5fc1b5e5424034dba30176e7561a6ab281e777667049c320e160f257639500029",
  "source": "pragma solidity ^0.4.13;\n\ninterface IDRCWalletMgrParams {\n    function singleWithdrawMin() external returns (uint256); // min value of single withdraw\n    function singleWithdrawMax() external returns (uint256); // Max value of single withdraw\n    function dayWithdraw() external returns (uint256); // Max value of one day of withdraw\n    function monthWithdraw() external returns (uint256); // Max value of one month of withdraw\n    function dayWithdrawCount() external returns (uint256); // Max number of withdraw counting\n\n    function chargeFee() external returns (uint256); // the charge fee for withdraw\n    function chargeFeePool() external returns (address); // the address that will get the returned charge fees.\n}\n\nlibrary SafeMath {\n\n  /**\n  * @dev Multiplies two numbers, throws on overflow.\n  */\n  function mul(uint256 a, uint256 b) internal pure returns (uint256 c) {\n    if (a == 0) {\n      return 0;\n    }\n    c = a * b;\n    assert(c / a == b);\n    return c;\n  }\n\n  /**\n  * @dev Integer division of two numbers, truncating the quotient.\n  */\n  function div(uint256 a, uint256 b) internal pure returns (uint256) {\n    // assert(b > 0); // Solidity automatically throws when dividing by 0\n    // uint256 c = a / b;\n    // assert(a == b * c + a % b); // There is no case in which this doesn't hold\n    return a / b;\n  }\n\n  /**\n  * @dev Subtracts two numbers, throws on overflow (i.e. if subtrahend is greater than minuend).\n  */\n  function sub(uint256 a, uint256 b) internal pure returns (uint256) {\n    assert(b <= a);\n    return a - b;\n  }\n\n  /**\n  * @dev Adds two numbers, throws on overflow.\n  */\n  function add(uint256 a, uint256 b) internal pure returns (uint256 c) {\n    c = a + b;\n    assert(c >= a);\n    return c;\n  }\n}\n\ncontract Ownable {\n  address public owner;\n\n\n  event OwnershipTransferred(address indexed previousOwner, address indexed newOwner);\n\n\n  /**\n   * @dev The Ownable constructor sets the original `owner` of the contract to the sender\n   * account.\n   */\n  function Ownable() public {\n    owner = msg.sender;\n  }\n\n  /**\n   * @dev Throws if called by any account other than the owner.\n   */\n  modifier onlyOwner() {\n    require(msg.sender == owner);\n    _;\n  }\n\n  /**\n   * @dev Allows the current owner to transfer control of the contract to a newOwner.\n   * @param newOwner The address to transfer ownership to.\n   */\n  function transferOwnership(address newOwner) public onlyOwner {\n    require(newOwner != address(0));\n    emit OwnershipTransferred(owner, newOwner);\n    owner = newOwner;\n  }\n\n}\n\ncontract Withdrawable is Ownable {\n    event ReceiveEther(address _from, uint256 _value);\n    event WithdrawEther(address _to, uint256 _value);\n    event WithdrawToken(address _token, address _to, uint256 _value);\n\n    /**\n\t * @dev recording receiving ether from msn.sender\n\t */\n    function () payable public {\n        emit ReceiveEther(msg.sender, msg.value);\n    }\n\n    /**\n\t * @dev withdraw,send ether to target\n\t * @param _to is where the ether will be sent to\n\t *        _amount is the number of the ether\n\t */\n    function withdraw(address _to, uint _amount) public onlyOwner returns (bool) {\n        require(_to != address(0));\n        _to.transfer(_amount);\n        emit WithdrawEther(_to, _amount);\n\n        return true;\n    }\n\n    /**\n\t * @dev withdraw tokens, send tokens to target\n     *\n     * @param _token the token address that will be withdraw\n\t * @param _to is where the tokens will be sent to\n\t *        _value is the number of the token\n\t */\n    function withdrawToken(address _token, address _to, uint256 _value) public onlyOwner returns (bool) {\n        require(_to != address(0));\n        require(_token != address(0));\n\n        ERC20 tk = ERC20(_token);\n        tk.transfer(_to, _value);\n        emit WithdrawToken(_token, _to, _value);\n\n        return true;\n    }\n\n    /**\n     * @dev receive approval from an ERC20 token contract, and then gain the tokens, \n     *      then take a record\n     *\n     * @param _from address The address which you want to send tokens from\n     * @param _value uint256 the amounts of tokens to be sent\n     * @param _token address the ERC20 token address\n     * @param _extraData bytes the extra data for the record\n     */\n    // function receiveApproval(address _from, uint256 _value, address _token, bytes _extraData) public {\n    //     require(_token != address(0));\n    //     require(_from != address(0));\n        \n    //     ERC20 tk = ERC20(_token);\n    //     require(tk.transferFrom(_from, this, _value));\n        \n    //     emit ReceiveDeposit(_from, _value, _token, _extraData);\n    // }\n}\n\ncontract TokenDestructible is Ownable {\n\n  function TokenDestructible() public payable { }\n\n  /**\n   * @notice Terminate contract and refund to owner\n   * @param tokens List of addresses of ERC20 or ERC20Basic token contracts to\n   refund.\n   * @notice The called token contracts could try to re-enter this contract. Only\n   supply token contracts you trust.\n   */\n  function destroy(address[] tokens) onlyOwner public {\n\n    // Transfer tokens to owner\n    for (uint256 i = 0; i < tokens.length; i++) {\n      ERC20Basic token = ERC20Basic(tokens[i]);\n      uint256 balance = token.balanceOf(this);\n      token.transfer(owner, balance);\n    }\n\n    // Transfer Eth to owner and terminate contract\n    selfdestruct(owner);\n  }\n}\n\ncontract Claimable is Ownable {\n  address public pendingOwner;\n\n  /**\n   * @dev Modifier throws if called by any account other than the pendingOwner.\n   */\n  modifier onlyPendingOwner() {\n    require(msg.sender == pendingOwner);\n    _;\n  }\n\n  /**\n   * @dev Allows the current owner to set the pendingOwner address.\n   * @param newOwner The address to transfer ownership to.\n   */\n  function transferOwnership(address newOwner) onlyOwner public {\n    pendingOwner = newOwner;\n  }\n\n  /**\n   * @dev Allows the pendingOwner address to finalize the transfer.\n   */\n  function claimOwnership() onlyPendingOwner public {\n    emit OwnershipTransferred(owner, pendingOwner);\n    owner = pendingOwner;\n    pendingOwner = address(0);\n  }\n}\n\ncontract DepositWithdraw is Claimable, Withdrawable {\n    using SafeMath for uint256;\n\n    /**\n     * transaction record\n     */\n    struct TransferRecord {\n        uint256 timeStamp;\n        address account;\n        uint256 value;\n    }\n    \n    /**\n     * accumulated transferring amount record\n     */\n    struct accumulatedRecord {\n        uint256 mul;\n        uint256 count;\n        uint256 value;\n    }\n\n    TransferRecord[] deposRecs; // record all the deposit tx data\n    TransferRecord[] withdrRecs; // record all the withdraw tx data\n\n    accumulatedRecord dayWithdrawRec; // accumulated amount record for one day\n    accumulatedRecord monthWithdrawRec; // accumulated amount record for one month\n\n    address wallet; // the binded withdraw address\n\n    event ReceiveDeposit(address _from, uint256 _value, address _token, bytes _extraData);\n    \n    /**\n     * @dev constructor of the DepositWithdraw contract\n     * @param _wallet the binded wallet address to this depositwithdraw contract\n     */\n    constructor(address _wallet) public {\n        require(_wallet != address(0));\n        wallet = _wallet;\n    }\n\n    /**\n\t * @dev set the default wallet address\n\t * @param _wallet the default wallet address binded to this deposit contract\n\t */\n    function setWithdrawWallet(address _wallet) onlyOwner public returns (bool) {\n        require(_wallet != address(0));\n        wallet = _wallet;\n\n        return true;\n    }\n\n    /**\n\t * @dev util function to change bytes data to bytes32 data\n\t * @param _data the bytes data to be converted\n\t */\n    function bytesToBytes32(bytes _data) public pure returns (bytes32 result) {\n        assembly {\n            result := mload(add(_data, 32))\n        }\n    }\n\n    /**\n     * @dev receive approval from an ERC20 token contract, take a record\n     *\n     * @param _from address The address which you want to send tokens from\n     * @param _value uint256 the amounts of tokens to be sent\n     * @param _token address the ERC20 token address\n     * @param _extraData bytes the extra data for the record\n     */\n    function receiveApproval(address _from, uint256 _value, address _token, bytes _extraData) onlyOwner public {\n        require(_token != address(0));\n        require(_from != address(0));\n        \n        ERC20 tk = ERC20(_token);\n        require(tk.transferFrom(_from, this, _value));\n        bytes32 timestamp = bytesToBytes32(_extraData);\n        deposRecs.push(TransferRecord(uint256(timestamp), _from, _value));\n        emit ReceiveDeposit(_from, _value, _token, _extraData);\n    }\n\n    // function authorize(address _token, address _spender, uint256 _value) onlyOwner public returns (bool) {\n    //     ERC20 tk = ERC20(_token);\n    //     require(tk.approve(_spender, _value));\n\n    //     return true;\n    // }\n\n    /**\n     * @dev record withdraw into this contract\n     *\n     * @param _time the timstamp of the withdraw time\n     * @param _to is where the tokens will be sent to\n     * @param _value is the number of the token\n     */\n    function recordWithdraw(uint256 _time, address _to, uint256 _value) onlyOwner public {    \n        withdrRecs.push(TransferRecord(_time, _to, _value));\n    }\n\n    /**\n     * @dev check if withdraw amount is not valid\n     *\n     * @param _params the limitation parameters for withdraw\n     * @param _value is the number of the token\n     * @param _time the timstamp of the withdraw time\n     */\n    function checkWithdrawAmount(address _params, uint256 _value, uint256 _time) public returns (bool) {\n        IDRCWalletMgrParams params = IDRCWalletMgrParams(_params);\n        require(_value <= params.singleWithdrawMax());\n        require(_value >= params.singleWithdrawMin());\n\n        uint256 daysCount = _time.div(86400); // one day of seconds\n        if (daysCount <= dayWithdrawRec.mul) {\n            dayWithdrawRec.count = dayWithdrawRec.count.add(1);\n            dayWithdrawRec.value = dayWithdrawRec.value.add(_value);\n            require(dayWithdrawRec.count <= params.dayWithdrawCount());\n            require(dayWithdrawRec.value <= params.dayWithdraw());\n        } else {\n            dayWithdrawRec.mul = daysCount;\n            dayWithdrawRec.count = 1;\n            dayWithdrawRec.value = _value;\n        }\n        \n        uint256 monthsCount = _time.div(86400 * 30);\n        if (monthsCount <= monthWithdrawRec.mul) {\n            monthWithdrawRec.count = monthWithdrawRec.count.add(1);\n            monthWithdrawRec.value = monthWithdrawRec.value.add(_value);\n            require(monthWithdrawRec.value <= params.monthWithdraw());\n        } else {            \n            monthWithdrawRec.mul = monthsCount;\n            monthWithdrawRec.count = 1;\n            monthWithdrawRec.value = _value;\n        }\n\n        return true;\n    }\n\n    /**\n\t * @dev withdraw tokens, send tokens to target\n     *\n     * @param _token the token address that will be withdraw\n     * @param _params the limitation parameters for withdraw\n     * @param _time the timstamp of the withdraw time\n\t * @param _to is where the tokens will be sent to\n\t *        _value is the number of the token\n     *        _fee is the amount of the transferring costs\n     *        _tokenReturn is the address that return back the tokens of the _fee\n\t */\n    function withdrawToken(address _token, address _params, uint256 _time, address _to, uint256 _value, uint256 _fee, address _tokenReturn) public onlyOwner returns (bool) {\n        require(_to != address(0));\n        require(_token != address(0));\n        require(_value > _fee);\n        // require(_tokenReturn != address(0));\n\n        require(checkWithdrawAmount(_params, _value, _time));\n\n        ERC20 tk = ERC20(_token);\n        uint256 realAmount = _value.sub(_fee);\n        require(tk.transfer(_to, realAmount));\n        if (_tokenReturn != address(0) && _fee > 0) {\n            require(tk.transfer(_tokenReturn, _fee));\n        }\n\n        recordWithdraw(_time, _to, realAmount);\n        emit WithdrawToken(_token, _to, realAmount);\n\n        return true;\n    }\n\n    /**\n\t * @dev withdraw tokens, send tokens to target default wallet\n     *\n     * @param _token the token address that will be withdraw\n     * @param _params the limitation parameters for withdraw\n     * @param _time the timestamp occur the withdraw record\n\t * @param _value is the number of the token\n     *        _fee is the amount of the transferring costs\n     *        tokenReturn is the address that return back the tokens of the _fee\n\t */\n    function withdrawTokenToDefault(address _token, address _params, uint256 _time, uint256 _value, uint256 _fee, address _tokenReturn) public onlyOwner returns (bool) {\n        return withdrawToken(_token, _params, _time, wallet, _value, _fee, _tokenReturn);\n    }\n\n    /**\n\t * @dev get the Deposit records number\n     *\n     */\n    function getDepositNum() public view returns (uint256) {\n        return deposRecs.length;\n    }\n\n    /**\n\t * @dev get the one of the Deposit records\n     *\n     * @param _ind the deposit record index\n     */\n    function getOneDepositRec(uint256 _ind) public view returns (uint256, address, uint256) {\n        require(_ind < deposRecs.length);\n\n        return (deposRecs[_ind].timeStamp, deposRecs[_ind].account, deposRecs[_ind].value);\n    }\n\n    /**\n\t * @dev get the withdraw records number\n     *\n     */\n    function getWithdrawNum() public view returns (uint256) {\n        return withdrRecs.length;\n    }\n    \n    /**\n\t * @dev get the one of the withdraw records\n     *\n     * @param _ind the withdraw record index\n     */\n    function getOneWithdrawRec(uint256 _ind) public view returns (uint256, address, uint256) {\n        require(_ind < withdrRecs.length);\n\n        return (withdrRecs[_ind].timeStamp, withdrRecs[_ind].account, withdrRecs[_ind].value);\n    }\n}\n\ncontract OwnerContract is Claimable {\n    Claimable public ownedContract;\n    address internal origOwner;\n\n    /**\n     * @dev bind a contract as its owner\n     *\n     * @param _contract the contract address that will be binded by this Owner Contract\n     */\n    function bindContract(address _contract) onlyOwner public returns (bool) {\n        require(_contract != address(0));\n        ownedContract = Claimable(_contract);\n        origOwner = ownedContract.owner();\n\n        // take ownership of the owned contract\n        ownedContract.claimOwnership();\n\n        return true;\n    }\n\n    /**\n     * @dev change the owner of the contract from this contract address to the original one. \n     *\n     */\n    function transferOwnershipBack() onlyOwner public {\n        ownedContract.transferOwnership(origOwner);\n        ownedContract = Claimable(address(0));\n        origOwner = address(0);\n    }\n\n    /**\n     * @dev change the owner of the contract from this contract address to another one. \n     *\n     * @param _nextOwner the contract address that will be next Owner of the original Contract\n     */\n    function changeOwnershipto(address _nextOwner)  onlyOwner public {\n        ownedContract.transferOwnership(_nextOwner);\n        ownedContract = Claimable(address(0));\n        origOwner = address(0);\n    }\n}\n\ncontract DRCWalletManager is OwnerContract, Withdrawable, TokenDestructible {\n    using SafeMath for uint256;\n    \n    /**\n     * withdraw wallet description\n     */\n    struct WithdrawWallet {\n        bytes32 name;\n        address walletAddr;\n    }\n\n    /**\n     * Deposit data storage\n     */\n    struct DepositRepository {\n        // uint256 balance;\n        uint256 frozen;\n        WithdrawWallet[] withdrawWallets;\n        // mapping (bytes32 => address) withdrawWallets;\n    }\n\n    mapping (address => DepositRepository) depositRepos;\n    mapping (address => address) public walletDeposits;\n    mapping (address => bool) public frozenDeposits;\n\n    ERC20 public tk; // the token will be managed\n    IDRCWalletMgrParams public params; // the parameters that the management needs\n    \n    event CreateDepositAddress(address indexed _wallet, address _deposit);\n    event FrozenTokens(address indexed _deposit, bool _freeze, uint256 _value);\n    // event ChangeDefaultWallet(address indexed _oldWallet, address _newWallet);\n\n    /**\n\t * @dev withdraw tokens, send tokens to target default wallet\n     *\n     * @param _token the token address that will be withdraw\n     * @param _walletParams the wallet management parameters\n\t */\n    function bindToken(address _token, address _walletParams) onlyOwner public returns (bool) {\n        require(_token != address(0));\n        require(_walletParams != address(0));\n\n        tk = ERC20(_token);\n        params = IDRCWalletMgrParams(_walletParams);\n        return true;\n    }\n    \n    /**\n\t * @dev create deposit contract address for the default withdraw wallet\n     *\n     * @param _wallet the binded default withdraw wallet address\n\t */\n    function createDepositContract(address _wallet) onlyOwner public returns (address) {\n        require(_wallet != address(0));\n\n        DepositWithdraw deposWithdr = new DepositWithdraw(_wallet); // new contract for deposit\n        address _deposit = address(deposWithdr);\n        walletDeposits[_wallet] = _deposit;\n        WithdrawWallet[] storage withdrawWalletList = depositRepos[_deposit].withdrawWallets;\n        withdrawWalletList.push(WithdrawWallet(\"default wallet\", _wallet));\n        // depositRepos[_deposit].balance = 0;\n        depositRepos[_deposit].frozen = 0;\n\n        // deposWithdr.authorize(address(tk), this, 1e27); // give authorization to owner contract\n\n        emit CreateDepositAddress(_wallet, address(deposWithdr));\n        return deposWithdr;\n    }\n    \n    /**\n\t * @dev get deposit contract address by using the default withdraw wallet\n     *\n     * @param _wallet the binded default withdraw wallet address\n\t */\n    // function getDepositAddress(address _wallet) onlyOwner public view returns (address) {\n    //     require(_wallet != address(0));\n    //     address deposit = walletDeposits[_wallet];\n\n    //     return deposit;\n    // }\n    \n    /**\n\t * @dev get deposit balance and frozen amount by using the deposit address\n     *\n     * @param _deposit the deposit contract address\n\t */\n    function getDepositInfo(address _deposit) onlyOwner public view returns (uint256, uint256) {\n        require(_deposit != address(0));\n        uint256 _balance = tk.balanceOf(_deposit);\n        uint256 frozenAmount = depositRepos[_deposit].frozen;\n        // depositRepos[_deposit].balance = _balance;\n\n        return (_balance, frozenAmount);\n    }\n    \n    /**\n\t * @dev get the number of withdraw wallet addresses bindig to the deposit contract address\n     *\n     * @param _deposit the deposit contract address\n\t */\n    function getDepositWithdrawCount(address _deposit) onlyOwner public view returns (uint) {\n        require(_deposit != address(0));\n\n        WithdrawWallet[] storage withdrawWalletList = depositRepos[_deposit].withdrawWallets;\n        uint len = withdrawWalletList.length;\n\n        return len;\n    }\n    \n    /**\n\t * @dev get the withdraw wallet addresses list binding to the deposit contract address\n     *\n     * @param _deposit the deposit contract address\n     * @param _indices the array of indices of the withdraw wallets\n\t */\n    function getDepositWithdrawList(address _deposit, uint[] _indices) onlyOwner public view returns (bytes32[], address[]) {\n        require(_indices.length != 0);\n\n        bytes32[] memory names = new bytes32[](_indices.length);\n        address[] memory wallets = new address[](_indices.length);\n        \n        for (uint i = 0; i < _indices.length; i = i.add(1)) {\n            WithdrawWallet storage wallet = depositRepos[_deposit].withdrawWallets[_indices[i]];\n            names[i] = wallet.name;\n            wallets[i] = wallet.walletAddr;\n        }\n        \n        return (names, wallets);\n    }\n    \n    /**\n\t * @dev change the default withdraw wallet address binding to the deposit contract address\n     *\n     * @param _oldWallet the previous default withdraw wallet\n     * @param _newWallet the new default withdraw wallet\n\t */\n    function changeDefaultWithdraw(address _oldWallet, address _newWallet) onlyOwner public returns (bool) {\n        require(_newWallet != address(0));\n        \n        address deposit = walletDeposits[_oldWallet];\n        DepositWithdraw deposWithdr = DepositWithdraw(deposit);\n        require(deposWithdr.setWithdrawWallet(_newWallet));\n\n        WithdrawWallet[] storage withdrawWalletList = depositRepos[deposit].withdrawWallets;\n        withdrawWalletList[0].walletAddr = _newWallet;\n        // emit ChangeDefaultWallet(_oldWallet, _newWallet);\n\n        return true;\n    }\n    \n    /**\n\t * @dev freeze the tokens in the deposit address\n     *\n     * @param _deposit the deposit address\n     * @param _freeze to freeze or release\n     * @param _value the amount of tokens need to be frozen\n\t */\n    function freezeTokens(address _deposit, bool _freeze, uint256 _value) onlyOwner public returns (bool) {\n        require(_deposit != address(0));\n        \n        frozenDeposits[_deposit] = _freeze;\n        if (_freeze) {\n            depositRepos[_deposit].frozen = depositRepos[_deposit].frozen.add(_value);\n        } else {\n            require(_value <= depositRepos[_deposit].frozen);\n            depositRepos[_deposit].frozen = depositRepos[_deposit].frozen.sub(_value);\n        }\n\n        emit FrozenTokens(_deposit, _freeze, _value);\n        return true;\n    }\n    \n    /**\n\t * @dev withdraw the tokens from the deposit address to default wallet with charge fee\n     *\n     * @param _deposit the deposit address\n     * @param _time the timestamp the withdraw occurs\n     * @param _value the amount of tokens need to be frozen\n\t */\n    function withdrawWithFee(address _deposit, uint256 _time, uint256 _value, bool _check) onlyOwner public returns (bool) {    \n        WithdrawWallet[] storage withdrawWalletList = depositRepos[_deposit].withdrawWallets;\n        return withdrawWithFee(_deposit, _time, withdrawWalletList[0].name, withdrawWalletList[0].walletAddr, _value, _check);\n    }\n    \n    /**\n\t * @dev check if the wallet name is not matching the expected wallet address\n     *\n     * @param _deposit the deposit address\n     * @param _name the withdraw wallet name\n     * @param _to the withdraw wallet address\n\t */\n    function checkWithdrawAddress(address _deposit, bytes32 _name, address _to) public view returns (bool, bool) {\n        uint len = depositRepos[_deposit].withdrawWallets.length;\n        for (uint i = 0; i < len; i = i.add(1)) {\n            WithdrawWallet memory wallet = depositRepos[_deposit].withdrawWallets[i];\n            if (_name == wallet.name) {\n                return(true, (_to == wallet.walletAddr));\n            }\n            if (_to == wallet.walletAddr) {\n                return(true, true);\n            }\n        }\n\n        return (false, true);\n    }\n    \n    /**\n\t * @dev withdraw tokens from this contract, send tokens to target withdraw wallet\n     *\n     * @param _deposWithdr the deposit contract that will record withdrawing\n     * @param _time the timestamp occur the withdraw record\n     * @param _to the address the token will be transfer to \n     * @param _value the token transferred value\n\t */\n    function withdrawFromThis(DepositWithdraw _deposWithdr, uint256 _time, address _to, uint256 _value) private returns (bool) {\n        uint256 fee = params.chargeFee();\n        uint256 realAmount = _value.sub(fee);\n        address tokenReturn = params.chargeFeePool();\n        if (tokenReturn != address(0) && fee > 0) {\n            require(tk.transfer(tokenReturn, fee));\n        }\n\n        require (tk.transfer(_to, realAmount));\n        _deposWithdr.recordWithdraw(_time, _to, realAmount);\n\n        return true;\n    }\n\n    /**\n\t * @dev withdraw tokens, send tokens to target withdraw wallet\n     *\n     * @param _deposit the deposit address that will be withdraw from\n     * @param _time the timestamp occur the withdraw record\n\t * @param _name the withdraw address alias name to verify\n     * @param _to the address the token will be transfer to \n     * @param _value the token transferred value\n     * @param _check if we will check the value is valid or meet the limit condition\n\t */\n    function withdrawWithFee(address _deposit, \n                             uint256 _time, \n                             bytes32 _name, \n                             address _to, \n                             uint256 _value, \n                             bool _check) onlyOwner public returns (bool) {\n        require(_deposit != address(0));\n        require(_to != address(0));\n\n        uint256 _balance = tk.balanceOf(_deposit);\n        if (_check) {\n            require(_value <= _balance);\n        }\n\n        uint256 available = _balance.sub(depositRepos[_deposit].frozen);\n        if (_check) {\n            require(_value <= available);\n        }\n\n        bool exist;\n        bool correct;\n        WithdrawWallet[] storage withdrawWalletList = depositRepos[_deposit].withdrawWallets;\n        (exist, correct) = checkWithdrawAddress(_deposit, _name, _to);\n        if(!exist) {\n            withdrawWalletList.push(WithdrawWallet(_name, _to));\n        } else if(!correct) {\n            return false;\n        }\n\n        DepositWithdraw deposWithdr = DepositWithdraw(_deposit);\n        /**\n         * if deposit address doesn't have enough tokens to withdraw, \n         * then withdraw from this contract. Record in deposit contract.\n         */\n        if (_value > available) {\n            require(deposWithdr.checkWithdrawAmount(address(params), _value, _time));\n            require(deposWithdr.withdrawToken(address(tk), this, available));\n            \n            require(withdrawFromThis(deposWithdr, _time, _to, _value));\n            return true;\n        }\n        \n        return (deposWithdr.withdrawToken(address(tk), address(params), _time, _to, _value, params.chargeFee(), params.chargeFeePool()));        \n    }\n\n}\n\ncontract ERC20Basic {\n  function totalSupply() public view returns (uint256);\n  function balanceOf(address who) public view returns (uint256);\n  function transfer(address to, uint256 value) public returns (bool);\n  event Transfer(address indexed from, address indexed to, uint256 value);\n}\n\ncontract ERC20 is ERC20Basic {\n  function allowance(address owner, address spender) public view returns (uint256);\n  function transferFrom(address from, address to, uint256 value) public returns (bool);\n  function approve(address spender, uint256 value) public returns (bool);\n  event Approval(address indexed owner, address indexed spender, uint256 value);\n}\n\n",
  "sourcePath": "/home/centos/Dapp/DRCWalletManager/contracts/DRCWalletManagerFlattened.sol",
  "compiler": {
    "name": "solc",
    "version": "0.4.24+commit.e67f0147.Emscripten.clang"
  },
  "schemaVersion": "2.0.0",
  "updatedAt": "2018-06-11T09:08:56.547Z"
}