{
  "contractName": "DRCWalletStorage",
  "abi": [
    {
      "constant": true,
      "inputs": [],
      "name": "pendingOwnedOwner",
      "outputs": [
        {
          "name": "",
          "type": "address"
        }
      ],
      "payable": false,
      "stateMutability": "view",
      "type": "function"
    },
    {
      "constant": false,
      "inputs": [],
      "name": "claimOwnership",
      "outputs": [],
      "payable": false,
      "stateMutability": "nonpayable",
      "type": "function"
    },
    {
      "constant": false,
      "inputs": [],
      "name": "renounceOwnership",
      "outputs": [],
      "payable": false,
      "stateMutability": "nonpayable",
      "type": "function"
    },
    {
      "constant": true,
      "inputs": [
        {
          "name": "",
          "type": "address"
        }
      ],
      "name": "walletDeposits",
      "outputs": [
        {
          "name": "",
          "type": "address"
        }
      ],
      "payable": false,
      "stateMutability": "view",
      "type": "function"
    },
    {
      "constant": false,
      "inputs": [
        {
          "name": "_contract",
          "type": "address"
        }
      ],
      "name": "bindContract",
      "outputs": [
        {
          "name": "",
          "type": "bool"
        }
      ],
      "payable": false,
      "stateMutability": "nonpayable",
      "type": "function"
    },
    {
      "constant": true,
      "inputs": [],
      "name": "owner",
      "outputs": [
        {
          "name": "",
          "type": "address"
        }
      ],
      "payable": false,
      "stateMutability": "view",
      "type": "function"
    },
    {
      "constant": true,
      "inputs": [],
      "name": "size",
      "outputs": [
        {
          "name": "",
          "type": "uint256"
        }
      ],
      "payable": false,
      "stateMutability": "view",
      "type": "function"
    },
    {
      "constant": true,
      "inputs": [],
      "name": "ownedContract",
      "outputs": [
        {
          "name": "",
          "type": "address"
        }
      ],
      "payable": false,
      "stateMutability": "view",
      "type": "function"
    },
    {
      "constant": true,
      "inputs": [],
      "name": "start",
      "outputs": [
        {
          "name": "",
          "type": "uint256"
        }
      ],
      "payable": false,
      "stateMutability": "view",
      "type": "function"
    },
    {
      "constant": false,
      "inputs": [
        {
          "name": "_start",
          "type": "uint256"
        },
        {
          "name": "_end",
          "type": "uint256"
        }
      ],
      "name": "setLimits",
      "outputs": [],
      "payable": false,
      "stateMutability": "nonpayable",
      "type": "function"
    },
    {
      "constant": false,
      "inputs": [],
      "name": "ownedOwnershipTransferred",
      "outputs": [
        {
          "name": "",
          "type": "bool"
        }
      ],
      "payable": false,
      "stateMutability": "nonpayable",
      "type": "function"
    },
    {
      "constant": true,
      "inputs": [
        {
          "name": "",
          "type": "address"
        }
      ],
      "name": "frozenDeposits",
      "outputs": [
        {
          "name": "",
          "type": "bool"
        }
      ],
      "payable": false,
      "stateMutability": "view",
      "type": "function"
    },
    {
      "constant": true,
      "inputs": [],
      "name": "pendingOwner",
      "outputs": [
        {
          "name": "",
          "type": "address"
        }
      ],
      "payable": false,
      "stateMutability": "view",
      "type": "function"
    },
    {
      "constant": false,
      "inputs": [
        {
          "name": "_nextOwner",
          "type": "address"
        }
      ],
      "name": "changeOwnershipto",
      "outputs": [],
      "payable": false,
      "stateMutability": "nonpayable",
      "type": "function"
    },
    {
      "constant": true,
      "inputs": [],
      "name": "end",
      "outputs": [
        {
          "name": "",
          "type": "uint256"
        }
      ],
      "payable": false,
      "stateMutability": "view",
      "type": "function"
    },
    {
      "constant": false,
      "inputs": [
        {
          "name": "newOwner",
          "type": "address"
        }
      ],
      "name": "transferOwnership",
      "outputs": [],
      "payable": false,
      "stateMutability": "nonpayable",
      "type": "function"
    },
    {
      "anonymous": false,
      "inputs": [
        {
          "indexed": true,
          "name": "previousOwner",
          "type": "address"
        }
      ],
      "name": "OwnershipRenounced",
      "type": "event"
    },
    {
      "anonymous": false,
      "inputs": [
        {
          "indexed": true,
          "name": "previousOwner",
          "type": "address"
        },
        {
          "indexed": true,
          "name": "newOwner",
          "type": "address"
        }
      ],
      "name": "OwnershipTransferred",
      "type": "event"
    },
    {
      "constant": false,
      "inputs": [
        {
          "name": "_wallet",
          "type": "address"
        },
        {
          "name": "_depositAddr",
          "type": "address"
        }
      ],
      "name": "addDeposit",
      "outputs": [
        {
          "name": "",
          "type": "bool"
        }
      ],
      "payable": false,
      "stateMutability": "nonpayable",
      "type": "function"
    },
    {
      "constant": false,
      "inputs": [
        {
          "name": "_depositAddr",
          "type": "address"
        }
      ],
      "name": "removeDeposit",
      "outputs": [
        {
          "name": "",
          "type": "bool"
        }
      ],
      "payable": false,
      "stateMutability": "nonpayable",
      "type": "function"
    },
    {
      "constant": false,
      "inputs": [
        {
          "name": "_deposit",
          "type": "address"
        },
        {
          "name": "_name",
          "type": "bytes32"
        },
        {
          "name": "_withdraw",
          "type": "address"
        }
      ],
      "name": "addWithdraw",
      "outputs": [
        {
          "name": "",
          "type": "bool"
        }
      ],
      "payable": false,
      "stateMutability": "nonpayable",
      "type": "function"
    },
    {
      "constant": false,
      "inputs": [
        {
          "name": "_deposit",
          "type": "address"
        },
        {
          "name": "_value",
          "type": "uint256"
        }
      ],
      "name": "increaseBalance",
      "outputs": [
        {
          "name": "",
          "type": "bool"
        }
      ],
      "payable": false,
      "stateMutability": "nonpayable",
      "type": "function"
    },
    {
      "constant": false,
      "inputs": [
        {
          "name": "_deposit",
          "type": "address"
        },
        {
          "name": "_value",
          "type": "uint256"
        }
      ],
      "name": "decreaseBalance",
      "outputs": [
        {
          "name": "",
          "type": "bool"
        }
      ],
      "payable": false,
      "stateMutability": "nonpayable",
      "type": "function"
    },
    {
      "constant": false,
      "inputs": [
        {
          "name": "_oldWallet",
          "type": "address"
        },
        {
          "name": "_newWallet",
          "type": "address"
        }
      ],
      "name": "changeDefaultWallet",
      "outputs": [
        {
          "name": "",
          "type": "bool"
        }
      ],
      "payable": false,
      "stateMutability": "nonpayable",
      "type": "function"
    },
    {
      "constant": false,
      "inputs": [
        {
          "name": "_deposit",
          "type": "address"
        },
        {
          "name": "_newName",
          "type": "bytes32"
        },
        {
          "name": "_wallet",
          "type": "address"
        }
      ],
      "name": "changeWalletName",
      "outputs": [
        {
          "name": "",
          "type": "bool"
        }
      ],
      "payable": false,
      "stateMutability": "nonpayable",
      "type": "function"
    },
    {
      "constant": false,
      "inputs": [
        {
          "name": "_deposit",
          "type": "address"
        },
        {
          "name": "_freeze",
          "type": "bool"
        },
        {
          "name": "_value",
          "type": "uint256"
        }
      ],
      "name": "freezeTokens",
      "outputs": [
        {
          "name": "",
          "type": "bool"
        }
      ],
      "payable": false,
      "stateMutability": "nonpayable",
      "type": "function"
    },
    {
      "constant": true,
      "inputs": [
        {
          "name": "_deposit",
          "type": "address"
        },
        {
          "name": "_ind",
          "type": "uint256"
        }
      ],
      "name": "wallet",
      "outputs": [
        {
          "name": "",
          "type": "address"
        }
      ],
      "payable": false,
      "stateMutability": "view",
      "type": "function"
    },
    {
      "constant": true,
      "inputs": [
        {
          "name": "_deposit",
          "type": "address"
        },
        {
          "name": "_ind",
          "type": "uint256"
        }
      ],
      "name": "walletName",
      "outputs": [
        {
          "name": "",
          "type": "bytes32"
        }
      ],
      "payable": false,
      "stateMutability": "view",
      "type": "function"
    },
    {
      "constant": true,
      "inputs": [
        {
          "name": "_deposit",
          "type": "address"
        }
      ],
      "name": "walletsNumber",
      "outputs": [
        {
          "name": "",
          "type": "uint256"
        }
      ],
      "payable": false,
      "stateMutability": "view",
      "type": "function"
    },
    {
      "constant": true,
      "inputs": [
        {
          "name": "_deposit",
          "type": "address"
        }
      ],
      "name": "balanceOf",
      "outputs": [
        {
          "name": "",
          "type": "uint256"
        }
      ],
      "payable": false,
      "stateMutability": "view",
      "type": "function"
    },
    {
      "constant": true,
      "inputs": [
        {
          "name": "_deposit",
          "type": "address"
        }
      ],
      "name": "frozenAmount",
      "outputs": [
        {
          "name": "",
          "type": "uint256"
        }
      ],
      "payable": false,
      "stateMutability": "view",
      "type": "function"
    }
  ],
  "bytecode": "0x608060405260008054600160a060020a031916331790556112ac806100256000396000f3006080604052600436106101745763ffffffff7c01000000000000000000000000000000000000000000000000000000006000350416630a633e09811461017957806322e113a3146101ae5780632f1c563e146101d7578063437ec21d146101fe5780634902d1631461023e5780634e71e0c8146102535780635b86f5991461026a57806370a082311461028e578063715018a6146102c157806379b6fead146102d65780638157d4b5146102f757806384062bdd1461031857806386602c84146103435780638da5cb5b14610364578063949d225d14610379578063b714a90d1461038e578063bc467a3e146103af578063be9a6555146103c4578063bf403204146103d9578063c4590d3f14610400578063dbf354301461041b578063dd513e3c14610430578063e30c397814610451578063e31dd89614610466578063ede930c914610491578063efbe1c1c146104b2578063f19ae02a146104c7578063f2fde38b146104eb578063ff0569491461050c575b600080fd5b34801561018557600080fd5b5061019a600160a060020a0360043516610530565b604080519115158252519081900360200190f35b3480156101ba57600080fd5b5061019a600160a060020a03600435166024351515604435610641565b3480156101e357600080fd5b5061019a600160a060020a0360043581169060243516610745565b34801561020a57600080fd5b50610222600160a060020a0360043516602435610853565b60408051600160a060020a039092168252519081900360200190f35b34801561024a57600080fd5b506102226108ba565b34801561025f57600080fd5b506102686108c9565b005b34801561027657600080fd5b5061019a600160a060020a0360043516602435610968565b34801561029a57600080fd5b506102af600160a060020a03600435166109ce565b60408051918252519081900360200190f35b3480156102cd57600080fd5b50610268610a01565b3480156102e257600080fd5b50610222600160a060020a0360043516610a60565b34801561030357600080fd5b5061019a600160a060020a0360043516610a7b565b34801561032457600080fd5b5061019a600160a060020a036004358116906024359060443516610b3a565b34801561034f57600080fd5b506102af600160a060020a0360043516610bd8565b34801561037057600080fd5b50610222610c0e565b34801561038557600080fd5b506102af610c1d565b34801561039a57600080fd5b506102af600160a060020a0360043516610c23565b3480156103bb57600080fd5b50610222610c5b565b3480156103d057600080fd5b506102af610c6a565b3480156103e557600080fd5b5061019a600160a060020a0360043581169060243516610c70565b34801561040c57600080fd5b50610268600435602435610d5d565b34801561042757600080fd5b5061019a610d89565b34801561043c57600080fd5b5061019a600160a060020a0360043516610e82565b34801561045d57600080fd5b50610222610e97565b34801561047257600080fd5b5061019a600160a060020a036004358116906024359060443516610ea6565b34801561049d57600080fd5b50610268600160a060020a0360043516610f8a565b3480156104be57600080fd5b506102af61111a565b3480156104d357600080fd5b506102af600160a060020a0360043516602435611120565b3480156104f757600080fd5b50610268600160a060020a036004351661117d565b34801561051857600080fd5b5061019a600160a060020a03600435166024356111b6565b600061053a61121d565b600054600160a060020a0316331461055157600080fd5b600160a060020a038316151561056657600080fd5b600160a060020a03831660009081526006602052604081206002018054909190811061058e57fe5b60009182526020808320604080518082018252600294850290920180548352600190810154600160a060020a039081168486018190528752600785528287208054600160a060020a03191690558916865260069093528420848155918201849055935091906105ff90830182611234565b5050600160a060020a0383166000908152600860205260409020805460ff1916905560095461063590600163ffffffff6111f816565b60095550600192915050565b60008054819081908190600160a060020a0316331461065f57600080fd5b600160a060020a038716151561067457600080fd5b600160a060020a0387166000908152600860209081526040808320805460ff19168a1515179055600690915290206001810154905490935091506106b882846111f8565b905085156106fd57808511156106cc578094505b6106dc838663ffffffff61120a16565b600160a060020a038816600090815260066020526040902060010155610736565b82851115610709578294505b610719838663ffffffff6111f816565b600160a060020a0388166000908152600660205260409020600101555b600193505b5050509392505050565b600080548190600160a060020a0316331461075f57600080fd5b600160a060020a038416151561077457600080fd5b600160a060020a038316151561078957600080fd5b50600160a060020a0383811660008181526007602090815260408083208054600160a060020a0319908116898816908117909255818552600680855283862084518086019095527f64656661756c742077616c6c657400000000000000000000000000000000000085528486019788526002808201805460018181018355828b52898b209851919093029097019687559851958101805490941695909916949094179091559084529091528301556009549091610846919061120a565b6009555060019392505050565b600080600160a060020a038416151561086b57600080fd5b50600160a060020a0383166000908152600660205260409020600201805481908490811061089557fe5b6000918252602090912060029091020160010154600160a060020a0316949350505050565b600554600160a060020a031681565b600154600160a060020a031633146108e057600080fd5b60025443111580156108f457506003544310155b15156108ff57600080fd5b60015460008054604051600160a060020a0393841693909116917f8be0079c531659141344cd1fd0a4f28419497f9722a3daafe3b4186f6b6457e091a36001805460008054600160a060020a0319908116600160a060020a038416178255909116909155600255565b600080600061097685610c23565b1161098057600080fd5b50600160a060020a0383166000908152600660205260409020546109aa818463ffffffff61120a16565b600160a060020a038516600090815260066020526040902055600191505092915050565b6000600160a060020a03821615156109e557600080fd5b50600160a060020a031660009081526006602052604090205490565b600054600160a060020a03163314610a1857600080fd5b60008054604051600160a060020a03909116917ff8df31144d9c2f0f6b59d69b8b98abd5459d07f2742c4df920b25aae33c6482091a260008054600160a060020a0319169055565b600760205260009081526040902054600160a060020a031681565b60008054600160a060020a03163314610a9357600080fd5b600160a060020a0382161515610aa857600080fd5b60048054600160a060020a031916600160a060020a0384811691909117808355604080517f4e71e0c800000000000000000000000000000000000000000000000000000000815290519190921692634e71e0c89280820192600092909182900301818387803b158015610b1a57600080fd5b505af1158015610b2e573d6000803e3d6000fd5b50600195945050505050565b600080548190600160a060020a03163314610b5457600080fd5b600160a060020a0385161515610b6957600080fd5b5050600160a060020a039283166000908152600660209081526040808320815180830190925294815292851683820190815260029485018054600180820183559185529290932093519190940290920191825591519082018054600160a060020a031916919093161790915590565b6000600160a060020a0382161515610bef57600080fd5b50600160a060020a031660009081526006602052604090206001015490565b600054600160a060020a031681565b60095481565b600080600160a060020a0383161515610c3b57600080fd5b5050600160a060020a031660009081526006602052604090206002015490565b600454600160a060020a031681565b60035481565b6000805481908190600160a060020a03163314610c8c57600080fd5b600160a060020a0385161515610ca157600080fd5b600160a060020a0384161515610cb657600080fd5b5050600160a060020a0380841660009081526007602090815260408083205490931680835260069091529181206002018054909185918391908110610cf757fe5b60009182526020808320600160029093020182018054600160a060020a03958616600160a060020a031991821617909155888516845260079091526040808420805488871690841617905593891683529290912080549092169091559250505092915050565b600054600160a060020a03163314610d7457600080fd5b80821115610d8157600080fd5b600255600355565b60008054600160a060020a03163314610da157600080fd5b600454600160a060020a03161515610db857600080fd5b60055460048054604080517f8da5cb5b0000000000000000000000000000000000000000000000000000000081529051600160a060020a039485169490921692638da5cb5b9282820192602092908290030181600087803b158015610e1c57600080fd5b505af1158015610e30573d6000803e3d6000fd5b505050506040513d6020811015610e4657600080fd5b5051600160a060020a03161415610e7b575060048054600160a060020a03199081169091556005805490911690556001610e7f565b5060005b90565b60086020526000908152604090205460ff1681565b600154600160a060020a031681565b60008054819081908190600160a060020a03163314610ec457600080fd5b600160a060020a0387161515610ed957600080fd5b600160a060020a0385161515610eee57600080fd5b610ef787610c23565b9250600091505b82821015610f7d57600160a060020a0387166000908152600660205260409020600201805483908110610f2d57fe5b60009182526020909120600160029092020190810154909150600160a060020a0386811691161415610f65578581556001935061073b565b610f7682600163ffffffff61120a16565b9150610efe565b5060009695505050505050565b600054600160a060020a03163314610fa157600080fd5b600454600160a060020a03161515610fb857600080fd5b60055460048054604080517f8da5cb5b0000000000000000000000000000000000000000000000000000000081529051600160a060020a039485169490921692638da5cb5b9282820192602092908290030181600087803b15801561101c57600080fd5b505af1158015611030573d6000803e3d6000fd5b505050506040513d602081101561104657600080fd5b5051600160a060020a0316146110fa5760048054604080517ff2fde38b000000000000000000000000000000000000000000000000000000008152600160a060020a03858116948201949094529051929091169163f2fde38b9160248082019260009290919082900301818387803b1580156110c157600080fd5b505af11580156110d5573d6000803e3d6000fd5b505060058054600160a060020a031916600160a060020a038516179055506111179050565b60048054600160a060020a03199081169091556005805490911690555b50565b60025481565b600080600160a060020a038416151561113857600080fd5b50600160a060020a0383166000908152600660205260409020600201805481908490811061116257fe5b90600052602060002090600202016000015491505092915050565b600054600160a060020a0316331461119457600080fd5b60018054600160a060020a031916600160a060020a0392909216919091179055565b60008060006111c485610c23565b116111ce57600080fd5b50600160a060020a0383166000908152600660205260409020546109aa818463ffffffff6111f816565b60008282111561120457fe5b50900390565b8181018281101561121757fe5b92915050565b604080518082019091526000808252602082015290565b50805460008255600202906000526020600020908101906111179190610e7f91905b8082111561127c5760008155600181018054600160a060020a0319169055600201611256565b50905600a165627a7a7230582050cce4168770d1d30aedc2f5418a1c54c7b4227dd659ef5de3b9962383ebc4b60029",
  "source": "pragma solidity ^0.4.13;\r\n\r\nlibrary SafeMath {\r\n\r\n  /**\r\n  * @dev Multiplies two numbers, throws on overflow.\r\n  */\r\n  function mul(uint256 _a, uint256 _b) internal pure returns (uint256 c) {\r\n    // Gas optimization: this is cheaper than asserting 'a' not being zero, but the\r\n    // benefit is lost if 'b' is also tested.\r\n    // See: https://github.com/OpenZeppelin/openzeppelin-solidity/pull/522\r\n    if (_a == 0) {\r\n      return 0;\r\n    }\r\n\r\n    c = _a * _b;\r\n    assert(c / _a == _b);\r\n    return c;\r\n  }\r\n\r\n  /**\r\n  * @dev Integer division of two numbers, truncating the quotient.\r\n  */\r\n  function div(uint256 _a, uint256 _b) internal pure returns (uint256) {\r\n    // assert(_b > 0); // Solidity automatically throws when dividing by 0\r\n    // uint256 c = _a / _b;\r\n    // assert(_a == _b * c + _a % _b); // There is no case in which this doesn't hold\r\n    return _a / _b;\r\n  }\r\n\r\n  /**\r\n  * @dev Subtracts two numbers, throws on overflow (i.e. if subtrahend is greater than minuend).\r\n  */\r\n  function sub(uint256 _a, uint256 _b) internal pure returns (uint256) {\r\n    assert(_b <= _a);\r\n    return _a - _b;\r\n  }\r\n\r\n  /**\r\n  * @dev Adds two numbers, throws on overflow.\r\n  */\r\n  function add(uint256 _a, uint256 _b) internal pure returns (uint256 c) {\r\n    c = _a + _b;\r\n    assert(c >= _a);\r\n    return c;\r\n  }\r\n}\r\n\r\ncontract Ownable {\r\n  address public owner;\r\n\r\n\r\n  event OwnershipRenounced(address indexed previousOwner);\r\n  event OwnershipTransferred(\r\n    address indexed previousOwner,\r\n    address indexed newOwner\r\n  );\r\n\r\n\r\n  /**\r\n   * @dev The Ownable constructor sets the original `owner` of the contract to the sender\r\n   * account.\r\n   */\r\n  constructor() public {\r\n    owner = msg.sender;\r\n  }\r\n\r\n  /**\r\n   * @dev Throws if called by any account other than the owner.\r\n   */\r\n  modifier onlyOwner() {\r\n    require(msg.sender == owner);\r\n    _;\r\n  }\r\n\r\n  /**\r\n   * @dev Allows the current owner to relinquish control of the contract.\r\n   * @notice Renouncing to ownership will leave the contract without an owner.\r\n   * It will not be possible to call the functions with the `onlyOwner`\r\n   * modifier anymore.\r\n   */\r\n  function renounceOwnership() public onlyOwner {\r\n    emit OwnershipRenounced(owner);\r\n    owner = address(0);\r\n  }\r\n\r\n  /**\r\n   * @dev Allows the current owner to transfer control of the contract to a newOwner.\r\n   * @param _newOwner The address to transfer ownership to.\r\n   */\r\n  function transferOwnership(address _newOwner) public onlyOwner {\r\n    _transferOwnership(_newOwner);\r\n  }\r\n\r\n  /**\r\n   * @dev Transfers control of the contract to a newOwner.\r\n   * @param _newOwner The address to transfer ownership to.\r\n   */\r\n  function _transferOwnership(address _newOwner) internal {\r\n    require(_newOwner != address(0));\r\n    emit OwnershipTransferred(owner, _newOwner);\r\n    owner = _newOwner;\r\n  }\r\n}\r\n\r\ncontract Claimable is Ownable {\r\n  address public pendingOwner;\r\n\r\n  /**\r\n   * @dev Modifier throws if called by any account other than the pendingOwner.\r\n   */\r\n  modifier onlyPendingOwner() {\r\n    require(msg.sender == pendingOwner);\r\n    _;\r\n  }\r\n\r\n  /**\r\n   * @dev Allows the current owner to set the pendingOwner address.\r\n   * @param newOwner The address to transfer ownership to.\r\n   */\r\n  function transferOwnership(address newOwner) public onlyOwner {\r\n    pendingOwner = newOwner;\r\n  }\r\n\r\n  /**\r\n   * @dev Allows the pendingOwner address to finalize the transfer.\r\n   */\r\n  function claimOwnership() public onlyPendingOwner {\r\n    emit OwnershipTransferred(owner, pendingOwner);\r\n    owner = pendingOwner;\r\n    pendingOwner = address(0);\r\n  }\r\n}\r\n\r\ncontract DelayedClaimable is Claimable {\r\n\r\n  uint256 public end;\r\n  uint256 public start;\r\n\r\n  /**\r\n   * @dev Used to specify the time period during which a pending\r\n   * owner can claim ownership.\r\n   * @param _start The earliest time ownership can be claimed.\r\n   * @param _end The latest time ownership can be claimed.\r\n   */\r\n  function setLimits(uint256 _start, uint256 _end) public onlyOwner {\r\n    require(_start <= _end);\r\n    end = _end;\r\n    start = _start;\r\n  }\r\n\r\n  /**\r\n   * @dev Allows the pendingOwner address to finalize the transfer, as long as it is called within\r\n   * the specified start and end time.\r\n   */\r\n  function claimOwnership() public onlyPendingOwner {\r\n    require((block.number <= end) && (block.number >= start));\r\n    emit OwnershipTransferred(owner, pendingOwner);\r\n    owner = pendingOwner;\r\n    pendingOwner = address(0);\r\n    end = 0;\r\n  }\r\n\r\n}\r\n\r\ncontract OwnerContract is DelayedClaimable {\r\n    Claimable public ownedContract;\r\n    address public pendingOwnedOwner;\r\n    // address internal origOwner;\r\n\r\n    /**\r\n     * @dev bind a contract as its owner\r\n     *\r\n     * @param _contract the contract address that will be binded by this Owner Contract\r\n     */\r\n    function bindContract(address _contract) onlyOwner public returns (bool) {\r\n        require(_contract != address(0));\r\n        ownedContract = Claimable(_contract);\r\n        // origOwner = ownedContract.owner();\r\n\r\n        // take ownership of the owned contract\r\n        ownedContract.claimOwnership();\r\n\r\n        return true;\r\n    }\r\n\r\n    /**\r\n     * @dev change the owner of the contract from this contract address to the original one. \r\n     *\r\n     */\r\n    // function transferOwnershipBack() onlyOwner public {\r\n    //     ownedContract.transferOwnership(origOwner);\r\n    //     ownedContract = Claimable(address(0));\r\n    //     origOwner = address(0);\r\n    // }\r\n\r\n    /**\r\n     * @dev change the owner of the contract from this contract address to another one. \r\n     *\r\n     * @param _nextOwner the contract address that will be next Owner of the original Contract\r\n     */\r\n    function changeOwnershipto(address _nextOwner)  onlyOwner public {\r\n        require(ownedContract != address(0));\r\n\r\n        if (ownedContract.owner() != pendingOwnedOwner) {\r\n            ownedContract.transferOwnership(_nextOwner);\r\n            pendingOwnedOwner = _nextOwner;\r\n            // ownedContract = Claimable(address(0));\r\n            // origOwner = address(0);\r\n        } else {\r\n            // the pending owner has already taken the ownership\r\n            ownedContract = Claimable(address(0));\r\n            pendingOwnedOwner = address(0);\r\n        }\r\n    }\r\n\r\n    /**\r\n     * @dev to confirm the owner of the owned contract has already been transferred. \r\n     *\r\n     */\r\n    function ownedOwnershipTransferred() onlyOwner public returns (bool) {\r\n        require(ownedContract != address(0));\r\n        if (ownedContract.owner() == pendingOwnedOwner) {\r\n            // the pending owner has already taken the ownership  \r\n            ownedContract = Claimable(address(0));\r\n            pendingOwnedOwner = address(0);\r\n            return true;\r\n        } else {\r\n            return false;\r\n        }\r\n    } \r\n}\r\n\r\ncontract DRCWalletStorage is OwnerContract {\r\n    using SafeMath for uint256;\r\n    \r\n    /**\r\n     * withdraw wallet description\r\n     */\r\n    struct WithdrawWallet {\r\n        bytes32 name;\r\n        address walletAddr;\r\n    }\r\n\r\n    /**\r\n     * Deposit data storage\r\n     */\r\n    struct DepositRepository {\r\n        uint256 balance;\r\n        uint256 frozen;\r\n        WithdrawWallet[] withdrawWallets;\r\n        // mapping (bytes32 => address) withdrawWallets;\r\n    }\r\n\r\n    mapping (address => DepositRepository) depositRepos;\r\n    mapping (address => address) public walletDeposits;\r\n    mapping (address => bool) public frozenDeposits;\r\n    uint256 public size;\r\n\r\n    \r\n    /**\r\n\t * @dev add deposit contract address for the default withdraw wallet\r\n     *\r\n     * @param _wallet the default withdraw wallet address\r\n     * @param _depositAddr the corresponding deposit address to the default wallet\r\n\t */\r\n    function addDeposit(address _wallet, address _depositAddr) onlyOwner public returns (bool) {\r\n        require(_wallet != address(0));\r\n        require(_depositAddr != address(0));\r\n        \r\n        walletDeposits[_wallet] = _depositAddr;\r\n        WithdrawWallet[] storage withdrawWalletList = depositRepos[_depositAddr].withdrawWallets;\r\n        withdrawWalletList.push(WithdrawWallet(\"default wallet\", _wallet));\r\n        // depositRepos[_deposit].balance = 0;\r\n        depositRepos[_depositAddr].frozen = 0;\r\n\r\n        size = size.add(1);\r\n        return true;\r\n    }\r\n    \r\n    /**\r\n\t * @dev remove deposit contract address from storage\r\n     *\r\n     * @param _depositAddr the corresponding deposit address \r\n\t */\r\n    function removeDeposit(address _depositAddr) onlyOwner public returns (bool) {\r\n        require(_depositAddr != address(0));\r\n\r\n        WithdrawWallet memory withdraw = depositRepos[_depositAddr].withdrawWallets[0];\r\n        delete walletDeposits[withdraw.walletAddr];\r\n        delete depositRepos[_depositAddr];\r\n        delete frozenDeposits[_depositAddr];\r\n        \r\n        size = size.sub(1);\r\n        return true;\r\n    }\r\n\r\n    /**\r\n\t * @dev add withdraw address for one deposit addresss\r\n     *\r\n     * @param _deposit the corresponding deposit address \r\n     * @param _name the new withdraw wallet name\r\n     * @param _withdraw the new withdraw wallet address\r\n\t */\r\n    function addWithdraw(address _deposit, bytes32 _name, address _withdraw) onlyOwner public returns (bool) {\r\n        require(_deposit != address(0));\r\n\r\n        WithdrawWallet[] storage withdrawWalletList = depositRepos[_deposit].withdrawWallets;\r\n        withdrawWalletList.push(WithdrawWallet(_name, _withdraw));\r\n        return true;\r\n    }\r\n\r\n    /**\r\n\t * @dev increase balance of this deposit address\r\n     *\r\n     * @param _deposit the corresponding deposit address \r\n     * @param _value the amount that the balance will be increased\r\n\t */\r\n    function increaseBalance(address _deposit, uint256 _value) public returns (bool) {\r\n        // require(_deposit != address(0));\r\n        require (walletsNumber(_deposit) > 0);\r\n        uint256 _balance = depositRepos[_deposit].balance;\r\n        depositRepos[_deposit].balance = _balance.add(_value);\r\n        return true;\r\n    }\r\n\r\n    /**\r\n\t * @dev decrease balance of this deposit address\r\n     *\r\n     * @param _deposit the corresponding deposit address \r\n     * @param _value the amount that the balance will be decreased\r\n\t */\r\n    function decreaseBalance(address _deposit, uint256 _value) public returns (bool) {\r\n        // require(_deposit != address(0));\r\n        require (walletsNumber(_deposit) > 0);\r\n        uint256 _balance = depositRepos[_deposit].balance;\r\n        depositRepos[_deposit].balance = _balance.sub(_value);\r\n        return true;\r\n    }\r\n\r\n    /**\r\n\t * @dev change the default withdraw wallet address binding to the deposit contract address\r\n     *\r\n     * @param _oldWallet the old default withdraw wallet\r\n     * @param _newWallet the new default withdraw wallet\r\n\t */\r\n    function changeDefaultWallet(address _oldWallet, address _newWallet) onlyOwner public returns (bool) {\r\n        require(_oldWallet != address(0));\r\n        require(_newWallet != address(0));\r\n\r\n        address _deposit = walletDeposits[_oldWallet];      \r\n        WithdrawWallet[] storage withdrawWalletList = depositRepos[_deposit].withdrawWallets;\r\n        withdrawWalletList[0].walletAddr = _newWallet;\r\n        // emit ChangeDefaultWallet(_oldWallet, _newWallet);\r\n        walletDeposits[_newWallet] = _deposit;\r\n        delete walletDeposits[_oldWallet];\r\n\r\n        return true;\r\n    }\r\n\r\n    /**\r\n\t * @dev change the name of the withdraw wallet address of the deposit contract address\r\n     *\r\n     * @param _deposit the deposit address\r\n     * @param _newName the wallet name\r\n     * @param _wallet the withdraw wallet\r\n\t */\r\n    function changeWalletName(address _deposit, bytes32 _newName, address _wallet) onlyOwner public returns (bool) {\r\n        require(_deposit != address(0));\r\n        require(_wallet != address(0));\r\n      \r\n        uint len = walletsNumber(_deposit);\r\n        for (uint i = 0; i < len; i = i.add(1)) {\r\n            WithdrawWallet storage wallet = depositRepos[_deposit].withdrawWallets[i];            \r\n            if (_wallet == wallet.walletAddr) {\r\n                wallet.name = _newName;\r\n                return true;\r\n            }\r\n        }\r\n\r\n        return false;\r\n    }\r\n\r\n    /**\r\n\t * @dev freeze the tokens in the deposit address\r\n     *\r\n     * @param _deposit the deposit address\r\n     * @param _freeze to freeze or release\r\n     * @param _value the amount of tokens need to be frozen\r\n\t */\r\n    function freezeTokens(address _deposit, bool _freeze, uint256 _value) onlyOwner public returns (bool) {\r\n        require(_deposit != address(0));\r\n        // require(_value <= balanceOf(_deposit));\r\n        \r\n        frozenDeposits[_deposit] = _freeze;\r\n        uint256 _frozen = depositRepos[_deposit].frozen;\r\n        uint256 _balance = depositRepos[_deposit].balance;\r\n        uint256 freezeAble = _balance.sub(_frozen);\r\n        if (_freeze) {\r\n            if (_value > freezeAble) {\r\n                _value = freezeAble;\r\n            }\r\n            depositRepos[_deposit].frozen = _frozen.add(_value);\r\n        } else {\r\n            if (_value > _frozen) {\r\n                _value = _frozen;\r\n            }\r\n            depositRepos[_deposit].frozen = _frozen.sub(_value);\r\n        }\r\n\r\n        return true;\r\n    }\r\n\r\n    /**\r\n\t * @dev get the wallet address for the deposit address\r\n     *\r\n     * @param _deposit the deposit address\r\n     * @param _ind the wallet index in the list\r\n\t */\r\n    function wallet(address _deposit, uint256 _ind) public view returns (address) {\r\n        require(_deposit != address(0));\r\n\r\n        WithdrawWallet[] storage withdrawWalletList = depositRepos[_deposit].withdrawWallets;\r\n        return withdrawWalletList[_ind].walletAddr;\r\n    }\r\n\r\n    /**\r\n\t * @dev get the wallet name for the deposit address\r\n     *\r\n     * @param _deposit the deposit address\r\n     * @param _ind the wallet index in the list\r\n\t */\r\n    function walletName(address _deposit, uint256 _ind) public view returns (bytes32) {\r\n        require(_deposit != address(0));\r\n\r\n        WithdrawWallet[] storage withdrawWalletList = depositRepos[_deposit].withdrawWallets;\r\n        return withdrawWalletList[_ind].name;\r\n    }\r\n\r\n    /**\r\n\t * @dev get the wallet name for the deposit address\r\n     *\r\n     * @param _deposit the deposit address\r\n\t */\r\n    function walletsNumber(address _deposit) public view returns (uint256) {\r\n        require(_deposit != address(0));\r\n\r\n        WithdrawWallet[] storage withdrawWalletList = depositRepos[_deposit].withdrawWallets;\r\n        return withdrawWalletList.length;\r\n    }\r\n\r\n    /**\r\n\t * @dev get the balance of the deposit account\r\n     *\r\n     * @param _deposit the deposit address\r\n\t */\r\n    function balanceOf(address _deposit) public view returns (uint256) {\r\n        require(_deposit != address(0));\r\n        return depositRepos[_deposit].balance;\r\n    }\r\n\r\n    /**\r\n\t * @dev get the frozen amount of the deposit address\r\n     *\r\n     * @param _deposit the deposit address\r\n\t */\r\n    function frozenAmount(address _deposit) public view returns (uint256) {\r\n        require(_deposit != address(0));\r\n        return depositRepos[_deposit].frozen;\r\n    }\r\n}\r\n\r\n",
  "sourcePath": "E:\\workspace\\Dapp\\DRCWalletManager\\contracts\\DRCWalletStorageFlattened.sol",
  "compiler": {
    "name": "solc",
    "version": "0.4.24+commit.e67f0147.Emscripten.clang"
  },
  "schemaVersion": "2.0.1",
  "updatedAt": "2018-08-24T12:13:52.095Z"
}