{
  "contractName": "DRCWalletStorage",
  "abi": [
    {
      "constant": false,
      "inputs": [],
      "name": "claimOwnership",
      "outputs": [],
      "payable": false,
      "stateMutability": "nonpayable",
      "type": "function"
    },
    {
      "constant": false,
      "inputs": [],
      "name": "renounceOwnership",
      "outputs": [],
      "payable": false,
      "stateMutability": "nonpayable",
      "type": "function"
    },
    {
      "constant": true,
      "inputs": [
        {
          "name": "",
          "type": "address"
        }
      ],
      "name": "walletDeposits",
      "outputs": [
        {
          "name": "",
          "type": "address"
        }
      ],
      "payable": false,
      "stateMutability": "view",
      "type": "function"
    },
    {
      "constant": true,
      "inputs": [],
      "name": "owner",
      "outputs": [
        {
          "name": "",
          "type": "address"
        }
      ],
      "payable": false,
      "stateMutability": "view",
      "type": "function"
    },
    {
      "constant": true,
      "inputs": [],
      "name": "size",
      "outputs": [
        {
          "name": "",
          "type": "uint256"
        }
      ],
      "payable": false,
      "stateMutability": "view",
      "type": "function"
    },
    {
      "constant": true,
      "inputs": [
        {
          "name": "",
          "type": "address"
        }
      ],
      "name": "frozenDeposits",
      "outputs": [
        {
          "name": "",
          "type": "bool"
        }
      ],
      "payable": false,
      "stateMutability": "view",
      "type": "function"
    },
    {
      "constant": true,
      "inputs": [],
      "name": "pendingOwner",
      "outputs": [
        {
          "name": "",
          "type": "address"
        }
      ],
      "payable": false,
      "stateMutability": "view",
      "type": "function"
    },
    {
      "constant": false,
      "inputs": [
        {
          "name": "newOwner",
          "type": "address"
        }
      ],
      "name": "transferOwnership",
      "outputs": [],
      "payable": false,
      "stateMutability": "nonpayable",
      "type": "function"
    },
    {
      "anonymous": false,
      "inputs": [
        {
          "indexed": true,
          "name": "previousOwner",
          "type": "address"
        }
      ],
      "name": "OwnershipRenounced",
      "type": "event"
    },
    {
      "anonymous": false,
      "inputs": [
        {
          "indexed": true,
          "name": "previousOwner",
          "type": "address"
        },
        {
          "indexed": true,
          "name": "newOwner",
          "type": "address"
        }
      ],
      "name": "OwnershipTransferred",
      "type": "event"
    },
    {
      "constant": false,
      "inputs": [
        {
          "name": "_wallet",
          "type": "address"
        },
        {
          "name": "_depositAddr",
          "type": "address"
        }
      ],
      "name": "addDeposit",
      "outputs": [
        {
          "name": "",
          "type": "bool"
        }
      ],
      "payable": false,
      "stateMutability": "nonpayable",
      "type": "function"
    },
    {
      "constant": false,
      "inputs": [
        {
          "name": "_depositAddr",
          "type": "address"
        }
      ],
      "name": "removeDeposit",
      "outputs": [
        {
          "name": "",
          "type": "bool"
        }
      ],
      "payable": false,
      "stateMutability": "nonpayable",
      "type": "function"
    },
    {
      "constant": false,
      "inputs": [
        {
          "name": "_deposit",
          "type": "address"
        },
        {
          "name": "_name",
          "type": "bytes32"
        },
        {
          "name": "_withdraw",
          "type": "address"
        }
      ],
      "name": "addWithdraw",
      "outputs": [
        {
          "name": "",
          "type": "bool"
        }
      ],
      "payable": false,
      "stateMutability": "nonpayable",
      "type": "function"
    },
    {
      "constant": false,
      "inputs": [
        {
          "name": "_deposit",
          "type": "address"
        },
        {
          "name": "_value",
          "type": "uint256"
        }
      ],
      "name": "increaseBalance",
      "outputs": [
        {
          "name": "",
          "type": "bool"
        }
      ],
      "payable": false,
      "stateMutability": "nonpayable",
      "type": "function"
    },
    {
      "constant": false,
      "inputs": [
        {
          "name": "_deposit",
          "type": "address"
        },
        {
          "name": "_value",
          "type": "uint256"
        }
      ],
      "name": "decreaseBalance",
      "outputs": [
        {
          "name": "",
          "type": "bool"
        }
      ],
      "payable": false,
      "stateMutability": "nonpayable",
      "type": "function"
    },
    {
      "constant": false,
      "inputs": [
        {
          "name": "_oldWallet",
          "type": "address"
        },
        {
          "name": "_newWallet",
          "type": "address"
        }
      ],
      "name": "changeDefaultWallet",
      "outputs": [
        {
          "name": "",
          "type": "bool"
        }
      ],
      "payable": false,
      "stateMutability": "nonpayable",
      "type": "function"
    },
    {
      "constant": false,
      "inputs": [
        {
          "name": "_deposit",
          "type": "address"
        },
        {
          "name": "_newName",
          "type": "bytes32"
        },
        {
          "name": "_wallet",
          "type": "address"
        }
      ],
      "name": "changeWalletName",
      "outputs": [
        {
          "name": "",
          "type": "bool"
        }
      ],
      "payable": false,
      "stateMutability": "nonpayable",
      "type": "function"
    },
    {
      "constant": false,
      "inputs": [
        {
          "name": "_deposit",
          "type": "address"
        },
        {
          "name": "_freeze",
          "type": "bool"
        },
        {
          "name": "_value",
          "type": "uint256"
        }
      ],
      "name": "freezeTokens",
      "outputs": [
        {
          "name": "",
          "type": "bool"
        }
      ],
      "payable": false,
      "stateMutability": "nonpayable",
      "type": "function"
    },
    {
      "constant": true,
      "inputs": [
        {
          "name": "_deposit",
          "type": "address"
        },
        {
          "name": "_ind",
          "type": "uint256"
        }
      ],
      "name": "wallet",
      "outputs": [
        {
          "name": "",
          "type": "address"
        }
      ],
      "payable": false,
      "stateMutability": "view",
      "type": "function"
    },
    {
      "constant": true,
      "inputs": [
        {
          "name": "_deposit",
          "type": "address"
        },
        {
          "name": "_ind",
          "type": "uint256"
        }
      ],
      "name": "walletName",
      "outputs": [
        {
          "name": "",
          "type": "bytes32"
        }
      ],
      "payable": false,
      "stateMutability": "view",
      "type": "function"
    },
    {
      "constant": true,
      "inputs": [
        {
          "name": "_deposit",
          "type": "address"
        }
      ],
      "name": "walletsNumber",
      "outputs": [
        {
          "name": "",
          "type": "uint256"
        }
      ],
      "payable": false,
      "stateMutability": "view",
      "type": "function"
    },
    {
      "constant": true,
      "inputs": [
        {
          "name": "_deposit",
          "type": "address"
        }
      ],
      "name": "balanceOf",
      "outputs": [
        {
          "name": "",
          "type": "uint256"
        }
      ],
      "payable": false,
      "stateMutability": "view",
      "type": "function"
    },
    {
      "constant": true,
      "inputs": [
        {
          "name": "_deposit",
          "type": "address"
        }
      ],
      "name": "frozenAmount",
      "outputs": [
        {
          "name": "",
          "type": "uint256"
        }
      ],
      "payable": false,
      "stateMutability": "view",
      "type": "function"
    }
  ],
  "bytecode": "0x608060405260008054600160a060020a03191633179055610dfe806100256000396000f30060806040526004361061011c5763ffffffff7c01000000000000000000000000000000000000000000000000000000006000350416630a633e09811461012157806322e113a3146101565780632f1c563e1461017f578063437ec21d146101a65780634e71e0c8146101e65780635b86f599146101fd57806370a0823114610221578063715018a61461025457806379b6fead1461026957806384062bdd1461028a57806386602c84146102b55780638da5cb5b146102d6578063949d225d146102eb578063b714a90d14610300578063bf40320414610321578063dd513e3c14610348578063e30c397814610369578063e31dd8961461037e578063f19ae02a146103a9578063f2fde38b146103cd578063ff056949146103ee575b600080fd5b34801561012d57600080fd5b50610142600160a060020a0360043516610412565b604080519115158252519081900360200190f35b34801561016257600080fd5b50610142600160a060020a03600435166024351515604435610522565b34801561018b57600080fd5b50610142600160a060020a0360043581169060243516610626565b3480156101b257600080fd5b506101ca600160a060020a036004351660243561072f565b60408051600160a060020a039092168252519081900360200190f35b3480156101f257600080fd5b506101fb610797565b005b34801561020957600080fd5b50610142600160a060020a0360043516602435610812565b34801561022d57600080fd5b50610242600160a060020a036004351661088f565b60408051918252519081900360200190f35b34801561026057600080fd5b506101fb6108c2565b34801561027557600080fd5b506101ca600160a060020a0360043516610921565b34801561029657600080fd5b50610142600160a060020a03600435811690602435906044351661093c565b3480156102c157600080fd5b50610242600160a060020a03600435166109d6565b3480156102e257600080fd5b506101ca610a0c565b3480156102f757600080fd5b50610242610a1b565b34801561030c57600080fd5b50610242600160a060020a0360043516610a21565b34801561032d57600080fd5b50610142600160a060020a0360043581169060243516610a5a565b34801561035457600080fd5b50610142600160a060020a0360043516610b46565b34801561037557600080fd5b506101ca610b5b565b34801561038a57600080fd5b50610142600160a060020a036004358116906024359060443516610b6a565b3480156103b557600080fd5b50610242600160a060020a0360043516602435610c4f565b3480156103d957600080fd5b506101fb600160a060020a0360043516610cad565b3480156103fa57600080fd5b50610142600160a060020a0360043516602435610ce6565b600061041c610d64565b600054600160a060020a0316331461043357600080fd5b600160a060020a038316151561044857600080fd5b600160a060020a03831660009081526002602081905260408220018054909190811061047057fe5b60009182526020808320604080518082018252600294850290920180548352600190810154600160a060020a039081168486018190528752600385528287208054600160a060020a031916905589168652928490528420848155918201849055935091906104e090830182610d7b565b5050600160a060020a0383166000908152600460205260409020805460ff1916905560055461051690600163ffffffff610d3f16565b60055550600192915050565b60008054819081908190600160a060020a0316331461054057600080fd5b600160a060020a038716151561055557600080fd5b600160a060020a0387166000908152600460209081526040808320805460ff19168a1515179055600290915290206001810154905490935091506105998284610d3f565b905085156105de57808511156105ad578094505b6105bd838663ffffffff610d5116565b600160a060020a038816600090815260026020526040902060010155610617565b828511156105ea578294505b6105fa838663ffffffff610d3f16565b600160a060020a0388166000908152600260205260409020600101555b600193505b5050509392505050565b600080548190600160a060020a0316331461064057600080fd5b600160a060020a038416151561065557600080fd5b600160a060020a038316151561066a57600080fd5b50600160a060020a0383811660008181526003602090815260408083208054600160a060020a0319908116898816908117909255818552600280855283862084518086019095527f64656661756c742077616c6c65740000000000000000000000000000000000008552848601978852808201805460018181018355828a52888a2097519185029097019081559851988601805490941698909916979097179091559084529091529182015560055461072291610d51565b6005555060019392505050565b600080600160a060020a038416151561074757600080fd5b50600160a060020a038316600090815260026020819052604090912001805481908490811061077257fe5b6000918252602090912060029091020160010154600160a060020a0316949350505050565b600154600160a060020a031633146107ae57600080fd5b60015460008054604051600160a060020a0393841693909116917f8be0079c531659141344cd1fd0a4f28419497f9722a3daafe3b4186f6b6457e091a36001805460008054600160a060020a0319908116600160a060020a03841617909155169055565b600080548190600160a060020a0316331461082c57600080fd5b600061083785610a21565b1161084157600080fd5b50600160a060020a03831660009081526002602052604090205461086b818463ffffffff610d5116565b600160a060020a038516600090815260026020526040902055600191505092915050565b6000600160a060020a03821615156108a657600080fd5b50600160a060020a031660009081526002602052604090205490565b600054600160a060020a031633146108d957600080fd5b60008054604051600160a060020a03909116917ff8df31144d9c2f0f6b59d69b8b98abd5459d07f2742c4df920b25aae33c6482091a260008054600160a060020a0319169055565b600360205260009081526040902054600160a060020a031681565b600080548190600160a060020a0316331461095657600080fd5b600160a060020a038516151561096b57600080fd5b5050600160a060020a0392831660009081526002602081815260408084208151808301909252958152938616848201908152948201805460018082018355918552919093209351910290920191825591519082018054600160a060020a031916919093161790915590565b6000600160a060020a03821615156109ed57600080fd5b50600160a060020a031660009081526002602052604090206001015490565b600054600160a060020a031681565b60055481565b600080600160a060020a0383161515610a3957600080fd5b5050600160a060020a03166000908152600260208190526040909120015490565b6000805481908190600160a060020a03163314610a7657600080fd5b600160a060020a0385161515610a8b57600080fd5b600160a060020a0384161515610aa057600080fd5b5050600160a060020a03808416600090815260036020908152604080832054909316808352600291829052928220018054909185918391908110610ae057fe5b60009182526020808320600160029093020182018054600160a060020a03958616600160a060020a031991821617909155888516845260039091526040808420805488871690841617905593891683529290912080549092169091559250505092915050565b60046020526000908152604090205460ff1681565b600154600160a060020a031681565b60008054819081908190600160a060020a03163314610b8857600080fd5b600160a060020a0387161515610b9d57600080fd5b600160a060020a0385161515610bb257600080fd5b610bbb87610a21565b9250600091505b82821015610c4257600160a060020a038716600090815260026020819052604090912001805483908110610bf257fe5b60009182526020909120600160029092020190810154909150600160a060020a0386811691161415610c2a578581556001935061061c565b610c3b82600163ffffffff610d5116565b9150610bc2565b5060009695505050505050565b600080600160a060020a0384161515610c6757600080fd5b50600160a060020a0383166000908152600260208190526040909120018054819084908110610c9257fe5b90600052602060002090600202016000015491505092915050565b600054600160a060020a03163314610cc457600080fd5b60018054600160a060020a031916600160a060020a0392909216919091179055565b600080548190600160a060020a03163314610d0057600080fd5b6000610d0b85610a21565b11610d1557600080fd5b50600160a060020a03831660009081526002602052604090205461086b818463ffffffff610d3f16565b600082821115610d4b57fe5b50900390565b81810182811015610d5e57fe5b92915050565b604080518082019091526000808252602082015290565b5080546000825560020290600052602060002090810190610d9c9190610d9f565b50565b610dcf91905b80821115610dcb5760008155600181018054600160a060020a0319169055600201610da5565b5090565b905600a165627a7a723058209cc9cfd50c6e30b20e01533d8192c2214bdd12946e82a2fcaf7887e8b452e1c90029",
  "source": "pragma solidity ^0.4.23;\r\n\r\n\r\nimport 'openzeppelin-solidity/contracts/math/SafeMath.sol';\r\nimport 'openzeppelin-solidity/contracts/ownership/Claimable.sol';\r\n\r\n\r\n/**\r\n * contract that manage the wallet operations on DRC platform\r\n */\r\ncontract DRCWalletStorage is Claimable {\r\n    using SafeMath for uint256;\r\n    \r\n    /**\r\n     * withdraw wallet description\r\n     */\r\n    struct WithdrawWallet {\r\n        bytes32 name;\r\n        address walletAddr;\r\n    }\r\n\r\n    /**\r\n     * Deposit data storage\r\n     */\r\n    struct DepositRepository {\r\n        uint256 balance;\r\n        uint256 frozen;\r\n        WithdrawWallet[] withdrawWallets;\r\n        // mapping (bytes32 => address) withdrawWallets;\r\n    }\r\n\r\n    mapping (address => DepositRepository) depositRepos;\r\n    mapping (address => address) public walletDeposits;\r\n    mapping (address => bool) public frozenDeposits;\r\n    uint256 public size;\r\n\r\n    \r\n    /**\r\n\t * @dev add deposit contract address for the default withdraw wallet\r\n     *\r\n     * @param _wallet the default withdraw wallet address\r\n     * @param _depositAddr the corresponding deposit address to the default wallet\r\n\t */\r\n    function addDeposit(address _wallet, address _depositAddr) onlyOwner public returns (bool) {\r\n        require(_wallet != address(0));\r\n        require(_depositAddr != address(0));\r\n        \r\n        walletDeposits[_wallet] = _depositAddr;\r\n        WithdrawWallet[] storage withdrawWalletList = depositRepos[_depositAddr].withdrawWallets;\r\n        withdrawWalletList.push(WithdrawWallet(\"default wallet\", _wallet));\r\n        // depositRepos[_deposit].balance = 0;\r\n        depositRepos[_depositAddr].frozen = 0;\r\n\r\n        size = size.add(1);\r\n        return true;\r\n    }\r\n    \r\n    /**\r\n\t * @dev remove deposit contract address from storage\r\n     *\r\n     * @param _depositAddr the corresponding deposit address \r\n\t */\r\n    function removeDeposit(address _depositAddr) onlyOwner public returns (bool) {\r\n        require(_depositAddr != address(0));\r\n\r\n        WithdrawWallet memory withdraw = depositRepos[_depositAddr].withdrawWallets[0];\r\n        delete walletDeposits[withdraw.walletAddr];\r\n        delete depositRepos[_depositAddr];\r\n        delete frozenDeposits[_depositAddr];\r\n        \r\n        size = size.sub(1);\r\n        return true;\r\n    }\r\n\r\n    /**\r\n\t * @dev add withdraw address for one deposit addresss\r\n     *\r\n     * @param _deposit the corresponding deposit address \r\n     * @param _name the new withdraw wallet name\r\n     * @param _withdraw the new withdraw wallet address\r\n\t */\r\n    function addWithdraw(address _deposit, bytes32 _name, address _withdraw) onlyOwner public returns (bool) {\r\n        require(_deposit != address(0));\r\n\r\n        WithdrawWallet[] storage withdrawWalletList = depositRepos[_deposit].withdrawWallets;\r\n        withdrawWalletList.push(WithdrawWallet(_name, _withdraw));\r\n        return true;\r\n    }\r\n\r\n    /**\r\n\t * @dev increase balance of this deposit address\r\n     *\r\n     * @param _deposit the corresponding deposit address \r\n     * @param _value the amount that the balance will be increased\r\n\t */\r\n    function increaseBalance(address _deposit, uint256 _value) onlyOwner public returns (bool) {\r\n        // require(_deposit != address(0));\r\n        require (walletsNumber(_deposit) > 0);\r\n        uint256 _balance = depositRepos[_deposit].balance;\r\n        depositRepos[_deposit].balance = _balance.add(_value);\r\n        return true;\r\n    }\r\n\r\n    /**\r\n\t * @dev decrease balance of this deposit address\r\n     *\r\n     * @param _deposit the corresponding deposit address \r\n     * @param _value the amount that the balance will be decreased\r\n\t */\r\n    function decreaseBalance(address _deposit, uint256 _value) onlyOwner public returns (bool) {\r\n        // require(_deposit != address(0));\r\n        require (walletsNumber(_deposit) > 0);\r\n        uint256 _balance = depositRepos[_deposit].balance;\r\n        depositRepos[_deposit].balance = _balance.sub(_value);\r\n        return true;\r\n    }\r\n\r\n    /**\r\n\t * @dev change the default withdraw wallet address binding to the deposit contract address\r\n     *\r\n     * @param _oldWallet the old default withdraw wallet\r\n     * @param _newWallet the new default withdraw wallet\r\n\t */\r\n    function changeDefaultWallet(address _oldWallet, address _newWallet) onlyOwner public returns (bool) {\r\n        require(_oldWallet != address(0));\r\n        require(_newWallet != address(0));\r\n\r\n        address _deposit = walletDeposits[_oldWallet];      \r\n        WithdrawWallet[] storage withdrawWalletList = depositRepos[_deposit].withdrawWallets;\r\n        withdrawWalletList[0].walletAddr = _newWallet;\r\n        // emit ChangeDefaultWallet(_oldWallet, _newWallet);\r\n        walletDeposits[_newWallet] = _deposit;\r\n        delete walletDeposits[_oldWallet];\r\n\r\n        return true;\r\n    }\r\n\r\n    /**\r\n\t * @dev change the name of the withdraw wallet address of the deposit contract address\r\n     *\r\n     * @param _deposit the deposit address\r\n     * @param _newName the wallet name\r\n     * @param _wallet the withdraw wallet\r\n\t */\r\n    function changeWalletName(address _deposit, bytes32 _newName, address _wallet) onlyOwner public returns (bool) {\r\n        require(_deposit != address(0));\r\n        require(_wallet != address(0));\r\n      \r\n        uint len = walletsNumber(_deposit);\r\n        for (uint i = 0; i < len; i = i.add(1)) {\r\n            WithdrawWallet storage wallet = depositRepos[_deposit].withdrawWallets[i];            \r\n            if (_wallet == wallet.walletAddr) {\r\n                wallet.name = _newName;\r\n                return true;\r\n            }\r\n        }\r\n\r\n        return false;\r\n    }\r\n\r\n    /**\r\n\t * @dev freeze the tokens in the deposit address\r\n     *\r\n     * @param _deposit the deposit address\r\n     * @param _freeze to freeze or release\r\n     * @param _value the amount of tokens need to be frozen\r\n\t */\r\n    function freezeTokens(address _deposit, bool _freeze, uint256 _value) onlyOwner public returns (bool) {\r\n        require(_deposit != address(0));\r\n        // require(_value <= balanceOf(_deposit));\r\n        \r\n        frozenDeposits[_deposit] = _freeze;\r\n        uint256 _frozen = depositRepos[_deposit].frozen;\r\n        uint256 _balance = depositRepos[_deposit].balance;\r\n        uint256 freezeAble = _balance.sub(_frozen);\r\n        if (_freeze) {\r\n            if (_value > freezeAble) {\r\n                _value = freezeAble;\r\n            }\r\n            depositRepos[_deposit].frozen = _frozen.add(_value);\r\n        } else {\r\n            if (_value > _frozen) {\r\n                _value = _frozen;\r\n            }\r\n            depositRepos[_deposit].frozen = _frozen.sub(_value);\r\n        }\r\n\r\n        return true;\r\n    }\r\n\r\n    /**\r\n\t * @dev get the wallet address for the deposit address\r\n     *\r\n     * @param _deposit the deposit address\r\n     * @param _ind the wallet index in the list\r\n\t */\r\n    function wallet(address _deposit, uint256 _ind) public view returns (address) {\r\n        require(_deposit != address(0));\r\n\r\n        WithdrawWallet[] storage withdrawWalletList = depositRepos[_deposit].withdrawWallets;\r\n        return withdrawWalletList[_ind].walletAddr;\r\n    }\r\n\r\n    /**\r\n\t * @dev get the wallet name for the deposit address\r\n     *\r\n     * @param _deposit the deposit address\r\n     * @param _ind the wallet index in the list\r\n\t */\r\n    function walletName(address _deposit, uint256 _ind) public view returns (bytes32) {\r\n        require(_deposit != address(0));\r\n\r\n        WithdrawWallet[] storage withdrawWalletList = depositRepos[_deposit].withdrawWallets;\r\n        return withdrawWalletList[_ind].name;\r\n    }\r\n\r\n    /**\r\n\t * @dev get the wallet name for the deposit address\r\n     *\r\n     * @param _deposit the deposit address\r\n\t */\r\n    function walletsNumber(address _deposit) public view returns (uint256) {\r\n        require(_deposit != address(0));\r\n\r\n        WithdrawWallet[] storage withdrawWalletList = depositRepos[_deposit].withdrawWallets;\r\n        return withdrawWalletList.length;\r\n    }\r\n\r\n    /**\r\n\t * @dev get the balance of the deposit account\r\n     *\r\n     * @param _deposit the deposit address\r\n\t */\r\n    function balanceOf(address _deposit) public view returns (uint256) {\r\n        require(_deposit != address(0));\r\n        return depositRepos[_deposit].balance;\r\n    }\r\n\r\n    /**\r\n\t * @dev get the frozen amount of the deposit address\r\n     *\r\n     * @param _deposit the deposit address\r\n\t */\r\n    function frozenAmount(address _deposit) public view returns (uint256) {\r\n        require(_deposit != address(0));\r\n        return depositRepos[_deposit].frozen;\r\n    }\r\n}",
  "sourcePath": "E:\\workspace\\Dapp\\DRCWalletManager\\contracts\\DRCWalletStorage.sol",
  "compiler": {
    "name": "solc",
    "version": "0.4.24+commit.e67f0147.Emscripten.clang"
  },
  "schemaVersion": "2.0.1",
  "updatedAt": "2018-08-27T14:43:58.794Z"
}