{
  "contractName": "DRCWalletStorage",
  "abi": [
    {
      "constant": false,
      "inputs": [
        {
          "name": "_token",
          "type": "address"
        },
        {
          "name": "_to",
          "type": "address"
        },
        {
          "name": "_value",
          "type": "uint256"
        }
      ],
      "name": "withdrawToken",
      "outputs": [
        {
          "name": "",
          "type": "bool"
        }
      ],
      "payable": false,
      "stateMutability": "nonpayable",
      "type": "function"
    },
    {
      "constant": false,
      "inputs": [],
      "name": "claimOwnership",
      "outputs": [],
      "payable": false,
      "stateMutability": "nonpayable",
      "type": "function"
    },
    {
      "constant": false,
      "inputs": [],
      "name": "renounceOwnership",
      "outputs": [],
      "payable": false,
      "stateMutability": "nonpayable",
      "type": "function"
    },
    {
      "constant": true,
      "inputs": [
        {
          "name": "",
          "type": "address"
        }
      ],
      "name": "walletDeposits",
      "outputs": [
        {
          "name": "",
          "type": "address"
        }
      ],
      "payable": false,
      "stateMutability": "view",
      "type": "function"
    },
    {
      "constant": true,
      "inputs": [],
      "name": "owner",
      "outputs": [
        {
          "name": "",
          "type": "address"
        }
      ],
      "payable": false,
      "stateMutability": "view",
      "type": "function"
    },
    {
      "constant": true,
      "inputs": [],
      "name": "size",
      "outputs": [
        {
          "name": "",
          "type": "uint256"
        }
      ],
      "payable": false,
      "stateMutability": "view",
      "type": "function"
    },
    {
      "constant": true,
      "inputs": [
        {
          "name": "",
          "type": "address"
        }
      ],
      "name": "frozenDeposits",
      "outputs": [
        {
          "name": "",
          "type": "bool"
        }
      ],
      "payable": false,
      "stateMutability": "view",
      "type": "function"
    },
    {
      "constant": true,
      "inputs": [],
      "name": "pendingOwner",
      "outputs": [
        {
          "name": "",
          "type": "address"
        }
      ],
      "payable": false,
      "stateMutability": "view",
      "type": "function"
    },
    {
      "constant": false,
      "inputs": [
        {
          "name": "newOwner",
          "type": "address"
        }
      ],
      "name": "transferOwnership",
      "outputs": [],
      "payable": false,
      "stateMutability": "nonpayable",
      "type": "function"
    },
    {
      "constant": false,
      "inputs": [
        {
          "name": "_to",
          "type": "address"
        },
        {
          "name": "_amount",
          "type": "uint256"
        }
      ],
      "name": "withdraw",
      "outputs": [
        {
          "name": "",
          "type": "bool"
        }
      ],
      "payable": false,
      "stateMutability": "nonpayable",
      "type": "function"
    },
    {
      "payable": true,
      "stateMutability": "payable",
      "type": "fallback"
    },
    {
      "anonymous": false,
      "inputs": [
        {
          "indexed": false,
          "name": "_from",
          "type": "address"
        },
        {
          "indexed": false,
          "name": "_value",
          "type": "uint256"
        }
      ],
      "name": "ReceiveEther",
      "type": "event"
    },
    {
      "anonymous": false,
      "inputs": [
        {
          "indexed": false,
          "name": "_to",
          "type": "address"
        },
        {
          "indexed": false,
          "name": "_value",
          "type": "uint256"
        }
      ],
      "name": "WithdrawEther",
      "type": "event"
    },
    {
      "anonymous": false,
      "inputs": [
        {
          "indexed": false,
          "name": "_token",
          "type": "address"
        },
        {
          "indexed": false,
          "name": "_to",
          "type": "address"
        },
        {
          "indexed": false,
          "name": "_value",
          "type": "uint256"
        }
      ],
      "name": "WithdrawToken",
      "type": "event"
    },
    {
      "anonymous": false,
      "inputs": [
        {
          "indexed": true,
          "name": "previousOwner",
          "type": "address"
        }
      ],
      "name": "OwnershipRenounced",
      "type": "event"
    },
    {
      "anonymous": false,
      "inputs": [
        {
          "indexed": true,
          "name": "previousOwner",
          "type": "address"
        },
        {
          "indexed": true,
          "name": "newOwner",
          "type": "address"
        }
      ],
      "name": "OwnershipTransferred",
      "type": "event"
    },
    {
      "constant": false,
      "inputs": [
        {
          "name": "_wallet",
          "type": "address"
        },
        {
          "name": "_depositAddr",
          "type": "address"
        }
      ],
      "name": "addDeposit",
      "outputs": [
        {
          "name": "",
          "type": "bool"
        }
      ],
      "payable": false,
      "stateMutability": "nonpayable",
      "type": "function"
    },
    {
      "constant": false,
      "inputs": [
        {
          "name": "_depositAddr",
          "type": "address"
        }
      ],
      "name": "removeDeposit",
      "outputs": [
        {
          "name": "",
          "type": "bool"
        }
      ],
      "payable": false,
      "stateMutability": "nonpayable",
      "type": "function"
    },
    {
      "constant": false,
      "inputs": [
        {
          "name": "_deposit",
          "type": "address"
        },
        {
          "name": "_name",
          "type": "bytes32"
        },
        {
          "name": "_withdraw",
          "type": "address"
        }
      ],
      "name": "addWithdraw",
      "outputs": [
        {
          "name": "",
          "type": "bool"
        }
      ],
      "payable": false,
      "stateMutability": "nonpayable",
      "type": "function"
    },
    {
      "constant": false,
      "inputs": [
        {
          "name": "_deposit",
          "type": "address"
        },
        {
          "name": "_value",
          "type": "uint256"
        }
      ],
      "name": "increaseBalance",
      "outputs": [
        {
          "name": "",
          "type": "bool"
        }
      ],
      "payable": false,
      "stateMutability": "nonpayable",
      "type": "function"
    },
    {
      "constant": false,
      "inputs": [
        {
          "name": "_deposit",
          "type": "address"
        },
        {
          "name": "_value",
          "type": "uint256"
        }
      ],
      "name": "decreaseBalance",
      "outputs": [
        {
          "name": "",
          "type": "bool"
        }
      ],
      "payable": false,
      "stateMutability": "nonpayable",
      "type": "function"
    },
    {
      "constant": false,
      "inputs": [
        {
          "name": "_oldWallet",
          "type": "address"
        },
        {
          "name": "_newWallet",
          "type": "address"
        }
      ],
      "name": "changeDefaultWallet",
      "outputs": [
        {
          "name": "",
          "type": "bool"
        }
      ],
      "payable": false,
      "stateMutability": "nonpayable",
      "type": "function"
    },
    {
      "constant": false,
      "inputs": [
        {
          "name": "_deposit",
          "type": "address"
        },
        {
          "name": "_newName",
          "type": "bytes32"
        },
        {
          "name": "_wallet",
          "type": "address"
        }
      ],
      "name": "changeWalletName",
      "outputs": [
        {
          "name": "",
          "type": "bool"
        }
      ],
      "payable": false,
      "stateMutability": "nonpayable",
      "type": "function"
    },
    {
      "constant": false,
      "inputs": [
        {
          "name": "_deposit",
          "type": "address"
        },
        {
          "name": "_freeze",
          "type": "bool"
        },
        {
          "name": "_value",
          "type": "uint256"
        }
      ],
      "name": "freezeTokens",
      "outputs": [
        {
          "name": "",
          "type": "bool"
        }
      ],
      "payable": false,
      "stateMutability": "nonpayable",
      "type": "function"
    },
    {
      "constant": true,
      "inputs": [
        {
          "name": "_deposit",
          "type": "address"
        },
        {
          "name": "_ind",
          "type": "uint256"
        }
      ],
      "name": "wallet",
      "outputs": [
        {
          "name": "",
          "type": "address"
        }
      ],
      "payable": false,
      "stateMutability": "view",
      "type": "function"
    },
    {
      "constant": true,
      "inputs": [
        {
          "name": "_deposit",
          "type": "address"
        },
        {
          "name": "_ind",
          "type": "uint256"
        }
      ],
      "name": "walletName",
      "outputs": [
        {
          "name": "",
          "type": "bytes32"
        }
      ],
      "payable": false,
      "stateMutability": "view",
      "type": "function"
    },
    {
      "constant": true,
      "inputs": [
        {
          "name": "_deposit",
          "type": "address"
        }
      ],
      "name": "walletsNumber",
      "outputs": [
        {
          "name": "",
          "type": "uint256"
        }
      ],
      "payable": false,
      "stateMutability": "view",
      "type": "function"
    },
    {
      "constant": true,
      "inputs": [
        {
          "name": "_deposit",
          "type": "address"
        }
      ],
      "name": "balanceOf",
      "outputs": [
        {
          "name": "",
          "type": "int256"
        }
      ],
      "payable": false,
      "stateMutability": "view",
      "type": "function"
    },
    {
      "constant": true,
      "inputs": [
        {
          "name": "_deposit",
          "type": "address"
        }
      ],
      "name": "frozenAmount",
      "outputs": [
        {
          "name": "",
          "type": "uint256"
        }
      ],
      "payable": false,
      "stateMutability": "view",
      "type": "function"
    }
  ],
  "bytecode": "0x608060405260008054600160a060020a03191633179055611061806100256000396000f3006080604052600436106101325763ffffffff7c010000000000000000000000000000000000000000000000000000000060003504166301e33667811461016e5780630a633e09146101ac57806322e113a3146101cd5780632f1c563e146101f6578063437ec21d1461021d5780634e71e0c81461025d5780635b86f5991461027457806370a0823114610298578063715018a6146102cb57806379b6fead146102e057806384062bdd1461030157806386602c841461032c5780638da5cb5b1461034d578063949d225d14610362578063b714a90d14610377578063bf40320414610398578063dd513e3c146103bf578063e30c3978146103e0578063e31dd896146103f5578063f19ae02a14610420578063f2fde38b14610444578063f3fef3a314610465578063ff05694914610489575b6040805133815234602082015281517ff32a9f77675fd5917534c7746608fd3e309eac68fbdcbf5925e24ca97a704396929181900390910190a1005b34801561017a57600080fd5b50610198600160a060020a03600435811690602435166044356104ad565b604080519115158252519081900360200190f35b3480156101b857600080fd5b50610198600160a060020a03600435166105df565b3480156101d957600080fd5b50610198600160a060020a036004351660243515156044356106ef565b34801561020257600080fd5b50610198600160a060020a03600435811690602435166107fc565b34801561022957600080fd5b50610241600160a060020a0360043516602435610908565b60408051600160a060020a039092168252519081900360200190f35b34801561026957600080fd5b50610272610970565b005b34801561028057600080fd5b50610198600160a060020a03600435166024356109eb565b3480156102a457600080fd5b506102b9600160a060020a0360043516610a42565b60408051918252519081900360200190f35b3480156102d757600080fd5b50610272610a75565b3480156102ec57600080fd5b50610241600160a060020a0360043516610ad4565b34801561030d57600080fd5b50610198600160a060020a036004358116906024359060443516610aef565b34801561033857600080fd5b506102b9600160a060020a0360043516610b89565b34801561035957600080fd5b50610241610bbf565b34801561036e57600080fd5b506102b9610bce565b34801561038357600080fd5b506102b9600160a060020a0360043516610bd4565b3480156103a457600080fd5b50610198600160a060020a0360043581169060243516610c0d565b3480156103cb57600080fd5b50610198600160a060020a0360043516610cf9565b3480156103ec57600080fd5b50610241610d0e565b34801561040157600080fd5b50610198600160a060020a036004358116906024359060443516610d1d565b34801561042c57600080fd5b506102b9600160a060020a0360043516602435610e02565b34801561045057600080fd5b50610272600160a060020a0360043516610e60565b34801561047157600080fd5b50610198600160a060020a0360043516602435610e99565b34801561049557600080fd5b50610198600160a060020a0360043516602435610f4a565b600080548190600160a060020a031633146104c757600080fd5b600160a060020a03841615156104dc57600080fd5b600160a060020a03851615156104f157600080fd5b50604080517fa9059cbb000000000000000000000000000000000000000000000000000000008152600160a060020a038581166004830152602482018590529151869283169163a9059cbb9160448083019260209291908290030181600087803b15801561055e57600080fd5b505af1158015610572573d6000803e3d6000fd5b505050506040513d602081101561058857600080fd5b505060408051600160a060020a0380881682528616602082015280820185905290517f037238854fe57fbf51f09946f854fc3916fe83938d6521f09bd05463839f13049181900360600190a1506001949350505050565b60006105e9610fc7565b600054600160a060020a0316331461060057600080fd5b600160a060020a038316151561061557600080fd5b600160a060020a03831660009081526002602081905260408220018054909190811061063d57fe5b60009182526020808320604080518082018252600294850290920180548352600190810154600160a060020a039081168486018190528752600385528287208054600160a060020a031916905589168652928490528420848155918201849055935091906106ad90830182610fde565b5050600160a060020a0383166000908152600460205260409020805460ff191690556005546106e390600163ffffffff610fa216565b60055550600192915050565b60008054819081908190600160a060020a0316331461070d57600080fd5b600160a060020a038716151561072257600080fd5b505050600160a060020a0384166000908152600460209081526040808320805460ff19168715151790556002909152812060018101549054909182820390811261076c578061076f565b60005b905085156107b45780851115610783578094505b610793838663ffffffff610fb416565b600160a060020a0388166000908152600260205260409020600101556107ed565b828511156107c0578294505b6107d0838663ffffffff610fa216565b600160a060020a0388166000908152600260205260409020600101555b600193505b5050509392505050565b600080548190600160a060020a0316331461081657600080fd5b600160a060020a038416151561082b57600080fd5b600160a060020a038316151561084057600080fd5b50600160a060020a0383811660008181526003602090815260408083208054600160a060020a0319908116898816908117909255818552600280855283862084518086019095527f64656661756c742077616c6c65740000000000000000000000000000000000008552848601978852808201805460018181018355828a52888a209751918502909701908155985198860180549094169890991697909717909155908452909152818355918201556005546108fb91610fb4565b6005555060019392505050565b600080600160a060020a038416151561092057600080fd5b50600160a060020a038316600090815260026020819052604090912001805481908490811061094b57fe5b6000918252602090912060029091020160010154600160a060020a0316949350505050565b600154600160a060020a0316331461098757600080fd5b60015460008054604051600160a060020a0393841693909116917f8be0079c531659141344cd1fd0a4f28419497f9722a3daafe3b4186f6b6457e091a36001805460008054600160a060020a0319908116600160a060020a03841617909155169055565b600080548190600160a060020a03163314610a0557600080fd5b6000610a1085610bd4565b11610a1a57600080fd5b5050600160a060020a0391909116600090815260026020526040902080549091019055600190565b6000600160a060020a0382161515610a5957600080fd5b50600160a060020a031660009081526002602052604090205490565b600054600160a060020a03163314610a8c57600080fd5b60008054604051600160a060020a03909116917ff8df31144d9c2f0f6b59d69b8b98abd5459d07f2742c4df920b25aae33c6482091a260008054600160a060020a0319169055565b600360205260009081526040902054600160a060020a031681565b600080548190600160a060020a03163314610b0957600080fd5b600160a060020a0385161515610b1e57600080fd5b5050600160a060020a0392831660009081526002602081815260408084208151808301909252958152938616848201908152948201805460018082018355918552919093209351910290920191825591519082018054600160a060020a031916919093161790915590565b6000600160a060020a0382161515610ba057600080fd5b50600160a060020a031660009081526002602052604090206001015490565b600054600160a060020a031681565b60055481565b600080600160a060020a0383161515610bec57600080fd5b5050600160a060020a03166000908152600260208190526040909120015490565b6000805481908190600160a060020a03163314610c2957600080fd5b600160a060020a0385161515610c3e57600080fd5b600160a060020a0384161515610c5357600080fd5b5050600160a060020a03808416600090815260036020908152604080832054909316808352600291829052928220018054909185918391908110610c9357fe5b60009182526020808320600160029093020182018054600160a060020a03958616600160a060020a031991821617909155888516845260039091526040808420805488871690841617905593891683529290912080549092169091559250505092915050565b60046020526000908152604090205460ff1681565b600154600160a060020a031681565b60008054819081908190600160a060020a03163314610d3b57600080fd5b600160a060020a0387161515610d5057600080fd5b600160a060020a0385161515610d6557600080fd5b610d6e87610bd4565b9250600191505b82821015610df557600160a060020a038716600090815260026020819052604090912001805483908110610da557fe5b60009182526020909120600160029092020190810154909150600160a060020a0386811691161415610ddd57858155600193506107f2565b610dee82600163ffffffff610fb416565b9150610d75565b5060009695505050505050565b600080600160a060020a0384161515610e1a57600080fd5b50600160a060020a0383166000908152600260208190526040909120018054819084908110610e4557fe5b90600052602060002090600202016000015491505092915050565b600054600160a060020a03163314610e7757600080fd5b60018054600160a060020a031916600160a060020a0392909216919091179055565b60008054600160a060020a03163314610eb157600080fd5b600160a060020a0383161515610ec657600080fd5b604051600160a060020a0384169083156108fc029084906000818181858888f19350505050158015610efc573d6000803e3d6000fd5b5060408051600160a060020a03851681526020810184905281517fdb35132c111efe920cede025e819975671cfd1b8fcc1174762c8670c4e94c211929181900390910190a150600192915050565b600080548190600160a060020a03163314610f6457600080fd5b6000610f6f85610bd4565b11610f7957600080fd5b5050600160a060020a039190911660009081526002602052604090208054919091039055600190565b600082821115610fae57fe5b50900390565b81810182811015610fc157fe5b92915050565b604080518082019091526000808252602082015290565b5080546000825560020290600052602060002090810190610fff9190611002565b50565b61103291905b8082111561102e5760008155600181018054600160a060020a0319169055600201611008565b5090565b905600a165627a7a7230582092adbd6b06bf2ed470adaf9d75f0e7059bacc40136c860d8cd14f390762517ec0029",
  "source": "pragma solidity ^0.4.23;\r\n\r\n\r\nimport 'openzeppelin-solidity/contracts/math/SafeMath.sol';\r\nimport 'openzeppelin-solidity/contracts/ownership/Claimable.sol';\r\nimport './Withdrawable.sol';\r\n\r\n\r\n/**\r\n * contract that manage the wallet operations on DRC platform\r\n */\r\ncontract DRCWalletStorage is Withdrawable, Claimable {\r\n    using SafeMath for uint256;\r\n    \r\n    /**\r\n     * withdraw wallet description\r\n     */\r\n    struct WithdrawWallet {\r\n        bytes32 name;\r\n        address walletAddr;\r\n    }\r\n\r\n    /**\r\n     * Deposit data storage\r\n     */\r\n    struct DepositRepository {\r\n        int256 balance; // can be negative\r\n        uint256 frozen;\r\n        WithdrawWallet[] withdrawWallets;\r\n        // mapping (bytes32 => address) withdrawWallets;\r\n    }\r\n\r\n    mapping (address => DepositRepository) depositRepos;\r\n    mapping (address => address) public walletDeposits;\r\n    mapping (address => bool) public frozenDeposits;\r\n    uint256 public size;\r\n\r\n    \r\n    /**\r\n\t * @dev add deposit contract address for the default withdraw wallet\r\n     *\r\n     * @param _wallet the default withdraw wallet address\r\n     * @param _depositAddr the corresponding deposit address to the default wallet\r\n\t */\r\n    function addDeposit(address _wallet, address _depositAddr) onlyOwner public returns (bool) {\r\n        require(_wallet != address(0));\r\n        require(_depositAddr != address(0));\r\n        \r\n        walletDeposits[_wallet] = _depositAddr;\r\n        WithdrawWallet[] storage withdrawWalletList = depositRepos[_depositAddr].withdrawWallets;\r\n        withdrawWalletList.push(WithdrawWallet(\"default wallet\", _wallet));\r\n        depositRepos[_depositAddr].balance = 0;\r\n        depositRepos[_depositAddr].frozen = 0;\r\n\r\n        size = size.add(1);\r\n        return true;\r\n    }\r\n    \r\n    /**\r\n\t * @dev remove deposit contract address from storage\r\n     *\r\n     * @param _depositAddr the corresponding deposit address \r\n\t */\r\n    function removeDeposit(address _depositAddr) onlyOwner public returns (bool) {\r\n        require(_depositAddr != address(0));\r\n\r\n        WithdrawWallet memory withdraw = depositRepos[_depositAddr].withdrawWallets[0];\r\n        delete walletDeposits[withdraw.walletAddr];\r\n        delete depositRepos[_depositAddr];\r\n        delete frozenDeposits[_depositAddr];\r\n        \r\n        size = size.sub(1);\r\n        return true;\r\n    }\r\n\r\n    /**\r\n\t * @dev add withdraw address for one deposit addresss\r\n     *\r\n     * @param _deposit the corresponding deposit address \r\n     * @param _name the new withdraw wallet name\r\n     * @param _withdraw the new withdraw wallet address\r\n\t */\r\n    function addWithdraw(address _deposit, bytes32 _name, address _withdraw) onlyOwner public returns (bool) {\r\n        require(_deposit != address(0));\r\n\r\n        WithdrawWallet[] storage withdrawWalletList = depositRepos[_deposit].withdrawWallets;\r\n        withdrawWalletList.push(WithdrawWallet(_name, _withdraw));\r\n        return true;\r\n    }\r\n\r\n    /**\r\n\t * @dev increase balance of this deposit address\r\n     *\r\n     * @param _deposit the corresponding deposit address \r\n     * @param _value the amount that the balance will be increased\r\n\t */\r\n    function increaseBalance(address _deposit, uint256 _value) onlyOwner public returns (bool) {\r\n        // require(_deposit != address(0));\r\n        require (walletsNumber(_deposit) > 0);\r\n        int256 _balance = depositRepos[_deposit].balance;\r\n        depositRepos[_deposit].balance = _balance + int256(_value);\r\n        return true;\r\n    }\r\n\r\n    /**\r\n\t * @dev decrease balance of this deposit address\r\n     *\r\n     * @param _deposit the corresponding deposit address \r\n     * @param _value the amount that the balance will be decreased\r\n\t */\r\n    function decreaseBalance(address _deposit, uint256 _value) onlyOwner public returns (bool) {\r\n        // require(_deposit != address(0));\r\n        require (walletsNumber(_deposit) > 0);\r\n        int256 _balance = depositRepos[_deposit].balance;\r\n        depositRepos[_deposit].balance = _balance - int256(_value);\r\n        return true;\r\n    }\r\n\r\n    /**\r\n\t * @dev change the default withdraw wallet address binding to the deposit contract address\r\n     *\r\n     * @param _oldWallet the old default withdraw wallet\r\n     * @param _newWallet the new default withdraw wallet\r\n\t */\r\n    function changeDefaultWallet(address _oldWallet, address _newWallet) onlyOwner public returns (bool) {\r\n        require(_oldWallet != address(0));\r\n        require(_newWallet != address(0));\r\n\r\n        address _deposit = walletDeposits[_oldWallet];      \r\n        WithdrawWallet[] storage withdrawWalletList = depositRepos[_deposit].withdrawWallets;\r\n        withdrawWalletList[0].walletAddr = _newWallet;\r\n        // emit ChangeDefaultWallet(_oldWallet, _newWallet);\r\n        walletDeposits[_newWallet] = _deposit;\r\n        delete walletDeposits[_oldWallet];\r\n\r\n        return true;\r\n    }\r\n\r\n    /**\r\n\t * @dev change the name of the withdraw wallet address of the deposit contract address\r\n     *\r\n     * @param _deposit the deposit address\r\n     * @param _newName the wallet name\r\n     * @param _wallet the withdraw wallet\r\n\t */\r\n    function changeWalletName(address _deposit, bytes32 _newName, address _wallet) onlyOwner public returns (bool) {\r\n        require(_deposit != address(0));\r\n        require(_wallet != address(0));\r\n      \r\n        uint len = walletsNumber(_deposit);\r\n        // default wallet name do not change\r\n        for (uint i = 1; i < len; i = i.add(1)) {\r\n            WithdrawWallet storage wallet = depositRepos[_deposit].withdrawWallets[i];            \r\n            if (_wallet == wallet.walletAddr) {\r\n                wallet.name = _newName;\r\n                return true;\r\n            }\r\n        }\r\n\r\n        return false;\r\n    }\r\n\r\n    /**\r\n\t * @dev freeze the tokens in the deposit address\r\n     *\r\n     * @param _deposit the deposit address\r\n     * @param _freeze to freeze or release\r\n     * @param _value the amount of tokens need to be frozen\r\n\t */\r\n    function freezeTokens(address _deposit, bool _freeze, uint256 _value) onlyOwner public returns (bool) {\r\n        require(_deposit != address(0));\r\n        // require(_value <= balanceOf(_deposit));\r\n        \r\n        frozenDeposits[_deposit] = _freeze;\r\n        uint256 _frozen = depositRepos[_deposit].frozen;\r\n        int256 _balance = depositRepos[_deposit].balance;\r\n        int256 freezeAble = _balance - int256(_frozen);\r\n        freezeAble = freezeAble < 0 ? 0 : freezeAble;\r\n        if (_freeze) {\r\n            if (_value > uint256(freezeAble)) {\r\n                _value = uint256(freezeAble);\r\n            }\r\n            depositRepos[_deposit].frozen = _frozen.add(_value);\r\n        } else {\r\n            if (_value > _frozen) {\r\n                _value = _frozen;\r\n            }\r\n            depositRepos[_deposit].frozen = _frozen.sub(_value);\r\n        }\r\n\r\n        return true;\r\n    }\r\n\r\n    /**\r\n\t * @dev get the wallet address for the deposit address\r\n     *\r\n     * @param _deposit the deposit address\r\n     * @param _ind the wallet index in the list\r\n\t */\r\n    function wallet(address _deposit, uint256 _ind) public view returns (address) {\r\n        require(_deposit != address(0));\r\n\r\n        WithdrawWallet[] storage withdrawWalletList = depositRepos[_deposit].withdrawWallets;\r\n        return withdrawWalletList[_ind].walletAddr;\r\n    }\r\n\r\n    /**\r\n\t * @dev get the wallet name for the deposit address\r\n     *\r\n     * @param _deposit the deposit address\r\n     * @param _ind the wallet index in the list\r\n\t */\r\n    function walletName(address _deposit, uint256 _ind) public view returns (bytes32) {\r\n        require(_deposit != address(0));\r\n\r\n        WithdrawWallet[] storage withdrawWalletList = depositRepos[_deposit].withdrawWallets;\r\n        return withdrawWalletList[_ind].name;\r\n    }\r\n\r\n    /**\r\n\t * @dev get the wallet name for the deposit address\r\n     *\r\n     * @param _deposit the deposit address\r\n\t */\r\n    function walletsNumber(address _deposit) public view returns (uint256) {\r\n        require(_deposit != address(0));\r\n\r\n        WithdrawWallet[] storage withdrawWalletList = depositRepos[_deposit].withdrawWallets;\r\n        return withdrawWalletList.length;\r\n    }\r\n\r\n    /**\r\n\t * @dev get the balance of the deposit account\r\n     *\r\n     * @param _deposit the deposit address\r\n\t */\r\n    function balanceOf(address _deposit) public view returns (int256) {\r\n        require(_deposit != address(0));\r\n        return depositRepos[_deposit].balance;\r\n    }\r\n\r\n    /**\r\n\t * @dev get the frozen amount of the deposit address\r\n     *\r\n     * @param _deposit the deposit address\r\n\t */\r\n    function frozenAmount(address _deposit) public view returns (uint256) {\r\n        require(_deposit != address(0));\r\n        return depositRepos[_deposit].frozen;\r\n    }\r\n}",
  "sourcePath": "E:\\workspace\\Dapp\\DRCWalletManager\\contracts\\DRCWalletStorage.sol",
  "compiler": {
    "name": "solc",
    "version": "0.4.24+commit.e67f0147.Emscripten.clang"
  },
  "schemaVersion": "2.0.1",
  "updatedAt": "2018-08-28T17:16:37.797Z"
}