{
  "contractName": "OwnableCon",
  "abi": [
    {
      "constant": true,
      "inputs": [],
      "name": "owner",
      "outputs": [
        {
          "name": "",
          "type": "address"
        }
      ],
      "payable": false,
      "stateMutability": "view",
      "type": "function"
    },
    {
      "inputs": [],
      "payable": false,
      "stateMutability": "nonpayable",
      "type": "constructor"
    },
    {
      "constant": false,
      "inputs": [
        {
          "name": "newOwner",
          "type": "address"
        }
      ],
      "name": "transferOwnership",
      "outputs": [],
      "payable": false,
      "stateMutability": "nonpayable",
      "type": "function"
    }
  ],
  "bytecode": "0x6060604052341561000f57600080fd5b336000806101000a81548173ffffffffffffffffffffffffffffffffffffffff021916908373ffffffffffffffffffffffffffffffffffffffff16021790555061020a8061005e6000396000f30060606040526004361061004c576000357c0100000000000000000000000000000000000000000000000000000000900463ffffffff1680638da5cb5b14610051578063f2fde38b146100a6575b600080fd5b341561005c57600080fd5b6100646100df565b604051808273ffffffffffffffffffffffffffffffffffffffff1673ffffffffffffffffffffffffffffffffffffffff16815260200191505060405180910390f35b34156100b157600080fd5b6100dd600480803573ffffffffffffffffffffffffffffffffffffffff16906020019091905050610104565b005b6000809054906101000a900473ffffffffffffffffffffffffffffffffffffffff1681565b6000809054906101000a900473ffffffffffffffffffffffffffffffffffffffff1673ffffffffffffffffffffffffffffffffffffffff163373ffffffffffffffffffffffffffffffffffffffff1614151561015f57600080fd5b600073ffffffffffffffffffffffffffffffffffffffff168173ffffffffffffffffffffffffffffffffffffffff161415151561019b57600080fd5b806000806101000a81548173ffffffffffffffffffffffffffffffffffffffff021916908373ffffffffffffffffffffffffffffffffffffffff160217905550505600a165627a7a723058203f319335f1ca3456a0eb131280244da0c2ac834c5130404187ba87d67221242c0029",
  "source": "pragma solidity ^0.4.18;\r\n\r\nlibrary HashOperateLib {\r\n    \r\n    struct ExInfo{\r\n        address saver;\r\n        uint256 saveTime;\r\n    }\r\n    \r\n    struct Info{\r\n        mapping(string=>ExInfo) hashInfo;\r\n    }\r\n\t\r\n\t/**\r\n\t * @dev insertHash,insert method\r\n\t * @param  _self is where the data will be saved\r\n\t *         _hash is input value of hash\r\n\t * @return bool,true is successful and false is failed\r\n\t */\r\n    function insertHash(Info storage _self, string _hash) internal returns (bool) {\r\n        \r\n        if (_self.hashInfo[_hash].saveTime > 0){\r\n            return false;\r\n        }else{\r\n            _self.hashInfo[_hash].saver = msg.sender;\r\n            _self.hashInfo[_hash].saveTime = now;\r\n            return true;\r\n        }\r\n    }\r\n    \r\n\t/**\r\n\t * @dev deleteHash,delete method\r\n\t * @param  _self is where the data will be saved\r\n\t *         _hash is input value of hash\r\n\t * @return bool,true is successful and false is failed\r\n\t */\r\n    function deleteHash(Info storage _self, string _hash) internal returns (bool) {\r\n        \r\n        if (_self.hashInfo[_hash].saveTime > 0){\r\n            delete _self.hashInfo[_hash];\r\n            return true;\r\n        }else{\r\n            return false;\r\n        }  \r\n    }\r\n    \r\n\t/**\r\n\t * @dev selectHash,select method\r\n\t * @param  _self is where the data will be saved\r\n\t *         _hash is input value of hash\r\n\t * @return true/false,saver,save time\r\n\t */\r\n    function selectHash(Info storage _self, string _hash) internal view returns (bool,address,uint256) {\r\n        if (_self.hashInfo[_hash].saveTime > 0){\r\n\r\n            return (true,_self.hashInfo[_hash].saver,_self.hashInfo[_hash].saveTime);\r\n        }else{\r\n            return (false,address(0),0);\r\n        }  \r\n    }\r\n}\r\n\r\ncontract OwnableCon {\r\n    \r\n    address public owner;\r\n    \r\n\t/**\r\n\t * @dev The Ownable contract has an owner address, \r\n\t *      and provides basic authorization control\r\n\t */\r\n    function OwnableCon() public {\r\n        owner = msg.sender;\r\n    }\r\n\r\n\t/**\r\n\t * @dev Throws when called by other account than owner\r\n\t */\r\n    modifier onlyOwner() {\r\n        require(msg.sender == owner);\r\n        _;\r\n    }\r\n\t\r\n\t/**\r\n\t * @dev Allows the owner to transfer control of the contract to a newOwner.\r\n\t * @param newOwner The address to transfer ownership to.\r\n\t */\r\n    function transferOwnership(address newOwner) public onlyOwner {\r\n        require(newOwner != address(0));\r\n        owner = newOwner;\r\n    }\r\n}\r\n\r\ncontract HashDataCon is OwnableCon{\r\n    \r\n\t//import the HashOperateLib for contract\r\n    using HashOperateLib for HashOperateLib.Info;\r\n    HashOperateLib.Info tempInfo;\r\n    \r\n    event LogInsertHash(address indexed _saver, string _hash, bool _bool);\r\n    event LogDeleteHash(address indexed _saver, string _hash, bool _bool);\r\n\r\n\t/**\r\n\t * @dev Constructor,not used just reserved\r\n\t */\r\n    function HashDataCon() public {\r\n    }\r\n\t\r\n\t/**\r\n\t * @dev insertHash,insert hash into contract\r\n\t * @param _hash is input value of hash\r\n\t * @return bool,true is successful and false is failed\r\n\t */\r\n    function insertHash(string _hash) public returns (bool) {\r\n        bool temp = tempInfo.insertHash(_hash);\r\n        LogInsertHash(msg.sender, _hash, temp);\r\n        return temp;\r\n    }\r\n    \r\n\t/**\r\n\t * @dev selectHash,select hash from contract\r\n\t * @param _hash is input value of hash\r\n\t * @return true/false,saver,save time\r\n\t */\r\n    function selectHash(string _hash) view public returns (bool,address,uint256) {\r\n        return (tempInfo.selectHash(_hash));\r\n    } \r\n    \r\n\t/**\r\n\t * @dev deleteHash,delete hash into contract\r\n\t * @param _hash is input value of hash\r\n\t * @return bool,true is successful and false is failed\r\n\t */\r\n    function deleteHash(string _hash) onlyOwner public returns (bool) {\r\n        bool temp = tempInfo.deleteHash(_hash);\r\n        LogDeleteHash(msg.sender, _hash, temp);\r\n        return temp;\r\n    } \r\n    \r\n\t/**\r\n\t * @dev kill,destroy the contract and send ether to _upgrater\r\n\t * @param _upgrater is where the ether will be send\r\n\t */\r\n    function kill(address _upgrater) onlyOwner public {\r\n        selfdestruct(_upgrater);\r\n    }\r\n\t\r\n\t/**\r\n\t * @dev withdraw,send ether to target\r\n\t * @param _to is where the ether will be send\r\n\t *        _amount is the number of the ether\r\n\t */\r\n    function withdraw(address _to, uint _amount) public onlyOwner {\r\n        _to.transfer(_amount);\r\n    }\r\n\t\r\n\t/**\r\n\t * @dev fallback,if the contract will receive ether\r\n\t */\r\n    function() public payable {\r\n    }\r\n}",
  "sourcePath": "F:\\workspace\\dapp\\DRCWalletManager\\contracts\\HashDataCon.sol",
  "compiler": {
    "name": "solc",
    "version": "0.4.21+commit.dfe3193c.Emscripten.clang"
  },
  "schemaVersion": "2.0.0",
  "updatedAt": "2018-04-15T11:16:18.794Z"
}