{
  "contractName": "OwnerContract",
  "abi": [
    {
      "constant": false,
      "inputs": [],
      "name": "claimOwnership",
      "outputs": [],
      "payable": false,
      "stateMutability": "nonpayable",
      "type": "function"
    },
    {
      "constant": true,
      "inputs": [],
      "name": "owner",
      "outputs": [
        {
          "name": "",
          "type": "address"
        }
      ],
      "payable": false,
      "stateMutability": "view",
      "type": "function"
    },
    {
      "constant": true,
      "inputs": [],
      "name": "ownedContract",
      "outputs": [
        {
          "name": "",
          "type": "address"
        }
      ],
      "payable": false,
      "stateMutability": "view",
      "type": "function"
    },
    {
      "constant": true,
      "inputs": [],
      "name": "pendingOwner",
      "outputs": [
        {
          "name": "",
          "type": "address"
        }
      ],
      "payable": false,
      "stateMutability": "view",
      "type": "function"
    },
    {
      "constant": false,
      "inputs": [
        {
          "name": "newOwner",
          "type": "address"
        }
      ],
      "name": "transferOwnership",
      "outputs": [],
      "payable": false,
      "stateMutability": "nonpayable",
      "type": "function"
    },
    {
      "anonymous": false,
      "inputs": [
        {
          "indexed": true,
          "name": "previousOwner",
          "type": "address"
        },
        {
          "indexed": true,
          "name": "newOwner",
          "type": "address"
        }
      ],
      "name": "OwnershipTransferred",
      "type": "event"
    },
    {
      "constant": false,
      "inputs": [
        {
          "name": "_contract",
          "type": "address"
        }
      ],
      "name": "bindContract",
      "outputs": [
        {
          "name": "",
          "type": "bool"
        }
      ],
      "payable": false,
      "stateMutability": "nonpayable",
      "type": "function"
    },
    {
      "constant": false,
      "inputs": [],
      "name": "transferOwnershipBack",
      "outputs": [],
      "payable": false,
      "stateMutability": "nonpayable",
      "type": "function"
    },
    {
      "constant": false,
      "inputs": [
        {
          "name": "_nextOwner",
          "type": "address"
        }
      ],
      "name": "changeOwnershipto",
      "outputs": [],
      "payable": false,
      "stateMutability": "nonpayable",
      "type": "function"
    }
  ],
  "bytecode": "0x6060604052336000806101000a81548173ffffffffffffffffffffffffffffffffffffffff021916908373ffffffffffffffffffffffffffffffffffffffff160217905550610b2b806100536000396000f30060606040526004361061008e576000357c0100000000000000000000000000000000000000000000000000000000900463ffffffff16806325f731c8146100935780634e71e0c8146100a85780638157d4b5146100bd5780638da5cb5b1461010e578063bc467a3e14610163578063e30c3978146101b8578063ede930c91461020d578063f2fde38b14610246575b600080fd5b341561009e57600080fd5b6100a661027f565b005b34156100b357600080fd5b6100bb61044e565b005b34156100c857600080fd5b6100f4600480803573ffffffffffffffffffffffffffffffffffffffff169060200190919050506105ed565b604051808215151515815260200191505060405180910390f35b341561011957600080fd5b610121610841565b604051808273ffffffffffffffffffffffffffffffffffffffff1673ffffffffffffffffffffffffffffffffffffffff16815260200191505060405180910390f35b341561016e57600080fd5b610176610866565b604051808273ffffffffffffffffffffffffffffffffffffffff1673ffffffffffffffffffffffffffffffffffffffff16815260200191505060405180910390f35b34156101c357600080fd5b6101cb61088c565b604051808273ffffffffffffffffffffffffffffffffffffffff1673ffffffffffffffffffffffffffffffffffffffff16815260200191505060405180910390f35b341561021857600080fd5b610244600480803573ffffffffffffffffffffffffffffffffffffffff169060200190919050506108b2565b005b341561025157600080fd5b61027d600480803573ffffffffffffffffffffffffffffffffffffffff16906020019091905050610a60565b005b6000809054906101000a900473ffffffffffffffffffffffffffffffffffffffff1673ffffffffffffffffffffffffffffffffffffffff163373ffffffffffffffffffffffffffffffffffffffff161415156102da57600080fd5b600260009054906101000a900473ffffffffffffffffffffffffffffffffffffffff1673ffffffffffffffffffffffffffffffffffffffff1663f2fde38b600360009054906101000a900473ffffffffffffffffffffffffffffffffffffffff166040518263ffffffff167c0100000000000000000000000000000000000000000000000000000000028152600401808273ffffffffffffffffffffffffffffffffffffffff1673ffffffffffffffffffffffffffffffffffffffff168152602001915050600060405180830381600087803b15156103b857600080fd5b5af115156103c557600080fd5b5050506000600260006101000a81548173ffffffffffffffffffffffffffffffffffffffff021916908373ffffffffffffffffffffffffffffffffffffffff1602179055506000600360006101000a81548173ffffffffffffffffffffffffffffffffffffffff021916908373ffffffffffffffffffffffffffffffffffffffff160217905550565b600160009054906101000a900473ffffffffffffffffffffffffffffffffffffffff1673ffffffffffffffffffffffffffffffffffffffff163373ffffffffffffffffffffffffffffffffffffffff161415156104aa57600080fd5b600160009054906101000a900473ffffffffffffffffffffffffffffffffffffffff1673ffffffffffffffffffffffffffffffffffffffff166000809054906101000a900473ffffffffffffffffffffffffffffffffffffffff1673ffffffffffffffffffffffffffffffffffffffff167f8be0079c531659141344cd1fd0a4f28419497f9722a3daafe3b4186f6b6457e060405160405180910390a3600160009054906101000a900473ffffffffffffffffffffffffffffffffffffffff166000806101000a81548173ffffffffffffffffffffffffffffffffffffffff021916908373ffffffffffffffffffffffffffffffffffffffff1602179055506000600160006101000a81548173ffffffffffffffffffffffffffffffffffffffff021916908373ffffffffffffffffffffffffffffffffffffffff160217905550565b60008060009054906101000a900473ffffffffffffffffffffffffffffffffffffffff1673ffffffffffffffffffffffffffffffffffffffff163373ffffffffffffffffffffffffffffffffffffffff1614151561064a57600080fd5b600073ffffffffffffffffffffffffffffffffffffffff168273ffffffffffffffffffffffffffffffffffffffff161415151561068657600080fd5b81600260006101000a81548173ffffffffffffffffffffffffffffffffffffffff021916908373ffffffffffffffffffffffffffffffffffffffff160217905550600260009054906101000a900473ffffffffffffffffffffffffffffffffffffffff1673ffffffffffffffffffffffffffffffffffffffff16638da5cb5b6040518163ffffffff167c0100000000000000000000000000000000000000000000000000000000028152600401602060405180830381600087803b151561074c57600080fd5b5af1151561075957600080fd5b50505060405180519050600360006101000a81548173ffffffffffffffffffffffffffffffffffffffff021916908373ffffffffffffffffffffffffffffffffffffffff160217905550600260009054906101000a900473ffffffffffffffffffffffffffffffffffffffff1673ffffffffffffffffffffffffffffffffffffffff16634e71e0c86040518163ffffffff167c0100000000000000000000000000000000000000000000000000000000028152600401600060405180830381600087803b151561082857600080fd5b5af1151561083557600080fd5b50505060019050919050565b6000809054906101000a900473ffffffffffffffffffffffffffffffffffffffff1681565b600260009054906101000a900473ffffffffffffffffffffffffffffffffffffffff1681565b600160009054906101000a900473ffffffffffffffffffffffffffffffffffffffff1681565b6000809054906101000a900473ffffffffffffffffffffffffffffffffffffffff1673ffffffffffffffffffffffffffffffffffffffff163373ffffffffffffffffffffffffffffffffffffffff1614151561090d57600080fd5b600260009054906101000a900473ffffffffffffffffffffffffffffffffffffffff1673ffffffffffffffffffffffffffffffffffffffff1663f2fde38b826040518263ffffffff167c0100000000000000000000000000000000000000000000000000000000028152600401808273ffffffffffffffffffffffffffffffffffffffff1673ffffffffffffffffffffffffffffffffffffffff168152602001915050600060405180830381600087803b15156109c957600080fd5b5af115156109d657600080fd5b5050506000600260006101000a81548173ffffffffffffffffffffffffffffffffffffffff021916908373ffffffffffffffffffffffffffffffffffffffff1602179055506000600360006101000a81548173ffffffffffffffffffffffffffffffffffffffff021916908373ffffffffffffffffffffffffffffffffffffffff16021790555050565b6000809054906101000a900473ffffffffffffffffffffffffffffffffffffffff1673ffffffffffffffffffffffffffffffffffffffff163373ffffffffffffffffffffffffffffffffffffffff16141515610abb57600080fd5b80600160006101000a81548173ffffffffffffffffffffffffffffffffffffffff021916908373ffffffffffffffffffffffffffffffffffffffff160217905550505600a165627a7a7230582068ad4c3ee0e7af82779d91072483b3cca6f8eab074db322f3b3ad99ab378f8100029",
  "source": "pragma solidity ^0.4.21;\r\n\r\n\r\nimport 'zeppelin-solidity/contracts/ownership/Claimable.sol';\r\nimport 'zeppelin-solidity/contracts/lifecycle/Pausable.sol';\r\nimport 'zeppelin-solidity/contracts/lifecycle/Destructible.sol';\r\nimport 'zeppelin-solidity/contracts/lifecycle/TokenDestructible.sol';\r\nimport 'zeppelin-solidity/contracts/token/ERC20/ERC20.sol';\r\nimport 'zeppelin-solidity/contracts/math/SafeMath.sol';\r\n\r\n\r\ncontract OwnerContract is Claimable {\r\n    Claimable public ownedContract;\r\n    address internal origOwner;\r\n\r\n    /**\r\n     * @dev bind a contract as its owner\r\n     *\r\n     * @param _contract the contract address that will be binded by this Owner Contract\r\n     */\r\n    function bindContract(address _contract) onlyOwner public returns (bool) {\r\n        require(_contract != address(0));\r\n        ownedContract = Claimable(_contract);\r\n        origOwner = ownedContract.owner();\r\n\r\n        // take ownership of the owned contract\r\n        ownedContract.claimOwnership();\r\n\r\n        return true;\r\n    }\r\n\r\n    /**\r\n     * @dev change the owner of the contract from this contract address to the original one. \r\n     *\r\n     */\r\n    function transferOwnershipBack() onlyOwner public {\r\n        ownedContract.transferOwnership(origOwner);\r\n        ownedContract = Claimable(address(0));\r\n        origOwner = address(0);\r\n    }\r\n\r\n    /**\r\n     * @dev change the owner of the contract from this contract address to another one. \r\n     *\r\n     * @param _nextOwner the contract address that will be next Owner of the original Contract\r\n     */\r\n    function changeOwnershipto(address _nextOwner)  onlyOwner public {\r\n        ownedContract.transferOwnership(_nextOwner);\r\n        ownedContract = Claimable(address(0));\r\n        origOwner = address(0);\r\n    }\r\n}\r\n\r\ncontract DepositWithdraw is Claimable, Pausable, Destructible, TokenDestructible {\r\n    struct TransferRecord {\r\n        uint256 timeStamp;\r\n        address account;\r\n        uint256 value;\r\n    }\r\n\r\n    TransferRecord[] deposRecs;\r\n    TransferRecord[] withdrRecs;\r\n\r\n    address wallet; // the binded withdraw address\r\n\r\n    event ReceiveDeposit(address _from, uint256 _value, address _token, bytes _extraData);\r\n    event ReceiveEther(address _from, uint256 _value);\r\n    event WithdrawEther(address _to, uint256 _value);\r\n    event WithdrawToken(address _token, address _to, uint256 _value);\r\n\r\n    \r\n    function DepositWithdraw(address _wallet) public {\r\n        require(_wallet != address(0));\r\n        wallet = _wallet;\r\n    }\r\n\r\n    /**\r\n\t * @dev set the default wallet address\r\n\t * @param _wallet the default wallet address binded to this deposit contract\r\n\t */\r\n    function setWithdrawWallet(address _wallet) onlyOwner public returns (bool) {\r\n        require(_wallet != address(0));\r\n        wallet = _wallet;\r\n\r\n        return true;\r\n    }\r\n\r\n    function bytesToBytes32(bytes _data) public pure returns (bytes32 result) {\r\n        assembly {\r\n            result := mload(add(_data, 32))\r\n        }\r\n    }\r\n\r\n    /**\r\n     * @dev receive approval from an ERC20 token contract, take a record\r\n     *\r\n     * @param _from address The address which you want to send tokens from\r\n     * @param _value uint256 the amounts of tokens to be sent\r\n     * @param _token address the ERC20 token address\r\n     * @param _extraData bytes the extra data for the record\r\n     */\r\n    function receiveApproval(address _from, uint256 _value, address _token, bytes _extraData) onlyOwner whenNotPaused public {\r\n        require(_token != address(0));\r\n        require(_from != address(0));\r\n        \r\n        ERC20 tk = ERC20(_token);\r\n        require(tk.transferFrom(_from, this, _value));\r\n        bytes32 timestamp = bytesToBytes32(_extraData);\r\n        deposRecs.push(TransferRecord(uint256(timestamp), _from, _value));\r\n        emit ReceiveDeposit(_from, _value, _token, _extraData);\r\n    }\r\n    \r\n    /**\r\n\t * @dev recording receiving ether from msn.sender\r\n\t */\r\n    function () payable public {\r\n        emit ReceiveEther(msg.sender, msg.value);\r\n    }\r\n\r\n    /**\r\n\t * @dev withdraw,send ether to target\r\n\t * @param _to is where the ether will be sent to\r\n\t *        _amount is the number of the ether\r\n\t */\r\n    function withdraw(address _to, uint _amount) public onlyOwner whenNotPaused returns (bool) {\r\n        require(_to != address(0));\r\n        _to.transfer(_amount);\r\n        emit WithdrawEther(_to, _amount);\r\n\r\n        return true;\r\n    }\r\n\r\n    /**\r\n\t * @dev withdraw tokens, send tokens to target\r\n     *\r\n     * @param _token the token address that will be withdraw\r\n\t * @param _to is where the tokens will be sent to\r\n\t *        _value is the number of the ether\r\n\t */\r\n    function withdrawToken(address _token, uint256 _time, address _to, uint256 _value) public onlyOwner whenNotPaused returns (bool) {\r\n        require(_to != 0);\r\n        require(_token != 0);\r\n\r\n        ERC20 tk = ERC20(_token);\r\n        tk.transfer(_to, _value);\r\n        withdrRecs.push(TransferRecord(_time, _to, _value));\r\n        emit WithdrawToken(_token, _to, _value);\r\n\r\n        return true;\r\n    }\r\n\r\n    /**\r\n\t * @dev withdraw tokens, send tokens to target default wallet\r\n     *\r\n     * @param _token the token address that will be withdraw\r\n     * @param _time the timestamp occur the withdraw record\r\n\t * @param _value is the number of the ether\r\n\t */\r\n    function withdrawTokenToDefault(address _token, uint256 _time, uint256 _value) public onlyOwner whenNotPaused returns (bool) {\r\n        require(_token != 0);\r\n\r\n        ERC20 tk = ERC20(_token);\r\n        tk.transfer(wallet, _value);\r\n        withdrRecs.push(TransferRecord(_time, wallet, _value));\r\n        emit WithdrawToken(_token, wallet, _value);\r\n\r\n        return true;\r\n    }\r\n\r\n    /**\r\n\t * @dev get the Deposit records number\r\n     *\r\n     */\r\n    function getDepositNum() public view returns (uint256) {\r\n        return deposRecs.length;\r\n    }\r\n\r\n    /**\r\n\t * @dev get the one of the Deposit records\r\n     *\r\n     * @param _ind the deposit record index\r\n     */\r\n    function getOneDepositRec(uint256 _ind) public view returns (uint256, address, uint256) {\r\n        require(_ind < deposRecs.length);\r\n\r\n        return (deposRecs[_ind].timeStamp, deposRecs[_ind].account, deposRecs[_ind].value);\r\n    }\r\n\r\n    /**\r\n\t * @dev get the withdraw records number\r\n     *\r\n     */\r\n    function getWithdrawNum() public view returns (uint256) {\r\n        return withdrRecs.length;\r\n    }\r\n    \r\n    /**\r\n\t * @dev get the one of the withdraw records\r\n     *\r\n     * @param _ind the withdraw record index\r\n     */\r\n    function getOneWithdrawRec(uint256 _ind) public view returns (uint256, address, uint256) {\r\n        require(_ind < withdrRecs.length);\r\n\r\n        return (withdrRecs[_ind].timeStamp, withdrRecs[_ind].account, withdrRecs[_ind].value);\r\n    }\r\n}\r\n\r\ncontract DRCWalletManager is OwnerContract {\r\n    using SafeMath for uint256;\r\n\r\n    struct WithdrawWallet {\r\n        bytes32 name;\r\n        address walletAddr;\r\n    }\r\n\r\n    struct DepositRepository {\r\n        uint256 balance;\r\n        uint256 frozen;\r\n        WithdrawWallet[] withdrawWallets;\r\n        // mapping (bytes32 => address) withdrawWallets;\r\n    }\r\n\r\n    mapping (address => DepositRepository) depositRepos;\r\n    mapping (address => address) walletDeposits;\r\n    mapping (address => bool) frozenDeposits;\r\n\r\n    ERC20 tk;\r\n    \r\n    event CreateDepositAddress(address _walllet, address _deposit);\r\n    event FrozenTokens(address _deposit, uint256 _value);\r\n    event ChangeDefaultWallet(address _oldWallet, address _newWallet);\r\n\r\n    function bindToken(address _token) onlyOwner public returns (bool) {\r\n        require(_token != address(0));\r\n\r\n        tk = ERC20(_token);\r\n        return true;\r\n    }\r\n\r\n    function createDepositContract(address _wallet) onlyOwner public returns (address) {\r\n        require(_wallet != address(0));\r\n\r\n        address deposWithdr = new DepositWithdraw(_wallet);\r\n        walletDeposits[_wallet] = deposWithdr;\r\n        depositRepos[deposWithdr].balance = 0;\r\n        depositRepos[deposWithdr].frozen = 0;\r\n        depositRepos[deposWithdr].withdrawWallets.push(WithdrawWallet(\"default wallet\", _wallet));\r\n\r\n        return deposWithdr;\r\n    }\r\n\r\n    function getDepositAddress(address _wallet) onlyOwner public view returns (address) {\r\n        require(_wallet != address(0));\r\n\r\n        return walletDeposits[_wallet];\r\n    }\r\n\r\n    function getDepositInfo(address _deposit) onlyOwner public returns (uint256, uint256) {\r\n        require(_deposit != address(0));\r\n\r\n        depositRepos[_deposit].balance = tk.balanceOf(_deposit);\r\n        return (depositRepos[_deposit].balance, depositRepos[_deposit].frozen);\r\n    }\r\n\r\n    function getDepositBalance(address _deposit) onlyOwner public returns (uint256) {\r\n        require(_deposit != address(0));\r\n\r\n        depositRepos[_deposit].balance = tk.balanceOf(_deposit);\r\n        return depositRepos[_deposit].balance;\r\n    }\r\n\r\n    function getDepositFrozen(address _deposit) onlyOwner public view returns (uint256) {\r\n        require(_deposit != address(0));\r\n\r\n        return depositRepos[_deposit].frozen;\r\n    }\r\n\r\n    function getDepositWithdrawCount(address _deposit) onlyOwner public view returns (uint) {\r\n        require(_deposit != address(0));\r\n\r\n        return depositRepos[_deposit].withdrawWallets.length;\r\n    }\r\n\r\n    function getDepositWithdrawList(address _deposit, uint[] _indices) onlyOwner public view returns (bytes32[], address[]) {\r\n        require(_indices.length != 0);\r\n\r\n        bytes32[] memory names = new bytes32[](_indices.length);\r\n        address[] memory wallets = new address[](_indices.length);\r\n        \r\n        for (uint i = 0; i < _indices.length; i = i.add(1)) {\r\n            WithdrawWallet storage wallet = depositRepos[_deposit].withdrawWallets[_indices[i]];\r\n            names[i] = wallet.name;\r\n            wallets[i] = wallet.walletAddr;\r\n        }\r\n        \r\n        return (names, wallets);\r\n    }\r\n\r\n    function changeDefaultWithdraw(address _oldWallet, address _newWallet) onlyOwner public returns (bool) {\r\n        require(_newWallet != address(0));\r\n        \r\n        address deposit = walletDeposits[_oldWallet];\r\n        DepositWithdraw deposWithdr = DepositWithdraw(deposit);\r\n        require(deposWithdr.setWithdrawWallet(_newWallet));\r\n\r\n        depositRepos[deposit].withdrawWallets[0].walletAddr = _newWallet;\r\n        emit ChangeDefaultWallet(_oldWallet, _newWallet);\r\n\r\n        return true;\r\n    }\r\n\r\n    function freezeTokens(address _deposit, uint256 _value) onlyOwner public returns (bool) {\r\n        require(_deposit != address(0));\r\n        \r\n        frozenDeposits[_deposit] = true;\r\n        depositRepos[_deposit].frozen = _value;\r\n\r\n        emit FrozenTokens(_deposit, _value);\r\n        return true;\r\n    }\r\n\r\n    function withdraw(address _deposit, uint256 _time, uint256 _value) onlyOwner public returns (bool) {\r\n        require(_deposit != address(0));\r\n        require(_value <= depositRepos[_deposit].balance);\r\n        require(_value <= depositRepos[_deposit].balance.sub(depositRepos[_deposit].frozen));\r\n\r\n        DepositWithdraw deposWithdr = DepositWithdraw(_deposit);\r\n        return (deposWithdr.withdrawTokenToDefault(tk, _time, _value));\r\n    }\r\n\r\n    function checkWithdrawAddress(address _deposit, bytes32 _name, address _to) public view returns (bool, bool) {\r\n        uint len = depositRepos[_deposit].withdrawWallets.length;\r\n        for (uint i = 0; i < len; i = i.add(1)) {\r\n            WithdrawWallet storage wallet = depositRepos[_deposit].withdrawWallets[i];\r\n            if (_name == wallet.name) {\r\n                return(true, (_to == wallet.walletAddr));\r\n            }\r\n        }\r\n\r\n        return (false, true);\r\n    }\r\n    function withdraw(address _deposit, uint256 _time, bytes32 _name, address _to, uint256 _value) onlyOwner public returns (bool) {\r\n        require(_deposit != address(0));\r\n        require(_to != address(0));\r\n        require(_value <= depositRepos[_deposit].balance);\r\n        require(_value <= depositRepos[_deposit].balance.sub(depositRepos[_deposit].frozen));\r\n\r\n        bool exist;\r\n        bool correct;\r\n        (exist, correct) = checkWithdrawAddress(_deposit, _name, _to);\r\n        if(!exist) {\r\n            depositRepos[_deposit].withdrawWallets.push(WithdrawWallet(_name, _to));\r\n        } else if(!correct) {\r\n            return false;\r\n        }\r\n\r\n        DepositWithdraw deposWithdr = DepositWithdraw(_deposit);\r\n        return (deposWithdr.withdrawToken(tk, _time, _to, _value));        \r\n    }\r\n\r\n}",
  "sourcePath": "F:\\workspace\\dapp\\DRCWalletManager\\contracts\\DRCWalletManager.sol",
  "compiler": {
    "name": "solc",
    "version": "0.4.21+commit.dfe3193c.Emscripten.clang"
  },
  "schemaVersion": "2.0.0",
  "updatedAt": "2018-04-15T11:19:29.834Z"
}