{
  "contractName": "OwnerContract",
  "abi": [
    {
      "constant": true,
      "inputs": [],
      "name": "pendingOwnedOwner",
      "outputs": [
        {
          "name": "",
          "type": "address"
        }
      ],
      "payable": false,
      "stateMutability": "view",
      "type": "function"
    },
    {
      "constant": false,
      "inputs": [],
      "name": "claimOwnership",
      "outputs": [],
      "payable": false,
      "stateMutability": "nonpayable",
      "type": "function"
    },
    {
      "constant": false,
      "inputs": [],
      "name": "renounceOwnership",
      "outputs": [],
      "payable": false,
      "stateMutability": "nonpayable",
      "type": "function"
    },
    {
      "constant": true,
      "inputs": [],
      "name": "owner",
      "outputs": [
        {
          "name": "",
          "type": "address"
        }
      ],
      "payable": false,
      "stateMutability": "view",
      "type": "function"
    },
    {
      "constant": true,
      "inputs": [],
      "name": "ownedContract",
      "outputs": [
        {
          "name": "",
          "type": "address"
        }
      ],
      "payable": false,
      "stateMutability": "view",
      "type": "function"
    },
    {
      "constant": true,
      "inputs": [],
      "name": "start",
      "outputs": [
        {
          "name": "",
          "type": "uint256"
        }
      ],
      "payable": false,
      "stateMutability": "view",
      "type": "function"
    },
    {
      "constant": false,
      "inputs": [
        {
          "name": "_start",
          "type": "uint256"
        },
        {
          "name": "_end",
          "type": "uint256"
        }
      ],
      "name": "setLimits",
      "outputs": [],
      "payable": false,
      "stateMutability": "nonpayable",
      "type": "function"
    },
    {
      "constant": true,
      "inputs": [],
      "name": "pendingOwner",
      "outputs": [
        {
          "name": "",
          "type": "address"
        }
      ],
      "payable": false,
      "stateMutability": "view",
      "type": "function"
    },
    {
      "constant": true,
      "inputs": [],
      "name": "end",
      "outputs": [
        {
          "name": "",
          "type": "uint256"
        }
      ],
      "payable": false,
      "stateMutability": "view",
      "type": "function"
    },
    {
      "constant": false,
      "inputs": [
        {
          "name": "newOwner",
          "type": "address"
        }
      ],
      "name": "transferOwnership",
      "outputs": [],
      "payable": false,
      "stateMutability": "nonpayable",
      "type": "function"
    },
    {
      "anonymous": false,
      "inputs": [
        {
          "indexed": true,
          "name": "previousOwner",
          "type": "address"
        }
      ],
      "name": "OwnershipRenounced",
      "type": "event"
    },
    {
      "anonymous": false,
      "inputs": [
        {
          "indexed": true,
          "name": "previousOwner",
          "type": "address"
        },
        {
          "indexed": true,
          "name": "newOwner",
          "type": "address"
        }
      ],
      "name": "OwnershipTransferred",
      "type": "event"
    },
    {
      "constant": false,
      "inputs": [
        {
          "name": "_contract",
          "type": "address"
        }
      ],
      "name": "bindContract",
      "outputs": [
        {
          "name": "",
          "type": "bool"
        }
      ],
      "payable": false,
      "stateMutability": "nonpayable",
      "type": "function"
    },
    {
      "constant": false,
      "inputs": [
        {
          "name": "_nextOwner",
          "type": "address"
        }
      ],
      "name": "changeOwnershipto",
      "outputs": [],
      "payable": false,
      "stateMutability": "nonpayable",
      "type": "function"
    },
    {
      "constant": false,
      "inputs": [],
      "name": "ownedOwnershipTransferred",
      "outputs": [
        {
          "name": "",
          "type": "bool"
        }
      ],
      "payable": false,
      "stateMutability": "nonpayable",
      "type": "function"
    }
  ],
  "bytecode": "0x608060405260008054600160a060020a03191633179055610801806100256000396000f3006080604052600436106100c45763ffffffff7c01000000000000000000000000000000000000000000000000000000006000350416634902d16381146100c95780634e71e0c8146100fa578063715018a6146101115780638157d4b5146101265780638da5cb5b1461015b578063bc467a3e14610170578063be9a655514610185578063c4590d3f146101ac578063dbf35430146101c7578063e30c3978146101dc578063ede930c9146101f1578063efbe1c1c14610212578063f2fde38b14610227575b600080fd5b3480156100d557600080fd5b506100de610248565b60408051600160a060020a039092168252519081900360200190f35b34801561010657600080fd5b5061010f610257565b005b34801561011d57600080fd5b5061010f6102f6565b34801561013257600080fd5b50610147600160a060020a0360043516610355565b604080519115158252519081900360200190f35b34801561016757600080fd5b506100de6104ae565b34801561017c57600080fd5b506100de6104bd565b34801561019157600080fd5b5061019a6104cc565b60408051918252519081900360200190f35b3480156101b857600080fd5b5061010f6004356024356104d2565b3480156101d357600080fd5b506101476104fe565b3480156101e857600080fd5b506100de6105f7565b3480156101fd57600080fd5b5061010f600160a060020a0360043516610606565b34801561021e57600080fd5b5061019a610796565b34801561023357600080fd5b5061010f600160a060020a036004351661079c565b600554600160a060020a031681565b600154600160a060020a0316331461026e57600080fd5b600254431115801561028257506003544310155b151561028d57600080fd5b60015460008054604051600160a060020a0393841693909116917f8be0079c531659141344cd1fd0a4f28419497f9722a3daafe3b4186f6b6457e091a36001805460008054600160a060020a0319908116600160a060020a038416178255909116909155600255565b600054600160a060020a0316331461030d57600080fd5b60008054604051600160a060020a03909116917ff8df31144d9c2f0f6b59d69b8b98abd5459d07f2742c4df920b25aae33c6482091a260008054600160a060020a0319169055565b60008054600160a060020a0316331461036d57600080fd5b600160a060020a038216151561038257600080fd5b60048054600160a060020a031916600160a060020a0384811691909117808355604080517f8da5cb5b000000000000000000000000000000000000000000000000000000008152905130949290931692638da5cb5b928281019260209291908290030181600087803b1580156103f757600080fd5b505af115801561040b573d6000803e3d6000fd5b505050506040513d602081101561042157600080fd5b5051600160a060020a0316146104a65760048054604080517f4e71e0c80000000000000000000000000000000000000000000000000000000081529051600160a060020a0390921692634e71e0c892828201926000929082900301818387803b15801561048d57600080fd5b505af11580156104a1573d6000803e3d6000fd5b505050505b506001919050565b600054600160a060020a031681565b600454600160a060020a031681565b60035481565b600054600160a060020a031633146104e957600080fd5b808211156104f657600080fd5b600255600355565b60008054600160a060020a0316331461051657600080fd5b600454600160a060020a0316151561052d57600080fd5b60055460048054604080517f8da5cb5b0000000000000000000000000000000000000000000000000000000081529051600160a060020a039485169490921692638da5cb5b9282820192602092908290030181600087803b15801561059157600080fd5b505af11580156105a5573d6000803e3d6000fd5b505050506040513d60208110156105bb57600080fd5b5051600160a060020a031614156105f0575060048054600160a060020a031990811690915560058054909116905560016105f4565b5060005b90565b600154600160a060020a031681565b600054600160a060020a0316331461061d57600080fd5b600454600160a060020a0316151561063457600080fd5b60055460048054604080517f8da5cb5b0000000000000000000000000000000000000000000000000000000081529051600160a060020a039485169490921692638da5cb5b9282820192602092908290030181600087803b15801561069857600080fd5b505af11580156106ac573d6000803e3d6000fd5b505050506040513d60208110156106c257600080fd5b5051600160a060020a0316146107765760048054604080517ff2fde38b000000000000000000000000000000000000000000000000000000008152600160a060020a03858116948201949094529051929091169163f2fde38b9160248082019260009290919082900301818387803b15801561073d57600080fd5b505af1158015610751573d6000803e3d6000fd5b505060058054600160a060020a031916600160a060020a038516179055506107939050565b60048054600160a060020a03199081169091556005805490911690555b50565b60025481565b600054600160a060020a031633146107b357600080fd5b60018054600160a060020a031916600160a060020a03929092169190911790555600a165627a7a723058202c0e756b5efd5ac551ef3be3e36198ff68cce31633a7b045a6dcbb4001fa04900029",
  "source": "pragma solidity ^0.4.23;\r\n\r\nimport 'openzeppelin-solidity/contracts/ownership/DelayedClaimable.sol';\r\n\r\n// interface iContract {\r\n//     function transferOwnership(address _newOwner) external;\r\n//     function owner() external view returns (address);\r\n// }\r\n\r\ncontract OwnerContract is DelayedClaimable {\r\n    Claimable public ownedContract;\r\n    address public pendingOwnedOwner;\r\n    // address internal origOwner;\r\n\r\n    /**\r\n     * @dev bind a contract as its owner\r\n     *\r\n     * @param _contract the contract address that will be binded by this Owner Contract\r\n     */\r\n    function bindContract(address _contract) onlyOwner public returns (bool) {\r\n        require(_contract != address(0));\r\n        ownedContract = Claimable(_contract);\r\n        // origOwner = ownedContract.owner();\r\n\r\n        // take ownership of the owned contract\r\n        if (ownedContract.owner() != address(this)) {\r\n            ownedContract.claimOwnership();\r\n        }\r\n\r\n        return true;\r\n    }\r\n\r\n    /**\r\n     * @dev change the owner of the contract from this contract address to the original one. \r\n     *\r\n     */\r\n    // function transferOwnershipBack() onlyOwner public {\r\n    //     ownedContract.transferOwnership(origOwner);\r\n    //     ownedContract = Claimable(address(0));\r\n    //     origOwner = address(0);\r\n    // }\r\n\r\n    /**\r\n     * @dev change the owner of the contract from this contract address to another one. \r\n     *\r\n     * @param _nextOwner the contract address that will be next Owner of the original Contract\r\n     */\r\n    function changeOwnershipto(address _nextOwner)  onlyOwner public {\r\n        require(ownedContract != address(0));\r\n\r\n        if (ownedContract.owner() != pendingOwnedOwner) {\r\n            ownedContract.transferOwnership(_nextOwner);\r\n            pendingOwnedOwner = _nextOwner;\r\n            // ownedContract = Claimable(address(0));\r\n            // origOwner = address(0);\r\n        } else {\r\n            // the pending owner has already taken the ownership\r\n            ownedContract = Claimable(address(0));\r\n            pendingOwnedOwner = address(0);\r\n        }\r\n    }\r\n\r\n    /**\r\n     * @dev to confirm the owner of the owned contract has already been transferred. \r\n     *\r\n     */\r\n    function ownedOwnershipTransferred() onlyOwner public returns (bool) {\r\n        require(ownedContract != address(0));\r\n        if (ownedContract.owner() == pendingOwnedOwner) {\r\n            // the pending owner has already taken the ownership  \r\n            ownedContract = Claimable(address(0));\r\n            pendingOwnedOwner = address(0);\r\n            return true;\r\n        } else {\r\n            return false;\r\n        }\r\n    } \r\n}",
  "sourcePath": "E:\\workspace\\Dapp\\DRCWalletManager\\contracts\\OwnerContract.sol",
  "compiler": {
    "name": "solc",
    "version": "0.4.24+commit.e67f0147.Emscripten.clang"
  },
  "schemaVersion": "2.0.1",
  "updatedAt": "2018-08-30T10:00:14.424Z"
}