{
  "contractName": "HashDataCon",
  "abi": [
    {
      "constant": true,
      "inputs": [],
      "name": "owner",
      "outputs": [
        {
          "name": "",
          "type": "address"
        }
      ],
      "payable": false,
      "stateMutability": "view",
      "type": "function"
    },
    {
      "constant": false,
      "inputs": [
        {
          "name": "_upgrater",
          "type": "address"
        }
      ],
      "name": "kill",
      "outputs": [],
      "payable": false,
      "stateMutability": "nonpayable",
      "type": "function"
    },
    {
      "constant": false,
      "inputs": [
        {
          "name": "newOwner",
          "type": "address"
        }
      ],
      "name": "transferOwnership",
      "outputs": [],
      "payable": false,
      "stateMutability": "nonpayable",
      "type": "function"
    },
    {
      "constant": false,
      "inputs": [
        {
          "name": "_to",
          "type": "address"
        },
        {
          "name": "_amount",
          "type": "uint256"
        }
      ],
      "name": "withdraw",
      "outputs": [],
      "payable": false,
      "stateMutability": "nonpayable",
      "type": "function"
    },
    {
      "inputs": [],
      "payable": false,
      "stateMutability": "nonpayable",
      "type": "constructor"
    },
    {
      "payable": true,
      "stateMutability": "payable",
      "type": "fallback"
    },
    {
      "anonymous": false,
      "inputs": [
        {
          "indexed": true,
          "name": "_saver",
          "type": "address"
        },
        {
          "indexed": false,
          "name": "_hash",
          "type": "string"
        },
        {
          "indexed": false,
          "name": "_bool",
          "type": "bool"
        }
      ],
      "name": "LogInsertHash",
      "type": "event"
    },
    {
      "anonymous": false,
      "inputs": [
        {
          "indexed": true,
          "name": "_saver",
          "type": "address"
        },
        {
          "indexed": false,
          "name": "_hash",
          "type": "string"
        },
        {
          "indexed": false,
          "name": "_bool",
          "type": "bool"
        }
      ],
      "name": "LogDeleteHash",
      "type": "event"
    },
    {
      "constant": false,
      "inputs": [
        {
          "name": "_hash",
          "type": "string"
        }
      ],
      "name": "insertHash",
      "outputs": [
        {
          "name": "",
          "type": "bool"
        }
      ],
      "payable": false,
      "stateMutability": "nonpayable",
      "type": "function"
    },
    {
      "constant": false,
      "inputs": [
        {
          "name": "_hash",
          "type": "string"
        }
      ],
      "name": "deleteHash",
      "outputs": [
        {
          "name": "",
          "type": "bool"
        }
      ],
      "payable": false,
      "stateMutability": "nonpayable",
      "type": "function"
    },
    {
      "constant": true,
      "inputs": [
        {
          "name": "_hash",
          "type": "string"
        }
      ],
      "name": "selectHash",
      "outputs": [
        {
          "name": "",
          "type": "bool"
        },
        {
          "name": "",
          "type": "address"
        },
        {
          "name": "",
          "type": "uint256"
        }
      ],
      "payable": false,
      "stateMutability": "view",
      "type": "function"
    }
  ],
  "bytecode": "0x6060604052341561000f57600080fd5b336000806101000a81548173ffffffffffffffffffffffffffffffffffffffff021916908373ffffffffffffffffffffffffffffffffffffffff160217905550610c298061005e6000396000f300606060405260043610610083576000357c0100000000000000000000000000000000000000000000000000000000900463ffffffff1680638da5cb5b14610085578063a856481c146100da578063b3a5cb271461014f578063cbf0b0c0146101c4578063d951707e146101fd578063f2fde38b146102ac578063f3fef3a3146102e5575b005b341561009057600080fd5b610098610327565b604051808273ffffffffffffffffffffffffffffffffffffffff1673ffffffffffffffffffffffffffffffffffffffff16815260200191505060405180910390f35b34156100e557600080fd5b610135600480803590602001908201803590602001908080601f0160208091040260200160405190810160405280939291908181526020018383808284378201915050505050509190505061034c565b604051808215151515815260200191505060405180910390f35b341561015a57600080fd5b6101aa600480803590602001908201803590602001908080601f01602080910402602001604051908101604052809392919081815260200183838082843782019150505050505091905050610488565b604051808215151515815260200191505060405180910390f35b34156101cf57600080fd5b6101fb600480803573ffffffffffffffffffffffffffffffffffffffff16906020019091905050610569565b005b341561020857600080fd5b610258600480803590602001908201803590602001908080601f016020809104026020016040519081016040528093929190818152602001838380828437820191505050505050919050506105dd565b60405180841515151581526020018373ffffffffffffffffffffffffffffffffffffffff1673ffffffffffffffffffffffffffffffffffffffff168152602001828152602001935050505060405180910390f35b34156102b757600080fd5b6102e3600480803573ffffffffffffffffffffffffffffffffffffffff16906020019091905050610603565b005b34156102f057600080fd5b610325600480803573ffffffffffffffffffffffffffffffffffffffff169060200190919080359060200190919050506106dd565b005b6000809054906101000a900473ffffffffffffffffffffffffffffffffffffffff1681565b6000806000809054906101000a900473ffffffffffffffffffffffffffffffffffffffff1673ffffffffffffffffffffffffffffffffffffffff163373ffffffffffffffffffffffffffffffffffffffff161415156103aa57600080fd5b6103be83600161077c90919063ffffffff16565b90503373ffffffffffffffffffffffffffffffffffffffff167f86af22837241683a22308ec4984fdafbd43dedef37fed7326e7f068e2897b5268483604051808060200183151515158152602001828103825284818151815260200191508051906020019080838360005b83811015610444578082015181840152602081019050610429565b50505050905090810190601f1680156104715780820380516001836020036101000a031916815260200191505b50935050505060405180910390a280915050919050565b60008061049f8360016108a990919063ffffffff16565b90503373ffffffffffffffffffffffffffffffffffffffff167f265fa4db72c6ea63e220e0e3cac0512f403956498386708d3ce26eda2103521f8483604051808060200183151515158152602001828103825284818151815260200191508051906020019080838360005b8381101561052557808201518184015260208101905061050a565b50505050905090810190601f1680156105525780820380516001836020036101000a031916815260200191505b50935050505060405180910390a280915050919050565b6000809054906101000a900473ffffffffffffffffffffffffffffffffffffffff1673ffffffffffffffffffffffffffffffffffffffff163373ffffffffffffffffffffffffffffffffffffffff161415156105c457600080fd5b8073ffffffffffffffffffffffffffffffffffffffff16ff5b60008060006105f6846001610a5b90919063ffffffff16565b9250925092509193909250565b6000809054906101000a900473ffffffffffffffffffffffffffffffffffffffff1673ffffffffffffffffffffffffffffffffffffffff163373ffffffffffffffffffffffffffffffffffffffff1614151561065e57600080fd5b600073ffffffffffffffffffffffffffffffffffffffff168173ffffffffffffffffffffffffffffffffffffffff161415151561069a57600080fd5b806000806101000a81548173ffffffffffffffffffffffffffffffffffffffff021916908373ffffffffffffffffffffffffffffffffffffffff16021790555050565b6000809054906101000a900473ffffffffffffffffffffffffffffffffffffffff1673ffffffffffffffffffffffffffffffffffffffff163373ffffffffffffffffffffffffffffffffffffffff1614151561073857600080fd5b8173ffffffffffffffffffffffffffffffffffffffff166108fc829081150290604051600060405180830381858888f19350505050151561077857600080fd5b5050565b60008083600001836040518082805190602001908083835b6020831015156107b95780518252602082019150602081019050602083039250610794565b6001836020036101000a038019825116818451168082178552505050505050905001915050908152602001604051809103902060010154111561089e5782600001826040518082805190602001908083835b602083101515610830578051825260208201915060208101905060208303925061080b565b6001836020036101000a0380198251168184511680821785525050505050509050019150509081526020016040518091039020600080820160006101000a81549073ffffffffffffffffffffffffffffffffffffffff021916905560018201600090555050600190506108a3565b600090505b92915050565b60008083600001836040518082805190602001908083835b6020831015156108e657805182526020820191506020810190506020830392506108c1565b6001836020036101000a038019825116818451168082178552505050505050905001915050908152602001604051809103902060010154111561092c5760009050610a55565b3383600001836040518082805190602001908083835b6020831015156109675780518252602082019150602081019050602083039250610942565b6001836020036101000a038019825116818451168082178552505050505050905001915050908152602001604051809103902060000160006101000a81548173ffffffffffffffffffffffffffffffffffffffff021916908373ffffffffffffffffffffffffffffffffffffffff1602179055504283600001836040518082805190602001908083835b602083101515610a1657805182526020820191506020810190506020830392506109f1565b6001836020036101000a038019825116818451168082178552505050505050905001915050908152602001604051809103902060010181905550600190505b92915050565b60008060008085600001856040518082805190602001908083835b602083101515610a9b5780518252602082019150602081019050602083039250610a76565b6001836020036101000a0380198251168184511680821785525050505050509050019150509081526020016040518091039020600101541115610be757600185600001856040518082805190602001908083835b602083101515610b145780518252602082019150602081019050602083039250610aef565b6001836020036101000a038019825116818451168082178552505050505050905001915050908152602001604051809103902060000160009054906101000a900473ffffffffffffffffffffffffffffffffffffffff1686600001866040518082805190602001908083835b602083101515610ba55780518252602082019150602081019050602083039250610b80565b6001836020036101000a038019825116818451168082178552505050505050905001915050908152602001604051809103902060010154925092509250610bf6565b60008060008090509250925092505b92509250925600a165627a7a72305820873fe1d012604c4e35f31aebfa3fb731fd1d817fe5cd6b745aaaee03d790379e0029",
  "source": "pragma solidity ^0.4.18;\n\nlibrary HashOperateLib {\n    \n    struct ExInfo{\n        address saver;\n        uint256 saveTime;\n    }\n    \n    struct Info{\n        mapping(string=>ExInfo) hashInfo;\n    }\n\t\n\t/**\n\t * @dev insertHash,insert method\n\t * @param  _self is where the data will be saved\n\t *         _hash is input value of hash\n\t * @return bool,true is successful and false is failed\n\t */\n    function insertHash(Info storage _self, string _hash) internal returns (bool) {\n        \n        if (_self.hashInfo[_hash].saveTime > 0){\n            return false;\n        }else{\n            _self.hashInfo[_hash].saver = msg.sender;\n            _self.hashInfo[_hash].saveTime = now;\n            return true;\n        }\n    }\n    \n\t/**\n\t * @dev deleteHash,delete method\n\t * @param  _self is where the data will be saved\n\t *         _hash is input value of hash\n\t * @return bool,true is successful and false is failed\n\t */\n    function deleteHash(Info storage _self, string _hash) internal returns (bool) {\n        \n        if (_self.hashInfo[_hash].saveTime > 0){\n            delete _self.hashInfo[_hash];\n            return true;\n        }else{\n            return false;\n        }  \n    }\n    \n\t/**\n\t * @dev selectHash,select method\n\t * @param  _self is where the data will be saved\n\t *         _hash is input value of hash\n\t * @return true/false,saver,save time\n\t */\n    function selectHash(Info storage _self, string _hash) internal view returns (bool,address,uint256) {\n        if (_self.hashInfo[_hash].saveTime > 0){\n\n            return (true,_self.hashInfo[_hash].saver,_self.hashInfo[_hash].saveTime);\n        }else{\n            return (false,address(0),0);\n        }  \n    }\n}\n\ncontract OwnableCon {\n    \n    address public owner;\n    \n\t/**\n\t * @dev The Ownable contract has an owner address, \n\t *      and provides basic authorization control\n\t */\n    function OwnableCon() public {\n        owner = msg.sender;\n    }\n\n\t/**\n\t * @dev Throws when called by other account than owner\n\t */\n    modifier onlyOwner() {\n        require(msg.sender == owner);\n        _;\n    }\n\t\n\t/**\n\t * @dev Allows the owner to transfer control of the contract to a newOwner.\n\t * @param newOwner The address to transfer ownership to.\n\t */\n    function transferOwnership(address newOwner) public onlyOwner {\n        require(newOwner != address(0));\n        owner = newOwner;\n    }\n}\n\ncontract HashDataCon is OwnableCon{\n    \n\t//import the HashOperateLib for contract\n    using HashOperateLib for HashOperateLib.Info;\n    HashOperateLib.Info tempInfo;\n    \n    event LogInsertHash(address indexed _saver, string _hash, bool _bool);\n    event LogDeleteHash(address indexed _saver, string _hash, bool _bool);\n\n\t/**\n\t * @dev Constructor,not used just reserved\n\t */\n    function HashDataCon() public {\n    }\n\t\n\t/**\n\t * @dev insertHash,insert hash into contract\n\t * @param _hash is input value of hash\n\t * @return bool,true is successful and false is failed\n\t */\n    function insertHash(string _hash) public returns (bool) {\n        bool temp = tempInfo.insertHash(_hash);\n        LogInsertHash(msg.sender, _hash, temp);\n        return temp;\n    }\n    \n\t/**\n\t * @dev selectHash,select hash from contract\n\t * @param _hash is input value of hash\n\t * @return true/false,saver,save time\n\t */\n    function selectHash(string _hash) view public returns (bool,address,uint256) {\n        return (tempInfo.selectHash(_hash));\n    } \n    \n\t/**\n\t * @dev deleteHash,delete hash into contract\n\t * @param _hash is input value of hash\n\t * @return bool,true is successful and false is failed\n\t */\n    function deleteHash(string _hash) onlyOwner public returns (bool) {\n        bool temp = tempInfo.deleteHash(_hash);\n        LogDeleteHash(msg.sender, _hash, temp);\n        return temp;\n    } \n    \n\t/**\n\t * @dev kill,destroy the contract and send ether to _upgrater\n\t * @param _upgrater is where the ether will be send\n\t */\n    function kill(address _upgrater) onlyOwner public {\n        selfdestruct(_upgrater);\n    }\n\t\n\t/**\n\t * @dev withdraw,send ether to target\n\t * @param _to is where the ether will be send\n\t *        _amount is the number of the ether\n\t */\n    function withdraw(address _to, uint _amount) public onlyOwner {\n        _to.transfer(_amount);\n    }\n\t\n\t/**\n\t * @dev fallback,if the contract will receive ether\n\t */\n    function() public payable {\n    }\n}",
  "sourcePath": "/Users/zhongshaobo/myProjecct/TruffleNodeServer_V4/contracts/HashDataCon.sol",
  "compiler": {
    "name": "solc",
    "version": "0.4.19+commit.c4cbbb05.Emscripten.clang"
  },
  "schemaVersion": "2.0.0",
  "updatedAt": "2018-03-20T09:14:19.382Z"
}