{
  "contractName": "Credit",
  "abi": [
    {
      "anonymous": false,
      "inputs": [
        {
          "indexed": true,
          "name": "_address",
          "type": "address"
        },
        {
          "indexed": false,
          "name": "identity",
          "type": "string"
        },
        {
          "indexed": false,
          "name": "price",
          "type": "uint256"
        },
        {
          "indexed": false,
          "name": "dataHash",
          "type": "string"
        }
      ],
      "name": "createRecord",
      "type": "event"
    },
    {
      "constant": false,
      "inputs": [
        {
          "name": "identity",
          "type": "string"
        },
        {
          "name": "price",
          "type": "uint256"
        },
        {
          "name": "dataHash",
          "type": "string"
        }
      ],
      "name": "create",
      "outputs": [],
      "payable": false,
      "stateMutability": "nonpayable",
      "type": "function"
    },
    {
      "constant": true,
      "inputs": [],
      "name": "all",
      "outputs": [
        {
          "name": "",
          "type": "string"
        },
        {
          "name": "",
          "type": "uint256"
        },
        {
          "name": "",
          "type": "string"
        }
      ],
      "payable": false,
      "stateMutability": "view",
      "type": "function"
    }
  ],
  "bytecode": "0x6060604052341561000f57600080fd5b61059e8061001e6000396000f30060606040526004361061004c576000357c0100000000000000000000000000000000000000000000000000000000900463ffffffff16806310c4e8b014610051578063e257a37114610152575b600080fd5b341561005c57600080fd5b6100646101fb565b604051808060200184815260200180602001838103835286818151815260200191508051906020019080838360005b838110156100ae578082015181840152602081019050610093565b50505050905090810190601f1680156100db5780820380516001836020036101000a031916815260200191505b50838103825284818151815260200191508051906020019080838360005b838110156101145780820151818401526020810190506100f9565b50505050905090810190601f1680156101415780820380516001836020036101000a031916815260200191505b509550505050505060405180910390f35b341561015d57600080fd5b6101f9600480803590602001908201803590602001908080601f0160208091040260200160405190810160405280939291908181526020018383808284378201915050505050509190803590602001909190803590602001908201803590602001908080601f01602080910402602001604051908101604052809392919081815260200183838082843782019150505050505091905050610357565b005b6102036104b9565b600061020d6104b9565b60006001546002828054600181600116156101000203166002900480601f0160208091040260200160405190810160405280929190818152602001828054600181600116156101000203166002900480156102a95780601f1061027e576101008083540402835291602001916102a9565b820191906000526020600020905b81548152906001019060200180831161028c57829003601f168201915b50505050509250808054600181600116156101000203166002900480601f0160208091040260200160405190810160405280929190818152602001828054600181600116156101000203166002900480156103455780601f1061031a57610100808354040283529160200191610345565b820191906000526020600020905b81548152906001019060200180831161032857829003601f168201915b50505050509050925092509250909192565b826000908051906020019061036d9291906104cd565b5081600181905550806002908051906020019061038b9291906104cd565b503373ffffffffffffffffffffffffffffffffffffffff167f46d8f9f9184f471037a5f85b2787f0bdfe9d84cdbd0db486b6f960fc5ad91628848484604051808060200184815260200180602001838103835286818151815260200191508051906020019080838360005b838110156104115780820151818401526020810190506103f6565b50505050905090810190601f16801561043e5780820380516001836020036101000a031916815260200191505b50838103825284818151815260200191508051906020019080838360005b8381101561047757808201518184015260208101905061045c565b50505050905090810190601f1680156104a45780820380516001836020036101000a031916815260200191505b509550505050505060405180910390a2505050565b602060405190810160405280600081525090565b828054600181600116156101000203166002900490600052602060002090601f016020900481019282601f1061050e57805160ff191683800117855561053c565b8280016001018555821561053c579182015b8281111561053b578251825591602001919060010190610520565b5b509050610549919061054d565b5090565b61056f91905b8082111561056b576000816000905550600101610553565b5090565b905600a165627a7a7230582024d16137a2ada7bcb0d3612555ee48deb4f84810c1d4e5c5ab18ee2b6e08e8130029",
  "source": "pragma solidity ^0.4.2;\n\ncontract Credit {\n\n    event createRecord(address indexed _address, string identity, uint price, string dataHash);\n\n    string a;\n    uint b;\n    string c;\n\n    function create(string identity, uint256 price, string dataHash) public {\n        a = identity;\n        b = price;\n        c = dataHash;\n        createRecord(msg.sender, identity, price, dataHash);\n    }\n\n    function all() public view returns (string, uint, string) {\n        return(a, b, c);\n    }\n\n}",
  "sourcePath": "/Users/adminzhong/Work/git/backpackSource/myProjecct/TruffleWebpackDemo 2/contracts/Credit.sol",
  "compiler": {
    "name": "solc",
    "version": "0.4.19+commit.c4cbbb05.Emscripten.clang"
  },
  "schemaVersion": "2.0.0",
  "updatedAt": "2018-04-03T10:04:49.606Z"
}